{
  "address": "0x4c5859f0F772848b2D91F1D83E2Fe57935348029",
  "abi": [
    {
      "inputs": [],
      "stateMutability": "nonpayable",
      "type": "constructor"
    },
    {
      "inputs": [],
      "name": "Empty",
      "type": "error"
    },
    {
      "anonymous": false,
      "inputs": [
        {
          "indexed": false,
          "internalType": "uint8",
          "name": "version",
          "type": "uint8"
        }
      ],
      "name": "Initialized",
      "type": "event"
    },
    {
      "anonymous": false,
      "inputs": [
        {
          "indexed": false,
          "internalType": "uint256",
          "name": "proposalId",
          "type": "uint256"
        }
      ],
      "name": "ProposalCanceled",
      "type": "event"
    },
    {
      "anonymous": false,
      "inputs": [
        {
          "indexed": false,
          "internalType": "uint256",
          "name": "proposalId",
          "type": "uint256"
        },
        {
          "indexed": false,
          "internalType": "address",
          "name": "proposer",
          "type": "address"
        },
        {
          "indexed": false,
          "internalType": "address[]",
          "name": "targets",
          "type": "address[]"
        },
        {
          "indexed": false,
          "internalType": "uint256[]",
          "name": "values",
          "type": "uint256[]"
        },
        {
          "indexed": false,
          "internalType": "string[]",
          "name": "signatures",
          "type": "string[]"
        },
        {
          "indexed": false,
          "internalType": "bytes[]",
          "name": "calldatas",
          "type": "bytes[]"
        },
        {
          "indexed": false,
          "internalType": "uint256",
          "name": "startBlock",
          "type": "uint256"
        },
        {
          "indexed": false,
          "internalType": "uint256",
          "name": "endBlock",
          "type": "uint256"
        },
        {
          "indexed": false,
          "internalType": "string",
          "name": "description",
          "type": "string"
        }
      ],
      "name": "ProposalCreated",
      "type": "event"
    },
    {
      "anonymous": false,
      "inputs": [
        {
          "indexed": false,
          "internalType": "uint256",
          "name": "proposalId",
          "type": "uint256"
        }
      ],
      "name": "ProposalExecuted",
      "type": "event"
    },
    {
      "anonymous": false,
      "inputs": [
        {
          "indexed": false,
          "internalType": "uint256",
          "name": "proposalId",
          "type": "uint256"
        },
        {
          "indexed": false,
          "internalType": "uint256",
          "name": "eta",
          "type": "uint256"
        }
      ],
      "name": "ProposalQueued",
      "type": "event"
    },
    {
      "anonymous": false,
      "inputs": [
        {
          "indexed": false,
          "internalType": "uint256",
          "name": "oldProposalThreshold",
          "type": "uint256"
        },
        {
          "indexed": false,
          "internalType": "uint256",
          "name": "newProposalThreshold",
          "type": "uint256"
        }
      ],
      "name": "ProposalThresholdSet",
      "type": "event"
    },
    {
      "anonymous": false,
      "inputs": [
        {
          "indexed": false,
          "internalType": "uint256",
          "name": "id",
          "type": "uint256"
        }
      ],
      "name": "ProposalVetoed",
      "type": "event"
    },
    {
      "anonymous": false,
      "inputs": [
        {
          "indexed": false,
          "internalType": "uint256",
          "name": "oldQuorumNumerator",
          "type": "uint256"
        },
        {
          "indexed": false,
          "internalType": "uint256",
          "name": "newQuorumNumerator",
          "type": "uint256"
        }
      ],
      "name": "QuorumNumeratorUpdated",
      "type": "event"
    },
    {
      "anonymous": false,
      "inputs": [
        {
          "indexed": false,
          "internalType": "address",
          "name": "vetoer",
          "type": "address"
        }
      ],
      "name": "ResignedPower",
      "type": "event"
    },
    {
      "anonymous": false,
      "inputs": [
        {
          "indexed": false,
          "internalType": "address",
          "name": "oldTimelock",
          "type": "address"
        },
        {
          "indexed": false,
          "internalType": "address",
          "name": "newTimelock",
          "type": "address"
        }
      ],
      "name": "TimelockChange",
      "type": "event"
    },
    {
      "anonymous": false,
      "inputs": [
        {
          "indexed": true,
          "internalType": "address",
          "name": "voter",
          "type": "address"
        },
        {
          "indexed": false,
          "internalType": "uint256",
          "name": "proposalId",
          "type": "uint256"
        },
        {
          "indexed": false,
          "internalType": "uint8",
          "name": "support",
          "type": "uint8"
        },
        {
          "indexed": false,
          "internalType": "uint256",
          "name": "weight",
          "type": "uint256"
        },
        {
          "indexed": false,
          "internalType": "string",
          "name": "reason",
          "type": "string"
        }
      ],
      "name": "VoteCast",
      "type": "event"
    },
    {
      "anonymous": false,
      "inputs": [
        {
          "indexed": true,
          "internalType": "address",
          "name": "voter",
          "type": "address"
        },
        {
          "indexed": false,
          "internalType": "uint256",
          "name": "proposalId",
          "type": "uint256"
        },
        {
          "indexed": false,
          "internalType": "uint8",
          "name": "support",
          "type": "uint8"
        },
        {
          "indexed": false,
          "internalType": "uint256",
          "name": "weight",
          "type": "uint256"
        },
        {
          "indexed": false,
          "internalType": "string",
          "name": "reason",
          "type": "string"
        },
        {
          "indexed": false,
          "internalType": "bytes",
          "name": "params",
          "type": "bytes"
        }
      ],
      "name": "VoteCastWithParams",
      "type": "event"
    },
    {
      "anonymous": false,
      "inputs": [
        {
          "indexed": false,
          "internalType": "uint256",
          "name": "oldVotingDelay",
          "type": "uint256"
        },
        {
          "indexed": false,
          "internalType": "uint256",
          "name": "newVotingDelay",
          "type": "uint256"
        }
      ],
      "name": "VotingDelaySet",
      "type": "event"
    },
    {
      "anonymous": false,
      "inputs": [
        {
          "indexed": false,
          "internalType": "uint256",
          "name": "oldVotingPeriod",
          "type": "uint256"
        },
        {
          "indexed": false,
          "internalType": "uint256",
          "name": "newVotingPeriod",
          "type": "uint256"
        }
      ],
      "name": "VotingPeriodSet",
      "type": "event"
    },
    {
      "inputs": [],
      "name": "BALLOT_TYPEHASH",
      "outputs": [
        {
          "internalType": "bytes32",
          "name": "",
          "type": "bytes32"
        }
      ],
      "stateMutability": "view",
      "type": "function"
    },
    {
      "inputs": [],
      "name": "COUNTING_MODE",
      "outputs": [
        {
          "internalType": "string",
          "name": "",
          "type": "string"
        }
      ],
      "stateMutability": "pure",
      "type": "function"
    },
    {
      "inputs": [],
      "name": "EXTENDED_BALLOT_TYPEHASH",
      "outputs": [
        {
          "internalType": "bytes32",
          "name": "",
          "type": "bytes32"
        }
      ],
      "stateMutability": "view",
      "type": "function"
    },
    {
      "inputs": [
        {
          "internalType": "uint256",
          "name": "proposalId",
          "type": "uint256"
        }
      ],
      "name": "cancel",
      "outputs": [],
      "stateMutability": "nonpayable",
      "type": "function"
    },
    {
      "inputs": [
        {
          "internalType": "uint256",
          "name": "proposalId",
          "type": "uint256"
        },
        {
          "internalType": "uint8",
          "name": "support",
          "type": "uint8"
        }
      ],
      "name": "castVote",
      "outputs": [
        {
          "internalType": "uint256",
          "name": "",
          "type": "uint256"
        }
      ],
      "stateMutability": "nonpayable",
      "type": "function"
    },
    {
      "inputs": [
        {
          "internalType": "uint256",
          "name": "proposalId",
          "type": "uint256"
        },
        {
          "internalType": "uint8",
          "name": "support",
          "type": "uint8"
        },
        {
          "internalType": "uint8",
          "name": "v",
          "type": "uint8"
        },
        {
          "internalType": "bytes32",
          "name": "r",
          "type": "bytes32"
        },
        {
          "internalType": "bytes32",
          "name": "s",
          "type": "bytes32"
        }
      ],
      "name": "castVoteBySig",
      "outputs": [
        {
          "internalType": "uint256",
          "name": "",
          "type": "uint256"
        }
      ],
      "stateMutability": "nonpayable",
      "type": "function"
    },
    {
      "inputs": [
        {
          "internalType": "uint256",
          "name": "proposalId",
          "type": "uint256"
        },
        {
          "internalType": "uint8",
          "name": "support",
          "type": "uint8"
        },
        {
          "internalType": "string",
          "name": "reason",
          "type": "string"
        }
      ],
      "name": "castVoteWithReason",
      "outputs": [
        {
          "internalType": "uint256",
          "name": "",
          "type": "uint256"
        }
      ],
      "stateMutability": "nonpayable",
      "type": "function"
    },
    {
      "inputs": [
        {
          "internalType": "uint256",
          "name": "proposalId",
          "type": "uint256"
        },
        {
          "internalType": "uint8",
          "name": "support",
          "type": "uint8"
        },
        {
          "internalType": "string",
          "name": "reason",
          "type": "string"
        },
        {
          "internalType": "bytes",
          "name": "params",
          "type": "bytes"
        }
      ],
      "name": "castVoteWithReasonAndParams",
      "outputs": [
        {
          "internalType": "uint256",
          "name": "",
          "type": "uint256"
        }
      ],
      "stateMutability": "nonpayable",
      "type": "function"
    },
    {
      "inputs": [
        {
          "internalType": "uint256",
          "name": "proposalId",
          "type": "uint256"
        },
        {
          "internalType": "uint8",
          "name": "support",
          "type": "uint8"
        },
        {
          "internalType": "string",
          "name": "reason",
          "type": "string"
        },
        {
          "internalType": "bytes",
          "name": "params",
          "type": "bytes"
        },
        {
          "internalType": "uint8",
          "name": "v",
          "type": "uint8"
        },
        {
          "internalType": "bytes32",
          "name": "r",
          "type": "bytes32"
        },
        {
          "internalType": "bytes32",
          "name": "s",
          "type": "bytes32"
        }
      ],
      "name": "castVoteWithReasonAndParamsBySig",
      "outputs": [
        {
          "internalType": "uint256",
          "name": "",
          "type": "uint256"
        }
      ],
      "stateMutability": "nonpayable",
      "type": "function"
    },
    {
      "inputs": [
        {
          "internalType": "address[]",
          "name": "targets",
          "type": "address[]"
        },
        {
          "internalType": "uint256[]",
          "name": "values",
          "type": "uint256[]"
        },
        {
          "internalType": "bytes[]",
          "name": "calldatas",
          "type": "bytes[]"
        },
        {
          "internalType": "bytes32",
          "name": "descriptionHash",
          "type": "bytes32"
        }
      ],
      "name": "execute",
      "outputs": [
        {
          "internalType": "uint256",
          "name": "",
          "type": "uint256"
        }
      ],
      "stateMutability": "payable",
      "type": "function"
    },
    {
      "inputs": [
        {
          "internalType": "uint256",
          "name": "proposalId",
          "type": "uint256"
        }
      ],
      "name": "execute",
      "outputs": [],
      "stateMutability": "payable",
      "type": "function"
    },
    {
      "inputs": [
        {
          "internalType": "uint256",
          "name": "proposalId",
          "type": "uint256"
        }
      ],
      "name": "getActions",
      "outputs": [
        {
          "internalType": "address[]",
          "name": "targets",
          "type": "address[]"
        },
        {
          "internalType": "uint256[]",
          "name": "values",
          "type": "uint256[]"
        },
        {
          "internalType": "string[]",
          "name": "signatures",
          "type": "string[]"
        },
        {
          "internalType": "bytes[]",
          "name": "calldatas",
          "type": "bytes[]"
        }
      ],
      "stateMutability": "view",
      "type": "function"
    },
    {
      "inputs": [
        {
          "internalType": "uint256",
          "name": "proposalId",
          "type": "uint256"
        },
        {
          "internalType": "address",
          "name": "voter",
          "type": "address"
        }
      ],
      "name": "getReceipt",
      "outputs": [
        {
          "components": [
            {
              "internalType": "bool",
              "name": "hasVoted",
              "type": "bool"
            },
            {
              "internalType": "uint8",
              "name": "support",
              "type": "uint8"
            },
            {
              "internalType": "uint96",
              "name": "votes",
              "type": "uint96"
            }
          ],
          "internalType": "struct IGovernorCompatibilityBravoUpgradeable.Receipt",
          "name": "",
          "type": "tuple"
        }
      ],
      "stateMutability": "view",
      "type": "function"
    },
    {
      "inputs": [
        {
          "internalType": "address",
          "name": "account",
          "type": "address"
        },
        {
          "internalType": "uint256",
          "name": "blockNumber",
          "type": "uint256"
        }
      ],
      "name": "getVotes",
      "outputs": [
        {
          "internalType": "uint256",
          "name": "",
          "type": "uint256"
        }
      ],
      "stateMutability": "view",
      "type": "function"
    },
    {
      "inputs": [
        {
          "internalType": "address",
          "name": "account",
          "type": "address"
        },
        {
          "internalType": "uint256",
          "name": "blockNumber",
          "type": "uint256"
        },
        {
          "internalType": "bytes",
          "name": "params",
          "type": "bytes"
        }
      ],
      "name": "getVotesWithParams",
      "outputs": [
        {
          "internalType": "uint256",
          "name": "",
          "type": "uint256"
        }
      ],
      "stateMutability": "view",
      "type": "function"
    },
    {
      "inputs": [
        {
          "internalType": "uint256",
          "name": "proposalId",
          "type": "uint256"
        },
        {
          "internalType": "address",
          "name": "account",
          "type": "address"
        }
      ],
      "name": "hasVoted",
      "outputs": [
        {
          "internalType": "bool",
          "name": "",
          "type": "bool"
        }
      ],
      "stateMutability": "view",
      "type": "function"
    },
    {
      "inputs": [
        {
          "internalType": "address[]",
          "name": "targets",
          "type": "address[]"
        },
        {
          "internalType": "uint256[]",
          "name": "values",
          "type": "uint256[]"
        },
        {
          "internalType": "bytes[]",
          "name": "calldatas",
          "type": "bytes[]"
        },
        {
          "internalType": "bytes32",
          "name": "descriptionHash",
          "type": "bytes32"
        }
      ],
      "name": "hashProposal",
      "outputs": [
        {
          "internalType": "uint256",
          "name": "",
          "type": "uint256"
        }
      ],
      "stateMutability": "pure",
      "type": "function"
    },
    {
      "inputs": [
        {
          "internalType": "contract IVotesUpgradeable",
          "name": "_token",
          "type": "address"
        },
        {
          "internalType": "contract TimelockControllerUpgradeable",
          "name": "_timelock",
          "type": "address"
        },
        {
          "internalType": "uint256",
          "name": "_votingDelay",
          "type": "uint256"
        },
        {
          "internalType": "uint256",
          "name": "_votingPeriod",
          "type": "uint256"
        },
        {
          "internalType": "uint256",
          "name": "_levelThreshold",
          "type": "uint256"
        },
        {
          "internalType": "contract ILilyPad",
          "name": "_mainContract",
          "type": "address"
        },
        {
          "internalType": "address",
          "name": "_vetoer",
          "type": "address"
        }
      ],
      "name": "initialize",
      "outputs": [],
      "stateMutability": "nonpayable",
      "type": "function"
    },
    {
      "inputs": [],
      "name": "levelThreshold",
      "outputs": [
        {
          "internalType": "uint256",
          "name": "",
          "type": "uint256"
        }
      ],
      "stateMutability": "view",
      "type": "function"
    },
    {
      "inputs": [],
      "name": "mainContract",
      "outputs": [
        {
          "internalType": "contract ILilyPad",
          "name": "",
          "type": "address"
        }
      ],
      "stateMutability": "view",
      "type": "function"
    },
    {
      "inputs": [],
      "name": "name",
      "outputs": [
        {
          "internalType": "string",
          "name": "",
          "type": "string"
        }
      ],
      "stateMutability": "view",
      "type": "function"
    },
    {
      "inputs": [
        {
          "internalType": "address",
          "name": "",
          "type": "address"
        },
        {
          "internalType": "address",
          "name": "",
          "type": "address"
        },
        {
          "internalType": "uint256[]",
          "name": "",
          "type": "uint256[]"
        },
        {
          "internalType": "uint256[]",
          "name": "",
          "type": "uint256[]"
        },
        {
          "internalType": "bytes",
          "name": "",
          "type": "bytes"
        }
      ],
      "name": "onERC1155BatchReceived",
      "outputs": [
        {
          "internalType": "bytes4",
          "name": "",
          "type": "bytes4"
        }
      ],
      "stateMutability": "nonpayable",
      "type": "function"
    },
    {
      "inputs": [
        {
          "internalType": "address",
          "name": "",
          "type": "address"
        },
        {
          "internalType": "address",
          "name": "",
          "type": "address"
        },
        {
          "internalType": "uint256",
          "name": "",
          "type": "uint256"
        },
        {
          "internalType": "uint256",
          "name": "",
          "type": "uint256"
        },
        {
          "internalType": "bytes",
          "name": "",
          "type": "bytes"
        }
      ],
      "name": "onERC1155Received",
      "outputs": [
        {
          "internalType": "bytes4",
          "name": "",
          "type": "bytes4"
        }
      ],
      "stateMutability": "nonpayable",
      "type": "function"
    },
    {
      "inputs": [
        {
          "internalType": "address",
          "name": "",
          "type": "address"
        },
        {
          "internalType": "address",
          "name": "",
          "type": "address"
        },
        {
          "internalType": "uint256",
          "name": "",
          "type": "uint256"
        },
        {
          "internalType": "bytes",
          "name": "",
          "type": "bytes"
        }
      ],
      "name": "onERC721Received",
      "outputs": [
        {
          "internalType": "bytes4",
          "name": "",
          "type": "bytes4"
        }
      ],
      "stateMutability": "nonpayable",
      "type": "function"
    },
    {
      "inputs": [],
      "name": "powerless",
      "outputs": [
        {
          "internalType": "bool",
          "name": "",
          "type": "bool"
        }
      ],
      "stateMutability": "view",
      "type": "function"
    },
    {
      "inputs": [
        {
          "internalType": "uint256",
          "name": "proposalId",
          "type": "uint256"
        }
      ],
      "name": "proposalDeadline",
      "outputs": [
        {
          "internalType": "uint256",
          "name": "",
          "type": "uint256"
        }
      ],
      "stateMutability": "view",
      "type": "function"
    },
    {
      "inputs": [
        {
          "internalType": "uint256",
          "name": "proposalId",
          "type": "uint256"
        }
      ],
      "name": "proposalEta",
      "outputs": [
        {
          "internalType": "uint256",
          "name": "",
          "type": "uint256"
        }
      ],
      "stateMutability": "view",
      "type": "function"
    },
    {
      "inputs": [
        {
          "internalType": "uint256",
          "name": "proposalId",
          "type": "uint256"
        }
      ],
      "name": "proposalSnapshot",
      "outputs": [
        {
          "internalType": "uint256",
          "name": "",
          "type": "uint256"
        }
      ],
      "stateMutability": "view",
      "type": "function"
    },
    {
      "inputs": [],
      "name": "proposalThreshold",
      "outputs": [
        {
          "internalType": "uint256",
          "name": "",
          "type": "uint256"
        }
      ],
      "stateMutability": "view",
      "type": "function"
    },
    {
      "inputs": [
        {
          "internalType": "uint256",
          "name": "proposalId",
          "type": "uint256"
        }
      ],
      "name": "proposals",
      "outputs": [
        {
          "internalType": "uint256",
          "name": "id",
          "type": "uint256"
        },
        {
          "internalType": "address",
          "name": "proposer",
          "type": "address"
        },
        {
          "internalType": "uint256",
          "name": "eta",
          "type": "uint256"
        },
        {
          "internalType": "uint256",
          "name": "startBlock",
          "type": "uint256"
        },
        {
          "internalType": "uint256",
          "name": "endBlock",
          "type": "uint256"
        },
        {
          "internalType": "uint256",
          "name": "forVotes",
          "type": "uint256"
        },
        {
          "internalType": "uint256",
          "name": "againstVotes",
          "type": "uint256"
        },
        {
          "internalType": "uint256",
          "name": "abstainVotes",
          "type": "uint256"
        },
        {
          "internalType": "bool",
          "name": "canceled",
          "type": "bool"
        },
        {
          "internalType": "bool",
          "name": "executed",
          "type": "bool"
        }
      ],
      "stateMutability": "view",
      "type": "function"
    },
    {
      "inputs": [
        {
          "internalType": "address[]",
          "name": "targets",
          "type": "address[]"
        },
        {
          "internalType": "uint256[]",
          "name": "values",
          "type": "uint256[]"
        },
        {
          "internalType": "bytes[]",
          "name": "calldatas",
          "type": "bytes[]"
        },
        {
          "internalType": "string",
          "name": "description",
          "type": "string"
        }
      ],
      "name": "propose",
      "outputs": [
        {
          "internalType": "uint256",
          "name": "",
          "type": "uint256"
        }
      ],
      "stateMutability": "nonpayable",
      "type": "function"
    },
    {
      "inputs": [
        {
          "internalType": "address[]",
          "name": "targets",
          "type": "address[]"
        },
        {
          "internalType": "uint256[]",
          "name": "values",
          "type": "uint256[]"
        },
        {
          "internalType": "string[]",
          "name": "signatures",
          "type": "string[]"
        },
        {
          "internalType": "bytes[]",
          "name": "calldatas",
          "type": "bytes[]"
        },
        {
          "internalType": "string",
          "name": "description",
          "type": "string"
        }
      ],
      "name": "propose",
      "outputs": [
        {
          "internalType": "uint256",
          "name": "",
          "type": "uint256"
        }
      ],
      "stateMutability": "nonpayable",
      "type": "function"
    },
    {
      "inputs": [
        {
          "internalType": "address[]",
          "name": "targets",
          "type": "address[]"
        },
        {
          "internalType": "uint256[]",
          "name": "values",
          "type": "uint256[]"
        },
        {
          "internalType": "bytes[]",
          "name": "calldatas",
          "type": "bytes[]"
        },
        {
          "internalType": "bytes32",
          "name": "descriptionHash",
          "type": "bytes32"
        }
      ],
      "name": "queue",
      "outputs": [
        {
          "internalType": "uint256",
          "name": "",
          "type": "uint256"
        }
      ],
      "stateMutability": "nonpayable",
      "type": "function"
    },
    {
      "inputs": [
        {
          "internalType": "uint256",
          "name": "proposalId",
          "type": "uint256"
        }
      ],
      "name": "queue",
      "outputs": [],
      "stateMutability": "nonpayable",
      "type": "function"
    },
    {
      "inputs": [
        {
          "internalType": "uint256",
          "name": "blockNumber",
          "type": "uint256"
        }
      ],
      "name": "quorum",
      "outputs": [
        {
          "internalType": "uint256",
          "name": "",
          "type": "uint256"
        }
      ],
      "stateMutability": "view",
      "type": "function"
    },
    {
      "inputs": [],
      "name": "quorumDenominator",
      "outputs": [
        {
          "internalType": "uint256",
          "name": "",
          "type": "uint256"
        }
      ],
      "stateMutability": "view",
      "type": "function"
    },
    {
      "inputs": [
        {
          "internalType": "uint256",
          "name": "blockNumber",
          "type": "uint256"
        }
      ],
      "name": "quorumNumerator",
      "outputs": [
        {
          "internalType": "uint256",
          "name": "",
          "type": "uint256"
        }
      ],
      "stateMutability": "view",
      "type": "function"
    },
    {
      "inputs": [],
      "name": "quorumNumerator",
      "outputs": [
        {
          "internalType": "uint256",
          "name": "",
          "type": "uint256"
        }
      ],
      "stateMutability": "view",
      "type": "function"
    },
    {
      "inputs": [],
      "name": "quorumVotes",
      "outputs": [
        {
          "internalType": "uint256",
          "name": "",
          "type": "uint256"
        }
      ],
      "stateMutability": "view",
      "type": "function"
    },
    {
      "inputs": [
        {
          "internalType": "address",
          "name": "target",
          "type": "address"
        },
        {
          "internalType": "uint256",
          "name": "value",
          "type": "uint256"
        },
        {
          "internalType": "bytes",
          "name": "data",
          "type": "bytes"
        }
      ],
      "name": "relay",
      "outputs": [],
      "stateMutability": "nonpayable",
      "type": "function"
    },
    {
      "inputs": [],
      "name": "resignPower",
      "outputs": [],
      "stateMutability": "nonpayable",
      "type": "function"
    },
    {
      "inputs": [
        {
          "internalType": "uint256",
          "name": "_levelThreshold",
          "type": "uint256"
        }
      ],
      "name": "setLevelThreshold",
      "outputs": [],
      "stateMutability": "nonpayable",
      "type": "function"
    },
    {
      "inputs": [
        {
          "internalType": "uint256",
          "name": "newProposalThreshold",
          "type": "uint256"
        }
      ],
      "name": "setProposalThreshold",
      "outputs": [],
      "stateMutability": "nonpayable",
      "type": "function"
    },
    {
      "inputs": [
        {
          "internalType": "uint256",
          "name": "newVotingDelay",
          "type": "uint256"
        }
      ],
      "name": "setVotingDelay",
      "outputs": [],
      "stateMutability": "nonpayable",
      "type": "function"
    },
    {
      "inputs": [
        {
          "internalType": "uint256",
          "name": "newVotingPeriod",
          "type": "uint256"
        }
      ],
      "name": "setVotingPeriod",
      "outputs": [],
      "stateMutability": "nonpayable",
      "type": "function"
    },
    {
      "inputs": [
        {
          "internalType": "uint256",
          "name": "proposalId",
          "type": "uint256"
        }
      ],
      "name": "state",
      "outputs": [
        {
          "internalType": "enum IGovernorUpgradeable.ProposalState",
          "name": "",
          "type": "uint8"
        }
      ],
      "stateMutability": "view",
      "type": "function"
    },
    {
      "inputs": [
        {
          "internalType": "bytes4",
          "name": "interfaceId",
          "type": "bytes4"
        }
      ],
      "name": "supportsInterface",
      "outputs": [
        {
          "internalType": "bool",
          "name": "",
          "type": "bool"
        }
      ],
      "stateMutability": "view",
      "type": "function"
    },
    {
      "inputs": [],
      "name": "timelock",
      "outputs": [
        {
          "internalType": "address",
          "name": "",
          "type": "address"
        }
      ],
      "stateMutability": "view",
      "type": "function"
    },
    {
      "inputs": [],
      "name": "token",
      "outputs": [
        {
          "internalType": "contract IVotesUpgradeable",
          "name": "",
          "type": "address"
        }
      ],
      "stateMutability": "view",
      "type": "function"
    },
    {
      "inputs": [
        {
          "internalType": "uint256",
          "name": "newQuorumNumerator",
          "type": "uint256"
        }
      ],
      "name": "updateQuorumNumerator",
      "outputs": [],
      "stateMutability": "nonpayable",
      "type": "function"
    },
    {
      "inputs": [
        {
          "internalType": "contract TimelockControllerUpgradeable",
          "name": "newTimelock",
          "type": "address"
        }
      ],
      "name": "updateTimelock",
      "outputs": [],
      "stateMutability": "nonpayable",
      "type": "function"
    },
    {
      "inputs": [],
      "name": "version",
      "outputs": [
        {
          "internalType": "string",
          "name": "",
          "type": "string"
        }
      ],
      "stateMutability": "view",
      "type": "function"
    },
    {
      "inputs": [
        {
          "internalType": "uint256",
          "name": "proposalId",
          "type": "uint256"
        },
        {
          "internalType": "bytes32",
          "name": "descriptionHash",
          "type": "bytes32"
        }
      ],
      "name": "veto",
      "outputs": [],
      "stateMutability": "nonpayable",
      "type": "function"
    },
    {
      "inputs": [],
      "name": "vetoer",
      "outputs": [
        {
          "internalType": "address",
          "name": "",
          "type": "address"
        }
      ],
      "stateMutability": "view",
      "type": "function"
    },
    {
      "inputs": [],
      "name": "votingDelay",
      "outputs": [
        {
          "internalType": "uint256",
          "name": "",
          "type": "uint256"
        }
      ],
      "stateMutability": "view",
      "type": "function"
    },
    {
      "inputs": [],
      "name": "votingPeriod",
      "outputs": [
        {
          "internalType": "uint256",
          "name": "",
          "type": "uint256"
        }
      ],
      "stateMutability": "view",
      "type": "function"
    },
    {
      "stateMutability": "payable",
      "type": "receive"
    }
  ],
  "numDeployments": 1,
  "bytecode": "0x60808060405234620000c6576000549060ff8260081c1662000074575060ff8082161062000038575b6040516157fb9081620000cc8239f35b60ff90811916176000557f7f26b83ff96e1f2b6a682f133852f6798a09c465da95921460cefb3847402498602060405160ff8152a13862000028565b62461bcd60e51b815260206004820152602760248201527f496e697469616c697a61626c653a20636f6e747261637420697320696e697469604482015266616c697a696e6760c81b6064820152608490fd5b600080fdfe60806040526004361015610033575b361561001957600080fd5b6001600160a01b0361022a5416300361002e57005b600080fd5b60003560e01c8063013cf08b1461306b57806301ffc9a714612f3557806302a251a314612f165780630342018114612e1257806306f3f9e614612b6457806306fdde0314612a905780630729da0b146124b5578063150b7a0214612447578063160cbed71461242b57806324bc1a64146123785780632656227d146123615780632c2b380d146122025780632d63f693146121cd5780632fe3e26114612192578063328dd982146121275780633932abb1146121085780633bccf4fd146120445780633e4f49e61461201557806340e58ee514611f1b5780634385963214611ec957806348f2410414611eaa57806354fd4d5014611e7a5780635678138814611e3f5780635f398a1414611dcf57806360c4247f14611db157806370b0f66014611d505780637b3c71d314611ced5780637d5e81e2146116e45780638477224a146116c057806397c3d334146116a45780639a802a6d1461161d578063a7713a7014611602578063a890c9101461154d578063ab58fb8e1461152f578063b58131b014611510578063bc197c811461146f578063c01f9e371461142d578063c0555a0a146111fe578063c28bc2fa1461100f578063c59057e414610feb578063d270e7ab14610fc3578063d33219b414610f9b578063d8bff44014610f73578063da95691a14610849578063dd4e2ba5146107e7578063ddf0b00914610796578063deaaa7cc1461075b578063e23a9a52146106a7578063ea0217cf14610646578063eb9019d41461059e578063ebd5fbe4146104f3578063ece40cc114610463578063f23a6e61146103f5578063f8ce560a1461032f578063fc0c546a146103075763fe0d94c10361000e57602036600319011261002e5760043560005261019360205261030560406000206102e16102cf60038301613e9b565b6102db60048401613e9b565b9061403e565b6009820154916102ff60026102f860018401613f78565b9201613fd2565b90613769565b005b3461002e57600036600319011261002e5760206001600160a01b036101c55416604051908152f35b3461002e5760208060031936011261002e576024600435826001600160a01b036101c5541660405193848092632394e7a360e21b82528560048301525afa9182156103e9576000926103b8575b5061038690614b0a565b81600019048111821515166103a2576064906040519202048152f35b634e487b7160e01b600052601160045260246000fd5b9091508281813d83116103e2575b6103d08183613228565b8101031261002e57519061038661037c565b503d6103c6565b6040513d6000823e3d90fd5b3461002e5760a036600319011261002e5761040e61334e565b50610417613338565b5060843567ffffffffffffffff811161002e576104389036906004016132d2565b5060206040517ff23a6e61000000000000000000000000000000000000000000000000000000008152f35b3461002e57602036600319011261002e576004356001600160a01b0361022a541661048f813314613e50565b30036104cd575b6101637fccb45da8d5717e6c4544694297c4ba5cf151d455c9bb0ed4fc7a38411bc05461604082548151908152846020820152a155005b6104d73636613266565b602081519101205b806104e861506a565b036104df5750610496565b3461002e57602036600319011261002e576004356001600160a01b0361022a541661051f813314613e50565b3003610578575b61025e805482146105345755005b606460405162461bcd60e51b815260206004820152601f60248201527f4c696c79506164476f7665726e6f723a3a43757272656e742056616c756521006044820152fd5b6105823636613266565b602081519101205b8061059361506a565b0361058a5750610526565b3461002e57604036600319011261002e576105b761334e565b60006040516105c58161320c565b5260206001600160a01b036044816101c55416936040519485938492630748d63560e31b845216600483015260243560248301525afa80156103e957600090610614575b602090604051908152f35b506020813d821161063e575b8161062d60209383613228565b8101031261002e5760209051610609565b3d9150610620565b3461002e57602036600319011261002e576001600160a01b0361022a541661066f813314613e50565b3003610681575b6103056004356146f2565b61068b3636613266565b602081519101205b8061069c61506a565b036106935750610676565b3461002e57604036600319011261002e576106c0613338565b6000604080516106cf816131a4565b82815282602082015201526004356000526101936020526001600160a01b03600860406000200191166000526020526060604060002060405190610712826131a4565b5460ff811615159182815260ff60406020830192828560081c16845201916bffffffffffffffffffffffff809460101c1683526040519485525116602084015251166040820152f35b3461002e57600036600319011261002e5760206040517f150214d74d59b7d1e90c73fc22ef3d991dd0a76b046543d4d80ab92d2a50328f8152f35b3461002e57602036600319011261002e5760043560005261019360205261030560406000206107ca6102cf60038301613e9b565b6009820154916107e160026102f860018401613f78565b9061484b565b3461002e57600036600319011261002e5761084560405161080781613188565b601a81527f737570706f72743d627261766f2671756f72756d3d627261766f0000000000006020820152604051918291602083526020830190613313565b0390f35b3461002e5760a036600319011261002e5760043567ffffffffffffffff811161002e5761087a90369060040161337c565b60243567ffffffffffffffff811161002e5761089a9036906004016133ea565b9060443567ffffffffffffffff811161002e573660238201121561002e5780600401356108c681613364565b916108d46040519384613228565b8183526024602084019260051b8201019036821161002e5760248101925b828410610f43575050505060643567ffffffffffffffff811161002e5761091d903690600401613448565b6084359067ffffffffffffffff821161002e576109416109559236906004016132d2565b926109508483838989336141b6565b61403e565b91602460006001600160a01b0361025c54166040519283809263156d12cb60e11b82523360048301525afa9081156103e957600090600092610d17575b5061025e5411610cad5715610c43576109b882846109b081516154cc565b8785336141b6565b60001943014381116103a2576109ce90336139cd565b6101635411610bd9576109e98251602084012084868461366c565b926109f78251865114615501565b610a048251825114615501565b815115610b95578360005261013060205260406000209067ffffffffffffffff610a2d836136d0565b5116610b47576020957f7d84a6263ae0d98d3329bd7b46bb4e8d6f98cd35a7adb45c274c8b7fd5ebd5e0948693610b23610b3c94610b15610a82610a704361558e565b610a7c6101615461558e565b90615572565b9567ffffffffffffffff610aa1610a9b6101625461558e565b89615572565b97169667ffffffffffffffff60018119978a898254161781550191168096825416179055610b07610ad28b516154cc565b91610af96040519c8d9c8d5260208d903391015260408d61012091829101528d019061352c565b908b820360608d0152613569565b9089820360808b015261359d565b9087820360a089015261359d565b9260c086015260e0850152838203610100850152613313565b0390a1604051908152f35b608460405162461bcd60e51b815260206004820152602160248201527f476f7665726e6f723a2070726f706f73616c20616c72656164792065786973746044820152607360f81b6064820152fd5b606460405162461bcd60e51b815260206004820152601860248201527f476f7665726e6f723a20656d7074792070726f706f73616c00000000000000006044820152fd5b608460405162461bcd60e51b815260206004820152603160248201527f476f7665726e6f723a2070726f706f73657220766f7465732062656c6f77207060448201527f726f706f73616c207468726573686f6c640000000000000000000000000000006064820152fd5b608460405162461bcd60e51b815260206004820152602760248201527f5768617420796f75206469642077726f6e67206e6f773f20596f75277265206260448201527f6c6f636b656421000000000000000000000000000000000000000000000000006064820152fd5b608460405162461bcd60e51b815260206004820152602760248201527f47657420796f7572204c6576656c204869676865722120436f6e74726962757460448201527f65204d6f726521000000000000000000000000000000000000000000000000006064820152fd5b9150503d90816000823e610d2b8282613228565b60e081838101031261002e57610d4081615166565b50604081015190610d5360608201615166565b9260a082015167ffffffffffffffff811161002e57818301601f82850101121561002e5780830151906020610d8783613364565b610d946040519182613228565b838152019083850160208460051b83880101011161002e5790602082860101915b60208460051b82880101018310610f2f575050505060c08201519167ffffffffffffffff831161002e57818101601f84830101121561002e5782810151916020610dfe84613364565b610e0b6040519182613228565b848152019080830160208560051b87860101011161002e57602085840101915b60208560051b87860101018310610e485750505050505086610992565b82519067ffffffffffffffff821161002e576080858801830184870103601f19011261002e5760405190610e7b826131d4565b8588018301602081810151845260408083015191850191909152606082015190840152608001519067ffffffffffffffff821161002e57848701603f83868c8b01010101121561002e57602082858b8a01010101519289886040868689610ee18361324a565b95610eee85519788613228565b8387528c86019501010101011161002e57610f1d602096958a60408998978f988a998a880194010101016132f0565b60608201528152019301929050610e2b565b602080809385518152019301929150610db5565b833567ffffffffffffffff811161002e57602091610f688392602436918701016132d2565b8152019301926108f2565b3461002e57600036600319011261002e5760206001600160a01b0361025d5416604051908152f35b3461002e57600036600319011261002e5760206001600160a01b0361022a5416604051908152f35b3461002e57600036600319011261002e5760206001600160a01b0361025c5416604051908152f35b3461002e576020611007610ffe366134c9565b9291909161366c565b604051908152f35b3461002e57606036600319011261002e5761102861334e565b60243560443567ffffffffffffffff811161002e5761104b90369060040161315a565b906001600160a01b0361022a5416611064813314613e50565b30036111d8575b61107691369161329b565b9160405191611084836131a4565b602983527f416464726573733a206c6f772d6c6576656c2063616c6c20776974682076616c60208401527f7565206661696c65640000000000000000000000000000000000000000000000604084015280471061116e57813b1561112a57836000928392602061030597519301915af13d15611122573d906111058261324a565b916111136040519384613228565b82523d6000602084013e614cce565b606090614cce565b606460405162461bcd60e51b815260206004820152601d60248201527f416464726573733a2063616c6c20746f206e6f6e2d636f6e74726163740000006044820152fd5b608460405162461bcd60e51b815260206004820152602660248201527f416464726573733a20696e73756666696369656e742062616c616e636520666f60448201527f722063616c6c00000000000000000000000000000000000000000000000000006064820152fd5b6111e23636613266565b602081519101205b806111f361506a565b036111ea575061106b565b3461002e57604036600319011261002e576004356001600160a01b0361025d541680156113c357330361137f5761123481615173565b6008811015611369576007146112ff5760ff61025f54166112955760208161128b61127f7fde0cea2a3a0097cc3d981d40c375407760e85bc9c5e69aea449ac3885f8615c69461466d565b9190506024359261560d565b50604051908152a1005b608460405162461bcd60e51b815260206004820152602560248201527f4c696c7950616444414f3a3a7665746f3a205665746f20706f776572206f627360448201527f6f6c6574650000000000000000000000000000000000000000000000000000006064820152fd5b608460405162461bcd60e51b815260206004820152602f60248201527f4c696c7950616444414f3a3a7665746f3a2063616e6e6f74207665746f20657860448201527f6563757465642070726f706f73616c00000000000000000000000000000000006064820152fd5b634e487b7160e01b600052602160045260246000fd5b606460405162461bcd60e51b815260206004820152601d60248201527f4c696c7950616444414f3a3a7665746f3a206f6e6c79207665746f65720000006044820152fd5b608460405162461bcd60e51b815260206004820152602360248201527f4c696c7950616444414f3a3a7665746f3a207665746f20706f7765722062757260448201527f6e656400000000000000000000000000000000000000000000000000000000006064820152fd5b3461002e57602036600319011261002e57600435600052610130602052602067ffffffffffffffff61146560016040600020016136d0565b5116604051908152f35b3461002e5760a036600319011261002e5761148861334e565b50611491613338565b5067ffffffffffffffff60443581811161002e576114b39036906004016133ea565b5060643581811161002e576114cc9036906004016133ea565b5060843590811161002e576114e59036906004016132d2565b5060206040517fbc197c81000000000000000000000000000000000000000000000000000000008152f35b3461002e57600036600319011261002e57602061016354604051908152f35b3461002e57602036600319011261002e576020611007600435614799565b3461002e57602036600319011261002e5761156661334e565b6001600160a01b0361022a9181835416611581813314613e50565b30036115dc575b73ffffffffffffffffffffffffffffffffffffffff19907f08f74ea46ef7894f65eabfb5e6e695de773a000b47c529ab559178069b226401604084865493169481519084168152856020820152a116179055005b6115e63636613266565b602081519101205b806115f761506a565b036115ee5750611588565b3461002e57600036600319011261002e576020611007614abc565b3461002e57606036600319011261002e5761163661334e565b60443567ffffffffffffffff811161002e576116569036906004016132d2565b5060206001600160a01b036044816101c55416936040519485938492630748d63560e31b845216600483015260243560248301525afa80156103e95760009061061457602090604051908152f35b3461002e57600036600319011261002e57602060405160648152f35b3461002e57600036600319011261002e57602060ff61025f54166040519015158152f35b3461002e57608036600319011261002e5760043567ffffffffffffffff811161002e5761171590369060040161337c565b60243567ffffffffffffffff811161002e576117359036906004016133ea565b90604491823567ffffffffffffffff811161002e57611758903690600401613448565b9260643567ffffffffffffffff811161002e576117799036906004016132d2565b90602460006001600160a01b0361025c54166040519283809263156d12cb60e11b82523360048301525afa9081156103e957600090600092611ad9575b5061025e5411611a6f5715611a05576117dc82866117d481516154cc565b8688336141b6565b60001943014381116103a2576117f290336139cd565b610163541161199b578151946118106020968785012082868861366c565b9461181e8151865114615501565b61182b8151835114615501565b8051156119585785600052610130875260406000209267ffffffffffffffff611853856136d0565b511661190b57509386938693610b23610b3c94610b157f7d84a6263ae0d98d3329bd7b46bb4e8d6f98cd35a7adb45c274c8b7fd5ebd5e099610b0761189a610a704361558e565b9767ffffffffffffffff6118b96118b36101625461558e565b8b615572565b99169867ffffffffffffffff60018119998c8b8254161781550191168098825416179055610af96118ea84516154cc565b93604051809e819e82523391015260408d61012091829101528d019061352c565b877f476f7665726e6f723a2070726f706f73616c20616c72656164792065786973746084926040519262461bcd60e51b8452600484015260216024840152820152607360f81b6064820152fd5b6064877f476f7665726e6f723a20656d7074792070726f706f73616c0000000000000000856040519262461bcd60e51b8452600484015260186024840152820152fd5b6084907f476f7665726e6f723a2070726f706f73657220766f7465732062656c6f7720706040519162461bcd60e51b835260206004840152603160248401528201527f726f706f73616c207468726573686f6c640000000000000000000000000000006064820152fd5b6084907f5768617420796f75206469642077726f6e67206e6f773f20596f7527726520626040519162461bcd60e51b835260206004840152602760248401528201527f6c6f636b656421000000000000000000000000000000000000000000000000006064820152fd5b6084827f47657420796f7572204c6576656c204869676865722120436f6e7472696275746040519162461bcd60e51b835260206004840152602760248401528201527f65204d6f726521000000000000000000000000000000000000000000000000006064820152fd5b9150503d90816000823e611aed8282613228565b60e081838101031261002e57611b0281615166565b50604081015190611b1560608201615166565b9260a082015167ffffffffffffffff811161002e578201818301601f8201121561002e578051602080611b4783613364565b611b546040519182613228565b838152019160051b83010191838501831161002e57602001905b828210611cdd5750505060c08201519167ffffffffffffffff831161002e57818101601f84830101121561002e5782810151916020611bac84613364565b611bb96040519182613228565b848152019080830160208560051b87860101011161002e57602085840101915b60208560051b87860101018310611bf657505050505050876117b6565b82519067ffffffffffffffff821161002e576080858801830184870103601f19011261002e5760405190611c29826131d4565b8588018301602081810151845260408083015191850191909152606082015190840152608001519067ffffffffffffffff821161002e57848701603f83868c8b01010101121561002e57602082858b8a01010101519289886040868689611c8f8361324a565b95611c9c85519788613228565b8387528c86019501010101011161002e57611ccb602096958a60408998978f988a998a880194010101016132f0565b60608201528152019301929050611bd9565b8151815260209182019101611b6e565b3461002e57606036600319011261002e57611d0661314a565b60443567ffffffffffffffff811161002e57602091611d36611d2f61100793369060040161315a565b369161329b565b60405191611d438361320c565b6000835233600435613a52565b3461002e57602036600319011261002e576001600160a01b0361022a5416611d79813314613e50565b3003611d8b575b6103056004356146bb565b611d953636613266565b602081519101205b80611da661506a565b03611d9d5750611d80565b3461002e57602036600319011261002e576020611007600435614b0a565b3461002e57608036600319011261002e57611de861314a565b67ffffffffffffffff9060443582811161002e57611e0a90369060040161315a565b909160643593841161002e57611e3561100793611e2d60209636906004016132d2565b93369161329b565b9033600435613a52565b3461002e57604036600319011261002e576020611007611e5d61314a565b604051611e698161320c565b6000815260405191611d438361320c565b3461002e57600036600319011261002e57610845611e96613633565b604051918291602083526020830190613313565b3461002e57600036600319011261002e57602061025e54604051908152f35b3461002e57604036600319011261002e57611ee2613338565b6004356000526101936020526001600160a01b0360086040600020019116600052602052602060ff604060002054166040519015158152f35b3461002e57602036600319011261002e5760043560005261019360205260406000206001600160a01b03815416803314908115611ff3575b5015611f895780611f6c6102cf60036103059401613e9b565b600982015491611f8360026102f860018401613f78565b9061560d565b608460405162461bcd60e51b815260206004820152602760248201527f476f7665726e6f72427261766f3a2070726f706f7365722061626f766520746860448201527f726573686f6c64000000000000000000000000000000000000000000000000006064820152fd5b905060001943014381116103a25761200a916139cd565b610163541182611f53565b3461002e57602036600319011261002e57612031600435615173565b6040516008821015611369576020918152f35b3461002e5760a036600319011261002e5760043561206061314a565b6044359160ff8316830361002e576120e1611007926120d9602095604051878101917f150214d74d59b7d1e90c73fc22ef3d991dd0a76b046543d4d80ab92d2a50328f835286604083015260ff85166060830152606082526120c1826131d4565b6120d46084359360643593519020614f50565b614e9b565b929092614d43565b604051916120ee8361320c565b60008352604051936120ff8561320c565b60008552613a52565b3461002e57600036600319011261002e57602061016154604051908152f35b3461002e57602036600319011261002e5761216861217661084561218461214f60043561466d565b939295909160405197889760808952608089019061352c565b908782036020890152613569565b90858203604087015261359d565b90838203606085015261359d565b3461002e57600036600319011261002e5760206040517fb3b3f3b703cd84ce352197dcff232b1b5d3cfb2025ce47cf04742d0651f1af888152f35b3461002e57602036600319011261002e57600435600052610130602052602067ffffffffffffffff61146560406000206136d0565b3461002e57600036600319011261002e576001600160a01b0361025d5416801561231d5733036122b35761025f805460ff811661226f5760019060ff19161790557f4597957407a4f3544843c971089b565a41eea43fd0e75a739aa36f074652f09e6020604051338152a1005b606460405162461bcd60e51b815260206004820152601c60248201527f4c696c7950616444414f3a20616c72656164792072657369676e6564000000006044820152fd5b608460405162461bcd60e51b815260206004820152602260248201527f4c696c7950616444414f3a206f6e6c79207665746f65722063616e207265736960448201527f676e0000000000000000000000000000000000000000000000000000000000006064820152fd5b606460405162461bcd60e51b815260206004820152601d60248201527f4c696c7950616444414f3a207665746f20706f776572206275726e65640000006044820152fd5b602061100761236f366134c9565b92919091613769565b3461002e57600036600319011261002e576000198043014381116103a25760249060206001600160a01b036101c5541660405193848092632394e7a360e21b82528560048301525afa9182156103e9576000926123f6575b506123db8291614b0a565b92048211811515166103a25760646020926040519202048152f35b91506020823d8211612423575b8161241060209383613228565b8101031261002e576123db9151916123d0565b3d9150612403565b3461002e57602061100761243e366134c9565b9291909161484b565b3461002e57608036600319011261002e5761246061334e565b50612469613338565b5060643567ffffffffffffffff811161002e5761248a9036906004016132d2565b5060206040517f150b7a02000000000000000000000000000000000000000000000000000000008152f35b3461002e5760e036600319011261002e576004356001600160a01b0380821680920361002e576124e3613338565b9160a4359282841680940361002e5760c4359183831680930361002e576000549260ff95868560081c161593848095612a84575b8015612a6e575b15612a0457600195858760ff198316176000556129f2575b506040519661254488613188565b600f88526020976125af8982017f4c696c79506164476f7665726e6f72000000000000000000000000000000000081528b60005460081c1690612586826150f5565b61258e613633565b90612598836150f5565b84519020908c8151910120906065556066556150f5565b805167ffffffffffffffff81116129dc578061012f926125cf84546135f9565b8c601f8211612983575b50508b90601f8311600114612902576000926128f7575b5050600019600383901b1c191690891b1790555b61261d8960005460081c16612618816150f5565b6150f5565b6126286044356146bb565b6126336064356146f2565b866101637fccb45da8d5717e6c4544694297c4ba5cf151d455c9bb0ed4fc7a38411bc05461604082548151908152848d820152a1556126b98960005460081c1661267c816150f5565b612685816150f5565b61268e816150f5565b73ffffffffffffffffffffffffffffffffffffffff19966101c59088825416179055612618816150f5565b6126c1614abc565b801515806128ec575b6128b8575b6101f9546126db614d12565b5080151580612893575b156127eb5760001981019081116103a2577f0553476bf02ef2726e8ce5ced78d63e26e602e4a2257b1f559418e24b463399791612723604092614ad3565b50640a0000000063ffffffff8254161790555b8151908152600a8b820152a1612757600054998a60081c16612618816150f5565b8461022a927f08f74ea46ef7894f65eabfb5e6e695de773a000b47c529ab559178069b226401604084865493169481519084168152858d820152a11617905561025c908382541617905561025d9182541617905560843561025e556127b857005b7f7f26b83ff96e1f2b6a682f133852f6798a09c465da95921460cefb38474024989261ff001916600055604051908152a1005b5063ffffffff804311612840577f0553476bf02ef2726e8ce5ced78d63e26e602e4a2257b1f559418e24b46339979161283b60409283519061282c82613188565b43168152600a8d820152614c6c565b612736565b60848a6040519062461bcd60e51b82526004820152602660248201527f53616665436173743a2076616c756520646f65736e27742066697420696e203360448201526532206269747360d01b6064820152fd5b5060001981018181116103a2576128ae63ffffffff91614ad3565b50541643146126e5565b6128e76128c482614fec565b6001600160e01b03604051916128d983613188565b60008352168b820152614c6c565b6126cf565b506101f954156126ca565b015190508c806125f0565b60008581528c94507f232da9e50dad2971456a78fb5cd6ff6b75019984d6e918139ce990999420f979929190601f198516908f5b82821061296c5750508411612953575b505050811b019055612604565b015160001960f88460031b161c191690558c8080612946565b8385015186558f979095019493840193018f612936565b6129cb91866000527f232da9e50dad2971456a78fb5cd6ff6b75019984d6e918139ce990999420f97990601f860160051c82019286106129d2575b601f0160051c0190614142565b8d8c6125d9565b90915081906129be565b634e487b7160e01b600052604160045260246000fd5b61ffff19166101011760005588612536565b608460405162461bcd60e51b815260206004820152602e60248201527f496e697469616c697a61626c653a20636f6e747261637420697320616c72656160448201527f647920696e697469616c697a65640000000000000000000000000000000000006064820152fd5b50303b15801561251e575060018887161461251e565b50600188871610612517565b3461002e57600036600319011261002e57604051600061012f8054612ab4816135f9565b80855291600191808316908115612b3a5750600114612ade575b61084585611e9681870382613228565b600090815292507f232da9e50dad2971456a78fb5cd6ff6b75019984d6e918139ce990999420f9795b828410612b22575050508101602001611e9682610845612ace565b80546020858701810191909152909301928101612b07565b86955061084596935060209250611e9694915060ff191682840152151560051b8201019293612ace565b3461002e5760208060031936011261002e57600435906001600160a01b0361022a5416612b92813314613e50565b3003612ded575b60648211612d5d57612ba9614abc565b80151580612d52575b612d1e575b6101f95492612bc4614d12565b5083151580612cf9575b15612c3c57612bdc81614fec565b9260001985019485116103a257612c31604094612c197f0553476bf02ef2726e8ce5ced78d63e26e602e4a2257b1f559418e24b463399797614ad3565b509063ffffffff82549181199060201b169116179055565b8351928352820152a1005b9091925063ffffffff804311612ca657907f0553476bf02ef2726e8ce5ced78d63e26e602e4a2257b1f559418e24b463399793612ca1604094936001600160e01b03612c8785614fec565b875192612c9384613188565b431683521683820152614c6c565b612c31565b6084846040519062461bcd60e51b82526004820152602660248201527f53616665436173743a2076616c756520646f65736e27742066697420696e203360448201526532206269747360d01b6064820152fd5b5060001984018481116103a257612d1463ffffffff91614ad3565b5054164314612bce565b612d4d612d2a82614fec565b6001600160e01b0360405191612d3f83613188565b600083521684820152614c6c565b612bb7565b506101f95415612bb2565b60a4906040519062461bcd60e51b82526004820152604360248201527f476f7665726e6f72566f74657351756f72756d4672616374696f6e3a2071756f60448201527f72756d4e756d657261746f72206f7665722071756f72756d44656e6f6d696e6160648201527f746f7200000000000000000000000000000000000000000000000000000000006084820152fd5b612df73636613266565b8181519101205b80612e0761506a565b03612dfe5750612b99565b3461002e5760e036600319011261002e57600435612e2e61314a565b67ffffffffffffffff9060443582811161002e57612e5090369060040161315a565b93909260643590811161002e57612e6b9036906004016132d2565b916084359460ff8616860361002e57612f1061100795611d2f92612f08602099612e9636848661329b565b8b81519101209089518c8b012090604051918d8301937fb3b3f3b703cd84ce352197dcff232b1b5d3cfb2025ce47cf04742d0651f1af8885528b604085015260ff8b166060850152608084015260a083015260a08252612ef5826131f0565b6120d460c4359360a43593519020614f50565b949094614d43565b92613a52565b3461002e57600036600319011261002e57602061016254604051908152f35b3461002e57602036600319011261002e576004357fffffffff00000000000000000000000000000000000000000000000000000000811680910361002e57807f6e665ced0000000000000000000000000000000000000000000000000000000060209214908115612fac575b506040519015158152f35b7fbf26d89700000000000000000000000000000000000000000000000000000000811491508115613041575b8115613017575b8115612fed575b5082612fa1565b7f01ffc9a70000000000000000000000000000000000000000000000000000000091501482612fe6565b7f4e2312e00000000000000000000000000000000000000000000000000000000081149150612fdf565b7f79dd796f0000000000000000000000000000000000000000000000000000000081149150612fd8565b3461002e57602036600319011261002e5760043561308881614799565b90806000526101308060205267ffffffffffffffff806130ab60406000206136d0565b511691836000526020526130c560016040600020016136d0565b511690826000526101936020526040600020916001600160a01b0383541692600581015460076006830154920154926130fd87615173565b9460088610156113695761014098600797604051998a5260208a015260408901526060880152608087015260a086015260c085015260e08401526002811461010084015214610120820152f35b6024359060ff8216820361002e57565b9181601f8401121561002e5782359167ffffffffffffffff831161002e576020838186019501011161002e57565b6040810190811067ffffffffffffffff8211176129dc57604052565b6060810190811067ffffffffffffffff8211176129dc57604052565b67ffffffffffffffff81116129dc57604052565b6080810190811067ffffffffffffffff8211176129dc57604052565b60c0810190811067ffffffffffffffff8211176129dc57604052565b6020810190811067ffffffffffffffff8211176129dc57604052565b90601f8019910116810190811067ffffffffffffffff8211176129dc57604052565b67ffffffffffffffff81116129dc57601f01601f191660200190565b9190916132728161324a565b61327f6040519182613228565b8093828252821161002e57818160009384602080950137010152565b9291926132a78261324a565b916132b56040519384613228565b82948184528183011161002e578281602093846000960137010152565b9080601f8301121561002e578160206132ed9335910161329b565b90565b60005b8381106133035750506000910152565b81810151838201526020016132f3565b9060209161332c815180928185528580860191016132f0565b601f01601f1916010190565b602435906001600160a01b038216820361002e57565b600435906001600160a01b038216820361002e57565b67ffffffffffffffff81116129dc5760051b60200190565b81601f8201121561002e5780359161339383613364565b926133a16040519485613228565b808452602092838086019260051b82010192831161002e578301905b8282106133cb575050505090565b81356001600160a01b038116810361002e5781529083019083016133bd565b81601f8201121561002e5780359161340183613364565b9261340f6040519485613228565b808452602092838086019260051b82010192831161002e578301905b828210613439575050505090565b8135815290830190830161342b565b9080601f8301121561002e5781359061346082613364565b9261346e6040519485613228565b828452602092838086019160051b8301019280841161002e57848301915b84831061349c5750505050505090565b823567ffffffffffffffff811161002e5786916134be848480948901016132d2565b81520192019161348c565b608060031982011261002e5767ffffffffffffffff9160043583811161002e57826134f69160040161337c565b9260243581811161002e578361350e916004016133ea565b9260443591821161002e5761352591600401613448565b9060643590565b90815180825260208080930193019160005b82811061354c575050505090565b83516001600160a01b03168552938101939281019260010161353e565b90815180825260208080930193019160005b828110613589575050505090565b83518552938101939281019260010161357b565b908082519081815260208091019281808460051b8301019501936000915b8483106135cb5750505050505090565b90919293949584806135e9600193601f198682030187528a51613313565b98019301930191949392906135bb565b90600182811c92168015613629575b602083101461361357565b634e487b7160e01b600052602260045260246000fd5b91607f1691613608565b6040519061364082613188565b600182527f31000000000000000000000000000000000000000000000000000000000000006020830152565b92906136b8926136ca926040519485926136a8613695602086019960808b5260a087019061352c565b601f199687878303016040880152613569565b908585830301606086015261359d565b90608083015203908101835282613228565b51902090565b906040516020810167ffffffffffffffff90828110828211176129dc57604052819354169052565b156136ff57565b608460405162461bcd60e51b815260206004820152602160248201527f476f7665726e6f723a2070726f706f73616c206e6f742073756363657373667560448201527f6c000000000000000000000000000000000000000000000000000000000000006064820152fd5b91926137778185848661366c565b9361378185615173565b6008811015611369578060046137a09214908115613989575b506136f8565b6000938585526020936101308552604091600283882001946001958660ff198254161790557f712ae1383f79ac853f8d882153778e0260ef8f03b504e2866e0593e04d2b291f8785518b8152a16001600160a01b039561022a978789541630036138e7575b50508587541692833b156138e3576138719289949261388061385e938851998a97889687967fe38335e500000000000000000000000000000000000000000000000000000000885260a0600489015260a488019061352c565b6003199384888303016024890152613569565b9185830301604486015261359d565b908660648401526084830152039134905af19081156138da57506138cb575b5030915416036138ad575090565b610131805480600f0b9060801d600f0b136138c757505090565b5590565b6138d4906131c0565b3861389f565b513d86823e3d90fd5b8880fd5b8990825b6138f6575b50613805565b84518210156139845761391c8392308b613910838a6139a3565b51161461392257613994565b916138eb565b61392c818b6139a3565b518381519101208d6fffffffffffffffffffffffffffffffff6fffffffffffffffffffffffffffffffff198c61013194855491608092831d9586600f0b81526101328b5220558885549401901b169116179055613994565b6138f0565b60059150143861379a565b60001981146103a25760010190565b80518210156139b75760209160051b010190565b634e487b7160e01b600052603260045260246000fd5b60209060006040516139de8161320c565b5260446001600160a01b0391826101c554166040519586948593630748d63560e31b855216600484015260248301525afa9081156103e957600091613a21575090565b906020823d8211613a4a575b81613a3a60209383613228565b81010312613a4757505190565b80fd5b3d9150613a2d565b93929190936000938185526020926101308452604091828720613a7485615173565b6008811015613e3c57600103613dd357613a9667ffffffffffffffff916136d0565b511696856001600160a01b036044816101c554169b87519c8d938492630748d63560e31b8452169c8d600484015260248301525afa988915613dc7578199613d98575b508481526101938652838082209189815260088301885220805460ff8116613d2f5760ff8516946bffffffffffffffffffffffff8c11613cc65760081b61ff00167fffffffffffffffffffffffffffffffffffff00000000000000000000000000009091161760108b901b6dffffffffffffffffffffffff000016176001179055889392919082613c2057600601613b728582546146ae565b90555b8051613bc857509181613bc2937fb8e138887d0aa13bab447e82de9d5c1777041ecd21ca36ba824ff1e6c07ddda49793519687968752860152840152608060608401526080830190613313565b0390a290565b9195613bc29387613c12937fe2babfbac5889a709b63bb7f598b324e08bc5a4fb9ec647fb3cbc9ec07eb87129951988998895288015286015260a0606086015260a0850190613313565b908382036080850152613313565b60018303613c3d57600501613c368582546146ae565b9055613b75565b929350909160028303613c5d579060078994939201613c368582546146ae565b60848685519062461bcd60e51b82526004820152602d60248201527f476f7665726e6f72436f6d7061746962696c697479427261766f3a20696e766160448201527f6c696420766f74652074797065000000000000000000000000000000000000006064820152fd5b60848988519062461bcd60e51b82526004820152602660248201527f53616665436173743a2076616c756520646f65736e27742066697420696e203960448201527f36206269747300000000000000000000000000000000000000000000000000006064820152fd5b60848887519062461bcd60e51b82526004820152602d60248201527f476f7665726e6f72436f6d7061746962696c697479427261766f3a20766f746560448201527f20616c72656164792063617374000000000000000000000000000000000000006064820152fd5b9098508581813d8311613dc0575b613db08183613228565b810103126138e357519738613ad9565b503d613da6565b508351903d90823e3d90fd5b60848685519062461bcd60e51b82526004820152602360248201527f476f7665726e6f723a20766f7465206e6f742063757272656e746c792061637460448201527f69766500000000000000000000000000000000000000000000000000000000006064820152fd5b602489634e487b7160e01b81526021600452fd5b15613e5757565b606460405162461bcd60e51b815260206004820152601860248201527f476f7665726e6f723a206f6e6c79476f7665726e616e636500000000000000006044820152fd5b90815491613ea883613364565b92604091613eb883519586613228565b81855260009081526020808220938291908188015b858410613edd5750505050505050565b8151838692895492613eee846135f9565b808252600194808616908115613f5c5750600114613f24575b50613f16816001960382613228565b815201970193019295613ecd565b8b8a52838a20955089905b808210613f455750810183019450613f16613f07565b865483830186015295850195889490910190613f2f565b60ff19168584015250151560051b810183019450613f16613f07565b9060405191828154918282526020928383019160005283600020936000905b828210613faf57505050613fad92500383613228565b565b85546001600160a01b031684526001958601958895509381019390910190613f97565b9060405191828154918282526020928383019160005283600020936000905b82821061400757505050613fad92500383613228565b855484526001958601958895509381019390910190613ff1565b60005b82811061403057505050565b606082820152602001614024565b919080519061404c82613364565b9360409261405c84519687613228565b80865261406b601f1991613364565b019061407b602092838801614021565b6000805b825181101561413a57806140966140c392856139a3565b51516140c8576140a681876139a3565b515b6140b2828b6139a3565b526140bd818a6139a3565b50613994565b61407f565b7fffffffff000000000000000000000000000000000000000000000000000000006140f382866139a3565b518681519101201661413561410883896139a3565b5189519288840152828151614125816024948c86860191016132f0565b8101036004810184520182613228565b6140a8565b505050505050565b81811061414d575050565b60008155600101614142565b9181811061416657505050565b613fad9260005260206000209182019101614142565b9190601f811161418b57505050565b613fad926000526020600020906020601f840160051c830193106129d257601f0160051c0190614142565b9392938551602080970120956141d7876141d0878961403e565b868661366c565b946000958652610193825260408620926009840197885415614200575b50505050505050505050565b6001600160a01b0380921673ffffffffffffffffffffffffffffffffffffffff1986541617855560019687860187519067ffffffffffffffff948583116146595768010000000000000000998a841161457957889061426485855481875586614159565b01918c52878c20908b8d5b8581106146455750505050505060028601815191848311614631578883116146315786906142a284845481865585614159565b01908a52858a20898b5b84811061461f5750505050506003850181519187831161460b578590825484845580851061458d575b500190895284892089915b8383106144a6575050505060048094019180519586116144935783908354878555808810614415575b50949294019387528287209187945b8686106143385750505050505050505055388080808080808080806141f4565b80519081518481116144025789918161435c89936143568a546135f9565b8a61417c565b82948d601f83116001146143a057958291869792614395575b5050600019600383901b1c191690841b1787555b01940195019492614318565b015190503880614375565b9095601f1983168a8352858320925b8181106143eb57509086978488959493106143d2575b505050811b018755614389565b015160001960f88460031b161c191690553880806143c5565b8289015184558f978d9794019392830192016143af565b60248b604186634e487b7160e01b835252fd5b848a528888848c2092830192015b828110614431575050614309565b90919293508a61444182546135f9565b80614454575b5050019088869392614423565b83601f8a818411600114614470575050505081555b8a38614447565b8486614486965220920160051c82019101614142565b8a87812081835555614469565b602488604187634e487b7160e01b835252fd5b8051908151868111614579578b91818e6144cb8c946144c589546135f9565b8961417c565b8390601f831160011461450c5790859683614501575b5050600019600383901b1c191690841b1785555b019201920191906142e0565b0151905038806144e1565b90601f198316888352858320925b818110614556575090869784889594931061453d575b505050811b0185556144f5565b015160001960f88460031b161c19169055388080614530565b9497939686929691938786015181550195019301928f95929693918d959261451a565b60248d634e487b7160e01b81526041600452fd5b8a85848e8781522092830192015b8281106145a95750506142d5565b90919293508c6145b982546135f9565b806145cc575b505001908a88939261459b565b83601f8c8184116001146145e8575050505081555b8c386145bf565b84866145fe965220920160051c82019101614142565b8c898120818355556145e1565b60248a634e487b7160e01b81526041600452fd5b88845194019381840155018a906142ac565b60248b634e487b7160e01b81526041600452fd5b8a8386511695019481850155018c9061426f565b60248c634e487b7160e01b81526041600452fd5b60005261019360205260406000209061468860018301613f78565b9161469560028201613fd2565b916132ed60046146a760038501613e9b565b9301613e9b565b919082018092116103a257565b6101617fc565b045403dc03c2eea82b81a0465edad9e2e7fc4d97e11421c209da93d7a93604082548151908152846020820152a155565b801561472f576101627f7e3f7f0708a84de9203036abaa450dccc85ad5ff52f78c170f3edb55cf5e8828604082548151908152846020820152a155565b608460405162461bcd60e51b815260206004820152602760248201527f476f7665726e6f7253657474696e67733a20766f74696e6720706572696f642060448201527f746f6f206c6f77000000000000000000000000000000000000000000000000006064820152fd5b6001600160a01b0361022a5416600091825261022b602052602060408320546024604051809481937fd45c443500000000000000000000000000000000000000000000000000000000835260048301525afa90811561484057829161480b575b5060018103614806575090565b905090565b90506020813d8211614838575b8161482560209383613228565b810103126148345751386147f9565b5080fd5b3d9150614818565b6040513d84823e3d90fd5b92919061485a8383838761366c565b9361486485615173565b600881101561136957600461487991146136f8565b6001600160a01b039361022a92858454166040958651977ff27a0c92000000000000000000000000000000000000000000000000000000008952602096878a600481875afa998a15614ab15760009a614a82575b5088517fb1c5f42700000000000000000000000000000000000000000000000000000000815260a06004820152888161490960a482018b61352c565b9681806149366149266003199b8c8482030160248501528d613569565b8b8382030160448401528a61359d565b600060648301528c608483015203915afa908115614a7757600091614a4a575b508b60005261022b89528960002055541691823b1561002e57613871956000956149cc87936149bc958c519a8b998a9889977f8f2a0bb000000000000000000000000000000000000000000000000000000000895260c060048a015260c489019061352c565b9084888303016024890152613569565b9083606484015260848301528a60a483015203925af18015614a3f57614a26575b50614a197f9a2e42fd6722813d69113e7d0079d3d940171428df7373df9c7f7617cfda289293426146ae565b825191858352820152a190565b67ffffffffffffffff81116129dc578252614a196149ed565b83513d6000823e3d90fd5b908982813d8311614a70575b614a608183613228565b81010312613a4757505138614956565b503d614a56565b8a513d6000823e3d90fd5b90998882813d8311614aaa575b614a998183613228565b81010312613a4757505198386148cd565b503d614a8f565b89513d6000823e3d90fd5b6101f954614acb576101f85490565b6132ed614d12565b6101f980548210156139b7576000527f29eba5f30ca2030a69ed2d7f74871c83bbc526b071320256f127653c7dfff4e90190600090565b6101f9548015614c6357600019908082018181116103a257614b2b90614ad3565b509060208460405193614b3d85613188565b5463ffffffff9485821691828252841c93849101521115614c5b575043841015614c175792906000915b848310614bbe575050506000908215600014614b865750600092915050565b8201918211614baa5750614ba16001600160e01b0391614ad3565b505460201c1690565b80634e487b7160e01b602492526011600452fd5b909193600190614bd4818718831c8288166146ae565b918385614be085614ad3565b5054161115614bf4575050935b9190614b67565b909550810180911115614bed57634e487b7160e01b600052601160045260246000fd5b606460405162461bcd60e51b815260206004820152602060248201527f436865636b706f696e74733a20626c6f636b206e6f7420796574206d696e65646044820152fd5b935050505090565b50506101f85490565b6101f98054680100000000000000008110156129dc57614c9191600182019055614ad3565b614cb857815160209283015190921b63ffffffff191663ffffffff92909216919091179055565b634e487b7160e01b600052600060045260246000fd5b90919015614cda575090565b815115614cea5750805190602001fd5b614d0e9060405191829162461bcd60e51b8352602060048401526024830190613313565b0390fd5b6101f954600081614d2557506000919050565b6000198201918211614baa5750614ba16001600160e01b0391614ad3565b60058110156113695780614d545750565b60018103614da057606460405162461bcd60e51b815260206004820152601860248201527f45434453413a20696e76616c6964207369676e617475726500000000000000006044820152fd5b60028103614dec57606460405162461bcd60e51b815260206004820152601f60248201527f45434453413a20696e76616c6964207369676e6174757265206c656e677468006044820152fd5b60038103614e4357608460405162461bcd60e51b815260206004820152602260248201527f45434453413a20696e76616c6964207369676e6174757265202773272076616c604482015261756560f01b6064820152fd5b600414614e4c57565b608460405162461bcd60e51b815260206004820152602260248201527f45434453413a20696e76616c6964207369676e6174757265202776272076616c604482015261756560f01b6064820152fd5b9291907f7fffffffffffffffffffffffffffffff5d576e7357a4501ddfe92f46681b20a08311614f445760ff16601b81141580614f39575b614f2d579160809493916020936040519384528484015260408301526060820152600093849182805260015afa15614f205781516001600160a01b03811615614f1a579190565b50600190565b50604051903d90823e3d90fd5b50505050600090600490565b50601c811415614ed3565b50505050600090600390565b6065546066546040519060208201927f8b73c3c69bb8fe3d512ecc4cf759cc79239f7b179b0ffacaa9a75d522b39400f8452604083015260608201524660808201523060a082015260a08152614fa5816131f0565b519020906040519060208201927f1901000000000000000000000000000000000000000000000000000000000000845260228301526042820152604281526136ca816131d4565b6001600160e01b0390818111615000571690565b608460405162461bcd60e51b815260206004820152602760248201527f53616665436173743a2076616c756520646f65736e27742066697420696e203260448201527f32342062697473000000000000000000000000000000000000000000000000006064820152fd5b6101319081549182600f0b809360801d600f0b13156150cb5782600052610132602052604060002054926000604081205560016fffffffffffffffffffffffffffffffff1983541691016fffffffffffffffffffffffffffffffff16179055565b60046040517f3db2a12a000000000000000000000000000000000000000000000000000000008152fd5b156150fc57565b608460405162461bcd60e51b815260206004820152602b60248201527f496e697469616c697a61626c653a20636f6e7472616374206973206e6f74206960448201527f6e697469616c697a696e670000000000000000000000000000000000000000006064820152fd5b5190811515820361002e57565b61517c816152eb565b90600882101561136957600482036152e757600090815260209061022b825260408120549081156000146151b05750505090565b909192506001600160a01b0361022a5416916040517f2ab0f5290000000000000000000000000000000000000000000000000000000081528160048201528481602481875afa9081156152dc5783916152a3575b50156152135750505050600790565b83906024604051809581937f584b153e00000000000000000000000000000000000000000000000000000000835260048301525afa928315614f2057819361526a575b50505060001461526557600590565b600290565b9091809350813d831161529c575b6152828183613228565b81010312613a47575061529490615166565b388080615256565b503d615278565b90508481813d83116152d5575b6152ba8183613228565b810103126152d1576152cb90615166565b38615204565b8280fd5b503d6152b0565b6040513d85823e3d90fd5b5090565b6000818152610130906020918083526040926002848420015460ff81166154c15760081c60ff166154b75767ffffffffffffffff918261532c8686206136d0565b511680156154745743111561546b5785845280825243836153516001888820016136d0565b5116101561546057602490868552610193938484528686209184526153778787206136d0565b5116836001600160a01b036101c55416885194858092632394e7a360e21b82528560048301525afa928315615456578693615421575b506153b790614b0a565b90826000190482118315151661540d579060056064920154920204111594856153f1575b50505050506000146153ec57600490565b600390565b83525220600581015460069091015410905038808080806153db565b602486634e487b7160e01b81526011600452fd5b9092508381813d831161544f575b6154398183613228565b8101031261544b5751916153b76153ad565b8580fd5b503d61542f565b87513d88823e3d90fd5b505050505050600190565b50505091505090565b60648387519062461bcd60e51b82526004820152601d60248201527f476f7665726e6f723a20756e6b6e6f776e2070726f706f73616c2069640000006044820152fd5b5050505050600290565b505050505050600790565b90613fad6154d983613364565b6154e66040519182613228565b838152602081946154f9601f1991613364565b019101614021565b1561550857565b608460405162461bcd60e51b815260206004820152602160248201527f476f7665726e6f723a20696e76616c69642070726f706f73616c206c656e677460448201527f68000000000000000000000000000000000000000000000000000000000000006064820152fd5b91909167ffffffffffffffff808094169116019182116103a257565b67ffffffffffffffff908181116155a3571690565b608460405162461bcd60e51b815260206004820152602660248201527f53616665436173743a2076616c756520646f65736e27742066697420696e203660448201527f34206269747300000000000000000000000000000000000000000000000000006064820152fd5b9392909161561d9260009561366c565b61562681615173565b600881101590816157b157600281141591826157a3575b8261577d575b50501561573957808352610130602052604060028185200161010061ff00198254161790557f789cf55be980739dad1d0699b93b58e806b51c9d96619bfa8fe0a28abaa7b30c60208251848152a181845261022b80602052818520546156ab575b5090925050565b846001600160a01b0361022a54168382205490803b156152d157602483928651998a9384927fc4d252f500000000000000000000000000000000000000000000000000000000845260048401525af195861561572d57600094959661571e575b50908482526020522055819038806156a4565b615727906131c0565b3861570b565b508251903d90823e3d90fd5b606460405162461bcd60e51b815260206004820152601d60248201527f476f7665726e6f723a2070726f706f73616c206e6f74206163746976650000006044820152fd5b90915061578f57600714153880615643565b602484634e487b7160e01b81526021600452fd5b50600681141591508461563d565b602485634e487b7160e01b81526021600452fdfea264697066735822122030cd11745abc3b61794790de0e9fd51901bdc17a3ee456f61dd80a178549029364736f6c63430008100033"
}