{"_format":"hh-sol-artifact-1","contractName":"LilyPad","sourceName":"contracts/LilyPad.sol","abi":[{"anonymous":false,"inputs":[{"indexed":false,"internalType":"address","name":"member","type":"address"},{"indexed":false,"internalType":"uint256","name":"eventId","type":"uint256"},{"indexed":false,"internalType":"bytes","name":"badgeIdentifier","type":"bytes"},{"indexed":false,"internalType":"string","name":"badgeName","type":"string"}],"name":"BadgeEarned","type":"event"},{"anonymous":false,"inputs":[{"indexed":false,"internalType":"address","name":"member","type":"address"},{"indexed":false,"internalType":"uint256","name":"eventId","type":"uint256"},{"indexed":false,"internalType":"string","name":"eventName","type":"string"}],"name":"EventCompleted","type":"event"},{"anonymous":false,"inputs":[{"indexed":false,"internalType":"address","name":"owner","type":"address"},{"indexed":false,"internalType":"uint256","name":"eventId","type":"uint256"},{"indexed":false,"internalType":"uint256","name":"eventTypeId","type":"uint256"},{"indexed":false,"internalType":"bytes","name":"eventName","type":"bytes"}],"name":"EventSubmited","type":"event"},{"anonymous":false,"inputs":[{"indexed":false,"internalType":"uint8","name":"version","type":"uint8"}],"name":"Initialized","type":"event"},{"anonymous":false,"inputs":[{"indexed":false,"internalType":"address","name":"member","type":"address"},{"indexed":false,"internalType":"uint256","name":"currentXp","type":"uint256"},{"indexed":false,"internalType":"uint256","name":"level","type":"uint256"}],"name":"LevelReached","type":"event"},{"anonymous":false,"inputs":[{"indexed":false,"internalType":"address","name":"member","type":"address"}],"name":"MemberBurned","type":"event"},{"anonymous":false,"inputs":[{"indexed":true,"internalType":"address","name":"previousOwner","type":"address"},{"indexed":true,"internalType":"address","name":"newOwner","type":"address"}],"name":"OwnershipTransferred","type":"event"},{"inputs":[{"internalType":"uint256","name":"_journeyId","type":"uint256"}],"name":"abandonJourney","outputs":[{"components":[{"internalType":"uint256","name":"id","type":"uint256"},{"internalType":"address","name":"member","type":"address"},{"internalType":"bytes","name":"name","type":"bytes"},{"internalType":"bool","name":"done","type":"bool"},{"internalType":"bool","name":"badgeObligatory","type":"bool"}],"internalType":"struct ILilyPad.Journey","name":"","type":"tuple"}],"stateMutability":"nonpayable","type":"function"},{"inputs":[{"internalType":"address","name":"_member","type":"address"},{"components":[{"internalType":"uint256","name":"eventId","type":"uint256"},{"internalType":"bytes","name":"title","type":"bytes"},{"internalType":"bytes","name":"badge","type":"bytes"}],"internalType":"struct ILilyPad.Accolade[]","name":"_badges","type":"tuple[]"},{"internalType":"bytes","name":"_sig","type":"bytes"}],"name":"awardBadge","outputs":[],"stateMutability":"nonpayable","type":"function"},{"inputs":[{"internalType":"address","name":"_member","type":"address"},{"internalType":"uint256","name":"_eventId","type":"uint256"},{"internalType":"bytes","name":"_accoladeTitle","type":"bytes"}],"name":"badgeEarned","outputs":[{"internalType":"bool","name":"","type":"bool"}],"stateMutability":"view","type":"function"},{"inputs":[{"internalType":"address","name":"member","type":"address"}],"name":"burnBabyBurn","outputs":[],"stateMutability":"nonpayable","type":"function"},{"inputs":[{"internalType":"address","name":"_member","type":"address"},{"internalType":"uint256","name":"_eventId","type":"uint256"},{"internalType":"bytes","name":"_sig","type":"bytes"}],"name":"completeEvent","outputs":[],"stateMutability":"nonpayable","type":"function"},{"inputs":[{"internalType":"address","name":"_member","type":"address"},{"internalType":"uint256","name":"_eventId","type":"uint256"}],"name":"completedEvent","outputs":[{"internalType":"bool","name":"","type":"bool"}],"stateMutability":"view","type":"function"},{"inputs":[{"internalType":"uint256","name":"_tokenId","type":"uint256"},{"internalType":"string","name":"_baseUri","type":"string"}],"name":"constructTokenUri","outputs":[{"internalType":"string","name":"","type":"string"}],"stateMutability":"view","type":"function"},{"inputs":[{"components":[{"internalType":"uint256","name":"id","type":"uint256"},{"internalType":"bytes","name":"name","type":"bytes"}],"internalType":"struct ILilyPad.EventType[]","name":"_eventTypes","type":"tuple[]"}],"name":"createEventType","outputs":[],"stateMutability":"nonpayable","type":"function"},{"inputs":[{"internalType":"uint256","name":"_journeyId","type":"uint256"},{"internalType":"bytes","name":"_name","type":"bytes"},{"internalType":"bool","name":"_badgeObligatory","type":"bool"},{"internalType":"uint256[]","name":"_eventId","type":"uint256[]"}],"name":"createJourney","outputs":[{"components":[{"internalType":"uint256","name":"id","type":"uint256"},{"internalType":"address","name":"member","type":"address"},{"internalType":"bytes","name":"name","type":"bytes"},{"internalType":"bool","name":"done","type":"bool"},{"internalType":"bool","name":"badgeObligatory","type":"bool"}],"internalType":"struct ILilyPad.Journey","name":"","type":"tuple"}],"stateMutability":"nonpayable","type":"function"},{"inputs":[{"components":[{"internalType":"uint256","name":"level","type":"uint256"},{"internalType":"uint256","name":"xpInit","type":"uint256"},{"internalType":"uint256","name":"xpFin","type":"uint256"},{"internalType":"bytes","name":"image","type":"bytes"}],"internalType":"struct ILilyPad.Level[]","name":"_levels","type":"tuple[]"}],"name":"createLevel","outputs":[],"stateMutability":"nonpayable","type":"function"},{"inputs":[{"internalType":"uint256","name":"_initialXp","type":"uint256"},{"internalType":"uint256[]","name":"_completedEvents","type":"uint256[]"},{"components":[{"internalType":"uint256","name":"eventId","type":"uint256"},{"internalType":"bytes","name":"title","type":"bytes"},{"internalType":"bytes","name":"badge","type":"bytes"}],"internalType":"struct ILilyPad.Accolade[]","name":"_badges","type":"tuple[]"},{"internalType":"bytes","name":"_sig","type":"bytes"}],"name":"createMember","outputs":[],"stateMutability":"nonpayable","type":"function"},{"inputs":[{"internalType":"uint256","name":"_id","type":"uint256"}],"name":"getEvent","outputs":[{"internalType":"uint256","name":"eventTypeId","type":"uint256"},{"internalType":"uint256","name":"xp","type":"uint256"},{"components":[{"internalType":"uint256","name":"eventId","type":"uint256"},{"internalType":"bytes","name":"title","type":"bytes"},{"internalType":"bytes","name":"badge","type":"bytes"}],"internalType":"struct ILilyPad.Accolade[]","name":"accolades","type":"tuple[]"}],"stateMutability":"view","type":"function"},{"inputs":[{"internalType":"uint256","name":"_eventTypeId","type":"uint256"}],"name":"getEventType","outputs":[{"components":[{"internalType":"uint256","name":"id","type":"uint256"},{"internalType":"bytes","name":"name","type":"bytes"}],"internalType":"struct ILilyPad.EventType","name":"","type":"tuple"}],"stateMutability":"view","type":"function"},{"inputs":[{"internalType":"uint256","name":"_levelId","type":"uint256"}],"name":"getLevel","outputs":[{"components":[{"internalType":"uint256","name":"level","type":"uint256"},{"internalType":"uint256","name":"xpInit","type":"uint256"},{"internalType":"uint256","name":"xpFin","type":"uint256"},{"internalType":"bytes","name":"image","type":"bytes"}],"internalType":"struct ILilyPad.Level","name":"","type":"tuple"}],"stateMutability":"view","type":"function"},{"inputs":[{"internalType":"address","name":"_memberAddress","type":"address"}],"name":"getMember","outputs":[{"internalType":"bool","name":"pathChosen","type":"bool"},{"internalType":"uint256","name":"xp","type":"uint256"},{"internalType":"uint256","name":"level","type":"uint256"},{"internalType":"bool","name":"DAO","type":"bool"},{"internalType":"uint256","name":"tokenId","type":"uint256"},{"internalType":"uint256[]","name":"completedEvents","type":"uint256[]"},{"components":[{"internalType":"uint256","name":"eventId","type":"uint256"},{"internalType":"bytes","name":"title","type":"bytes"},{"internalType":"bytes","name":"badge","type":"bytes"}],"internalType":"struct ILilyPad.Accolade[]","name":"badges","type":"tuple[]"}],"stateMutability":"view","type":"function"},{"inputs":[{"internalType":"uint256","name":"_tokenId","type":"uint256"}],"name":"getMemberByTokenId","outputs":[{"internalType":"address","name":"memberAddress","type":"address"},{"internalType":"bool","name":"pathChosen","type":"bool"},{"internalType":"uint256","name":"xp","type":"uint256"},{"internalType":"uint256","name":"level","type":"uint256"},{"internalType":"bool","name":"DAO","type":"bool"},{"internalType":"uint256","name":"tokenId","type":"uint256"},{"internalType":"uint256[]","name":"completedEvents","type":"uint256[]"},{"components":[{"internalType":"uint256","name":"eventId","type":"uint256"},{"internalType":"bytes","name":"title","type":"bytes"},{"internalType":"bytes","name":"badge","type":"bytes"}],"internalType":"struct ILilyPad.Accolade[]","name":"badges","type":"tuple[]"}],"stateMutability":"view","type":"function"},{"inputs":[{"internalType":"address","name":"_memberAddress","type":"address"}],"name":"getMemberLevel","outputs":[{"internalType":"uint256","name":"","type":"uint256"}],"stateMutability":"view","type":"function"},{"inputs":[{"internalType":"address","name":"_memberAddress","type":"address"}],"name":"getTokenId","outputs":[{"internalType":"uint256","name":"","type":"uint256"}],"stateMutability":"view","type":"function"},{"inputs":[{"components":[{"internalType":"uint256","name":"level","type":"uint256"},{"internalType":"uint256","name":"xpInit","type":"uint256"},{"internalType":"uint256","name":"xpFin","type":"uint256"},{"internalType":"bytes","name":"image","type":"bytes"}],"internalType":"struct ILilyPad.Level[]","name":"_levels","type":"tuple[]"},{"components":[{"internalType":"uint256","name":"id","type":"uint256"},{"internalType":"bytes","name":"name","type":"bytes"}],"internalType":"struct ILilyPad.EventType[]","name":"_eventTypes","type":"tuple[]"},{"internalType":"address","name":"_safeCaller","type":"address"}],"name":"initialize","outputs":[],"stateMutability":"nonpayable","type":"function"},{"inputs":[{"internalType":"address","name":"_member","type":"address"},{"internalType":"uint256","name":"_currentXp","type":"uint256"},{"internalType":"bytes","name":"_sig","type":"bytes"}],"name":"levelMember","outputs":[],"stateMutability":"nonpayable","type":"function"},{"inputs":[{"internalType":"address","name":"_memberAddress","type":"address"}],"name":"mintTokenForMember","outputs":[],"stateMutability":"payable","type":"function"},{"inputs":[],"name":"owner","outputs":[{"internalType":"address","name":"","type":"address"}],"stateMutability":"view","type":"function"},{"inputs":[],"name":"renounceOwnership","outputs":[],"stateMutability":"nonpayable","type":"function"},{"inputs":[],"name":"safeCaller","outputs":[{"internalType":"address","name":"","type":"address"}],"stateMutability":"view","type":"function"},{"inputs":[],"name":"sbtAddress","outputs":[{"internalType":"contract IPondSBT","name":"","type":"address"}],"stateMutability":"view","type":"function"},{"inputs":[{"internalType":"contract IPondSBT","name":"_newSbtAddress","type":"address"}],"name":"setSbtAddress","outputs":[],"stateMutability":"nonpayable","type":"function"},{"inputs":[{"internalType":"uint256","name":"_eventId","type":"uint256"},{"internalType":"uint256","name":"_eventTypeId","type":"uint256"},{"internalType":"bytes","name":"_eventName","type":"bytes"},{"internalType":"uint256","name":"_xp","type":"uint256"},{"components":[{"internalType":"uint256","name":"eventId","type":"uint256"},{"internalType":"bytes","name":"title","type":"bytes"},{"internalType":"bytes","name":"badge","type":"bytes"}],"internalType":"struct ILilyPad.Accolade[]","name":"_accolades","type":"tuple[]"},{"internalType":"bytes","name":"_sig","type":"bytes"}],"name":"submitEvent","outputs":[],"stateMutability":"nonpayable","type":"function"},{"inputs":[{"internalType":"address","name":"newOwner","type":"address"}],"name":"transferOwnership","outputs":[],"stateMutability":"nonpayable","type":"function"},{"inputs":[{"internalType":"uint256","name":"_id","type":"uint256"},{"internalType":"uint256","name":"_eventTypeId","type":"uint256"},{"internalType":"bytes","name":"_eventName","type":"bytes"},{"internalType":"uint256","name":"_xp","type":"uint256"},{"components":[{"internalType":"uint256","name":"eventId","type":"uint256"},{"internalType":"bytes","name":"title","type":"bytes"},{"internalType":"bytes","name":"badge","type":"bytes"}],"internalType":"struct ILilyPad.Accolade[]","name":"_accolades","type":"tuple[]"},{"internalType":"bytes","name":"_sig","type":"bytes"}],"name":"updateEvent","outputs":[],"stateMutability":"nonpayable","type":"function"},{"inputs":[{"internalType":"uint256","name":"_journeyId","type":"uint256"},{"internalType":"bytes","name":"_name","type":"bytes"},{"internalType":"bool","name":"_badgeObligatory","type":"bool"},{"internalType":"uint256[]","name":"_eventsId","type":"uint256[]"}],"name":"updateJourney","outputs":[{"components":[{"internalType":"uint256","name":"id","type":"uint256"},{"internalType":"address","name":"member","type":"address"},{"internalType":"bytes","name":"name","type":"bytes"},{"internalType":"bool","name":"done","type":"bool"},{"internalType":"bool","name":"badgeObligatory","type":"bool"}],"internalType":"struct ILilyPad.Journey","name":"","type":"tuple"}],"stateMutability":"nonpayable","type":"function"},{"inputs":[{"internalType":"address","name":"_memberAddress","type":"address"},{"internalType":"bool","name":"_dao","type":"bool"},{"internalType":"uint256","name":"_xp","type":"uint256"},{"internalType":"uint256[]","name":"_completedEvents","type":"uint256[]"},{"components":[{"internalType":"uint256","name":"eventId","type":"uint256"},{"internalType":"bytes","name":"title","type":"bytes"},{"internalType":"bytes","name":"badge","type":"bytes"}],"internalType":"struct ILilyPad.Accolade[]","name":"_badges","type":"tuple[]"},{"internalType":"bytes","name":"_sig","type":"bytes"}],"name":"updateMember","outputs":[],"stateMutability":"nonpayable","type":"function"},{"inputs":[{"internalType":"address","name":"_newSafeCaller","type":"address"}],"name":"updateSafeCaller","outputs":[],"stateMutability":"nonpayable","type":"function"}],"bytecode":"0x608060405234801561001057600080fd5b50615f5680620000216000396000f3fe6080604052600436106101e35760003560e01c8063715018a611610102578063af5c901711610095578063f153768611610064578063f1537686146105f9578063f2fde38b14610632578063f311601114610652578063fb6447ce1461067257600080fd5b8063af5c901714610579578063c738b74214610599578063c8318815146105b9578063f125123f146105d957600080fd5b806386481d40116100d157806386481d40146104ee5780638da5cb5b1461051b578063989147b314610539578063abafb3241461055957600080fd5b8063715018a61461047957806374ab2f151461048e578063792110ee146104ae578063827a421f146104ce57600080fd5b806351cb31471161017a578063633927dd11610149578063633927dd146103e75780636469f559146103fa5780636ac2c6c71461042a5780636d1884e01461044a57600080fd5b806351cb31471461034c57806352207b271461036c57806354683cac1461039957806359269e67146103b957600080fd5b806328227df1116101b657806328227df1146102985780632ada2596146102c5578063320b9ba3146102f857806345a059761461031857600080fd5b806308f263a7146101e857806310d0a6391461021e57806312d21a34146102405780631fc64fe314610260575b600080fd5b3480156101f457600080fd5b5061020861020336600461463f565b610692565b60405161021591906146a8565b60405180910390f35b34801561022a57600080fd5b5061023e610239366004614846565b610839565b005b34801561024c57600080fd5b5061023e61025b3660046148e2565b610946565b34801561026c57600080fd5b50606654610280906001600160a01b031681565b6040516001600160a01b039091168152602001610215565b3480156102a457600080fd5b506102b86102b336600461463f565b610aa0565b6040516102159190614923565b3480156102d157600080fd5b506102e56102e0366004614948565b610b76565b6040516102159796959493929190614a26565b34801561030457600080fd5b5061023e610313366004614c20565b610dd3565b34801561032457600080fd5b5061033861033336600461463f565b611006565b604051610215989796959493929190614cd3565b34801561035857600080fd5b5061023e610367366004614846565b6112b1565b34801561037857600080fd5b5061038c610387366004614d3a565b611367565b6040516102159190614d94565b3480156103a557600080fd5b5061023e6103b4366004614948565b6114a0565b3480156103c557600080fd5b506103d96103d4366004614948565b6114ca565b604051908152602001610215565b61023e6103f5366004614948565b611574565b34801561040657600080fd5b5061041a610415366004614846565b6116d0565b6040519015158152602001610215565b34801561043657600080fd5b5061041a610445366004614da7565b6117d8565b34801561045657600080fd5b5061046a61046536600461463f565b611865565b60405161021593929190614dd3565b34801561048557600080fd5b5061023e611ae3565b34801561049a57600080fd5b5061023e6104a9366004614dfb565b611af7565b3480156104ba57600080fd5b506102086104c9366004614e66565b611b85565b3480156104da57600080fd5b5061023e6104e93660046148e2565b611e9d565b3480156104fa57600080fd5b5061050e61050936600461463f565b61211d565b6040516102159190614ee3565b34801561052757600080fd5b506033546001600160a01b0316610280565b34801561054557600080fd5b50606754610280906001600160a01b031681565b34801561056557600080fd5b5061023e610574366004614948565b612194565b34801561058557600080fd5b5061023e610594366004614f1c565b6122ad565b3480156105a557600080fd5b5061023e6105b4366004615050565b612551565b3480156105c557600080fd5b5061023e6105d4366004614948565b6127fd565b3480156105e557600080fd5b5061023e6105f4366004615190565b612827565b34801561060557600080fd5b506103d9610614366004614948565b6001600160a01b03166000908152606a602052604090206003015490565b34801561063e57600080fd5b5061023e61064d366004614948565b61285e565b34801561065e57600080fd5b5061020861066d366004614e66565b6128d4565b34801561067e57600080fd5b5061023e61068d366004614f1c565b612bbf565b61069a6144f8565b6106a333612ead565b6000828152606c60205260409020600101546001600160a01b03166106e35760405162461bcd60e51b81526004016106da90615215565b60405180910390fd5b6000828152606c60205260409020600101546001600160a01b0316331461071c5760405162461bcd60e51b81526004016106da90615215565b6000828152606d6020526040812061073391614534565b6000828152606c602090815260409182902060038101805460ff19166001908117909155835160a08101855282548152908201546001600160a01b031692810192909252600281018054929391929184019161078e90615240565b80601f01602080910402602001604051908101604052809291908181526020018280546107ba90615240565b80156108075780601f106107dc57610100808354040283529160200191610807565b820191906000526020600020905b8154815290600101906020018083116107ea57829003601f168201915b50505091835250506003919091015460ff8082161515602084015261010090910416151560409091015290505b919050565b6040516bffffffffffffffffffffffff19606085901b166020820152603481018390526108c4906054015b60408051601f1981840301815282825280516020918201207f19457468657265756d205369676e6564204d6573736167653a0a33320000000084830152603c8085019190915282518085039091018152605c909301909152815191012090565b816108cf8282612f07565b6001600160a01b0385166000908152606a602052604090205460ff1661092a5760405162461bcd60e51b815260206004820152601060248201526f50617468206e6f742063686f73656e2160801b60448201526064016106da565b5050336000908152606a60205260409020600101919091555050565b61094e612f77565b60005b81811015610a9b576069600084848481811061096f5761096f61527a565b90506020028101906109819190615290565b60000135815260200190815260200160002060000154600003610a0d578282828181106109b0576109b061527a565b90506020028101906109c29190615290565b606960008585858181106109d8576109d861527a565b90506020028101906109ea9190615290565b3581526020810191909152604001600020610a05828261540a565b905050610a89565b828282818110610a1f57610a1f61527a565b9050602002810190610a319190615290565b610a3f9060208101906152b0565b60696000868686818110610a5557610a5561527a565b9050602002810190610a679190615290565b358152602081019190915260400160002060010191610a87919083615351565b505b80610a93816154ed565b915050610951565b505050565b6040805180820190915260008152606060208201526069600083815260200190815260200160002060405180604001604052908160008201548152602001600182018054610aed90615240565b80601f0160208091040260200160405190810160405280929190818152602001828054610b1990615240565b8015610b665780601f10610b3b57610100808354040283529160200191610b66565b820191906000526020600020905b815481529060010190602001808311610b4957829003601f168201915b5050505050815250509050919050565b6001600160a01b0381166000908152606a6020526040812080546001909101548291829182918291606091829160ff90911690610bb28a6114ca565b6001600160a01b038b166000908152606a60209081526040918290206002810154600382015460048301805486518187028101870190975280875260ff9093169591949093600501928491830182828015610c2c57602002820191906000526020600020905b815481526020019060010190808311610c18575b5050505050915080805480602002602001604051908101604052809291908181526020016000905b82821015610db4578382906000526020600020906003020160405180606001604052908160008201548152602001600182018054610c9190615240565b80601f0160208091040260200160405190810160405280929190818152602001828054610cbd90615240565b8015610d0a5780601f10610cdf57610100808354040283529160200191610d0a565b820191906000526020600020905b815481529060010190602001808311610ced57829003601f168201915b50505050508152602001600282018054610d2390615240565b80601f0160208091040260200160405190810160405280929190818152602001828054610d4f90615240565b8015610d9c5780601f10610d7157610100808354040283529160200191610d9c565b820191906000526020600020905b815481529060010190602001808311610d7f57829003601f168201915b50505050508152505081526020019060010190610c54565b5050505090509650965096509650965096509650919395979092949650565b610df786868686610de387612fd1565b604051602001610864959493929190615547565b81610e028282612f07565b6001600160a01b0388166000908152606a602052604090205460ff16610e3357610e2e88878787613081565b610ffc565b6001600160a01b0388166000908152606a60205260408120805460ff8116151560ff19918216178255600182018990556002820180548b15159216919091179055610e8391600490910190614555565b60005b8551811015610efa57606a60008a6001600160a01b03166001600160a01b03168152602001908152602001600020600401868281518110610ec957610ec961527a565b6020908102919091018101518254600181018455600093845291909220015580610ef2816154ed565b915050610e86565b5060005b8551811015610f6557610f2a89878381518110610f1d57610f1d61527a565b60200260200101516117d8565b610f5357610f5389878381518110610f4457610f4461527a565b6020026020010151600061324b565b80610f5d816154ed565b915050610efe565b5060005b8451811015610ff257610fb789868381518110610f8857610f8861527a565b602002602001015160000151878481518110610fa657610fa661527a565b6020026020010151602001516116d0565b610fe057610fe089868381518110610fd157610fd161527a565b602002602001015160006133a8565b80610fea816154ed565b915050610f69565b50610ffc88613564565b5050505050505050565b6000818152606f60209081526040808320546001600160a01b03168352606a8252808320815160c081018352815460ff90811615158252600183015482860152600283015416151581840152600382015460608281019190915260048301805485518188028101880190965280865287968796879687968796958695889592946080860193909291908301828280156110be57602002820191906000526020600020905b8154815260200190600101908083116110aa575b5050505050815260200160058201805480602002602001604051908101604052809291908181526020016000905b8282101561124c57838290600052602060002090600302016040518060600160405290816000820154815260200160018201805461112990615240565b80601f016020809104026020016040519081016040528092919081815260200182805461115590615240565b80156111a25780601f10611177576101008083540402835291602001916111a2565b820191906000526020600020905b81548152906001019060200180831161118557829003601f168201915b505050505081526020016002820180546111bb90615240565b80601f01602080910402602001604051908101604052809291908181526020018280546111e790615240565b80156112345780601f1061120957610100808354040283529160200191611234565b820191906000526020600020905b81548152906001019060200180831161121757829003601f168201915b505050505081525050815260200190600101906110ec565b5050509152505060008b8152606f60209081526040909120548251918301519293506001600160a01b031691611281836114ca565b8460400151856060015186608001518760a001519850985098509850985098509850985050919395975091939597565b6040516bffffffffffffffffffffffff19606085901b166020820152603481018390526112e090605401610864565b816112eb8282612f07565b6001600160a01b0385166000908152606a602052604090205460ff166113465760405162461bcd60e51b815260206004820152601060248201526f50617468206e6f742063686f73656e2160801b60448201526064016106da565b61135085856117d8565b611360576113608585600161324b565b5050505050565b6060600080600061137786611006565b9750975050505050509250600086116113d25760405162461bcd60e51b815260206004820152601960248201527f496e76616c6964204d656d6265722f546f6b656e20646174610000000000000060448201526064016106da565b6114756113de876137e3565b6113f2856001600160a01b031660146138e3565b8760686000611400896114ca565b815260200190815260200160002060030160405160200161142292919061560b565b60405160208183030381529060405261144361143d886114ca565b87613a7e565b61144d868b613c3c565b604051602001611461959493929190615629565b604051602081830303815290604052613dba565b604051602001611485919061572a565b60405160208183030381529060405293505050505b92915050565b6114a8612f77565b606780546001600160a01b0319166001600160a01b0392909216919091179055565b600060015b606554811161156b5760008181526068602090815260408083206001908101546001600160a01b0388168552606a9093529220909101541080159061153f57506000818152606860209081526040808320600201546001600160a01b0387168452606a9092529091206001015411155b156115595760009081526068602052604090205492915050565b80611563816154ed565b9150506114cf565b50600092915050565b6001600160a01b0381166000908152606a6020526040902060030154156115d45760405162461bcd60e51b815260206004820152601460248201527353425420616c726561647920646566696e65642160601b60448201526064016106da565b60675460405163534203fb60e11b81526001600160a01b0383811660048301529091169063a68407f690349060240160206040518083038185885af19350505050801561163e575060408051601f3d908101601f1916820190925261163b9181019061576f565b60015b61168f5761164a615788565b806308c379a003611683575061165e6157a4565b806116695750611685565b8060405162461bcd60e51b81526004016106da9190614d94565b505b3d6000803e3d6000fd5b6001600160a01b0382166000818152606a60209081526040808320600301859055938252606f90529190912080546001600160a01b03191690911790555b50565b6000805b6001600160a01b0385166000908152606a60205260409020600501548110156117cb576001600160a01b0385166000908152606a602052604090206005018054859190839081106117275761172761527a565b9060005260206000209060030201600001541480156117aa57508280519060200120606a6000876001600160a01b03166001600160a01b0316815260200190815260200160002060050182815481106117825761178261527a565b90600052602060002090600302016001016040516117a0919061582d565b6040518091039020145b156117b95760019150506117d1565b806117c3816154ed565b9150506116d4565b50600090505b9392505050565b6000805b6001600160a01b0384166000908152606a602052604090206004015481101561185b576001600160a01b0384166000908152606a6020526040902060040180548491908390811061182f5761182f61527a565b90600052602060002001540361184957600191505061149a565b80611853816154ed565b9150506117dc565b5060009392505050565b60008060606000607060008681526020019081526020016000206040518060a001604052908160008201548152602001600182015481526020016002820180546118ae90615240565b80601f01602080910402602001604051908101604052809291908181526020018280546118da90615240565b80156119275780601f106118fc57610100808354040283529160200191611927565b820191906000526020600020905b81548152906001019060200180831161190a57829003601f168201915b505050505081526020016003820154815260200160048201805480602002602001604051908101604052809291908181526020016000905b82821015611abf57838290600052602060002090600302016040518060600160405290816000820154815260200160018201805461199c90615240565b80601f01602080910402602001604051908101604052809291908181526020018280546119c890615240565b8015611a155780601f106119ea57610100808354040283529160200191611a15565b820191906000526020600020905b8154815290600101906020018083116119f857829003601f168201915b50505050508152602001600282018054611a2e90615240565b80601f0160208091040260200160405190810160405280929190818152602001828054611a5a90615240565b8015611aa75780601f10611a7c57610100808354040283529160200191611aa7565b820191906000526020600020905b815481529060010190602001808311611a8a57829003601f168201915b5050505050815250508152602001906001019061195f565b50505091525050602081015160608201516080909201519097919650945092505050565b611aeb612f77565b611af56000613f1e565b565b611b1583611b0484612fd1565b604051602001610864929190615839565b81611b208282612f07565b60005b8451811015611b7d57611b4286868381518110610f8857610f8861527a565b611b6b57611b6b86868381518110611b5c57611b5c61527a565b602002602001015160016133a8565b80611b75816154ed565b915050611b23565b505050505050565b611b8d6144f8565b611b9633612ead565b600080611ba33385613f70565b915091508115611bb6579150611e959050565b6040805160a0810182528881523360208083019182528284018a81526000606085018190528a151560808601528c8152606c9092529390208251815590516001820180546001600160a01b0319166001600160a01b0390921691909117905591519091906002820190611c299082615871565b5060608201516003909101805460809093015115156101000261ff00199215159290921661ffff199093169290921717905560005b8451811015611d82576000888152606c6020526040812060030154610100900460ff1615611cb057611ca933878481518110611c9c57611c9c61527a565b6020026020010151614191565b9050611cc9565b611cc633878481518110610f1d57610f1d61527a565b90505b6000898152606d6020526040908190208151606081019092529080611cef85600161592a565b8152602001888581518110611d0657611d0661527a565b60200260200101518152602001611d29338a8781518110610f1d57610f1d61527a565b15159052815460018082018455600093845260209384902083516003909302019182559282015192810192909255604001516002909101805460ff19169115159190911790555080611d7a816154ed565b915050611c5e565b50611d8c87614372565b6000888152606c602090815260409182902060038101805460ff191694151594909417909355815160a0810183528354815260018401546001600160a01b031691810191909152600283018054919392840191611de890615240565b80601f0160208091040260200160405190810160405280929190818152602001828054611e1490615240565b8015611e615780601f10611e3657610100808354040283529160200191611e61565b820191906000526020600020905b815481529060010190602001808311611e4457829003601f168201915b50505091835250506003919091015460ff808216151560208401526101009091041615156040909101529250611e95915050565b949350505050565b611ea5612f77565b60005b81811015610a9b5760686000848484818110611ec657611ec661527a565b9050602002810190611ed8919061593d565b60000135815260200190815260200160002060000154600003611fc557828282818110611f0757611f0761527a565b9050602002810190611f19919061593d565b60686000858585818110611f2f57611f2f61527a565b9050602002810190611f41919061593d565b3581526020810191909152604001600020611f5c8282615953565b905050828282818110611f7157611f7161527a565b9050602002810190611f83919061593d565b6000013560655410611f9757606554611fbd565b828282818110611fa957611fa961527a565b9050602002810190611fbb919061593d565b355b60655561210b565b828282818110611fd757611fd761527a565b9050602002810190611fe9919061593d565b60200135606860008585858181106120035761200361527a565b9050602002810190612015919061593d565b35815260208101919091526040016000206001015582828281811061203c5761203c61527a565b905060200281019061204e919061593d565b60400135606860008585858181106120685761206861527a565b905060200281019061207a919061593d565b3581526020810191909152604001600020600201558282828181106120a1576120a161527a565b90506020028101906120b3919061593d565b6120c19060608101906152b0565b606860008686868181106120d7576120d761527a565b90506020028101906120e9919061593d565b358152602081019190915260400160002060030191612109919083615351565b505b80612115816154ed565b915050611ea8565b6121486040518060800160405280600081526020016000815260200160008152602001606081525090565b60686000838152602001908152602001600020604051806080016040529081600082015481526020016001820154815260200160028201548152602001600382018054610aed90615240565b6067546001600160a01b0316331461220a5760405162461bcd60e51b815260206004820152603360248201527f4c696c795061643a3a4f6e6c792053425420436f6e74726163742063616e206360448201527230b6361036b2b73132b939b434b810313ab93760691b60648201526084016106da565b6001600160a01b0381166000908152606a60205260408120805460ff19168155600181018290556003810182905561224791600490910190614555565b6001600160a01b0381166000908152606a6020526040812061226e91600590910190614573565b6040516001600160a01b03821681527f7832841b27381cc9b824718ee239279b2e9c0a1ba515ff4759cb07d8afba6da09060200160405180910390a150565b6122d1868686866122bd87612fd1565b604051602001610864959493929190615a33565b816122dc8282612f07565b600088815260706020526040902054156123305760405162461bcd60e51b8152602060048201526015602482015274115d995b9d08185b1c9958591e4818dc99585d1959605a1b60448201526064016106da565b6000888152607060205260409020888155600181018890556003810186905560020161235c8782615871565b5060005b845181101561250957607060008a815260200190815260200160002060040160405180606001604052808b81526020018784815181106123a2576123a261527a565b60200260200101516020015181526020018784815181106123c5576123c561527a565b60209081029190910181015160400151909152825460018181018555600094855293829020835160039092020190815590820151919290919082019061240b9082615871565b50604082015160028201906124209082615871565b50505060405180606001604052808a81526020018683815181106124465761244661527a565b60200260200101516020015181526020018683815181106124695761246961527a565b602002602001015160400151815250607160008b815260200190815260200160002086838151811061249d5761249d61527a565b6020026020010151602001516040516124b69190615a7e565b90815260405160209181900382019020825181559082015160018201906124dd9082615871565b50604082015160028201906124f29082615871565b509050508080612501906154ed565b915050612360565b507f1abd60720207a16761b9322f8b67c8d0df9ace2c2f355828a65268420f5b1bd23389898960405161253f9493929190615a90565b60405180910390a15050505050505050565b600054610100900460ff16158080156125715750600054600160ff909116105b8061258b5750303b15801561258b575060005460ff166001145b6125ee5760405162461bcd60e51b815260206004820152602e60248201527f496e697469616c697a61626c653a20636f6e747261637420697320616c72656160448201526d191e481a5b9a5d1a585b1a5e995960921b60648201526084016106da565b6000805460ff191660011790558015612611576000805461ff0019166101001790555b60005b84518110156127005784818151811061262f5761262f61527a565b60200260200101516068600087848151811061264d5761264d61527a565b6020026020010151600001518152602001908152602001600020600082015181600001556020820151816001015560408201518160020155606082015181600301908161269a9190615871565b509050508481815181106126b0576126b061527a565b602002602001015160000151606554106126cc576065546126eb565b8481815181106126de576126de61527a565b6020026020010151600001515b606555806126f8816154ed565b915050612614565b5060005b835181101561278d5783818151811061271f5761271f61527a565b60200260200101516069600086848151811061273d5761273d61527a565b60200260200101516000015181526020019081526020016000206000820151816000015560208201518160010190816127769190615871565b509050508080612785906154ed565b915050612704565b506127966143eb565b606680546001600160a01b0319166001600160a01b03841617905580156127f7576000805461ff0019169055604051600181527f7f26b83ff96e1f2b6a682f133852f6798a09c465da95921460cefb38474024989060200160405180910390a15b50505050565b612805612f77565b606680546001600160a01b0319166001600160a01b0392909216919091179055565b612847848461283585612fd1565b60405160200161086493929190615ac7565b816128528282612f07565b611b7d33878787613081565b612866612f77565b6001600160a01b0381166128cb5760405162461bcd60e51b815260206004820152602660248201527f4f776e61626c653a206e6577206f776e657220697320746865207a65726f206160448201526564647265737360d01b60648201526084016106da565b6116cd81613f1e565b6128dc6144f8565b6128e533612ead565b6000858152606c60205260409020600101546001600160a01b031661291c5760405162461bcd60e51b81526004016106da90615215565b6000858152606c60205260409020600101546001600160a01b031633146129555760405162461bcd60e51b81526004016106da90615215565b6000858152606d6020526040812061296c91614534565b6000858152606c602052604090206002016129878582615871565b506000858152606c60205260408120600301805461ff001916610100861515021790555b8251811015612aad576000868152606c6020526040812060030154610100900460ff16156129f0576129e933858481518110611c9c57611c9c61527a565b9050612a09565b612a0633858481518110610f1d57610f1d61527a565b90505b6000878152606d6020526040908190208151606081019092529080612a2f85600161592a565b8152602001868581518110612a4657612a4661527a565b60209081029190910181015182529315159084015281546001808201845560009384529284902082516003909202019081559281015191830191909155604001516002909101805460ff191691151591909117905580612aa5816154ed565b9150506129ab565b50612ab785614372565b6000868152606c602090815260409182902060038101805460ff191694151594909417909355815160a0810183528354815260018401546001600160a01b031691810191909152600283018054919392840191612b1390615240565b80601f0160208091040260200160405190810160405280929190818152602001828054612b3f90615240565b8015612b8c5780601f10612b6157610100808354040283529160200191612b8c565b820191906000526020600020905b815481529060010190602001808311612b6f57829003601f168201915b50505091835250506003919091015460ff8082161515602084015261010090910416151560409091015295945050505050565b612be1868685612bce86612fd1565b6040516020016108649493929190615af3565b81612bec8282612f07565b60008881526070602052604090206003810186905560018101889055600201612c158782615871565b506000888152607060205260408120612c3391600490910190614573565b60005b8451811015612ea25788858281518110612c5257612c5261527a565b60200260200101516000015114612cab5760405162461bcd60e51b815260206004820152601d60248201527f496e76616c6964206576656e7420696420696e206163636f6c6164652100000060448201526064016106da565b607060008a81526020019081526020016000206004016040518060600160405280878481518110612cde57612cde61527a565b6020026020010151600001518152602001878481518110612d0157612d0161527a565b6020026020010151602001518152602001878481518110612d2457612d2461527a565b602090810291909101810151604001519091528254600181810185556000948552938290208351600390920201908155908201519192909190820190612d6a9082615871565b5060408201516002820190612d7f9082615871565b5050506040518060600160405280868381518110612d9f57612d9f61527a565b6020026020010151600001518152602001868381518110612dc257612dc261527a565b6020026020010151602001518152602001868381518110612de557612de561527a565b60200260200101516040015181525060716000878481518110612e0a57612e0a61527a565b6020026020010151600001518152602001908152602001600020868381518110612e3657612e3661527a565b602002602001015160200151604051612e4f9190615a7e565b9081526040516020918190038201902082518155908201516001820190612e769082615871565b5060408201516002820190612e8b9082615871565b509050508080612e9a906154ed565b915050612c36565b505050505050505050565b6001600160a01b0381166000908152606a602052604090205460ff166116cd5760405162461bcd60e51b815260206004820152600f60248201526e2830ba34103737ba1021b437b9b2b760891b60448201526064016106da565b6066546001600160a01b0316612f1d838361441a565b6001600160a01b031614612f735760405162461bcd60e51b815260206004820152601c60248201527f4920646f6e27742074616b65206f72646572732066726f6d20796f750000000060448201526064016106da565b5050565b6033546001600160a01b03163314611af55760405162461bcd60e51b815260206004820181905260248201527f4f776e61626c653a2063616c6c6572206973206e6f7420746865206f776e657260448201526064016106da565b60608060005b835181101561307a5781613007858381518110612ff657612ff661527a565b6020026020010151600001516137e3565b8583815181106130195761301961527a565b6020026020010151602001518684815181106130375761303761527a565b6020026020010151604001516040516020016130569493929190615b27565b60405160208183030381529060405291508080613072906154ed565b915050612fd7565b5092915050565b6001600160a01b0384166000908152606a602052604090205460ff16156130e05760405162461bcd60e51b81526020600482015260136024820152722830ba341020b63932b0b23c9021b437b9b2b760691b60448201526064016106da565b6001600160a01b0384166000908152606a602052604081208054600160ff19918216811783558083018790556002830180549092161790556003018190555b825181101561319357606a6000866001600160a01b03166001600160a01b031681526020019081526020016000206004018382815181106131625761316261527a565b602090810291909101810151825460018101845560009384529190922001558061318b816154ed565b91505061311f565b5060005b815181101561324157606a6000866001600160a01b03166001600160a01b031681526020019081526020016000206005018282815181106131da576131da61527a565b60209081029190910181015182546001818101855560009485529383902082516003909202019081559181015190928201906132169082615871565b506040820151600282019061322b9082615871565b5050508080613239906154ed565b915050613197565b506127f784613564565b6000613256846114ca565b6001600160a01b0385166000818152606a6020818152604080842060048101805460018181018355918752848720018b90558a865260708452918520600301549585529290915201805493945091926132b090849061592a565b909155505081156132c4576132c484613564565b7f593c8b850cae6a478ff8850060a058179997558d3e942a5c3ecd27cc68d6269584846070600087815260200190815260200160002060020160405160200161330d919061582d565b60408051601f1981840301815290829052613329939291615b7e565b60405180910390a1600061333c856114ca565b905081811115611360576001600160a01b0385166000818152606a60209081526040918290206001015482519384529083015281018290527fa7792332f0075457196fdfdfc63fafecd0d71f0c53de7d5b25e36c23804e12219060600160405180910390a15050505050565b6001600160a01b0383166000908152606a6020908152604080832081516060810183528651815286840180518286015287518652607190945293829020925182516005909201949392840192916133ff9190615a7e565b9081526020016040518091039020600201805461341b90615240565b80601f016020809104026020016040519081016040528092919081815260200182805461344790615240565b80156134945780601f1061346957610100808354040283529160200191613494565b820191906000526020600020905b81548152906001019060200180831161347757829003601f168201915b505050919092525050815460018181018455600093845260209384902083516003909302019182559282015191929091908201906134d29082615871565b50604082015160028201906134e79082615871565b50505080156134f9576134f983613564565b7ff318ba2616d00700a728c3d0c944d05238be24007048584d40a29ce854511e6f8383600001518460200151856020015160405160200161353a9190615a7e565b60408051601f198184030181529082905261355794939291615ba5565b60405180910390a1505050565b60005b6001600160a01b0382166000908152606b6020526040902054811015612f73576001600160a01b0382166000908152606b602052604081208054839081106135b1576135b161527a565b6000918252602080832090910154808352606c90915260409091206003015490915060ff16156135e157506137d1565b6000805b6000838152606d60205260409020548110156137ab576000838152606d6020526040902080548290811061361b5761361b61527a565b600091825260209091206002600390920201015460ff16613759576000838152606c6020526040902060030154610100900460ff16156136d9576000838152606d6020526040902080546136929187918490811061367b5761367b61527a565b906000526020600020906003020160010154614191565b6000848152606d602052604090208054839081106136b2576136b261527a565b60009182526020909120600390910201600201805460ff1916911515919091179055613759565b6000838152606d602052604090208054613716918791849081106136ff576136ff61527a565b9060005260206000209060030201600101546117d8565b6000848152606d602052604090208054839081106137365761373661527a565b60009182526020909120600390910201600201805460ff19169115159190911790555b6000838152606d602052604090208054829081106137795761377961527a565b600091825260209091206002600390920201015460ff1661379957600191505b806137a3816154ed565b9150506135e5565b50806137ce576000828152606c60205260409020600301805460ff191660011790555b50505b806137db816154ed565b915050613567565b60608160000361380a5750506040805180820190915260018152600360fc1b602082015290565b8160005b8115613834578061381e816154ed565b915061382d9050600a83615bff565b915061380e565b6000816001600160401b0381111561384e5761384e614724565b6040519080825280601f01601f191660200182016040528015613878576020820181803683370190505b5090505b8415611e955761388d600183615c13565b915061389a600a86615c26565b6138a590603061592a565b60f81b8183815181106138ba576138ba61527a565b60200101906001600160f81b031916908160001a9053506138dc600a86615bff565b945061387c565b606060006138f2836002615c3a565b6138fd90600261592a565b6001600160401b0381111561391457613914614724565b6040519080825280601f01601f19166020018201604052801561393e576020820181803683370190505b509050600360fc1b816000815181106139595761395961527a565b60200101906001600160f81b031916908160001a905350600f60fb1b816001815181106139885761398861527a565b60200101906001600160f81b031916908160001a90535060006139ac846002615c3a565b6139b790600161592a565b90505b6001811115613a2f576f181899199a1a9b1b9c1cb0b131b232b360811b85600f16601081106139eb576139eb61527a565b1a60f81b828281518110613a0157613a0161527a565b60200101906001600160f81b031916908160001a90535060049490941c93613a2881615c59565b90506139ba565b5083156117d15760405162461bcd60e51b815260206004820181905260248201527f537472696e67733a20686578206c656e67746820696e73756666696369656e7460448201526064016106da565b60408051808201909152600f81526e2261747472696275746573223a205b60881b602082015260609080613ab1856137e3565b604051602001613ac2929190615c70565b604051602081830303815290604052905060005b8351811015613c125781604051602001613af09190615ce1565b6040516020818303038152906040529150816069600060706000888681518110613b1c57613b1c61527a565b60200260200101518152602001908152602001600020600101548152602001908152602001600020600101604051602001613b5892919061560b565b604051602081830303815290604052915081604051602001613b7a9190615d16565b60405160208183030381529060405291508160706000868481518110613ba257613ba261527a565b60200260200101518152602001908152602001600020600201604051602001613bcc92919061560b565b604051602081830303815290604052915081604051602001613bee9190615d47565b60405160208183030381529060405291508080613c0a906154ed565b915050613ad6565b5080604051602001613c249190615d6d565b60408051808303601f19018152919052949350505050565b60408051808201909152600b81526a22626164676573223a205b60a81b602082015260609060005b8451811015613c12578015613c9a5781604051602001613c849190615ce1565b6040516020818303038152906040529150613cbd565b81604051602001613cab9190615d92565b60405160208183030381529060405291505b81604051602001613cce9190615dcc565b604051602081830303815290604052915081858281518110613cf257613cf261527a565b602002602001015160200151604051602001613d0f929190615dfc565b604051602081830303815290604052915081604051602001613d319190615e2b565b60405160208183030381529060405291508184868381518110613d5657613d5661527a565b602002602001015160400151604051602001613d7493929190615e5c565b604051602081830303815290604052915081604051602001613d969190615d47565b60405160208183030381529060405291508080613db2906154ed565b915050613c64565b60608151600003613dd957505060408051602081019091526000815290565b6000604051806060016040528060408152602001615ee16040913990506000600384516002613e08919061592a565b613e129190615bff565b613e1d906004615c3a565b90506000613e2c82602061592a565b6001600160401b03811115613e4357613e43614724565b6040519080825280601f01601f191660200182016040528015613e6d576020820181803683370190505b509050818152600183018586518101602084015b81831015613ed9576003830192508251603f8160121c168501518253600182019150603f81600c1c168501518253600182019150603f8160061c168501518253600182019150603f8116850151825350600101613e81565b600389510660018114613ef35760028114613f0457613f10565b613d3d60f01b600119830152613f10565b603d60f81b6000198301525b509398975050505050505050565b603380546001600160a01b038381166001600160a01b0319831681179093556040519116919082907f8be0079c531659141344cd1fd0a4f28419497f9722a3daafe3b4186f6b6457e090600090a35050565b6000613f7a6144f8565b613f826144f8565b60005b6001600160a01b0386166000908152606b6020526040902054811015614182576001600160a01b0386166000908152606b602052604081208054600192919084908110613fd457613fd461527a565b9060005260206000200154905060005b6000828152606d6020526040902054811015614156576000828152606d6020526040902080548290811061401a5761401a61527a565b90600052602060002090600302016001015488828151811061403e5761403e61527a565b6020026020010151146140545760009250614144565b6000828152606c6020908152604091829020825160a0810184528154815260018201546001600160a01b031692810192909252600281018054929391929184019161409e90615240565b80601f01602080910402602001604051908101604052809291908181526020018280546140ca90615240565b80156141175780601f106140ec57610100808354040283529160200191614117565b820191906000526020600020905b8154815290600101906020018083116140fa57829003601f168201915b50505091835250506003919091015460ff8082161515602084015261010090910416151560409091015294505b8061414e816154ed565b915050613fe4565b50811561416d57600184955095505050505061418a565b5050808061417a906154ed565b915050613f85565b506000925090505b9250929050565b600081815260706020908152604080832060040180548251818502810185019093528083528493849084015b8282101561431d5783829060005260206000209060030201604051806060016040529081600082015481526020016001820180546141fa90615240565b80601f016020809104026020016040519081016040528092919081815260200182805461422690615240565b80156142735780601f1061424857610100808354040283529160200191614273565b820191906000526020600020905b81548152906001019060200180831161425657829003601f168201915b5050505050815260200160028201805461428c90615240565b80601f01602080910402602001604051908101604052809291908181526020018280546142b890615240565b80156143055780601f106142da57610100808354040283529160200191614305565b820191906000526020600020905b8154815290600101906020018083116142e857829003601f168201915b505050505081525050815260200190600101906141bd565b50505050905060005b8151811015614367576143468585848481518110610fa657610fa661527a565b6143555760009250505061149a565b8061435f816154ed565b915050614326565b506001949350505050565b6000805b6000838152606d60205260409020548110156143e2576000838152606d602052604090208054829081106143ac576143ac61527a565b600091825260209091206002600390920201015460ff166143d05750600092915050565b806143da816154ed565b915050614376565b50600192915050565b600054610100900460ff166144125760405162461bcd60e51b81526004016106da90615e95565b611af5614499565b600080600080614429856144c9565b6040805160008152602081018083528b905260ff8516918101919091526060810183905260808101829052929550909350915060019060a0016020604051602081039080840390855afa158015614484573d6000803e3d6000fd5b5050604051601f190151979650505050505050565b600054610100900460ff166144c05760405162461bcd60e51b81526004016106da90615e95565b611af533613f1e565b600080600083516041146144dc57600080fd5b5050506020810151604082015160609092015160001a92909190565b6040518060a001604052806000815260200160006001600160a01b03168152602001606081526020016000151581526020016000151581525090565b50805460008255600302906000526020600020908101906116cd9190614594565b50805460008255906000526020600020908101906116cd91906145bf565b50805460008255600302906000526020600020908101906116cd91906145d4565b5b808211156145bb576000808255600182015560028101805460ff19169055600301614595565b5090565b5b808211156145bb57600081556001016145c0565b808211156145bb5760008082556145ee6001830182614605565b6145fc600283016000614605565b506003016145d4565b50805461461190615240565b6000825580601f10614621575050565b601f0160209004906000526020600020908101906116cd91906145bf565b60006020828403121561465157600080fd5b5035919050565b60005b8381101561467357818101518382015260200161465b565b50506000910152565b60008151808452614694816020860160208601614658565b601f01601f19169290920160200192915050565b602081528151602082015260018060a01b0360208301511660408201526000604083015160a060608401526146e060c084018261467c565b90506060840151151560808401526080840151151560a08401528091505092915050565b6001600160a01b03811681146116cd57600080fd5b803561083481614704565b634e487b7160e01b600052604160045260246000fd5b606081018181106001600160401b038211171561475957614759614724565b60405250565b604081018181106001600160401b038211171561475957614759614724565b608081018181106001600160401b038211171561475957614759614724565b601f8201601f191681016001600160401b03811182821017156147c2576147c2614724565b6040525050565b60006001600160401b038311156147e2576147e2614724565b6040516147f9601f8501601f19166020018261479d565b80915083815284848401111561480e57600080fd5b83836020830137600060208583010152509392505050565b600082601f83011261483757600080fd5b6117d1838335602085016147c9565b60008060006060848603121561485b57600080fd5b833561486681614704565b92506020840135915060408401356001600160401b0381111561488857600080fd5b61489486828701614826565b9150509250925092565b60008083601f8401126148b057600080fd5b5081356001600160401b038111156148c757600080fd5b6020830191508360208260051b850101111561418a57600080fd5b600080602083850312156148f557600080fd5b82356001600160401b0381111561490b57600080fd5b6149178582860161489e565b90969095509350505050565b602081528151602082015260006020830151604080840152611e95606084018261467c565b60006020828403121561495a57600080fd5b81356117d181614704565b600081518084526020808501945080840160005b8381101561499557815187529582019590820190600101614979565b509495945050505050565b600081518084526020808501808196508360051b8101915082860160005b85811015614a1957828403895281516060815186528682015181888801526149e88288018261467c565b91505060408083015192508682038188015250614a05818361467c565b9a87019a95505050908401906001016149be565b5091979650505050505050565b8715158152866020820152856040820152841515606082015283608082015260e060a08201526000614a5b60e0830185614965565b82810360c0840152614a6d81856149a0565b9a9950505050505050505050565b8035801515811461083457600080fd5b60006001600160401b03821115614aa457614aa4614724565b5060051b60200190565b600082601f830112614abf57600080fd5b81356020614acc82614a8b565b604051614ad9828261479d565b83815260059390931b8501820192828101915086841115614af957600080fd5b8286015b84811015614b145780358352918301918301614afd565b509695505050505050565b600082601f830112614b3057600080fd5b81356020614b3d82614a8b565b60408051614b4b838261479d565b84815260059490941b8601830193838101925087851115614b6b57600080fd5b8387015b85811015614c145780356001600160401b0380821115614b8f5760008081fd5b908901906060828c03601f1901811315614ba95760008081fd5b8551614bb48161473a565b8884013581528684013583811115614bcc5760008081fd5b614bda8e8b83880101614826565b828b015250908301359082821115614bf25760008081fd5b614c008d8a84870101614826565b818801528752505050928401928401614b6f565b50979650505050505050565b60008060008060008060c08789031215614c3957600080fd5b8635614c4481614704565b9550614c5260208801614a7b565b94506040870135935060608701356001600160401b0380821115614c7557600080fd5b614c818a838b01614aae565b94506080890135915080821115614c9757600080fd5b614ca38a838b01614b1f565b935060a0890135915080821115614cb957600080fd5b50614cc689828a01614826565b9150509295509295509295565b600061010060018060a01b038b168352891515602084015288604084015287606084015286151560808401528560a08401528060c0840152614d1781840186614965565b905082810360e0840152614d2b81856149a0565b9b9a5050505050505050505050565b60008060408385031215614d4d57600080fd5b8235915060208301356001600160401b03811115614d6a57600080fd5b8301601f81018513614d7b57600080fd5b614d8a858235602084016147c9565b9150509250929050565b6020815260006117d1602083018461467c565b60008060408385031215614dba57600080fd5b8235614dc581614704565b946020939093013593505050565b838152826020820152606060408201526000614df260608301846149a0565b95945050505050565b600080600060608486031215614e1057600080fd5b8335614e1b81614704565b925060208401356001600160401b0380821115614e3757600080fd5b614e4387838801614b1f565b93506040860135915080821115614e5957600080fd5b5061489486828701614826565b60008060008060808587031215614e7c57600080fd5b8435935060208501356001600160401b0380821115614e9a57600080fd5b614ea688838901614826565b9450614eb460408801614a7b565b93506060870135915080821115614eca57600080fd5b50614ed787828801614aae565b91505092959194509250565b6020815281516020820152602082015160408201526040820151606082015260006060830151608080840152611e9560a084018261467c565b60008060008060008060c08789031215614f3557600080fd5b863595506020870135945060408701356001600160401b0380821115614f5a57600080fd5b614f668a838b01614826565b9550606089013594506080890135915080821115614c9757600080fd5b600082601f830112614f9457600080fd5b81356020614fa182614a8b565b60408051614faf838261479d565b84815260059490941b8601830193838101925087851115614fcf57600080fd5b8387015b85811015614c145780356001600160401b0380821115614ff35760008081fd5b90890190818b03601f190185131561500b5760008081fd5b84516150168161475f565b878301358152858301358281111561502e5760008081fd5b61503c8d8a83870101614826565b828a01525086525050928401928401614fd3565b60008060006060848603121561506557600080fd5b83356001600160401b038082111561507c57600080fd5b818601915086601f83011261509057600080fd5b8135602061509d82614a8b565b6040516150aa828261479d565b83815260059390931b850182019282810191508a8411156150ca57600080fd5b8286015b84811015615154578035868111156150e557600080fd5b87016080818e03601f190112156150fb57600080fd5b6040516151078161477e565b8582013581526040820135868201526060820135604082015260808201358881111561513257600080fd5b6151408f8883860101614826565b6060830152508452509183019183016150ce565b509750508701359250508082111561516b57600080fd5b5061517886828701614f83565b92505061518760408501614719565b90509250925092565b600080600080608085870312156151a657600080fd5b8435935060208501356001600160401b03808211156151c457600080fd5b6151d088838901614aae565b945060408701359150808211156151e657600080fd5b6151f288838901614b1f565b9350606087013591508082111561520857600080fd5b50614ed787828801614826565b602080825260119082015270129bdd5c9b995e481b9bdd08199bdd5b99607a1b604082015260600190565b600181811c9082168061525457607f821691505b60208210810361527457634e487b7160e01b600052602260045260246000fd5b50919050565b634e487b7160e01b600052603260045260246000fd5b60008235603e198336030181126152a657600080fd5b9190910192915050565b6000808335601e198436030181126152c757600080fd5b8301803591506001600160401b038211156152e157600080fd5b60200191503681900382131561418a57600080fd5b601f821115610a9b57600081815260208120601f850160051c8101602086101561531d5750805b601f850160051c820191505b81811015611b7d57828155600101615329565b600019600383901b1c191660019190911b1790565b6001600160401b0383111561536857615368614724565b61537c836153768354615240565b836152f6565b6000601f8411600181146153aa57600085156153985750838201355b6153a2868261533c565b845550611360565b600083815260209020601f19861690835b828110156153db57868501358255602094850194600190920191016153bb565b50868210156153f85760001960f88860031b161c19848701351681555b505060018560011b0183555050505050565b8135815560018082016020615421818601866152b0565b6001600160401b0381111561543857615438614724565b61544c816154468654615240565b866152f6565b6000601f82116001811461547a57600083156154685750838201355b615472848261533c565b875550612ea2565b600086815260209020601f19841690835b828110156154a8578685013582559387019390890190870161548b565b50848210156154c55760001960f88660031b161c19848701351681555b50505050841b90930190915550505050565b634e487b7160e01b600052601160045260246000fd5b6000600182016154ff576154ff6154d7565b5060010190565b8051600090602080840183831561499557815187529582019590820190600101614979565b6000815161553d818560208601614658565b9290920192915050565b6bffffffffffffffffffffffff198660601b16815284151560f81b6014820152836015820152600061557c6035830185615506565b835161558c818360208801614658565b01979650505050505050565b600081546155a581615240565b600182811680156155bd57600181146155d257615601565b60ff1984168752821515830287019450615601565b8560005260208060002060005b858110156155f85781548a8201529084019082016155df565b50505082870194505b5050505092915050565b6000835161561d818460208801614658565b614df281840185615598565b7003d913730b6b2911d112837b73229a12a1607d1b81528551600090615656816011850160208b01614658565b7f222c20226465736372697074696f6e223a2250617274206f662074686520536f6011918401918201526503ab61037b3160d51b603182015286516156a2816037840160208b01614658565b6b11161134b6b0b3b2911d101160a11b6037929091019182015285516156cf816043840160208a01614658565b61088b60f21b6043929091019182015284516156f2816045840160208901614658565b600b60fa1b6045929091019182015261571e615711604683018661552b565b607d60f81b815260010190565b98975050505050505050565b7f646174613a6170706c69636174696f6e2f6a736f6e3b6261736536342c00000081526000825161576281601d850160208701614658565b91909101601d0192915050565b60006020828403121561578157600080fd5b5051919050565b600060033d11156157a15760046000803e5060005160e01c5b90565b600060443d10156157b25790565b6040516003193d81016004833e81513d6001600160401b0381602484011181841117156157e157505050505090565b82850191508151818111156157f95750505050505090565b843d87010160208285010111156158135750505050505090565b6158226020828601018761479d565b509095945050505050565b60006117d18284615598565b6bffffffffffffffffffffffff198360601b16815260008251615863816014850160208701614658565b919091016014019392505050565b81516001600160401b0381111561588a5761588a614724565b61589e816158988454615240565b846152f6565b602080601f8311600181146158cd57600084156158bb5750858301515b6158c5858261533c565b865550611b7d565b600085815260208120601f198616915b828110156158fc578886015182559484019460019091019084016158dd565b508582101561591a5787850151600019600388901b60f8161c191681555b5050505050600190811b01905550565b8082018082111561149a5761149a6154d7565b60008235607e198336030181126152a657600080fd5b81358155600160208084013582840155604084013560028401556003830161597e60608601866152b0565b6001600160401b0381111561599557615995614724565b6159a9816159a38554615240565b856152f6565b6000601f8211600181146159d757600083156159c55750838201355b6159cf848261533c565b865550612ea2565b600085815260209020601f19841690835b82811015615a0557868501358255938801939089019088016159e8565b5084821015615a225760001960f88660031b161c19848701351681555b50505050841b909301905550505050565b85815284602082015260008451615a51816040850160208901614658565b80830190508460408201528351615a6f816060840160208801614658565b01606001979650505050505050565b600082516152a6818460208701614658565b60018060a01b0385168152836020820152826040820152608060608201526000615abd608083018461467c565b9695505050505050565b8381526000615ad96020830185615506565b8351615ae9818360208801614658565b0195945050505050565b84815283602082015282604082015260008251615b17816060850160208701614658565b9190910160600195945050505050565b60008551615b39818460208a01614658565b855190830190615b4d818360208a01614658565b8551910190615b60818360208901614658565b8451910190615b73818360208801614658565b019695505050505050565b60018060a01b0384168152826020820152606060408201526000614df2606083018461467c565b60018060a01b0385168152836020820152608060408201526000615bcc608083018561467c565b8281036060840152615bde818561467c565b979650505050505050565b634e487b7160e01b600052601260045260246000fd5b600082615c0e57615c0e615be9565b500490565b8181038181111561149a5761149a6154d7565b600082615c3557615c35615be9565b500690565b6000816000190483118215151615615c5457615c546154d7565b500290565b600081615c6857615c686154d7565b506000190190565b60008351615c82818460208801614658565b80830190507f7b202274726169745f74797065223a224c6576656c222c202276616c7565223a8152600160fd1b60208201528351615cc7816021840160208801614658565b607d60f81b60219290910191820152602201949350505050565b60008251615cf3818460208701614658565b70163d90113a3930b4ba2fba3cb832911d1160791b920191825250601101919050565b60008251615d28818460208701614658565b6c111610113b30b63ab2911d101160991b920191825250600d01919050565b60008251615d59818460208701614658565b61227d60f01b920191825250600201919050565b60008251615d7f818460208701614658565b605d60f81b920191825250600101919050565b60008251615da4818460208701614658565b753d90113a3930b4ba2fba3cb832911d112120a223a29160511b920191825250601601919050565b60008251615dde818460208701614658565b6b1610113b30b63ab2911d101160a11b920191825250600c01919050565b60008351615e0e818460208801614658565b835190830190615e22818360208801614658565b01949350505050565b60008251615e3d818460208701614658565b6c1116101134b6b0b3b2911d101160991b920191825250600d01919050565b60008451615e6e818460208901614658565b845190830190615e82818360208901614658565b8451910190615ae9818360208801614658565b6020808252602b908201527f496e697469616c697a61626c653a20636f6e7472616374206973206e6f74206960408201526a6e697469616c697a696e6760a81b60608201526080019056fe4142434445464748494a4b4c4d4e4f505152535455565758595a6162636465666768696a6b6c6d6e6f707172737475767778797a303132333435363738392b2fa2646970667358221220f37191c520024a71f983a2ba8fc14884758a986a6649291cace470d132d6b97464736f6c63430008100033","linkReferences":{},"deployedLinkReferences":{}}