{"_format":"hh-sol-artifact-1","contractName":"LilyPad","sourceName":"contracts/LilyPad.sol","abi":[{"inputs":[{"internalType":"address","name":"_address","type":"address"}],"name":"NotAFrog","type":"error"},{"inputs":[{"internalType":"uint256","name":"techId","type":"uint256"}],"name":"TechNotFound","type":"error"},{"anonymous":false,"inputs":[{"indexed":false,"internalType":"address","name":"member","type":"address"},{"indexed":false,"internalType":"uint256","name":"eventId","type":"uint256"},{"indexed":false,"internalType":"uint256","name":"techId","type":"uint256"},{"indexed":false,"internalType":"uint256","name":"level","type":"uint256"}],"name":"BadgeEarned","type":"event"},{"anonymous":false,"inputs":[{"indexed":false,"internalType":"address","name":"member","type":"address"},{"indexed":false,"internalType":"uint256[]","name":"eventId","type":"uint256[]"},{"indexed":false,"internalType":"uint256","name":"techId","type":"uint256"},{"indexed":false,"internalType":"uint256","name":"level","type":"uint256"}],"name":"BadgesEarned","type":"event"},{"anonymous":false,"inputs":[{"indexed":false,"internalType":"address","name":"member","type":"address"},{"indexed":false,"internalType":"uint256","name":"eventId","type":"uint256"},{"indexed":false,"internalType":"string","name":"eventName","type":"string"}],"name":"EventCompleted","type":"event"},{"anonymous":false,"inputs":[{"indexed":false,"internalType":"address","name":"owner","type":"address"},{"indexed":false,"internalType":"uint256","name":"eventId","type":"uint256"},{"indexed":false,"internalType":"uint256","name":"eventTypeId","type":"uint256"},{"indexed":false,"internalType":"bytes","name":"eventName","type":"bytes"}],"name":"EventSubmited","type":"event"},{"anonymous":false,"inputs":[{"indexed":false,"internalType":"uint8","name":"version","type":"uint8"}],"name":"Initialized","type":"event"},{"anonymous":false,"inputs":[{"indexed":false,"internalType":"address","name":"member","type":"address"},{"indexed":false,"internalType":"uint256","name":"currentXp","type":"uint256"},{"indexed":false,"internalType":"uint256","name":"level","type":"uint256"}],"name":"LevelReached","type":"event"},{"anonymous":false,"inputs":[{"indexed":false,"internalType":"address","name":"member","type":"address"}],"name":"MemberBurned","type":"event"},{"anonymous":false,"inputs":[{"indexed":true,"internalType":"address","name":"previousOwner","type":"address"},{"indexed":true,"internalType":"address","name":"newOwner","type":"address"}],"name":"OwnershipTransferred","type":"event"},{"inputs":[{"internalType":"uint256","name":"_journeyId","type":"uint256"}],"name":"abandonJourney","outputs":[{"components":[{"internalType":"uint256","name":"id","type":"uint256"},{"internalType":"address","name":"member","type":"address"},{"internalType":"bytes","name":"name","type":"bytes"},{"internalType":"bool","name":"done","type":"bool"},{"internalType":"bool","name":"badgeObligatory","type":"bool"}],"internalType":"struct ILilyPad.Journey","name":"","type":"tuple"}],"stateMutability":"nonpayable","type":"function"},{"inputs":[{"internalType":"address","name":"_member","type":"address"},{"components":[{"internalType":"uint256","name":"eventId","type":"uint256"},{"internalType":"uint256","name":"techId","type":"uint256"},{"internalType":"uint256","name":"level","type":"uint256"},{"internalType":"bytes","name":"badge","type":"bytes"}],"internalType":"struct ILilyPad.Accolade[]","name":"_badges","type":"tuple[]"},{"internalType":"bytes","name":"_sig","type":"bytes"}],"name":"awardBadge","outputs":[],"stateMutability":"nonpayable","type":"function"},{"inputs":[{"internalType":"address","name":"_member","type":"address"},{"internalType":"uint256","name":"_eventId","type":"uint256"},{"internalType":"uint256","name":"_techId","type":"uint256"},{"internalType":"uint256","name":"_level","type":"uint256"}],"name":"badgeEarned","outputs":[{"internalType":"bool","name":"","type":"bool"}],"stateMutability":"view","type":"function"},{"inputs":[{"internalType":"address","name":"member","type":"address"}],"name":"burnBabeBurn","outputs":[],"stateMutability":"nonpayable","type":"function"},{"inputs":[{"internalType":"address","name":"_member","type":"address"},{"internalType":"uint256","name":"_eventId","type":"uint256"},{"internalType":"bytes","name":"_sig","type":"bytes"}],"name":"completeEvent","outputs":[],"stateMutability":"nonpayable","type":"function"},{"inputs":[{"internalType":"address","name":"_member","type":"address"},{"internalType":"uint256","name":"_eventId","type":"uint256"}],"name":"completedEvent","outputs":[{"internalType":"bool","name":"","type":"bool"}],"stateMutability":"view","type":"function"},{"inputs":[{"internalType":"uint256","name":"_tokenId","type":"uint256"},{"internalType":"string","name":"_baseUri","type":"string"}],"name":"constructTokenUri","outputs":[{"internalType":"string","name":"","type":"string"}],"stateMutability":"view","type":"function"},{"inputs":[{"components":[{"internalType":"uint256","name":"id","type":"uint256"},{"internalType":"bytes","name":"name","type":"bytes"}],"internalType":"struct ILilyPad.EventType[]","name":"_eventTypes","type":"tuple[]"}],"name":"createEventType","outputs":[],"stateMutability":"nonpayable","type":"function"},{"inputs":[{"internalType":"uint256","name":"_journeyId","type":"uint256"},{"internalType":"bytes","name":"_name","type":"bytes"},{"internalType":"bool","name":"_badgeObligatory","type":"bool"},{"internalType":"uint256[]","name":"_eventId","type":"uint256[]"}],"name":"createJourney","outputs":[{"components":[{"internalType":"uint256","name":"id","type":"uint256"},{"internalType":"address","name":"member","type":"address"},{"internalType":"bytes","name":"name","type":"bytes"},{"internalType":"bool","name":"done","type":"bool"},{"internalType":"bool","name":"badgeObligatory","type":"bool"}],"internalType":"struct ILilyPad.Journey","name":"","type":"tuple"}],"stateMutability":"nonpayable","type":"function"},{"inputs":[{"components":[{"internalType":"uint256","name":"level","type":"uint256"},{"internalType":"uint256","name":"xpInit","type":"uint256"},{"internalType":"uint256","name":"xpFin","type":"uint256"},{"internalType":"bytes","name":"image","type":"bytes"}],"internalType":"struct ILilyPad.Level[]","name":"_levels","type":"tuple[]"}],"name":"createLevel","outputs":[],"stateMutability":"nonpayable","type":"function"},{"inputs":[{"internalType":"uint256","name":"_initialXp","type":"uint256"},{"internalType":"uint256[]","name":"_completedEvents","type":"uint256[]"},{"components":[{"internalType":"uint256","name":"eventId","type":"uint256"},{"internalType":"uint256","name":"techId","type":"uint256"},{"internalType":"uint256","name":"level","type":"uint256"},{"internalType":"bytes","name":"badge","type":"bytes"}],"internalType":"struct ILilyPad.Accolade[]","name":"_badges","type":"tuple[]"},{"internalType":"bytes","name":"_sig","type":"bytes"}],"name":"createMember","outputs":[],"stateMutability":"nonpayable","type":"function"},{"inputs":[{"components":[{"internalType":"uint256","name":"techId","type":"uint256"},{"internalType":"bytes","name":"techName","type":"bytes"}],"internalType":"struct ILilyPad.Technology[]","name":"_technologies","type":"tuple[]"},{"components":[{"internalType":"uint256","name":"techId","type":"uint256"},{"internalType":"uint256","name":"level","type":"uint256"},{"internalType":"bytes","name":"badge","type":"bytes"}],"internalType":"struct ILilyPad.TechBadge[]","name":"_badges","type":"tuple[]"}],"name":"createTechnology","outputs":[],"stateMutability":"nonpayable","type":"function"},{"inputs":[{"internalType":"address","name":"_member","type":"address"},{"internalType":"uint256","name":"_eventId","type":"uint256"},{"internalType":"uint256","name":"_techId","type":"uint256"},{"internalType":"uint256","name":"_level","type":"uint256"}],"name":"getAwardedBadge","outputs":[{"components":[{"internalType":"uint256","name":"eventId","type":"uint256"},{"internalType":"uint256","name":"techId","type":"uint256"},{"internalType":"uint256","name":"level","type":"uint256"},{"internalType":"bytes","name":"badge","type":"bytes"}],"internalType":"struct ILilyPad.Accolade","name":"","type":"tuple"},{"internalType":"uint256","name":"badgeIndex","type":"uint256"}],"stateMutability":"view","type":"function"},{"inputs":[{"internalType":"uint256","name":"_id","type":"uint256"}],"name":"getEvent","outputs":[{"internalType":"uint256","name":"eventTypeId","type":"uint256"},{"internalType":"uint256","name":"xp","type":"uint256"},{"components":[{"internalType":"uint256","name":"techId","type":"uint256"},{"internalType":"bytes","name":"techName","type":"bytes"}],"internalType":"struct ILilyPad.Technology[]","name":"eventTechs","type":"tuple[]"}],"stateMutability":"view","type":"function"},{"inputs":[{"internalType":"uint256","name":"_eventTypeId","type":"uint256"}],"name":"getEventType","outputs":[{"components":[{"internalType":"uint256","name":"id","type":"uint256"},{"internalType":"bytes","name":"name","type":"bytes"}],"internalType":"struct ILilyPad.EventType","name":"","type":"tuple"}],"stateMutability":"view","type":"function"},{"inputs":[{"internalType":"uint256","name":"_levelId","type":"uint256"}],"name":"getLevel","outputs":[{"components":[{"internalType":"uint256","name":"level","type":"uint256"},{"internalType":"uint256","name":"xpInit","type":"uint256"},{"internalType":"uint256","name":"xpFin","type":"uint256"},{"internalType":"bytes","name":"image","type":"bytes"}],"internalType":"struct ILilyPad.Level","name":"","type":"tuple"}],"stateMutability":"view","type":"function"},{"inputs":[{"internalType":"address","name":"_memberAddress","type":"address"}],"name":"getMember","outputs":[{"internalType":"bool","name":"pathChosen","type":"bool"},{"internalType":"uint256","name":"xp","type":"uint256"},{"internalType":"uint256","name":"level","type":"uint256"},{"internalType":"bool","name":"DAO","type":"bool"},{"internalType":"uint256","name":"tokenId","type":"uint256"},{"internalType":"uint256[]","name":"completedEvents","type":"uint256[]"},{"components":[{"internalType":"uint256","name":"eventId","type":"uint256"},{"internalType":"uint256","name":"techId","type":"uint256"},{"internalType":"uint256","name":"level","type":"uint256"},{"internalType":"bytes","name":"badge","type":"bytes"}],"internalType":"struct ILilyPad.Accolade[]","name":"badges","type":"tuple[]"}],"stateMutability":"view","type":"function"},{"inputs":[{"internalType":"uint256","name":"_tokenId","type":"uint256"}],"name":"getMemberByTokenId","outputs":[{"internalType":"address","name":"memberAddress","type":"address"},{"internalType":"bool","name":"pathChosen","type":"bool"},{"internalType":"uint256","name":"xp","type":"uint256"},{"internalType":"uint256","name":"level","type":"uint256"},{"internalType":"bool","name":"DAO","type":"bool"},{"internalType":"uint256","name":"tokenId","type":"uint256"},{"internalType":"uint256[]","name":"completedEvents","type":"uint256[]"},{"components":[{"internalType":"uint256","name":"eventId","type":"uint256"},{"internalType":"uint256","name":"techId","type":"uint256"},{"internalType":"uint256","name":"level","type":"uint256"},{"internalType":"bytes","name":"badge","type":"bytes"}],"internalType":"struct ILilyPad.Accolade[]","name":"badges","type":"tuple[]"}],"stateMutability":"view","type":"function"},{"inputs":[{"internalType":"address","name":"_memberAddress","type":"address"}],"name":"getMemberLevel","outputs":[{"internalType":"uint256","name":"","type":"uint256"}],"stateMutability":"view","type":"function"},{"inputs":[{"internalType":"uint256","name":"_technologyId","type":"uint256"},{"internalType":"uint256","name":"level","type":"uint256"}],"name":"getTechBadge","outputs":[{"components":[{"internalType":"uint256","name":"techId","type":"uint256"},{"internalType":"uint256","name":"level","type":"uint256"},{"internalType":"bytes","name":"badge","type":"bytes"}],"internalType":"struct ILilyPad.TechBadge","name":"","type":"tuple"}],"stateMutability":"view","type":"function"},{"inputs":[{"internalType":"uint256","name":"_technologyId","type":"uint256"}],"name":"getTechnology","outputs":[{"components":[{"internalType":"uint256","name":"techId","type":"uint256"},{"internalType":"bytes","name":"techName","type":"bytes"}],"internalType":"struct ILilyPad.Technology","name":"","type":"tuple"}],"stateMutability":"view","type":"function"},{"inputs":[{"internalType":"address","name":"_memberAddress","type":"address"}],"name":"getTokenId","outputs":[{"internalType":"uint256","name":"","type":"uint256"}],"stateMutability":"view","type":"function"},{"inputs":[{"components":[{"internalType":"uint256","name":"level","type":"uint256"},{"internalType":"uint256","name":"xpInit","type":"uint256"},{"internalType":"uint256","name":"xpFin","type":"uint256"},{"internalType":"bytes","name":"image","type":"bytes"}],"internalType":"struct ILilyPad.Level[]","name":"_levels","type":"tuple[]"},{"components":[{"internalType":"uint256","name":"id","type":"uint256"},{"internalType":"bytes","name":"name","type":"bytes"}],"internalType":"struct ILilyPad.EventType[]","name":"_eventTypes","type":"tuple[]"},{"components":[{"internalType":"uint256","name":"techId","type":"uint256"},{"internalType":"bytes","name":"techName","type":"bytes"}],"internalType":"struct ILilyPad.Technology[]","name":"_technologies","type":"tuple[]"},{"internalType":"address","name":"_safeCaller","type":"address"}],"name":"initialize","outputs":[],"stateMutability":"nonpayable","type":"function"},{"inputs":[{"internalType":"address","name":"_memberAddress","type":"address"}],"name":"mintTokenForMember","outputs":[],"stateMutability":"payable","type":"function"},{"inputs":[],"name":"owner","outputs":[{"internalType":"address","name":"","type":"address"}],"stateMutability":"view","type":"function"},{"inputs":[],"name":"renounceOwnership","outputs":[],"stateMutability":"nonpayable","type":"function"},{"inputs":[],"name":"safeCaller","outputs":[{"internalType":"address","name":"","type":"address"}],"stateMutability":"view","type":"function"},{"inputs":[],"name":"sbtAddress","outputs":[{"internalType":"contract IPondSBT","name":"","type":"address"}],"stateMutability":"view","type":"function"},{"inputs":[{"internalType":"contract IPondSBT","name":"_newSbtAddress","type":"address"}],"name":"setSbtAddress","outputs":[],"stateMutability":"nonpayable","type":"function"},{"inputs":[{"internalType":"uint256","name":"_eventId","type":"uint256"},{"internalType":"uint256","name":"_techId","type":"uint256"},{"internalType":"uint256","name":"_level","type":"uint256"},{"internalType":"bytes","name":"_badge","type":"bytes"}],"name":"submitBadge","outputs":[],"stateMutability":"nonpayable","type":"function"},{"inputs":[{"internalType":"uint256","name":"_eventId","type":"uint256"},{"internalType":"uint256","name":"_eventTypeId","type":"uint256"},{"internalType":"bytes","name":"_eventName","type":"bytes"},{"internalType":"uint256","name":"_xp","type":"uint256"},{"internalType":"uint256","name":"_level","type":"uint256"},{"internalType":"uint256[]","name":"_technologies","type":"uint256[]"},{"internalType":"bytes","name":"_sig","type":"bytes"}],"name":"submitEvent","outputs":[],"stateMutability":"nonpayable","type":"function"},{"inputs":[{"internalType":"address","name":"newOwner","type":"address"}],"name":"transferOwnership","outputs":[],"stateMutability":"nonpayable","type":"function"},{"inputs":[{"internalType":"uint256","name":"_id","type":"uint256"},{"internalType":"uint256","name":"_eventTypeId","type":"uint256"},{"internalType":"bytes","name":"_eventName","type":"bytes"},{"internalType":"uint256","name":"_xp","type":"uint256"},{"internalType":"uint256[]","name":"_technologies","type":"uint256[]"},{"internalType":"bytes","name":"_sig","type":"bytes"}],"name":"updateEvent","outputs":[],"stateMutability":"nonpayable","type":"function"},{"inputs":[{"internalType":"uint256","name":"_journeyId","type":"uint256"},{"internalType":"bytes","name":"_name","type":"bytes"},{"internalType":"bool","name":"_badgeObligatory","type":"bool"},{"internalType":"uint256[]","name":"_eventsId","type":"uint256[]"}],"name":"updateJourney","outputs":[{"components":[{"internalType":"uint256","name":"id","type":"uint256"},{"internalType":"address","name":"member","type":"address"},{"internalType":"bytes","name":"name","type":"bytes"},{"internalType":"bool","name":"done","type":"bool"},{"internalType":"bool","name":"badgeObligatory","type":"bool"}],"internalType":"struct ILilyPad.Journey","name":"","type":"tuple"}],"stateMutability":"nonpayable","type":"function"},{"inputs":[{"internalType":"address","name":"_memberAddress","type":"address"},{"internalType":"bool","name":"_dao","type":"bool"},{"internalType":"uint256","name":"_xp","type":"uint256"},{"internalType":"uint256[]","name":"_completedEvents","type":"uint256[]"},{"components":[{"internalType":"uint256","name":"eventId","type":"uint256"},{"internalType":"uint256","name":"techId","type":"uint256"},{"internalType":"uint256","name":"level","type":"uint256"},{"internalType":"bytes","name":"badge","type":"bytes"}],"internalType":"struct ILilyPad.Accolade[]","name":"_badges","type":"tuple[]"},{"internalType":"bytes","name":"_sig","type":"bytes"}],"name":"updateMember","outputs":[],"stateMutability":"nonpayable","type":"function"},{"inputs":[{"internalType":"address","name":"_newSafeCaller","type":"address"}],"name":"updateSafeCaller","outputs":[],"stateMutability":"nonpayable","type":"function"}],"bytecode":"0x6080806040523461001757615cf390816200001d8239f35b600080fdfe60806040526004361015610013575b600080fd5b60003560e01c806303cd58ef146102e357806308f263a7146102da5780630a607b98146102d15780630e6eaf9b146102c857806312d21a34146102bf5780631fc64fe3146102b657806328227df1146102ad5780632ada2596146102a4578063343611a81461029b57806345a059761461029257806346e26dd31461028957806351cb31471461028057806352207b271461027757806354683cac1461026e57806357324c451461026557806359269e671461025c5780635a81179914610253578063633927dd1461024a5780636ac2c6c7146102415780636d1884e014610238578063715018a61461022f578063792110ee14610226578063827a421f1461021d57806386481d40146102145780638da5cb5b1461020b5780638f913a071461020257806393bf89a6146101f9578063989147b3146101f0578063c722f2af146101e7578063c8318815146101de578063c860d775146101d5578063dc5738be146101cc578063f1537686146101c3578063f2fde38b146101ba578063f3116011146101b15763f6488722146101a957600080fd5b61000e612128565b5061000e6120a9565b5061000e611f8c565b5061000e611f4a565b5061000e611db1565b5061000e611d75565b5061000e611d21565b5061000e611caa565b5061000e611c82565b5061000e611ba7565b5061000e611b2c565b5061000e611b04565b5061000e611aba565b5061000e6119a2565b5061000e611927565b5061000e6118b7565b5061000e6117c6565b5061000e61170d565b5061000e61156d565b5061000e6113e5565b5061000e6113b5565b5061000e611395565b5061000e611341565b5061000e61109b565b5061000e610e2d565b5061000e610ced565b5061000e610c46565b5061000e610bbb565b5061000e61090d565b5061000e6107bc565b5061000e610774565b5061000e6106ae565b5061000e610532565b5061000e6104da565b5061000e6103d8565b5061000e610334565b60005b8381106102ff5750506000910152565b81810151838201526020016102ef565b90601f19601f60209361032d815180928187528780880191016102ec565b0116010190565b503461000e57604060031936011261000e5760406103566024356004356130ad565b610384825192839260208452805160208501526020810151828501520151606080840152608083019061030f565b0390f35b60208152815160208201526001600160a01b03602083015116604082015260a060806103c2604085015183606086015260c085019061030f565b9360608101511515828501520151151591015290565b503461000e57602060031936011261000e576103846104966104916004356103fe61467a565b5061040833614a86565b61045a60406000838152606f60205261044c6001600160a01b036104358160018686200154161515614d6c565b858352606f60205283832060010154163314614d6c565b838152607060205220614db7565b610481600361047383600052606f602052604060002090565b01600160ff19825416179055565b600052606f602052604060002090565b6148a5565b60405191829182610388565b6001600160a01b0381160361000e57565b600319608091011261000e576004356104cb816104a2565b90602435906044359060643590565b503461000e5760206104f76104ee366104b3565b929190916142e7565b6040519015158152f35b9181601f8401121561000e5782359167ffffffffffffffff831161000e576020808501948460051b01011161000e57565b503461000e57608060031936011261000e5767ffffffffffffffff60043581811161000e57610565903690600401610501565b60249291923582811161000e57610580903690600401610501565b9060443593841161000e5761059c6105ed943690600401610501565b929091606435946105ac866104a2565b600054976105d160ff8a60081c1615809a819b610671575b8115610651575b50612294565b886105e4600160ff196000541617600055565b6106385761276d565b6105f4575b005b61060461ff001960005416600055565b604051600181527f7f26b83ff96e1f2b6a682f133852f6798a09c465da95921460cefb38474024989080602081015b0390a1005b61064c61010061ff00196000541617600055565b61276d565b303b15915081610663575b50386105cb565b6001915060ff16143861065c565b600160ff82161091506105c4565b602060031982011261000e576004359067ffffffffffffffff821161000e576106aa91600401610501565b9091565b503461000e576106bd3661067f565b6106c56121e5565b60005b8181106106d157005b806106e061073692848661265b565b35600052606960209080825260409182600020541560001461073b5750505061073161070d82858761265b565b61072c61071b84878961265b565b356000526069602052604060002090565b6126a9565b61231c565b6106c8565b60016107319361075861074f878a8c61265b565b848101906123b4565b949093610766888b8d61265b565b35600052526000200161249b565b503461000e57600060031936011261000e5760206001600160a01b0360665416604051908152f35b90604060206107b99380518452015191816020820152019061030f565b90565b503461000e57602060031936011261000e576107d66129c3565b5060043560005260696020526103846107f260406000206129dd565b60405191829160208352602083019061079c565b90815180825260208080930193019160005b828110610826575050505090565b835185529381019392810192600101610818565b90608060606107b993805184526020810151602085015260408101516040850152015191816060820152019061030f565b908082519081815260208091019281808460051b8301019501936000915b8483106108995750505050505090565b90919293949584806108b783601f1986600196030187528a5161083a565b9801930193019194939290610889565b95926107b99795926108ff9592151588526020880152604087015215156060860152608085015260e060a085015260e0840190610806565b9160c081840391015261086b565b503461000e57602060031936011261000e5760043561092b816104a2565b6001600160a01b03811680600052606d60205261038460ff60406000205416916001604060002001549361095e81614590565b91600052606d60205261097a600260406000200160ff90541690565b6003610999836001600160a01b0316600052606d602052604060002090565b0154906109ee6109e860056109e160046109c6886001600160a01b0316600052606d602052604060002090565b01966001600160a01b0316600052606d602052604060002090565b0194613515565b936136df565b93604051978897886108c7565b60243590811515820361000e57565b60443590811515820361000e57565b50634e487b7160e01b600052604160045260246000fd5b60c0810190811067ffffffffffffffff821117610a4c57604052565b610a54610a19565b604052565b6080810190811067ffffffffffffffff821117610a4c57604052565b6040810190811067ffffffffffffffff821117610a4c57604052565b6060810190811067ffffffffffffffff821117610a4c57604052565b60a0810190811067ffffffffffffffff821117610a4c57604052565b6020810190811067ffffffffffffffff821117610a4c57604052565b90601f601f19910116810190811067ffffffffffffffff821117610a4c57604052565b60405190610b1582610a91565b565b60405190610b1582610a75565b60405190610b1582610a59565b60405190610b1582610aad565b601f19601f60209267ffffffffffffffff8111610b5c575b01160190565b610b64610a19565b610b56565b929192610b7582610b3e565b91610b836040519384610ae5565b82948184528183011161000e578281602093846000960137010152565b9080601f8301121561000e578160206107b993359101610b69565b503461000e5760c060031936011261000e57600435610bd9816104a2565b610be16109fb565b67ffffffffffffffff9160643583811161000e57610c03903690600401610501565b60849291923585811161000e57610c1e903690600401610501565b93909260a43596871161000e57610c3c6105f2973690600401610ba0565b9560443591613bd0565b503461000e57602060031936011261000e576001600160a01b03610cb1610384610c7160043561449d565b9698956040959195949294519a8b9a168a52151560208a0152604089015260608801521515608087015260a08601526101008060c0870152850190610806565b9083820360e085015261086b565b9181601f8401121561000e5782359167ffffffffffffffff831161000e576020838186019501011161000e57565b503461000e57606060031936011261000e57600435610d0b816104a2565b67ffffffffffffffff60243581811161000e57610d2c903690600401610501565b909260443592831161000e57610dbf93610d4d610d99943690600401610cbf565b610db9610d5d8685999499613826565b97610db18660409a610da960348d51809360209e8f6bffffffffffffffffffffffff198185019860601b168852825192839186860191016102ec565b8101036014810184520182610ae5565b519020615c7a565b923691610b69565b90613469565b60005b838110610dcb57005b80610e01610ddd610e0b93878661234f565b3587610dea84898861234f565b013589610df8858a8961234f565b013591876142e7565b15610e105761231c565b610dc2565b610731610e2736610e2284898861234f565b613748565b85614046565b503461000e57606060031936011261000e57600435610e4b816104a2565b60243560443567ffffffffffffffff811161000e57610e6e903690600401610ba0565b91604091610eb7835194610eb2602087016001600160a01b038616976bffffffffffffffffffffffff198760601b16825285603482015260348152610da981610a91565b613469565b83600052606d60205260ff8360002054161561105a5760009350610edb81836141e4565b15610ee557505051f35b7f593c8b850cae6a478ff8850060a058179997558d3e942a5c3ecd27cc68d62695610fb3610f1284614590565b92610f3c816004610f36886001600160a01b0316600052606d602052604060002090565b016133dc565b6004610f52826000526072602052604060002090565b0154610f7f6001610f76886001600160a01b0316600052606d602052604060002090565b01918254613e8f565b9055610f8a85614faa565b610fc16002610fa3836000526072602052604060002090565b0187519384916020830190613e9c565b03601f198101845283610ae5565b610fd086519283928784613f1f565b0390a1610fdc82614590565b908111610fe857505051f35b81611054600161102c7fa7792332f0075457196fdfdfc63fafecd0d71f0c53de7d5b25e36c23804e1221956001600160a01b0316600052606d602052604060002090565b0154928551938493846040919493926001600160a01b03606083019616825260208201520152565b0390a151f35b6024848451907ff6440c120000000000000000000000000000000000000000000000000000000082526004820152fd5b9060206107b992818152019061030f565b503461000e57604060031936011261000e5760043560243567ffffffffffffffff811161000e573660238201121561000e5736816004013591602401916110e192610b69565b6110ea8261449d565b979698945094505050508015156111009061522e565b61110990615298565b9161111c6001600160a01b0386166153df565b9361112686614590565b61113a906000526068602052604060002090565b600301926040518094602082016111519086613735565b61115a91613e9c565b0396601f1997888101865261116f9086610ae5565b61117890614590565b906111829161566e565b9161118c91615904565b6040517f7b226e616d65223a22506f6e64534254200000000000000000000000000000006020820152948594919391603186016111c891613735565b7f222c20226465736372697074696f6e223a2250617274206f662074686520536f81527f756c206f66200000000000000000000000000000000000000000000000000000602082015260260161121d91613735565b7f222c22696d616765223a202200000000000000000000000000000000000000008152600c0161124c91613735565b7f222c000000000000000000000000000000000000000000000000000000000000815260020161127b91613735565b7f2c0000000000000000000000000000000000000000000000000000000000000081526001016112aa91613735565b7f7d0000000000000000000000000000000000000000000000000000000000000081526001010382810182526112e09082610ae5565b6112e9906154f9565b6040517f646174613a6170706c69636174696f6e2f6a736f6e3b6261736536342c000000602082015291908290603d820161132391613735565b0390810182526113339082610ae5565b60405161038481928261108a565b503461000e57602060031936011261000e576001600160a01b03600435611367816104a2565b61136f6121e5565b1673ffffffffffffffffffffffffffffffffffffffff1960675416176067556000604051f35b503461000e57602060031936011261000e576103846107f2600435612c95565b503461000e57602060031936011261000e5760206113dd6004356113d8816104a2565b614590565b604051908152f35b503461000e57604060031936011261000e5767ffffffffffffffff60043581811161000e57611418903690600401610501565b9160243590811161000e57611431903690600401610501565b6114396121e5565b60005b84811061144557005b61146461145382878761265b565b35600052606a602052604060002090565b546114f65761148561147782878761265b565b61072c61145384898961265b565b6114ac6114a761149683888861265b565b35600052606b602052604060002090565b612a87565b60005b8281106114c557506114c09061231c565b61143c565b6114ee906107316114dd611496858a8a9b979b61265b565b6114e8838789612b0d565b90612b85565b9490946114af565b61152861151161150783888861265b565b60208101906123b4565b906001611522611453868b8b61265b565b0161249b565b6115396114a761149683888861265b565b60005b82811061154d57506114c09061231c565b611565906107316114dd611496858a8a9b979b61265b565b94909461153c565b50602060031936011261000e57600435611586816104a2565b6115b060036115a8836001600160a01b0316600052606d602052604060002090565b0154156143a9565b6115d16115c56067546001600160a01b031690565b6001600160a01b031690565b6040517fa68407f60000000000000000000000000000000000000000000000000000000081526001600160a01b038316600482015291906020908390602490829034905af1600092816116dd575b5061167c5750506001611630614410565b6308c379a014611649575b61164157005b6105f2614403565b61165161442e565b8061165c575061163b565b6116789060405191829162461bcd60e51b83526004830161108a565b0390fd5b6116b5826105f29360036116a3856001600160a01b0316600052606d602052604060002090565b01556000526071602052604060002090565b906001600160a01b031673ffffffffffffffffffffffffffffffffffffffff19825416179055565b6116ff91935060203d8111611706575b6116f78183610ae5565b8101906143f4565b913861161f565b503d6116ed565b503461000e57604060031936011261000e5760206104f7600435611730816104a2565b602435906141e4565b91606083019183526020908184015260606040840152835180925260808301928160808460051b8301019501936000915b84831061177a5750505050505090565b90919293949584806117b6837fffffffffffffffffffffffffffffffffffffffffffffffffffffffffffffff8086600196030187528a5161079c565b980193019301919493929061176a565b503461000e57602060031936011261000e5760043560005260726020526040600020604051906117f582610a30565b80548252600181015460208301908152611811600283016128e5565b60408401526003820154606084015260a061183a60056004850154946080870195865201613515565b9301928084525161184a816135b3565b9360005b82811061186c57505050610384905191519260405193849384611739565b806118976118926118816118b2948651613012565b51600052606a602052604060002090565b6129dd565b6118a18289613012565b526118ac8188613012565b5061231c565b61184e565b503461000e57600080600319360112611924576118d26121e5565b60335473ffffffffffffffffffffffffffffffffffffffff198116603355816001600160a01b0360405192167f8be0079c531659141344cd1fd0a4f28419497f9722a3daafe3b4186f6b6457e08284a3f35b80fd5b503461000e57608060031936011261000e5767ffffffffffffffff60243581811161000e5761195a903690600401610cbf565b611965929192610a0a565b9260643592831161000e5761038493611985610496943690600401610501565b93909261199061467a565b5061199a33614a86565b6004356148f9565b503461000e576119b13661067f565b6119b96121e5565b600091825b8281106119cb5783604051f35b806119ee6119dd611a3f93868661234f565b356000526068602052604060002090565b54611a4c57611a14611a0182868661234f565b611a0f6119dd84888861234f565b612570565b606554611a2282868661234f565b35811015611a445750610731611a3982868661234f565b35606555565b6119be565b60655561231c565b6020611a5982868661234f565b01356001611a6b6119dd84888861234f565b01556040611a7a82868661234f565b01356002611a8c6119dd84888861234f565b0155610731611aa9611a9f83878761234f565b60608101906123b4565b9060036115226119dd868a8a61234f565b503461000e57602060031936011261000e57611ad46128be565b506004356000526068602052610384611af0604060002061298a565b60405191829160208352602083019061083a565b503461000e57600060031936011261000e5760206001600160a01b0360335416604051908152f35b503461000e5760e060031936011261000e5767ffffffffffffffff60443581811161000e57611b5f903690600401610cbf565b60a43583811161000e57611b77903690600401610501565b9160c43594851161000e57611b936105f2953690600401610ba0565b93608435916064359160243560043561318d565b503461000e57608060031936011261000e5767ffffffffffffffff60043560243582811161000e57611bdd903690600401610501565b60449391933582811161000e57611bf8903690600401610501565b9260643590811161000e576105f295611c7b93611c6c611c1f611c73943690600401610ba0565b610eb2896020610da9611c328c8b613826565b604051928391818301958652611c5d611c508c8c6040870191613159565b91828151948592016102ec565b0103601f198101835282610ae5565b369161205b565b9236916137b6565b9133613a47565b503461000e57600060031936011261000e5760206001600160a01b0360675416604051908152f35b503461000e5760c060031936011261000e5767ffffffffffffffff60443581811161000e57611cdd903690600401610ba0565b60843582811161000e57611cf5903690600401610501565b9060a43593841161000e57611d116105f2943690600401610ba0565b9260643590602435600435613602565b503461000e57602060031936011261000e576001600160a01b03600435611d47816104a2565b611d4f6121e5565b1673ffffffffffffffffffffffffffffffffffffffff1960665416176066556000604051f35b503461000e57611da7611d93611d8a366104b3565b92919091613f44565b60405192839260408452604084019061083a565b9060208301520390f35b503461000e57602060031936011261000e57600435611dcf816104a2565b6001600160a01b03606754163303611ee05761063381611e30611e267f7832841b27381cc9b824718ee239279b2e9c0a1ba515ff4759cb07d8afba6da0946001600160a01b0316600052606d602052604060002090565b60ff198154169055565b60006001611e51836001600160a01b0316600052606d602052604060002090565b015560006003611e74836001600160a01b0316600052606d602052604060002090565b0155611e9e6004611e98836001600160a01b0316600052606d602052604060002090565b016136bb565b611ec66005611ec0836001600160a01b0316600052606d602052604060002090565b016151a2565b6040516001600160a01b0390911681529081906020820190565b608460405162461bcd60e51b815260206004820152603360248201527f4c696c795061643a3a4f6e6c792053425420436f6e74726163742063616e206360448201527f616c6c206d656e62657273686970206275726e000000000000000000000000006064820152fd5b503461000e57602060031936011261000e576001600160a01b03600435611f70816104a2565b16600052606d6020526020600360406000200154604051908152f35b503461000e57602060031936011261000e57600435611faa816104a2565b611fb26121e5565b6001600160a01b03811615611fca576105f29061223d565b608460405162461bcd60e51b815260206004820152602660248201527f4f776e61626c653a206e6577206f776e657220697320746865207a65726f206160448201527f64647265737300000000000000000000000000000000000000000000000000006064820152fd5b60209067ffffffffffffffff811161204e575b60051b0190565b612056610a19565b612047565b929161206682612034565b916120746040519384610ae5565b829481845260208094019160051b810192831161000e57905b82821061209a5750505050565b8135815290830190830161208d565b503461000e57608060031936011261000e5767ffffffffffffffff60243581811161000e576120dc903690600401610ba0565b906120e5610a0a565b9160643591821161000e573660238301121561000e576103849261211661049693369060248160040135910161205b565b9161211f61467a565b50600435614bab565b503461000e57608060031936011261000e5760243560043560643567ffffffffffffffff811161000e57612160903690600401610cbf565b909261216a6121e5565b82156121a9575061219f6105f29361218c84600052606c602052604060002090565b92612195610b17565b9485523691610b69565b6020830152612e8f565b91506121db6105f29383600052606b6020526040600020926121c9610b08565b94855260443560208601523691610b69565b6040830152612d87565b6001600160a01b036033541633036121f957565b606460405162461bcd60e51b815260206004820152602060248201527f4f776e61626c653a2063616c6c6572206973206e6f7420746865206f776e65726044820152fd5b603354906001600160a01b03809116918273ffffffffffffffffffffffffffffffffffffffff19821617603355167f8be0079c531659141344cd1fd0a4f28419497f9722a3daafe3b4186f6b6457e06000604051a3565b1561229b57565b608460405162461bcd60e51b815260206004820152602e60248201527f496e697469616c697a61626c653a20636f6e747261637420697320616c72656160448201527f647920696e697469616c697a65640000000000000000000000000000000000006064820152fd5b50634e487b7160e01b600052601160045260246000fd5b600190600019811461232c570190565b612334612305565b0190565b50634e487b7160e01b600052603260045260246000fd5b9190811015612390575b60051b810135907fffffffffffffffffffffffffffffffffffffffffffffffffffffffffffffff818136030182121561000e570190565b612398612338565b612359565b50634e487b7160e01b600052600060045260246000fd5b9035907fffffffffffffffffffffffffffffffffffffffffffffffffffffffffffffffe18136030182121561000e570180359067ffffffffffffffff821161000e5760200191813603831361000e57565b90600182811c92168015612435575b602083101461241f57565b634e487b7160e01b600052602260045260246000fd5b91607f1691612414565b81811061244a575050565b6000815560010161243f565b9190601f811161246557505050565b610b15926000526020600020906020601f840160051c83019310612491575b601f0160051c019061243f565b9091508190612484565b90929167ffffffffffffffff8111612563575b6124c2816124bc8454612405565b84612456565b6000601f82116001146124fb57819293946000926124f0575b50506000198260011b9260031b1c1916179055565b0135905038806124db565b601f1982169461251084600052602060002090565b91805b87811061254b575083600195969710612531575b505050811b019055565b60001960f88560031b161c19910135169055388080612527565b90926020600181928686013581550194019101612513565b61256b610a19565b6124ae565b8135815560209061259d6003600192848601358482015560408601356002820155019360608101906123b4565b929067ffffffffffffffff841161264e575b6125c3846125bd8754612405565b87612456565b600091601f85116001146125fe57506000918491826125f1575b505060001991921b9260031b1c1916179055565b01359150600019386125dd565b9184601f198195961661261688600052602060002090565b9483905b88838310612634575050501061253157505050811b019055565b86860135885590960195938401938793509081019061261a565b612656610a19565b6125af565b919081101561269c575b60051b810135907fffffffffffffffffffffffffffffffffffffffffffffffffffffffffffffffc18136030182121561000e570190565b6126a4612338565b612665565b90803582556001809201916126c3602092838101906123b4565b929067ffffffffffffffff8411612760575b6126e3846125bd8754612405565b600091601f851160011461271057506000918491826125f157505060001991921b9260031b1c1916179055565b9184601f198195961661272888600052602060002090565b9483905b88838310612746575050501061253157505050811b019055565b86860135885590960195938401938793509081019061272c565b612768610a19565b6126d5565b60005b8281106128135750505060005b8281106127ee5750505060005b8281106127c957505050610b15906127a061289b565b6001600160a01b031673ffffffffffffffffffffffffffffffffffffffff196066541617606655565b806107316127db6127e993868661265b565b61072c61145384888861265b565b61278a565b8061073161280061280e93868661265b565b61072c61071b84888861265b565b61277d565b80611a14611a0161282593868661234f565b612770565b1561283157565b608460405162461bcd60e51b815260206004820152602b60248201527f496e697469616c697a61626c653a20636f6e7472616374206973206e6f74206960448201527f6e697469616c697a696e670000000000000000000000000000000000000000006064820152fd5b6128b560ff60005460081c166128b08161282a565b61282a565b610b153361223d565b604051906128cb82610a59565b606080836000815260006020820152600060408201520152565b90604051918260008254926128f984612405565b9081845260019485811690816000146129665750600114612923575b5050610b1592500383610ae5565b9093915060005260209081600020936000915b81831061294e575050610b1593508201013880612915565b85548884018501529485019487945091830191612936565b9050610b1595506020935060ff1991501682840152151560051b8201013880612915565b9060405161299781610a59565b60606129be60038395805485526001810154602086015260028101546040860152016128e5565b910152565b604051906129d082610a75565b6060602083600081520152565b906040516129ea81610a75565b60206129be6001839580548552016128e5565b7f3fffffffffffffffffffffffffffffffffffffffffffffffffffffffffffffff8111600116612a2e575b60021b90565b612a36612305565b612a28565b612a458154612405565b9081612a4f575050565b81601f60009311600114612a61575055565b81835260208320612a7d91601f0160051c81019060010161243f565b8160208120915555565b805490600080825582612a9957505050565b6001917f555555555555555555555555555555555555555555555555555555555555555584118316612b00575b8152602081209160039384028301925b838110612ae4575050505050565b80838692558383820155612afa60028201612a3b565b01612ad6565b612b08612305565b612ac6565b9190811015612b4e575b60051b810135907fffffffffffffffffffffffffffffffffffffffffffffffffffffffffffffffa18136030182121561000e570190565b612b56612338565b612b17565b8054821015612b78575b6000526003602060002091020190600090565b612b80612338565b612b65565b612ba9815468010000000000000000811015612c88575b6001928382018155612b5b565b919091612c7b575b82358255612bd160026020938486013584820155019360408101906123b4565b929067ffffffffffffffff8411612c6e575b612bf1846125bd8754612405565b600091601f8511600114612c1e57506000918491826125f157505060001991921b9260031b1c1916179055565b9184601f1981959616612c3688600052602060002090565b9483905b88838310612c54575050501061253157505050811b019055565b868601358855909601959384019387935090810190612c3a565b612c76610a19565b612be3565b612c8361239d565b612bb1565b612c90610a19565b612b9c565b612c9d6129c3565b50600052606a6020526107b960406000206129dd565b919091825167ffffffffffffffff8111612d7a575b612cd6816124bc8454612405565b602080601f8311600114612d10575081929394600092612d055750506000198260011b9260031b1c1916179055565b0151905038806124db565b90601f19831695612d2685600052602060002090565b926000905b888210612d6257505083600195969710612d4957505050811b019055565b015160001960f88460031b161c19169055388080612527565b80600185968294968601518155019501930190612d2b565b612d82610a19565b612cc8565b612daa815468010000000000000000811015612c88576001928382018155612b5b565b919091612e82575b82518255604060026020938486015184820155019301519182519267ffffffffffffffff8411612e75575b612deb846125bd8754612405565b81601f8511600114612e235750600091849182612e1657505060001991921b9260031b1c1916179055565b01519150600019386125dd565b919084601f1981959616612e3c88600052602060002090565b946000905b88838310612e5b5750505010612d4957505050811b019055565b858701518855909601959485019487935090810190612e41565b612e7d610a19565b612ddd565b612e8a61239d565b612db2565b80549068010000000000000000821015612f88575b6001918291828201808255821015612f7b575b60005260209283918260002090821b0185518155019301519182519267ffffffffffffffff8411612f6e575b612ef1846125bd8754612405565b81601f8511600114612f1c5750600091849182612e1657505060001991921b9260031b1c1916179055565b919084601f1981959616612f3588600052602060002090565b946000905b88838310612f545750505010612d4957505050811b019055565b858701518855909601959485019487935090810190612f3a565b612f76610a19565b612ee3565b612f83612338565b612eb7565b612f90610a19565b612ea4565b908154612fa181612034565b92604093612fb185519182610ae5565b828152809460208092019260005281600020906000935b858510612fd757505050505050565b6003846001928451612fe881610a91565b865481528487015483820152613000600288016128e5565b86820152815201930194019391612fc8565b6020918151811015613027575b60051b010190565b61302f612338565b61301f565b6040519061304182610ac9565b60008252565b6040519061305482610ac9565b6000808352366020840137565b6040519061306e82610a91565b602a82526040366020840137565b9061308682610b3e565b6130936040519182610ae5565b828152601f196130a38294610b3e565b0190602036910137565b604051916130ba83610a91565b6130e96130e46000938486526060604060209787898201520152600052606b602052604060002090565b612f95565b805191835b83811061312457505050506040519061310682610ac9565b8082526040519261311684610a91565b818452830152604082015290565b81866131308386613012565b51015114613146576131419061231c565b6130ee565b93505090506131559250613012565b5190565b91907f07ffffffffffffffffffffffffffffffffffffffffffffffffffffffffffffff811161000e5760051b809282370190565b959096929897946131e78a959396610eb2898b610da98b6131d960a08d60409e8f948551978896602088019a8b52870152606086013783018c60608201528a6080820152018c8b613159565b03601f198101835282610ae5565b6132056131fe886000526072602052604060002090565b5415613353565b8661321a816000526072602052604060002090565b55876001613232896000526072602052604060002090565b01556004928361324c896000526072602052604060002090565b01556132698a8760026115228b6000526072602052604060002090565b600361327f886000526072602052604060002090565b015560005b8381106132c75750505050946132c2917f1abd60720207a16761b9322f8b67c8d0df9ace2c2f355828a65268420f5b1bd29596519485943386613426565b0390a1565b6132d561145382868561339e565b54156133105761330b9061073160056132f88a6000526072602052604060002090565b0161330483888761339e565b35906133dc565b613284565b611678929361331e9261339e565b3592519283927f6f872bdc00000000000000000000000000000000000000000000000000000000845283019190602083019252565b1561335a57565b606460405162461bcd60e51b815260206004820152601560248201527f4576656e7420616c7265616479206372656174656400000000000000000000006044820152fd5b91908110156133ae5760051b0190565b612056612338565b80548210156133cf575b60005260206000200190600090565b6133d7612338565b6133c0565b80546133ff9168010000000000000000821015613419575b6001820181556133b6565b819291549060031b600019811b9283911b16911916179055565b613421610a19565b6133f4565b939460a095601f1994601f946001600160a01b03849516885260208801526040870152608060608701528160808701528686013760008582860101520116010190565b604182510361000e5760806000918360208095015160606040830151920151604051938452851a868401526040830152606082015282805260015afa15613508575b6000516001600160a01b0380606654169116036134c457565b606460405162461bcd60e51b815260206004820152601c60248201527f4920646f6e27742074616b65206f72646572732066726f6d20796f75000000006044820152fd5b613510614403565b6134ab565b9060405191828154918282526020928383019160005283600020936000905b82821061354a57505050610b1592500383610ae5565b855484526001958601958895509381019390910190613534565b9060405161357181610a30565b60a06129be600583958054855260018101546020860152613594600282016128e5565b6040860152600381015460608601526004810154608086015201613515565b906135bd82612034565b6135ca6040519182610ae5565b828152601f196135da8294612034565b019060005b8281106135eb57505050565b6020906135f66129c3565b828285010152016135df565b959261363b61366394969596610eb260405160208101908b8252866040820152856060820152610da9816131d98d8d6080840191613159565b6000878152607260205260409020600481019190915560018101919091556002905b01612cb3565b600561367d81611e98866000526072602052604060002090565b60005b82811061368e575050505050565b6136b690610731836136aa886000526072602052604060002090565b0161330483878961339e565b613680565b805460008255806136ca575050565b610b159160005260206000209081019061243f565b9081546136eb81612034565b926136f96040519485610ae5565b818452600090815260208082208186015b848410613718575050505050565b6004836001926137278561298a565b81520192019301929061370a565b90612334602092828151948592016102ec565b91909160808184031261000e576040519067ffffffffffffffff9060808301828111848210176137a9575b6040528294813584526020820135602085015260408201356040850152606082013592831161000e576060926129be9201610ba0565b6137b1610a19565b613773565b929190926137c384612034565b916137d16040519384610ae5565b829480845260208094019060051b83019282841161000e5780915b8483106137fb57505050505050565b823567ffffffffffffffff811161000e57869161381b8684938601613748565b8152019201916137ec565b6000606091829382935b81851061383f57505050505090565b90919293946138da906138d48761385781878961234f565b3592602080613867848a8c61234f565b013590896138926138896040968c8861388183838861234f565b01359461234f565b8a8101906123b4565b939095805198866138ac8b9851809288808c0191016102ec565b8701948501528301528882015281608094858301370189838201520385810184520182610ae5565b9561231c565b93929190613830565b156138ea57565b606460405162461bcd60e51b815260206004820152601360248201527f5061746820416c72656164792043686f73656e000000000000000000000000006044820152fd5b80549068010000000000000000821015613a3a575b600190818301808255831015613a2d575b60005260606003602093846000209060021b0185518155848601518482015560408601516002820155019301519182519267ffffffffffffffff8411613a20575b6139a3846125bd8754612405565b81601f85116001146139ce5750600091849182612e1657505060001991921b9260031b1c1916179055565b919084601f19819596166139e788600052602060002090565b946000905b88838310613a065750505010612d4957505050811b019055565b8587015188559096019594850194879350908101906139ec565b613a28610a19565b613995565b613a35612338565b613954565b613a42610a19565b613943565b91939293613a81613a7c613a78613a71866001600160a01b0316600052606d602052604060002090565b5460ff1690565b1590565b6138e3565b613aae613aa1846001600160a01b0316600052606d602052604060002090565b600160ff19825416179055565b60019182613acf856001600160a01b0316600052606d602052604060002090565b0155613af36002610473856001600160a01b0316600052606d602052604060002090565b60006003613b14856001600160a01b0316600052606d602052604060002090565b0155816000815b613b84575b50600091505b613b38575b5050610b15919250614faa565b8451811015613b7f57613b79906107316005613b67866001600160a01b0316600052606d602052604060002090565b01613b728389613012565b519061392e565b81613b26565b613b2b565b8251811015613bcb57613bc5906107316004613bb3886001600160a01b0316600052606d602052604060002090565b01613bbe8387613012565b51906133dc565b81613b1b565b613b20565b95949391809791613c33613be48888613826565b93610eb28a88610da9898760409a611c5d611c508d5196879560209e8f966bffffffffffffffffffffffff19888a019c60601b168c52151560f81b603489015260358801526055870191613159565b613c56613a78613a718a6001600160a01b0316600052606d602052604060002090565b15613c805750505091613c72613c7a92610b159794369161205b565b9336916137b6565b92613a47565b8798613cda613cab613a71613d2d9598969b6001600160a01b0316600052606d602052604060002090565b613cc88c6001600160a01b0316600052606d602052604060002090565b9060ff60ff1983541691151516179055565b6001613cf98b6001600160a01b0316600052606d602052604060002090565b01556002613d1a8a6001600160a01b0316600052606d602052604060002090565b019060ff60ff1983541691151516179055565b6003613d4c886001600160a01b0316600052606d602052604060002090565b01546003613d6d896001600160a01b0316600052606d602052604060002090565b0155600491613d9383611e988a6001600160a01b0316600052606d602052604060002090565b60005b818110613e1c575050505060005b838110613db9575050505050610b1590614faa565b80613df2613a78613dce613dfb94888861234f565b3585613ddb858a8a61234f565b013589613de9868b8b61234f565b0135918b6142e7565b613e005761231c565b613da4565b610731613e16613e1183888861234f565b613e52565b88614121565b613e4d9061073185613e418c6001600160a01b0316600052606d602052604060002090565b0161330483868861339e565b613d96565b6107b9903690613748565b9060018201809211613e6b57565b610b15612305565b9060028201809211613e6b57565b9060208201809211613e6b57565b91908201809211613e6b57565b600092918154613eab81612405565b92600191808316908115613f045750600114613ec8575b50505050565b90919293945060005260209081600020906000915b858310613ef35750505050019038808080613ec2565b805485840152918301918101613edd565b60ff1916845250505081151590910201915038808080613ec2565b6107b993926001600160a01b036060931682526020820152816040820152019061030f565b6005613f75613f7b92969596949394613f5b6128be565b506001600160a01b0316600052606d602052604060002090565b016136df565b9182519460005b868110613fbe5750505050509050613f98613047565b613fa0610b24565b90600082526000602083015260006040830152606082015290600090565b8315158061402f575b80614018575b8015613ffa575b613fe657613fe19061231c565b613f82565b955050505082613ff591613012565b519190565b508215158015613fd45750826140108287613012565b515114613fd4565b508160406140268388613012565b51015114613fcd565b5083602061403d8388613012565b51015114613fc7565b610b15918051602082016140648151926040850193845191876142e7565b15614072575b505050614faa565b6141167f533b013fca2d1f905bfcf844f8e57f1bf74442efd832ecc90ba9cd1d5ac268da936001600160a01b038616600052606d6020526140e4600560406000200182519085518751606086015191604051946140ce86610a59565b855260208501526040840152606083015261392e565b51915192516040519384938785909493926060926001600160a01b036080840197168352602083015260408201520152565b0390a138808061406a565b90805191602082019161413e8351946040830195865191856142e7565b156141495750505050565b7f533b013fca2d1f905bfcf844f8e57f1bf74442efd832ecc90ba9cd1d5ac268da936141d8916001600160a01b038416600052606d6020526141a6600560406000200182519087518551606086015191604051946140ce86610a59565b51935190519060405194859485909493926060926001600160a01b036080840197168352602083015260408201520152565b0390a138808080613ec2565b9060005b6001600160a01b038316600052606d602052600460409080826000200154831015614249578261421d918593600020016133b6565b90549060031b1c146142415761423a6001600160a01b039161231c565b90506141e8565b505050600190565b5050505050600090565b6005613f75614275926001600160a01b0316600052606d602052604060002090565b9182519260005b84811061428d575050505050600090565b831515806142d0575b806142b9575b156142ab575050505050600190565b6142b49061231c565b61427c565b508260406142c78385613012565b5101511461429c565b508360206142de8385613012565b51015114614296565b6005613f75614309926001600160a01b0316600052606d602052604060002090565b9182519360005b85811061432257505050505050600090565b82151580614392575b8061437b575b1561434157505050505050600190565b83151580614367575b61435c576143579061231c565b614310565b505050505050600190565b50836143738287613012565b51511461434a565b508160406143898388613012565b51015114614331565b508260206143a08388613012565b5101511461432b565b156143b057565b606460405162461bcd60e51b815260206004820152601460248201527f53425420616c726561647920646566696e6564210000000000000000000000006044820152fd5b9081602091031261000e575190565b506040513d6000823e3d90fd5b60009060033d1161441d57565b905060046000803e60005160e01c90565b600060443d106107b95760405160031991823d016004833e815167ffffffffffffffff918282113d60248401111761448c57818401948551938411614494573d8501016020848701011161448c57506107b992910160200190610ae5565b949350505050565b50949350505050565b8060005260716020526001600160a01b0360406000205416600052606d6020526040600020916040516144cf81610a30565b60ff845416151581526001840154936020820194855260ff600282015416926144fe6040840194859015159052565b6003820154926060810193845261452a600561451c60048601613515565b9460808401958652016136df565b9160a0820192835261457f6145656113d861455861456c6145656145588d6000526071602052604060002090565b546001600160a01b031690565b9651151590565b9b519a6000526071602052604060002090565b945193519251919796959493929190565b6001600160a01b0360655491166000526020606d81526040806000209181516145b881610a30565b60ff8454161515815260a061460a60056001870154968585019788526145e960ff6002830154168887019015159052565b600381015460608601526145ff60048201613515565b6080860152016136df565b91015260015b84811115614622575050505050600090565b61463e614639826000526068602052604060002090565b61298a565b845183820151811015908161466c575b50614662575061465d9061231c565b614610565b9450505050505190565b90508482015110153861464e565b6040519061468782610aad565b6000608083828152826020820152606060408201528260608201520152565b90805182556020916001600160a01b038383015116926146ed600194858401906001600160a01b031673ffffffffffffffffffffffffffffffffffffffff19825416179055565b600282019060408401519485519167ffffffffffffffff8311614824575b61471f836147198654612405565b86612456565b80601f84116001146147a757509282614784959281600395608097610b159b60009361479a575b505060001991921b92861b1c19161790555b019261477d61476a6060830151151590565b859060ff60ff1983541691151516179055565b0151151590565b815461ff00191690151560081b61ff0016179055565b0151915060001938614746565b9193949596601f1984166147c087600052602060002090565b936000905b82821061480d57505093610b1598979361478497936080979383600398106147f5575b505050811b019055614758565b015160001960f884891b161c191690553880806147e8565b8088869782949787015181550196019401906147c5565b61482c610a19565b61470b565b906002604061485d610b159480549068010000000000000000821015614898575b600182018155612b5b565b93909361488b575b80518455602081015160018501550151151591019060ff60ff1983541691151516179055565b61489361239d565b614865565b6148a0610a19565b614852565b906040516148b281610aad565b608060ff60038395805485526001600160a01b0360018201541660208601526148dd600282016128e5565b604086015201548181161515606085015260081c161515910152565b9390949161491161490b36858561205b565b33614e37565b9690156149215750505050505090565b61498f9192939495965061497661495c614939610b31565b9289845260209561495533888701906001600160a01b03169052565b3691610b69565b966040978884015260006060840152608083019015159052565b61498a87600052606f602052604060002090565b6146a6565b60005b8381106149c7575050505050610491816104816149b16107b994614f61565b6003613d1a84600052606f602052604060002090565b614a6d906149ef60036149e489600052606f602052604060002090565b015460081c60ff1690565b15614a7257614a09614a0282878761339e565b3533614aeb565b505b610731614a22886000526070602052604060002090565b614a2b83613e5d565b90614a68614a3a858a8a61339e565b35614a50614a49878c8c61339e565b35336141e4565b90614a59610b08565b9485528885015215158a840152565b614831565b614992565b614a80614a4982878761339e565b50614a0b565b6001600160a01b0316600052606d60205260ff6040600020541615614aa757565b606460405162461bcd60e51b815260206004820152600f60248201527f50617468206e6f742043686f73656e00000000000000000000000000000000006044820152fd5b90614b0a614b0560a0926000526072602052604060002090565b613564565b01908151516000925b818410614b235750505050600190565b614b456130e4614b34868451613012565b51600052606b602052604060002090565b9160005b8351811015614b9757614b7a613a78614b628387613012565b51516020614b708589613012565b5101519088614253565b614b8c57614b879061231c565b614b49565b505050505050600090565b5093614ba491925061231c565b9290614b13565b9190939293614bb933614a86565b614c506001600160a01b0391614c1e600193614bfd81614bf587614be78b600052606f602052604060002090565b01546001600160a01b031690565b161515614d6c565b3390614c1786614be78a600052606f602052604060002090565b1614614d6c565b614c3a614c35866000526070602052604060002090565b614db7565b600261365d86600052606f602052604060002090565b614c8460039283614c6b86600052606f602052604060002090565b019061ff001961ff00835492151560081b169116179055565b600080825b614cbd575b5050506107b99293509061048161049192614ca883614f61565b90613d1a84600052606f602052604060002090565b8651811015614d6757614d4490614ce2856149e488600052606f602052604060002090565b15614d4a5761073188614cff614cf88483613012565b5133614aeb565b614a68614d168a6000526070602052604060002090565b91614d2a86614d2481613e5d565b95613012565b51614d33610b08565b948552602085015215156040840152565b82614c89565b61073188614d62614d5b8483613012565b51336141e4565b614cff565b614c8e565b15614d7357565b606460405162461bcd60e51b815260206004820152601160248201527f4a6f75726e6579206e6f7420666f756e640000000000000000000000000000006044820152fd5b805490600080825582614dc957505050565b6001917f555555555555555555555555555555555555555555555555555555555555555584118316614e2a575b8152602081209160039384028301925b838110614e14575050505050565b8083869255838382015583600282015501614e06565b614e32612305565b614df6565b919091614e4261467a565b50614e4b61467a565b9060005b614e6c826001600160a01b0316600052606e602052604060002090565b54811015614f5757600193614eaa614ea083614e9b866001600160a01b0316600052606e602052604060002090565b6133b6565b90549060031b1c90565b936000905b614ec3866000526070602052604060002090565b54821015614f3257614ed58289613012565b516001614ef584614ef08a6000526070602052604060002090565b612b5b565b50015403614f245750614f1e614f1861049187600052606f602052604060002090565b9161231c565b90614eaf565b909550614f1e60009661231c565b939591945050614f4e57614f459061231c565b92909192614e4f565b50600193509150565b5050915060009190565b60005b81600052607060205260408060002054821015614241576002614f8c8360ff93600020612b5b565b5001541615614fa357614f9e9061231c565b614f64565b5050600090565b906000915b614fcc816001600160a01b0316600052606e602052604060002090565b5483101561519d57614ff8614ea084614e9b846001600160a01b0316600052606e602052604060002090565b9060039361501c8561501485600052606f602052604060002090565b015460ff1690565b61519057600093845b615039856000526070602052604060002090565b5481101561515557615098613a7861505f83614ef0896000526070602052604060002090565b50615072613a7860028093015460ff1690565b6150b4575b61508f84614ef08a6000526070602052604060002090565b50015460ff1690565b6150ab575b6150a69061231c565b615025565b6001955061509d565b6150cc8a6149e48a600052606f602052604060002090565b1561512c576151276150fa60016150f187614ef08d6000526070602052604060002090565b50015489614aeb565b8261511387614ef08d6000526070602052604060002090565b50019060ff60ff1983541691151516179055565b615077565b6151276150fa600161514c87614ef08d6000526070602052604060002090565b500154896141e4565b50939461516c9391929515615172575b505061231c565b91614faf565b61047361518992600052606f602052604060002090565b3880615165565b90935061516c915061231c565b509050565b8054600090818355806151b457505050565b6001927f3fffffffffffffffffffffffffffffffffffffffffffffffffffffffffffffff82118416615221575b82526020822092600291821b8401935b8481106151ff575050505050565b8084600492558483820155848482015561521b60038201612a3b565b016151f1565b615229612305565b6151e1565b1561523557565b606460405162461bcd60e51b815260206004820152601960248201527f496e76616c6964204d656d6265722f546f6b656e2064617461000000000000006044820152fd5b90602091805182101561528b57010190565b615293612338565b010190565b801561534c576000818181805b61533457506152b38161307c565b935b6152bf5750505090565b6000198101908111615327575b8091600a916153117fff000000000000000000000000000000000000000000000000000000000000006030858506810180911161531a575b60f81b16861a9187615279565b530490816152b5565b615322612305565b615304565b61532f612305565b6152cc565b9150615341600a9161231c565b9104808492916152a5565b5060405161535981610a75565b600181527f3000000000000000000000000000000000000000000000000000000000000000602082015290565b60001990801561232c570190565b1561539b57565b606460405162461bcd60e51b815260206004820152602060248201527f537472696e67733a20686578206c656e67746820696e73756666696369656e746044820152fd5b6153e7613061565b9081511561548d575b603060208301538151600190811015615480575b90607860218401536029915b80831161542357506107b9915015615394565b90807f3031323334353637383961626364656600000000000000000000000000000000600f61546c93166010811015615473575b1a6154628587615279565b5360041c92615386565b9190615410565b61547b612338565b615457565b615488612338565b615404565b615495612338565b6153f0565b604051906154a782610a91565b604082527f6768696a6b6c6d6e6f707172737475767778797a303132333435363738392b2f6040837f4142434445464748494a4b4c4d4e4f505152535455565758595a61626364656660208201520152565b80511561562c5761550861549a565b61552461551f6155188451613e73565b6003900490565b6129fd565b9161553661553184613e81565b61307c565b92835280815182019060208501935b8282106155da5750505060039051068060011461559157600214615567575090565b6000197f3d0000000000000000000000000000000000000000000000000000000000000091015290565b507ffffffffffffffffffffffffffffffffffffffffffffffffffffffffffffffffe7f3d3d00000000000000000000000000000000000000000000000000000000000091015290565b9091936004906003809401938451600190603f9082828260121c16880101518553828282600c1c16880101518386015382828260061c1688010151600286015316850101519082015301939190615545565b506107b9613034565b6040519061564282610a75565b600f82527f2261747472696275746573223a205b00000000000000000000000000000000006020830152565b91906156f89061568561567f615635565b94615298565b9060409161572183519485926156f26156a360209a8b870190613735565b7f7b202274726169745f74797065223a224c6576656c222c202276616c7565223a81527f2000000000000000000000000000000000000000000000000000000000000000602082015260210190565b90613735565b7f7d00000000000000000000000000000000000000000000000000000000000000815260010190565b0392615735601f1994858101835282610ae5565b906000915b815183101561587a5761585461586e615874926157998a61578d6157648a51948593840190613735565b7f2c7b202274726169745f74797065223a22000000000000000000000000000000815260110190565b03898101835282610ae5565b6157ed8a61578d60016157d6816157c46157b38d8d613012565b516000526072602052604060002090565b01546000526069602052604060002090565b016157e78b51958694850190613735565b90613e9c565b61582d8a61578d6158048a51948593840190613735565b7f222c202276616c7565223a2022000000000000000000000000000000000000008152600d0190565b6158438a61578d60026157d66157b38b8b613012565b61586287519384928c840190613735565b61227d60f01b815260020190565b03878101835282610ae5565b9261231c565b9161573a565b94959150506158bf6158966107b9949351958693840190613735565b7f5d00000000000000000000000000000000000000000000000000000000000000815260010190565b03908101835282610ae5565b604051906158d882610a75565b600b82527f22626164676573223a205b0000000000000000000000000000000000000000006020830152565b61590c6158cb565b6000905b8251821015615c5b578115615c1357615939615764916131d96040519384926020840190613735565b6020806159468486613012565b510151615ac6575b6159588385613012565b5151615970575b509061596a9061231c565b90615910565b6040908151809382820161598391613735565b7f2c202276616c7565223a202200000000000000000000000000000000000000008152600c010391601f199283810185526159be9085610ae5565b6159c88587613012565b51516159de906000526072602052604060002090565b6002019381519485918483016159f391613735565b6159fc91613e9c565b038381018552615a0c9085610ae5565b80518094838201615a1c91613735565b7f222c2022696d616765223a2022000000000000000000000000000000000000008152600d01038381018552615a529085610ae5565b615a5c8587613012565b5160600151938151948591848301615a7391613735565b615a7d908a613735565b615a8691613735565b038381018552615a969085610ae5565b519283918201615aa591613735565b61227d60f01b8152600201039081018252615ac09082610ae5565b3861595f565b9081615ad28486613012565b510151615ade90612c95565b60408381518094828201615af191613735565b7f2c202276616c7565223a202200000000000000000000000000000000000000008152600c010392601f19938481018652615b2c9086610ae5565b0151928151938491868301615b4091613735565b615b4991613735565b038281018452615b599084610ae5565b80518093858201615b6991613735565b7f222c2022696d616765223a2022000000000000000000000000000000000000008152600d01038281018452615b9f9084610ae5565b615ba98587613012565b5160600151928151938491868301615bc091613735565b615bca908a613735565b615bd391613735565b038281018452615be39084610ae5565b518092848201615bf291613735565b61227d60f01b8152600201039081018252615c0d9082610ae5565b9061594e565b615c56615c2d916131d96040519384926020840190613735565b7f7b202274726169745f74797065223a2242414447452200000000000000000000815260160190565b615939565b905061589692506107b991506131d96040519384926020840190613735565b60405160208101917f19457468657265756d205369676e6564204d6573736167653a0a3332000000008352603c820152603c8152615cb781610a91565b5190209056fea264697066735822122072f84df3b3467cd1cf76e730896a3970f7c80cd9391c7f4c876245592d61387364736f6c63430008100033","linkReferences":{},"deployedLinkReferences":{}}