{"_format":"hh-sol-artifact-1","contractName":"LilyPadGovernor","sourceName":"contracts/Governance/LilyPadGovernor.sol","abi":[{"inputs":[],"stateMutability":"nonpayable","type":"constructor"},{"inputs":[],"name":"Empty","type":"error"},{"anonymous":false,"inputs":[{"indexed":false,"internalType":"uint8","name":"version","type":"uint8"}],"name":"Initialized","type":"event"},{"anonymous":false,"inputs":[{"indexed":false,"internalType":"uint256","name":"proposalId","type":"uint256"}],"name":"ProposalCanceled","type":"event"},{"anonymous":false,"inputs":[{"indexed":false,"internalType":"uint256","name":"proposalId","type":"uint256"},{"indexed":false,"internalType":"address","name":"proposer","type":"address"},{"indexed":false,"internalType":"address[]","name":"targets","type":"address[]"},{"indexed":false,"internalType":"uint256[]","name":"values","type":"uint256[]"},{"indexed":false,"internalType":"string[]","name":"signatures","type":"string[]"},{"indexed":false,"internalType":"bytes[]","name":"calldatas","type":"bytes[]"},{"indexed":false,"internalType":"uint256","name":"startBlock","type":"uint256"},{"indexed":false,"internalType":"uint256","name":"endBlock","type":"uint256"},{"indexed":false,"internalType":"string","name":"description","type":"string"}],"name":"ProposalCreated","type":"event"},{"anonymous":false,"inputs":[{"indexed":false,"internalType":"uint256","name":"proposalId","type":"uint256"}],"name":"ProposalExecuted","type":"event"},{"anonymous":false,"inputs":[{"indexed":false,"internalType":"uint256","name":"proposalId","type":"uint256"},{"indexed":false,"internalType":"uint256","name":"eta","type":"uint256"}],"name":"ProposalQueued","type":"event"},{"anonymous":false,"inputs":[{"indexed":false,"internalType":"uint256","name":"oldProposalThreshold","type":"uint256"},{"indexed":false,"internalType":"uint256","name":"newProposalThreshold","type":"uint256"}],"name":"ProposalThresholdSet","type":"event"},{"anonymous":false,"inputs":[{"indexed":false,"internalType":"uint256","name":"id","type":"uint256"}],"name":"ProposalVetoed","type":"event"},{"anonymous":false,"inputs":[{"indexed":false,"internalType":"uint256","name":"oldQuorumNumerator","type":"uint256"},{"indexed":false,"internalType":"uint256","name":"newQuorumNumerator","type":"uint256"}],"name":"QuorumNumeratorUpdated","type":"event"},{"anonymous":false,"inputs":[{"indexed":false,"internalType":"address","name":"vetoer","type":"address"}],"name":"ResignedPower","type":"event"},{"anonymous":false,"inputs":[{"indexed":false,"internalType":"address","name":"oldTimelock","type":"address"},{"indexed":false,"internalType":"address","name":"newTimelock","type":"address"}],"name":"TimelockChange","type":"event"},{"anonymous":false,"inputs":[{"indexed":true,"internalType":"address","name":"voter","type":"address"},{"indexed":false,"internalType":"uint256","name":"proposalId","type":"uint256"},{"indexed":false,"internalType":"uint8","name":"support","type":"uint8"},{"indexed":false,"internalType":"uint256","name":"weight","type":"uint256"},{"indexed":false,"internalType":"string","name":"reason","type":"string"}],"name":"VoteCast","type":"event"},{"anonymous":false,"inputs":[{"indexed":true,"internalType":"address","name":"voter","type":"address"},{"indexed":false,"internalType":"uint256","name":"proposalId","type":"uint256"},{"indexed":false,"internalType":"uint8","name":"support","type":"uint8"},{"indexed":false,"internalType":"uint256","name":"weight","type":"uint256"},{"indexed":false,"internalType":"string","name":"reason","type":"string"},{"indexed":false,"internalType":"bytes","name":"params","type":"bytes"}],"name":"VoteCastWithParams","type":"event"},{"anonymous":false,"inputs":[{"indexed":false,"internalType":"uint256","name":"oldVotingDelay","type":"uint256"},{"indexed":false,"internalType":"uint256","name":"newVotingDelay","type":"uint256"}],"name":"VotingDelaySet","type":"event"},{"anonymous":false,"inputs":[{"indexed":false,"internalType":"uint256","name":"oldVotingPeriod","type":"uint256"},{"indexed":false,"internalType":"uint256","name":"newVotingPeriod","type":"uint256"}],"name":"VotingPeriodSet","type":"event"},{"inputs":[],"name":"BALLOT_TYPEHASH","outputs":[{"internalType":"bytes32","name":"","type":"bytes32"}],"stateMutability":"view","type":"function"},{"inputs":[],"name":"COUNTING_MODE","outputs":[{"internalType":"string","name":"","type":"string"}],"stateMutability":"pure","type":"function"},{"inputs":[],"name":"EXTENDED_BALLOT_TYPEHASH","outputs":[{"internalType":"bytes32","name":"","type":"bytes32"}],"stateMutability":"view","type":"function"},{"inputs":[{"internalType":"uint256","name":"proposalId","type":"uint256"}],"name":"cancel","outputs":[],"stateMutability":"nonpayable","type":"function"},{"inputs":[{"internalType":"uint256","name":"proposalId","type":"uint256"},{"internalType":"uint8","name":"support","type":"uint8"}],"name":"castVote","outputs":[{"internalType":"uint256","name":"","type":"uint256"}],"stateMutability":"nonpayable","type":"function"},{"inputs":[{"internalType":"uint256","name":"proposalId","type":"uint256"},{"internalType":"uint8","name":"support","type":"uint8"},{"internalType":"uint8","name":"v","type":"uint8"},{"internalType":"bytes32","name":"r","type":"bytes32"},{"internalType":"bytes32","name":"s","type":"bytes32"}],"name":"castVoteBySig","outputs":[{"internalType":"uint256","name":"","type":"uint256"}],"stateMutability":"nonpayable","type":"function"},{"inputs":[{"internalType":"uint256","name":"proposalId","type":"uint256"},{"internalType":"uint8","name":"support","type":"uint8"},{"internalType":"string","name":"reason","type":"string"}],"name":"castVoteWithReason","outputs":[{"internalType":"uint256","name":"","type":"uint256"}],"stateMutability":"nonpayable","type":"function"},{"inputs":[{"internalType":"uint256","name":"proposalId","type":"uint256"},{"internalType":"uint8","name":"support","type":"uint8"},{"internalType":"string","name":"reason","type":"string"},{"internalType":"bytes","name":"params","type":"bytes"}],"name":"castVoteWithReasonAndParams","outputs":[{"internalType":"uint256","name":"","type":"uint256"}],"stateMutability":"nonpayable","type":"function"},{"inputs":[{"internalType":"uint256","name":"proposalId","type":"uint256"},{"internalType":"uint8","name":"support","type":"uint8"},{"internalType":"string","name":"reason","type":"string"},{"internalType":"bytes","name":"params","type":"bytes"},{"internalType":"uint8","name":"v","type":"uint8"},{"internalType":"bytes32","name":"r","type":"bytes32"},{"internalType":"bytes32","name":"s","type":"bytes32"}],"name":"castVoteWithReasonAndParamsBySig","outputs":[{"internalType":"uint256","name":"","type":"uint256"}],"stateMutability":"nonpayable","type":"function"},{"inputs":[{"internalType":"address[]","name":"targets","type":"address[]"},{"internalType":"uint256[]","name":"values","type":"uint256[]"},{"internalType":"bytes[]","name":"calldatas","type":"bytes[]"},{"internalType":"bytes32","name":"descriptionHash","type":"bytes32"}],"name":"execute","outputs":[{"internalType":"uint256","name":"","type":"uint256"}],"stateMutability":"payable","type":"function"},{"inputs":[{"internalType":"uint256","name":"proposalId","type":"uint256"}],"name":"execute","outputs":[],"stateMutability":"payable","type":"function"},{"inputs":[{"internalType":"uint256","name":"proposalId","type":"uint256"}],"name":"getActions","outputs":[{"internalType":"address[]","name":"targets","type":"address[]"},{"internalType":"uint256[]","name":"values","type":"uint256[]"},{"internalType":"string[]","name":"signatures","type":"string[]"},{"internalType":"bytes[]","name":"calldatas","type":"bytes[]"}],"stateMutability":"view","type":"function"},{"inputs":[{"internalType":"uint256","name":"proposalId","type":"uint256"},{"internalType":"address","name":"voter","type":"address"}],"name":"getReceipt","outputs":[{"components":[{"internalType":"bool","name":"hasVoted","type":"bool"},{"internalType":"uint8","name":"support","type":"uint8"},{"internalType":"uint96","name":"votes","type":"uint96"}],"internalType":"struct IGovernorCompatibilityBravoUpgradeable.Receipt","name":"","type":"tuple"}],"stateMutability":"view","type":"function"},{"inputs":[{"internalType":"address","name":"account","type":"address"},{"internalType":"uint256","name":"blockNumber","type":"uint256"}],"name":"getVotes","outputs":[{"internalType":"uint256","name":"","type":"uint256"}],"stateMutability":"view","type":"function"},{"inputs":[{"internalType":"address","name":"account","type":"address"},{"internalType":"uint256","name":"blockNumber","type":"uint256"},{"internalType":"bytes","name":"params","type":"bytes"}],"name":"getVotesWithParams","outputs":[{"internalType":"uint256","name":"","type":"uint256"}],"stateMutability":"view","type":"function"},{"inputs":[{"internalType":"uint256","name":"proposalId","type":"uint256"},{"internalType":"address","name":"account","type":"address"}],"name":"hasVoted","outputs":[{"internalType":"bool","name":"","type":"bool"}],"stateMutability":"view","type":"function"},{"inputs":[{"internalType":"address[]","name":"targets","type":"address[]"},{"internalType":"uint256[]","name":"values","type":"uint256[]"},{"internalType":"bytes[]","name":"calldatas","type":"bytes[]"},{"internalType":"bytes32","name":"descriptionHash","type":"bytes32"}],"name":"hashProposal","outputs":[{"internalType":"uint256","name":"","type":"uint256"}],"stateMutability":"pure","type":"function"},{"inputs":[{"internalType":"contract IVotesUpgradeable","name":"_token","type":"address"},{"internalType":"contract TimelockControllerUpgradeable","name":"_timelock","type":"address"},{"internalType":"uint256","name":"_votingDelay","type":"uint256"},{"internalType":"uint256","name":"_votingPeriod","type":"uint256"},{"internalType":"uint256","name":"_levelThreshold","type":"uint256"},{"internalType":"contract ILilyPad","name":"_mainContract","type":"address"},{"internalType":"address","name":"_vetoer","type":"address"}],"name":"initialize","outputs":[],"stateMutability":"nonpayable","type":"function"},{"inputs":[],"name":"levelThreshold","outputs":[{"internalType":"uint256","name":"","type":"uint256"}],"stateMutability":"view","type":"function"},{"inputs":[],"name":"mainContract","outputs":[{"internalType":"contract ILilyPad","name":"","type":"address"}],"stateMutability":"view","type":"function"},{"inputs":[],"name":"name","outputs":[{"internalType":"string","name":"","type":"string"}],"stateMutability":"view","type":"function"},{"inputs":[{"internalType":"address","name":"","type":"address"},{"internalType":"address","name":"","type":"address"},{"internalType":"uint256[]","name":"","type":"uint256[]"},{"internalType":"uint256[]","name":"","type":"uint256[]"},{"internalType":"bytes","name":"","type":"bytes"}],"name":"onERC1155BatchReceived","outputs":[{"internalType":"bytes4","name":"","type":"bytes4"}],"stateMutability":"nonpayable","type":"function"},{"inputs":[{"internalType":"address","name":"","type":"address"},{"internalType":"address","name":"","type":"address"},{"internalType":"uint256","name":"","type":"uint256"},{"internalType":"uint256","name":"","type":"uint256"},{"internalType":"bytes","name":"","type":"bytes"}],"name":"onERC1155Received","outputs":[{"internalType":"bytes4","name":"","type":"bytes4"}],"stateMutability":"nonpayable","type":"function"},{"inputs":[{"internalType":"address","name":"","type":"address"},{"internalType":"address","name":"","type":"address"},{"internalType":"uint256","name":"","type":"uint256"},{"internalType":"bytes","name":"","type":"bytes"}],"name":"onERC721Received","outputs":[{"internalType":"bytes4","name":"","type":"bytes4"}],"stateMutability":"nonpayable","type":"function"},{"inputs":[],"name":"powerless","outputs":[{"internalType":"bool","name":"","type":"bool"}],"stateMutability":"view","type":"function"},{"inputs":[{"internalType":"uint256","name":"proposalId","type":"uint256"}],"name":"proposalDeadline","outputs":[{"internalType":"uint256","name":"","type":"uint256"}],"stateMutability":"view","type":"function"},{"inputs":[{"internalType":"uint256","name":"proposalId","type":"uint256"}],"name":"proposalEta","outputs":[{"internalType":"uint256","name":"","type":"uint256"}],"stateMutability":"view","type":"function"},{"inputs":[{"internalType":"uint256","name":"proposalId","type":"uint256"}],"name":"proposalSnapshot","outputs":[{"internalType":"uint256","name":"","type":"uint256"}],"stateMutability":"view","type":"function"},{"inputs":[],"name":"proposalThreshold","outputs":[{"internalType":"uint256","name":"","type":"uint256"}],"stateMutability":"view","type":"function"},{"inputs":[{"internalType":"uint256","name":"proposalId","type":"uint256"}],"name":"proposals","outputs":[{"internalType":"uint256","name":"id","type":"uint256"},{"internalType":"address","name":"proposer","type":"address"},{"internalType":"uint256","name":"eta","type":"uint256"},{"internalType":"uint256","name":"startBlock","type":"uint256"},{"internalType":"uint256","name":"endBlock","type":"uint256"},{"internalType":"uint256","name":"forVotes","type":"uint256"},{"internalType":"uint256","name":"againstVotes","type":"uint256"},{"internalType":"uint256","name":"abstainVotes","type":"uint256"},{"internalType":"bool","name":"canceled","type":"bool"},{"internalType":"bool","name":"executed","type":"bool"}],"stateMutability":"view","type":"function"},{"inputs":[{"internalType":"address[]","name":"targets","type":"address[]"},{"internalType":"uint256[]","name":"values","type":"uint256[]"},{"internalType":"bytes[]","name":"calldatas","type":"bytes[]"},{"internalType":"string","name":"description","type":"string"}],"name":"propose","outputs":[{"internalType":"uint256","name":"","type":"uint256"}],"stateMutability":"nonpayable","type":"function"},{"inputs":[{"internalType":"address[]","name":"targets","type":"address[]"},{"internalType":"uint256[]","name":"values","type":"uint256[]"},{"internalType":"string[]","name":"signatures","type":"string[]"},{"internalType":"bytes[]","name":"calldatas","type":"bytes[]"},{"internalType":"string","name":"description","type":"string"}],"name":"propose","outputs":[{"internalType":"uint256","name":"","type":"uint256"}],"stateMutability":"nonpayable","type":"function"},{"inputs":[{"internalType":"address[]","name":"targets","type":"address[]"},{"internalType":"uint256[]","name":"values","type":"uint256[]"},{"internalType":"bytes[]","name":"calldatas","type":"bytes[]"},{"internalType":"bytes32","name":"descriptionHash","type":"bytes32"}],"name":"queue","outputs":[{"internalType":"uint256","name":"","type":"uint256"}],"stateMutability":"nonpayable","type":"function"},{"inputs":[{"internalType":"uint256","name":"proposalId","type":"uint256"}],"name":"queue","outputs":[],"stateMutability":"nonpayable","type":"function"},{"inputs":[{"internalType":"uint256","name":"blockNumber","type":"uint256"}],"name":"quorum","outputs":[{"internalType":"uint256","name":"","type":"uint256"}],"stateMutability":"view","type":"function"},{"inputs":[],"name":"quorumDenominator","outputs":[{"internalType":"uint256","name":"","type":"uint256"}],"stateMutability":"view","type":"function"},{"inputs":[{"internalType":"uint256","name":"blockNumber","type":"uint256"}],"name":"quorumNumerator","outputs":[{"internalType":"uint256","name":"","type":"uint256"}],"stateMutability":"view","type":"function"},{"inputs":[],"name":"quorumNumerator","outputs":[{"internalType":"uint256","name":"","type":"uint256"}],"stateMutability":"view","type":"function"},{"inputs":[],"name":"quorumVotes","outputs":[{"internalType":"uint256","name":"","type":"uint256"}],"stateMutability":"view","type":"function"},{"inputs":[{"internalType":"address","name":"target","type":"address"},{"internalType":"uint256","name":"value","type":"uint256"},{"internalType":"bytes","name":"data","type":"bytes"}],"name":"relay","outputs":[],"stateMutability":"nonpayable","type":"function"},{"inputs":[],"name":"resignPower","outputs":[],"stateMutability":"nonpayable","type":"function"},{"inputs":[{"internalType":"uint256","name":"_levelThreshold","type":"uint256"}],"name":"setLevelThreshold","outputs":[],"stateMutability":"nonpayable","type":"function"},{"inputs":[{"internalType":"uint256","name":"newProposalThreshold","type":"uint256"}],"name":"setProposalThreshold","outputs":[],"stateMutability":"nonpayable","type":"function"},{"inputs":[{"internalType":"uint256","name":"newVotingDelay","type":"uint256"}],"name":"setVotingDelay","outputs":[],"stateMutability":"nonpayable","type":"function"},{"inputs":[{"internalType":"uint256","name":"newVotingPeriod","type":"uint256"}],"name":"setVotingPeriod","outputs":[],"stateMutability":"nonpayable","type":"function"},{"inputs":[{"internalType":"uint256","name":"proposalId","type":"uint256"}],"name":"state","outputs":[{"internalType":"enum IGovernorUpgradeable.ProposalState","name":"","type":"uint8"}],"stateMutability":"view","type":"function"},{"inputs":[{"internalType":"bytes4","name":"interfaceId","type":"bytes4"}],"name":"supportsInterface","outputs":[{"internalType":"bool","name":"","type":"bool"}],"stateMutability":"view","type":"function"},{"inputs":[],"name":"timelock","outputs":[{"internalType":"address","name":"","type":"address"}],"stateMutability":"view","type":"function"},{"inputs":[],"name":"token","outputs":[{"internalType":"contract IVotesUpgradeable","name":"","type":"address"}],"stateMutability":"view","type":"function"},{"inputs":[{"internalType":"uint256","name":"newQuorumNumerator","type":"uint256"}],"name":"updateQuorumNumerator","outputs":[],"stateMutability":"nonpayable","type":"function"},{"inputs":[{"internalType":"contract TimelockControllerUpgradeable","name":"newTimelock","type":"address"}],"name":"updateTimelock","outputs":[],"stateMutability":"nonpayable","type":"function"},{"inputs":[],"name":"version","outputs":[{"internalType":"string","name":"","type":"string"}],"stateMutability":"view","type":"function"},{"inputs":[{"internalType":"uint256","name":"proposalId","type":"uint256"},{"internalType":"bytes32","name":"descriptionHash","type":"bytes32"}],"name":"veto","outputs":[],"stateMutability":"nonpayable","type":"function"},{"inputs":[],"name":"vetoer","outputs":[{"internalType":"address","name":"","type":"address"}],"stateMutability":"view","type":"function"},{"inputs":[],"name":"votingDelay","outputs":[{"internalType":"uint256","name":"","type":"uint256"}],"stateMutability":"view","type":"function"},{"inputs":[],"name":"votingPeriod","outputs":[{"internalType":"uint256","name":"","type":"uint256"}],"stateMutability":"view","type":"function"},{"stateMutability":"payable","type":"receive"}],"bytecode":"0x60806040523480156200001157600080fd5b506200001c62000022565b620000e4565b600054610100900460ff16156200008f5760405162461bcd60e51b815260206004820152602760248201527f496e697469616c697a61626c653a20636f6e747261637420697320696e697469604482015266616c697a696e6760c81b606482015260840160405180910390fd5b60005460ff9081161015620000e2576000805460ff191660ff9081179091556040519081527f7f26b83ff96e1f2b6a682f133852f6798a09c465da95921460cefb38474024989060200160405180910390a15b565b615f9f80620000f46000396000f3fe60806040526004361061036f5760003560e01c80638477224a116101c6578063d8bff440116100f7578063eb9019d411610095578063f23a6e611161006f578063f23a6e6114610bbd578063f8ce560a14610be9578063fc0c546a14610c09578063fe0d94c114610c2a57600080fd5b8063eb9019d414610b5d578063ebd5fbe414610b7d578063ece40cc114610b9d57600080fd5b8063ddf0b009116100d1578063ddf0b00914610a1e578063deaaa7cc14610a3e578063e23a9a5214610a72578063ea0217cf14610b3d57600080fd5b8063d8bff44014610997578063da95691a146109b8578063dd4e2ba5146109d857600080fd5b8063bc197c8111610164578063c28bc2fa1161013e578063c28bc2fa146108ff578063c59057e41461091f578063d270e7ab1461093f578063d33219b41461097857600080fd5b8063bc197c8114610893578063c01f9e37146108bf578063c0555a0a146108df57600080fd5b8063a7713a70116101a0578063a7713a7014610829578063a890c9101461083e578063ab58fb8e1461085e578063b58131b01461087e57600080fd5b80638477224a146107da57806397c3d334146107f55780639a802a6d1461080957600080fd5b8063328dd982116102a057806354fd4d501161023e57806360c4247f1161021857806360c4247f1461075a57806370b0f6601461077a5780637b3c71d31461079a5780637d5e81e2146107ba57600080fd5b806354fd4d50146106f0578063567813881461071a5780635f398a141461073a57600080fd5b80633e4f49e61161027a5780633e4f49e61461064157806340e58ee51461066e578063438596321461068e57806348f24104146106d957600080fd5b8063328dd982146105dc5780633932abb11461060c5780633bccf4fd1461062157600080fd5b8063150b7a021161030d5780632656227d116102e75780632656227d146105605780632c2b380d146105735780632d63f693146105885780632fe3e261146105a857600080fd5b8063150b7a02146104e7578063160cbed71461052b57806324bc1a641461054b57600080fd5b80630342018111610349578063034201811461046557806306f3f9e61461048557806306fdde03146104a55780630729da0b146104c757600080fd5b8063013cf08b1461039757806301ffc9a71461041257806302a251a31461044257600080fd5b36610392573061037d610c3d565b6001600160a01b03161461039057600080fd5b005b600080fd5b3480156103a357600080fd5b506103b76103b2366004614b42565b610c57565b604080519a8b526001600160a01b0390991660208b0152978901969096526060880194909452608087019290925260a086015260c085015260e084015215156101008301521515610120820152610140015b60405180910390f35b34801561041e57600080fd5b5061043261042d366004614b5b565b610d01565b6040519015158152602001610409565b34801561044e57600080fd5b50610457610d12565b604051908152602001610409565b34801561047157600080fd5b50610457610480366004614cc7565b610d1e565b34801561049157600080fd5b506103906104a0366004614b42565b610e16565b3480156104b157600080fd5b506104ba610eaa565b6040516104099190614dbd565b3480156104d357600080fd5b506103906104e2366004614de5565b610f3d565b3480156104f357600080fd5b50610512610502366004614e60565b630a85bd0160e11b949350505050565b6040516001600160e01b03199091168152602001610409565b34801561053757600080fd5b50610457610546366004615037565b6110e5565b34801561055757600080fd5b506104576112ea565b61045761056e366004615037565b6112fa565b34801561057f57600080fd5b506103906113ed565b34801561059457600080fd5b506104576105a3366004614b42565b611543565b3480156105b457600080fd5b506104577fb3b3f3b703cd84ce352197dcff232b1b5d3cfb2025ce47cf04742d0651f1af8881565b3480156105e857600080fd5b506105fc6105f7366004614b42565b61157b565b604051610409949392919061518f565b34801561061857600080fd5b5061045761180d565b34801561062d57600080fd5b5061045761063c3660046151dc565b611819565b34801561064d57600080fd5b5061066161065c366004614b42565b61188f565b6040516104099190615240565b34801561067a57600080fd5b50610390610689366004614b42565b61189a565b34801561069a57600080fd5b506104326106a9366004615268565b6000828152610193602090815260408083206001600160a01b038516845260080190915290205460ff1692915050565b3480156106e557600080fd5b5061045761025e5481565b3480156106fc57600080fd5b506040805180820190915260018152603160f81b60208201526104ba565b34801561072657600080fd5b50610457610735366004615298565b611bb3565b34801561074657600080fd5b506104576107553660046152c4565b611bdc565b34801561076657600080fd5b50610457610775366004614b42565b611c26565b34801561078657600080fd5b50610390610795366004614b42565b611cc2565b3480156107a657600080fd5b506104576107b5366004615347565b611d4a565b3480156107c657600080fd5b506104576107d53660046153a0565b611d9c565b3480156107e657600080fd5b5061025f546104329060ff1681565b34801561080157600080fd5b506064610457565b34801561081557600080fd5b50610457610824366004615440565b611dbc565b34801561083557600080fd5b50610457611dd3565b34801561084a57600080fd5b50610390610859366004615498565b611df2565b34801561086a57600080fd5b50610457610879366004614b42565b611e7a565b34801561088a57600080fd5b50610457611f16565b34801561089f57600080fd5b506105126108ae3660046154b5565b63bc197c8160e01b95945050505050565b3480156108cb57600080fd5b506104576108da366004614b42565b611f22565b3480156108eb57600080fd5b506103906108fa366004615548565b611f52565b34801561090b57600080fd5b5061039061091a36600461556a565b612151565b34801561092b57600080fd5b5061045761093a366004615037565b612219565b34801561094b57600080fd5b5061025c54610960906001600160a01b031681565b6040516001600160a01b039091168152602001610409565b34801561098457600080fd5b5061022a546001600160a01b0316610960565b3480156109a357600080fd5b5061025d54610960906001600160a01b031681565b3480156109c457600080fd5b506104576109d336600461562c565b612253565b3480156109e457600080fd5b5060408051808201909152601a81527f737570706f72743d627261766f2671756f72756d3d627261766f00000000000060208201526104ba565b348015610a2a57600080fd5b50610390610a39366004614b42565b612278565b348015610a4a57600080fd5b506104577f150214d74d59b7d1e90c73fc22ef3d991dd0a76b046543d4d80ab92d2a50328f81565b348015610a7e57600080fd5b50610b0d610a8d366004615268565b6040805160608101825260008082526020820181905291810191909152506000918252610193602090815260408084206001600160a01b0393909316845260089092018152918190208151606081018352905460ff8082161515835261010082041693820193909352620100009092046001600160601b03169082015290565b6040805182511515815260208084015160ff1690820152918101516001600160601b031690820152606001610409565b348015610b4957600080fd5b50610390610b58366004614b42565b6124e7565b348015610b6957600080fd5b50610457610b783660046156cd565b61256f565b348015610b8957600080fd5b50610390610b98366004614b42565b612590565b348015610ba957600080fd5b50610390610bb8366004614b42565b612667565b348015610bc957600080fd5b50610512610bd83660046156f9565b63f23a6e6160e01b95945050505050565b348015610bf557600080fd5b50610457610c04366004614b42565b6126ef565b348015610c1557600080fd5b506101c554610960906001600160a01b031681565b610390610c38366004614b42565b6126fa565b6000610c5261022a546001600160a01b031690565b905090565b8060008080808080808080610c6b8a611e7a565b9750610c768b611543565b9650610c818b611f22565b60008c81526101936020526040812080546005820154600683015460078401546001600160a01b039093169e50949a509850929650919450610cc28d61188f565b90506002816007811115610cd857610cd861522a565b1493506007816007811115610cef57610cef61522a565b14925050509193959799509193959799565b6000610d0c82612969565b92915050565b6000610c526101625490565b600080610dc2610dba7fb3b3f3b703cd84ce352197dcff232b1b5d3cfb2025ce47cf04742d0651f1af888c8c8c8c604051610d5a929190615761565b60405180910390208b80519060200120604051602001610d9f959493929190948552602085019390935260ff9190911660408401526060830152608082015260a00190565b6040516020818303038152906040528051906020012061298e565b8686866129dc565b9050610e088a828b8b8b8080601f0160208091040260200160405190810160405280939291908181526020018383808284376000920191909152508d92506129fa915050565b9a9950505050505050505050565b610e1e610c3d565b6001600160a01b0316336001600160a01b031614610e575760405162461bcd60e51b8152600401610e4e90615771565b60405180910390fd5b30610e60610c3d565b6001600160a01b031614610e9e5760008036604051610e80929190615761565b604051809103902090505b80610e97610131612b5f565b03610e8b57505b610ea781612bde565b50565b606061012f8054610eba906157a8565b80601f0160208091040260200160405190810160405280929190818152602001828054610ee6906157a8565b8015610f335780601f10610f0857610100808354040283529160200191610f33565b820191906000526020600020905b815481529060010190602001808311610f1657829003601f168201915b5050505050905090565b600054610100900460ff1615808015610f5d5750600054600160ff909116105b80610f775750303b158015610f77575060005460ff166001145b610fda5760405162461bcd60e51b815260206004820152602e60248201527f496e697469616c697a61626c653a20636f6e747261637420697320616c72656160448201526d191e481a5b9a5d1a585b1a5e995960921b6064820152608401610e4e565b6000805460ff191660011790558015610ffd576000805461ff0019166101001790555b61102d6040518060400160405280600f81526020016e2634b63ca830b223b7bb32b93737b960891b815250612d2e565b61103986866001612d85565b611041612db7565b61104a88612de0565b611054600a612e10565b61105d87612e40565b61025c80546001600160a01b038086166001600160a01b03199283161790925561025d80549285169290911691909117905561025e84905580156110db576000805461ff0019169055604051600181527f7f26b83ff96e1f2b6a682f133852f6798a09c465da95921460cefb38474024989060200160405180910390a15b5050505050505050565b6000806110f486868686612219565b905060046111018261188f565b60078111156111125761111261522a565b1461112f5760405162461bcd60e51b8152600401610e4e906157e2565b61022a546040805163793d064960e11b815290516000926001600160a01b03169163f27a0c929160048083019260209291908290030181865afa15801561117a573d6000803e3d6000fd5b505050506040513d601f19601f8201168201806040525081019061119e9190615823565b61022a5460405163b1c5f42760e01b81529192506001600160a01b03169063b1c5f427906111d9908a908a908a906000908b9060040161583c565b602060405180830381865afa1580156111f6573d6000803e3d6000fd5b505050506040513d601f19601f8201168201806040525081019061121a9190615823565b600083815261022b60205260408082209290925561022a5491516308f2a0bb60e41b81526001600160a01b0390921691638f2a0bb091611267918b918b918b91908b90899060040161588a565b600060405180830381600087803b15801561128157600080fd5b505af1158015611295573d6000803e3d6000fd5b505050507f9a2e42fd6722813d69113e7d0079d3d940171428df7373df9c7f7617cfda28928282426112c791906158f8565b604080519283526020830191909152015b60405180910390a15095945050505050565b6000610c52610c0460014361590b565b60008061130986868686612219565b905060006113168261188f565b9050600481600781111561132c5761132c61522a565b1480611349575060058160078111156113475761134761522a565b145b6113655760405162461bcd60e51b8152600401610e4e906157e2565b6000828152610130602052604090819020600201805460ff19166001179055517f712ae1383f79ac853f8d882153778e0260ef8f03b504e2866e0593e04d2b291f906113b49084815260200190565b60405180910390a16113c98288888888612e70565b6113d68288888888612f12565b6113e38288888888612f1f565b5095945050505050565b61025d546001600160a01b03166114465760405162461bcd60e51b815260206004820152601d60248201527f4c696c7950616444414f3a207665746f20706f776572206275726e65640000006044820152606401610e4e565b61025d546001600160a01b031633146114ac5760405162461bcd60e51b815260206004820152602260248201527f4c696c7950616444414f3a206f6e6c79207665746f65722063616e207265736960448201526133b760f11b6064820152608401610e4e565b61025f5460ff16156115005760405162461bcd60e51b815260206004820152601c60248201527f4c696c7950616444414f3a20616c72656164792072657369676e6564000000006044820152606401610e4e565b61025f805460ff191660011790556040513381527f4597957407a4f3544843c971089b565a41eea43fd0e75a739aa36f074652f09e9060200160405180910390a1565b6000818152610130602090815260408083208151928301909152546001600160401b0316908190525b6001600160401b031692915050565b60608060608060006101936000878152602001908152602001600020905080600101816002018260030183600401838054806020026020016040519081016040528092919081815260200182805480156115fe57602002820191906000526020600020905b81546001600160a01b031681526001909101906020018083116115e0575b505050505093508280548060200260200160405190810160405280929190818152602001828054801561165057602002820191906000526020600020905b81548152602001906001019080831161163c575b5050505050925081805480602002602001604051908101604052809291908181526020016000905b82821015611724578382906000526020600020018054611697906157a8565b80601f01602080910402602001604051908101604052809291908181526020018280546116c3906157a8565b80156117105780601f106116e557610100808354040283529160200191611710565b820191906000526020600020905b8154815290600101906020018083116116f357829003601f168201915b505050505081526020019060010190611678565b50505050915080805480602002602001604051908101604052809291908181526020016000905b828210156117f757838290600052602060002001805461176a906157a8565b80601f0160208091040260200160405190810160405280929190818152602001828054611796906157a8565b80156117e35780601f106117b8576101008083540402835291602001916117e3565b820191906000526020600020905b8154815290600101906020018083116117c657829003601f168201915b50505050508152602001906001019061174b565b5050505090509450945094509450509193509193565b6000610c526101615490565b604080517f150214d74d59b7d1e90c73fc22ef3d991dd0a76b046543d4d80ab92d2a50328f602082015290810186905260ff85166060820152600090819061186790610dba90608001610d9f565b905061188487828860405180602001604052806000815250612f5a565b979650505050505050565b6000610d0c82612f7d565b60008181526101936020526040902080546001600160a01b0316336001600160a01b031614806118e957506118cd611f16565b81546118e7906001600160a01b0316610b7860014361590b565b105b6119455760405162461bcd60e51b815260206004820152602760248201527f476f7665726e6f72427261766f3a2070726f706f7365722061626f76652074686044820152661c995cda1bdb1960ca1b6064820152608401610e4e565b611bae816001018054806020026020016040519081016040528092919081815260200182805480156119a057602002820191906000526020600020905b81546001600160a01b03168152600190910190602001808311611982575b5050505050826002018054806020026020016040519081016040528092919081815260200182805480156119f357602002820191906000526020600020905b8154815260200190600101908083116119df575b5050505050611ba484600301805480602002602001604051908101604052809291908181526020016000905b82821015611acb578382906000526020600020018054611a3e906157a8565b80601f0160208091040260200160405190810160405280929190818152602001828054611a6a906157a8565b8015611ab75780601f10611a8c57610100808354040283529160200191611ab7565b820191906000526020600020905b815481529060010190602001808311611a9a57829003601f168201915b505050505081526020019060010190611a1f565b50505060048701805460408051602080840282018101909252828152935060009084015b82821015611b9b578382906000526020600020018054611b0e906157a8565b80601f0160208091040260200160405190810160405280929190818152602001828054611b3a906157a8565b8015611b875780601f10611b5c57610100808354040283529160200191611b87565b820191906000526020600020905b815481529060010190602001808311611b6a57829003601f168201915b505050505081526020019060010190611aef565b505050506130ca565b84600901546131fc565b505050565b600080339050611bd484828560405180602001604052806000815250612f5a565b949350505050565b60008033905061188487828888888080601f0160208091040260200160405190810160405280939291908181526020018383808284376000920191909152508a92506129fa915050565b6101f954600090808203611c3f5750506101f854919050565b60006101f9611c4f60018461590b565b81548110611c5f57611c5f61591e565b60009182526020918290206040805180820190915291015463ffffffff81168083526401000000009091046001600160e01b03169282019290925291508410611cb657602001516001600160e01b03169392505050565b611bd46101f98561320a565b611cca610c3d565b6001600160a01b0316336001600160a01b031614611cfa5760405162461bcd60e51b8152600401610e4e90615771565b30611d03610c3d565b6001600160a01b031614611d415760008036604051611d23929190615761565b604051809103902090505b80611d3a610131612b5f565b03611d2e57505b610ea781613319565b600080339050611d9286828787878080601f016020809104026020016040519081016040528093929190818152602001838380828437600092019190915250612f5a92505050565b9695505050505050565b6000611da73361335c565b611db38585858561343f565b95945050505050565b6000611dc98484846134a7565b90505b9392505050565b6101f95460009015611dea57610c526101f961351e565b506101f85490565b611dfa610c3d565b6001600160a01b0316336001600160a01b031614611e2a5760405162461bcd60e51b8152600401610e4e90615771565b30611e33610c3d565b6001600160a01b031614611e715760008036604051611e53929190615761565b604051809103902090505b80611e6a610131612b5f565b03611e5e57505b610ea78161357a565b61022a54600082815261022b602052604080822054905163d45c443560e01b81526004810191909152909182916001600160a01b039091169063d45c443590602401602060405180830381865afa158015611ed9573d6000803e3d6000fd5b505050506040513d601f19601f82011682018060405250810190611efd9190615823565b905080600114611f0d5780611dcc565b60009392505050565b6000610c526101635490565b6000818152610130602090815260408083208151928301909152600101546001600160401b03169081905261156c565b61025d546001600160a01b0316611fb75760405162461bcd60e51b815260206004820152602360248201527f4c696c7950616444414f3a3a7665746f3a207665746f20706f776572206275726044820152621b995960ea1b6064820152608401610e4e565b61025d546001600160a01b031633146120125760405162461bcd60e51b815260206004820152601d60248201527f4c696c7950616444414f3a3a7665746f3a206f6e6c79207665746f65720000006044820152606401610e4e565b600761201d8361188f565b600781111561202e5761202e61522a565b036120935760405162461bcd60e51b815260206004820152602f60248201527f4c696c7950616444414f3a3a7665746f3a2063616e6e6f74207665746f20657860448201526e1958dd5d1959081c1c9bdc1bdcd85b608a1b6064820152608401610e4e565b61025f5460ff16156120f55760405162461bcd60e51b815260206004820152602560248201527f4c696c7950616444414f3a3a7665746f3a205665746f20706f776572206f62736044820152646f6c65746560d81b6064820152608401610e4e565b60008060006121038561157b565b93505092509250612116838383876131fc565b506040518581527fde0cea2a3a0097cc3d981d40c375407760e85bc9c5e69aea449ac3885f8615c69060200160405180910390a15050505050565b612159610c3d565b6001600160a01b0316336001600160a01b0316146121895760405162461bcd60e51b8152600401610e4e90615771565b30612192610c3d565b6001600160a01b0316146121d057600080366040516121b2929190615761565b604051809103902090505b806121c9610131612b5f565b036121bd57505b6122128483838080601f0160208091040260200160405190810160405280939291908181526020018383808284376000920191909152508892506135e5915050565b5050505050565b6000848484846040516020016122329493929190615934565b60408051601f19818403018152919052805160209091012095945050505050565b600061226333878787878761360b565b611d92868661227287876130ca565b85611d9c565b600081815261019360209081526040918290206001810180548451818502810185019095528085529193611bae939092908301828280156122e257602002820191906000526020600020905b81546001600160a01b031681526001909101906020018083116122c4575b50505050508260020180548060200260200160405190810160405280929190818152602001828054801561233557602002820191906000526020600020905b815481526020019060010190808311612321575b50505050506124dd84600301805480602002602001604051908101604052809291908181526020016000905b8282101561240d578382906000526020600020018054612380906157a8565b80601f01602080910402602001604051908101604052809291908181526020018280546123ac906157a8565b80156123f95780601f106123ce576101008083540402835291602001916123f9565b820191906000526020600020905b8154815290600101906020018083116123dc57829003601f168201915b505050505081526020019060010190612361565b50505060048701805460408051602080840282018101909252828152935060009084015b82821015611b9b578382906000526020600020018054612450906157a8565b80601f016020809104026020016040519081016040528092919081815260200182805461247c906157a8565b80156124c95780601f1061249e576101008083540402835291602001916124c9565b820191906000526020600020905b8154815290600101906020018083116124ac57829003601f168201915b505050505081526020019060010190612431565b84600901546110e5565b6124ef610c3d565b6001600160a01b0316336001600160a01b03161461251f5760405162461bcd60e51b8152600401610e4e90615771565b30612528610c3d565b6001600160a01b0316146125665760008036604051612548929190615761565b604051809103902090505b8061255f610131612b5f565b0361255357505b610ea7816136c9565b6000611dcc838361258b60408051602081019091526000815290565b6134a7565b612598610c3d565b6001600160a01b0316336001600160a01b0316146125c85760405162461bcd60e51b8152600401610e4e90615771565b306125d1610c3d565b6001600160a01b03161461260f57600080366040516125f1929190615761565b604051809103902090505b80612608610131612b5f565b036125fc57505b61025e5481036126615760405162461bcd60e51b815260206004820152601f60248201527f4c696c79506164476f7665726e6f723a3a43757272656e742056616c756521006044820152606401610e4e565b61025e55565b61266f610c3d565b6001600160a01b0316336001600160a01b03161461269f5760405162461bcd60e51b8152600401610e4e90615771565b306126a8610c3d565b6001600160a01b0316146126e657600080366040516126c8929190615761565b604051809103902090505b806126df610131612b5f565b036126d357505b610ea78161376c565b6000610d0c826137af565b600081815261019360209081526040918290206001810180548451818502810185019095528085529193611bae9390929083018282801561276457602002820191906000526020600020905b81546001600160a01b03168152600190910190602001808311612746575b5050505050826002018054806020026020016040519081016040528092919081815260200182805480156127b757602002820191906000526020600020905b8154815260200190600101908083116127a3575b505050505061295f84600301805480602002602001604051908101604052809291908181526020016000905b8282101561288f578382906000526020600020018054612802906157a8565b80601f016020809104026020016040519081016040528092919081815260200182805461282e906157a8565b801561287b5780601f106128505761010080835404028352916020019161287b565b820191906000526020600020905b81548152906001019060200180831161285e57829003601f168201915b5050505050815260200190600101906127e3565b50505060048701805460408051602080840282018101909252828152935060009084015b82821015611b9b5783829060005260206000200180546128d2906157a8565b80601f01602080910402602001604051908101604052809291908181526020018280546128fe906157a8565b801561294b5780601f106129205761010080835404028352916020019161294b565b820191906000526020600020905b81548152906001019060200180831161292e57829003601f168201915b5050505050815260200190600101906128b3565b84600901546112fa565b60006001600160e01b03198216636e665ced60e01b1480610d0c5750610d0c8261383e565b6000610d0c61299b6138a9565b8360405161190160f01b6020820152602281018390526042810182905260009060620160405160208183030381529060405280519060200120905092915050565b60008060006129ed87878787613924565b915091506113e381613a11565b6000858152610130602052604081206001612a148861188f565b6007811115612a2557612a2561522a565b14612a7e5760405162461bcd60e51b815260206004820152602360248201527f476f7665726e6f723a20766f7465206e6f742063757272656e746c792061637460448201526269766560e81b6064820152608401610e4e565b604080516020810190915281546001600160401b031690819052600090612aa7908890866134a7565b9050612ab68888888488613bc7565b8351600003612b0b57866001600160a01b03167fb8e138887d0aa13bab447e82de9d5c1777041ecd21ca36ba824ff1e6c07ddda489888489604051612afe949392919061597f565b60405180910390a2611884565b866001600160a01b03167fe2babfbac5889a709b63bb7f598b324e08bc5a4fb9ec647fb3cbc9ec07eb87128988848989604051612b4c9594939291906159a7565b60405180910390a2979650505050505050565b6000612b7a8254600f81810b600160801b909204900b131590565b15612b9857604051631ed9509560e11b815260040160405180910390fd5b508054600f0b6000818152600180840160205260408220805492905583546fffffffffffffffffffffffffffffffff191692016001600160801b03169190911790915590565b6064811115612c615760405162461bcd60e51b815260206004820152604360248201527f476f7665726e6f72566f74657351756f72756d4672616374696f6e3a2071756f60448201527f72756d4e756d657261746f72206f7665722071756f72756d44656e6f6d696e616064820152623a37b960e91b608482015260a401610e4e565b6000612c6b611dd3565b90508015801590612c7d57506101f954155b15612ce35760408051808201909152600081526101f99060208101612ca184613d6e565b6001600160e01b0390811690915282546001810184556000938452602093849020835194909301519091166401000000000263ffffffff909316929092179101555b612cef6101f983613ddb565b505060408051828152602081018490527f0553476bf02ef2726e8ce5ced78d63e26e602e4a2257b1f559418e24b4633997910160405180910390a15050565b600054610100900460ff16612d555760405162461bcd60e51b8152600401610e4e906159ed565b612d7c81612d776040805180820190915260018152603160f81b602082015290565b613f06565b610ea781613f47565b600054610100900460ff16612dac5760405162461bcd60e51b8152600401610e4e906159ed565b611bae838383613f7b565b600054610100900460ff16612dde5760405162461bcd60e51b8152600401610e4e906159ed565b565b600054610100900460ff16612e075760405162461bcd60e51b8152600401610e4e906159ed565b610ea781613fbd565b600054610100900460ff16612e375760405162461bcd60e51b8152600401610e4e906159ed565b610ea781614007565b600054610100900460ff16612e675760405162461bcd60e51b8152600401610e4e906159ed565b610ea78161402e565b30612e79610c3d565b6001600160a01b0316146122125760005b8451811015612f0a57306001600160a01b0316858281518110612eaf57612eaf61591e565b60200260200101516001600160a01b031603612efa57612efa838281518110612eda57612eda61591e565b60200260200101518051906020012061013161405590919063ffffffff16565b612f0381615a38565b9050612e8a565b505050505050565b6122128585858585614091565b30612f28610c3d565b6001600160a01b0316146122125761013154600f81810b600160801b909204900b131561221257600061013155612212565b6000611db385858585612f7860408051602081019091526000815290565b6129fa565b600080612f8983614106565b90506004816007811115612f9f57612f9f61522a565b14612faa5792915050565b600083815261022b602052604090205480612fc6575092915050565b61022a54604051632ab0f52960e01b8152600481018390526001600160a01b0390911690632ab0f52990602401602060405180830381865afa158015613010573d6000803e3d6000fd5b505050506040513d601f19601f820116820180604052508101906130349190615a61565b15613043575060079392505050565b61022a54604051632c258a9f60e11b8152600481018390526001600160a01b039091169063584b153e90602401602060405180830381865afa15801561308d573d6000803e3d6000fd5b505050506040513d601f19601f820116820180604052508101906130b19190615a61565b156130c0575060059392505050565b5060029392505050565b6060600082516001600160401b038111156130e7576130e7614bdc565b60405190808252806020026020018201604052801561311a57816020015b60608152602001906001900390816131055790505b50905060005b84518110156131f45784818151811061313b5761313b61591e565b6020026020010151516000146131ab5784818151811061315d5761315d61591e565b60200260200101518051906020012084828151811061317e5761317e61591e565b6020026020010151604051602001613197929190615a7c565b6040516020818303038152906040526131c6565b8381815181106131bd576131bd61591e565b60200260200101515b8282815181106131d8576131d861591e565b6020026020010181905250806131ed90615a38565b9050613120565b509392505050565b6000611db38585858561421a565b600043821061325b5760405162461bcd60e51b815260206004820181905260248201527f436865636b706f696e74733a20626c6f636b206e6f7420796574206d696e65646044820152606401610e4e565b825460005b818110156132c057600061327482846142d0565b90508486600001828154811061328c5761328c61591e565b60009182526020909120015463ffffffff1611156132ac578092506132ba565b6132b78160016158f8565b91505b50613260565b811561330457846132d260018461590b565b815481106132e2576132e261591e565b60009182526020909120015464010000000090046001600160e01b0316613307565b60005b6001600160e01b031695945050505050565b6101615460408051918252602082018390527fc565b045403dc03c2eea82b81a0465edad9e2e7fc4d97e11421c209da93d7a93910160405180910390a161016155565b61025c5460405163156d12cb60e11b81526001600160a01b0383811660048301526000921690632ada259690602401600060405180830381865afa1580156133a8573d6000803e3d6000fd5b505050506040513d6000823e601f3d908101601f191682016040526133d09190810190615bda565b505050509250505061025e5481101561343b5760405162461bcd60e51b815260206004820152602760248201527f47657420796f7572204c6576656c204869676865722120436f6e74726962757460448201526665204d6f72652160c81b6064820152608401610e4e565b5050565b600061349b33868686516001600160401b0381111561346057613460614bdc565b60405190808252806020026020018201604052801561349357816020015b606081526020019060019003908161347e5790505b50878761360b565b611db3858585856142eb565b6101c554604051630748d63560e31b81526001600160a01b038581166004830152602482018590526000921690633a46b1a890604401602060405180830381865afa1580156134fa573d6000803e3d6000fd5b505050506040513d601f19601f82011682018060405250810190611dc99190615823565b80546000908015613567578261353560018361590b565b815481106135455761354561591e565b60009182526020909120015464010000000090046001600160e01b031661356a565b60005b6001600160e01b03169392505050565b61022a54604080516001600160a01b03928316815291831660208301527f08f74ea46ef7894f65eabfb5e6e695de773a000b47c529ab559178069b226401910160405180910390a161022a80546001600160a01b0319166001600160a01b0392909216919091179055565b6060611dc9848484604051806060016040528060298152602001615f41602991396145af565b805160208201206000613629878761362388886130ca565b85612219565b6000818152610193602052604090206009810154919250906136be5780546001600160a01b0319166001600160a01b038a16178155875161367390600183019060208b0190614979565b50865161368990600283019060208a01906149da565b50855161369f9060038301906020890190614a15565b5084516136b59060048301906020880190614a67565b50600981018390555b505050505050505050565b600081116137295760405162461bcd60e51b815260206004820152602760248201527f476f7665726e6f7253657474696e67733a20766f74696e6720706572696f6420604482015266746f6f206c6f7760c81b6064820152608401610e4e565b6101625460408051918252602082018390527f7e3f7f0708a84de9203036abaa450dccc85ad5ff52f78c170f3edb55cf5e8828910160405180910390a161016255565b6101635460408051918252602082018390527fccb45da8d5717e6c4544694297c4ba5cf151d455c9bb0ed4fc7a38411bc05461910160405180910390a161016355565b600060646137bc83611c26565b6101c554604051632394e7a360e21b8152600481018690526001600160a01b0390911690638e539e8c90602401602060405180830381865afa158015613806573d6000803e3d6000fd5b505050506040513d601f19601f8201168201806040525081019061382a9190615823565b6138349190615cd3565b610d0c9190615cf2565b60006001600160e01b0319821663bf26d89760e01b148061386f57506001600160e01b031982166379dd796f60e01b145b8061388a57506001600160e01b03198216630271189760e51b145b80610d0c57506301ffc9a760e01b6001600160e01b0319831614610d0c565b6000610c527f8b73c3c69bb8fe3d512ecc4cf759cc79239f7b179b0ffacaa9a75d522b39400f6138d860655490565b6066546040805160208101859052908101839052606081018290524660808201523060a082015260009060c0016040516020818303038152906040528051906020012090509392505050565b6000807f7fffffffffffffffffffffffffffffff5d576e7357a4501ddfe92f46681b20a083111561395b5750600090506003613a08565b8460ff16601b1415801561397357508460ff16601c14155b156139845750600090506004613a08565b6040805160008082526020820180845289905260ff881692820192909252606081018690526080810185905260019060a0016020604051602081039080840390855afa1580156139d8573d6000803e3d6000fd5b5050604051601f1901519150506001600160a01b038116613a0157600060019250925050613a08565b9150600090505b94509492505050565b6000816004811115613a2557613a2561522a565b03613a2d5750565b6001816004811115613a4157613a4161522a565b03613a8e5760405162461bcd60e51b815260206004820152601860248201527f45434453413a20696e76616c6964207369676e617475726500000000000000006044820152606401610e4e565b6002816004811115613aa257613aa261522a565b03613aef5760405162461bcd60e51b815260206004820152601f60248201527f45434453413a20696e76616c6964207369676e6174757265206c656e677468006044820152606401610e4e565b6003816004811115613b0357613b0361522a565b03613b5b5760405162461bcd60e51b815260206004820152602260248201527f45434453413a20696e76616c6964207369676e6174757265202773272076616c604482015261756560f01b6064820152608401610e4e565b6004816004811115613b6f57613b6f61522a565b03610ea75760405162461bcd60e51b815260206004820152602260248201527f45434453413a20696e76616c6964207369676e6174757265202776272076616c604482015261756560f01b6064820152608401610e4e565b6000858152610193602090815260408083206001600160a01b038816845260088101909252909120805460ff1615613c575760405162461bcd60e51b815260206004820152602d60248201527f476f7665726e6f72436f6d7061746962696c697479427261766f3a20766f746560448201526c08185b1c9958591e4818d85cdd609a1b6064820152608401610e4e565b805460ff86166101000261ffff19909116176001178155613c77846146d5565b81546001600160601b039190911662010000026dffffffffffffffffffffffff00001990911617815560ff8516613cc75783826006016000828254613cbc91906158f8565b90915550613d659050565b60001960ff861601613ce75783826005016000828254613cbc91906158f8565b60011960ff861601613d075783826007016000828254613cbc91906158f8565b60405162461bcd60e51b815260206004820152602d60248201527f476f7665726e6f72436f6d7061746962696c697479427261766f3a20696e766160448201526c6c696420766f7465207479706560981b6064820152608401610e4e565b50505050505050565b60006001600160e01b03821115613dd75760405162461bcd60e51b815260206004820152602760248201527f53616665436173743a2076616c756520646f65736e27742066697420696e20326044820152663234206269747360c81b6064820152608401610e4e565b5090565b8154600090819081613dec8661351e565b9050600082118015613e2a57504386613e0660018561590b565b81548110613e1657613e1661591e565b60009182526020909120015463ffffffff16145b15613e8a57613e3885613d6e565b86613e4460018561590b565b81548110613e5457613e5461591e565b9060005260206000200160000160046101000a8154816001600160e01b0302191690836001600160e01b03160217905550613ef8565b856000016040518060400160405280613ea24361473d565b63ffffffff168152602001613eb688613d6e565b6001600160e01b0390811690915282546001810184556000938452602093849020835194909301519091166401000000000263ffffffff909316929092179101555b9250839150505b9250929050565b600054610100900460ff16613f2d5760405162461bcd60e51b8152600401610e4e906159ed565b815160209283012081519190920120606591909155606655565b600054610100900460ff16613f6e5760405162461bcd60e51b8152600401610e4e906159ed565b61012f61343b8282615d5a565b600054610100900460ff16613fa25760405162461bcd60e51b8152600401610e4e906159ed565b613fab83613319565b613fb4826136c9565b611bae8161376c565b600054610100900460ff16613fe45760405162461bcd60e51b8152600401610e4e906159ed565b6101c580546001600160a01b0319166001600160a01b0392909216919091179055565b600054610100900460ff16610e9e5760405162461bcd60e51b8152600401610e4e906159ed565b600054610100900460ff16611e715760405162461bcd60e51b8152600401610e4e906159ed565b8154600160801b90819004600f0b6000818152600180860160205260409091209390935583546001600160801b03908116939091011602179055565b61022a5460405163e38335e560e01b81526001600160a01b039091169063e38335e59034906140cd90889088908890600090899060040161583c565b6000604051808303818588803b1580156140e657600080fd5b505af11580156140fa573d6000803e3d6000fd5b50505050505050505050565b600081815261013060205260408120600281015460ff161561412b5750600792915050565b6002810154610100900460ff16156141465750600292915050565b600061415184611543565b9050806000036141a35760405162461bcd60e51b815260206004820152601d60248201527f476f7665726e6f723a20756e6b6e6f776e2070726f706f73616c2069640000006044820152606401610e4e565b4381106141b4575060009392505050565b60006141bf85611f22565b90504381106141d357506001949350505050565b6141dc856147a2565b80156141ff57506000858152610193602052604090206006810154600590910154115b1561420f57506004949350505050565b506003949350505050565b600080614229868686866147cb565b600081815261022b602052604090205490915015611db35761022a54600082815261022b60205260409081902054905163c4d252f560e01b81526001600160a01b039092169163c4d252f5916142859160040190815260200190565b600060405180830381600087803b15801561429f57600080fd5b505af11580156142b3573d6000803e3d6000fd5b505050600082815261022b60205260408120555095945050505050565b60006142df6002848418615cf2565b611dcc908484166158f8565b60006142f5611f16565b61430433610b7860014361590b565b101561436c5760405162461bcd60e51b815260206004820152603160248201527f476f7665726e6f723a2070726f706f73657220766f7465732062656c6f7720706044820152701c9bdc1bdcd85b081d1a1c995cda1bdb19607a1b6064820152608401610e4e565b60006143818686868680519060200120612219565b905084518651146143a45760405162461bcd60e51b8152600401610e4e90615e19565b83518651146143c55760405162461bcd60e51b8152600401610e4e90615e19565b60008651116144165760405162461bcd60e51b815260206004820152601860248201527f476f7665726e6f723a20656d7074792070726f706f73616c00000000000000006044820152606401610e4e565b60008181526101306020908152604091829020825191820190925281546001600160401b031690819052156144975760405162461bcd60e51b815260206004820152602160248201527f476f7665726e6f723a2070726f706f73616c20616c72656164792065786973746044820152607360f81b6064820152608401610e4e565b60006144a96144a461180d565b6148d8565b6144b2436148d8565b6144bc9190615e5a565b905060006144cb6144a4610d12565b6144d59083615e5a565b835467ffffffffffffffff19166001600160401b038416178455905060018301805467ffffffffffffffff19166001600160401b0383161790557f7d84a6263ae0d98d3329bd7b46bb4e8d6f98cd35a7adb45c274c8b7fd5ebd5e084338b8b8d516001600160401b0381111561454d5761454d614bdc565b60405190808252806020026020018201604052801561458057816020015b606081526020019060019003908161456b5790505b508c88888e60405161459a99989796959493929190615e81565b60405180910390a15091979650505050505050565b6060824710156146105760405162461bcd60e51b815260206004820152602660248201527f416464726573733a20696e73756666696369656e742062616c616e636520666f6044820152651c8818d85b1b60d21b6064820152608401610e4e565b6001600160a01b0385163b6146675760405162461bcd60e51b815260206004820152601d60248201527f416464726573733a2063616c6c20746f206e6f6e2d636f6e74726163740000006044820152606401610e4e565b600080866001600160a01b031685876040516146839190615f24565b60006040518083038185875af1925050503d80600081146146c0576040519150601f19603f3d011682016040523d82523d6000602084013e6146c5565b606091505b5091509150611884828286614940565b60006001600160601b03821115613dd75760405162461bcd60e51b815260206004820152602660248201527f53616665436173743a2076616c756520646f65736e27742066697420696e203960448201526536206269747360d01b6064820152608401610e4e565b600063ffffffff821115613dd75760405162461bcd60e51b815260206004820152602660248201527f53616665436173743a2076616c756520646f65736e27742066697420696e203360448201526532206269747360d01b6064820152608401610e4e565b60008181526101936020526040812060058101546147c2610c0485611543565b11159392505050565b6000806147da86868686612219565b905060006147e78261188f565b905060028160078111156147fd576147fd61522a565b1415801561481d5750600681600781111561481a5761481a61522a565b14155b801561483b575060078160078111156148385761483861522a565b14155b6148875760405162461bcd60e51b815260206004820152601d60248201527f476f7665726e6f723a2070726f706f73616c206e6f74206163746976650000006044820152606401610e4e565b6000828152610130602052604090819020600201805461ff001916610100179055517f789cf55be980739dad1d0699b93b58e806b51c9d96619bfa8fe0a28abaa7b30c906112d89084815260200190565b60006001600160401b03821115613dd75760405162461bcd60e51b815260206004820152602660248201527f53616665436173743a2076616c756520646f65736e27742066697420696e203660448201526534206269747360d01b6064820152608401610e4e565b6060831561494f575081611dcc565b82511561495f5782518084602001fd5b8160405162461bcd60e51b8152600401610e4e9190614dbd565b8280548282559060005260206000209081019282156149ce579160200282015b828111156149ce57825182546001600160a01b0319166001600160a01b03909116178255602090920191600190910190614999565b50613dd7929150614ab9565b8280548282559060005260206000209081019282156149ce579160200282015b828111156149ce5782518255916020019190600101906149fa565b828054828255906000526020600020908101928215614a5b579160200282015b82811115614a5b5782518290614a4b9082615d5a565b5091602001919060010190614a35565b50613dd7929150614ace565b828054828255906000526020600020908101928215614aad579160200282015b82811115614aad5782518290614a9d9082615d5a565b5091602001919060010190614a87565b50613dd7929150614aeb565b5b80821115613dd75760008155600101614aba565b80821115613dd7576000614ae28282614b08565b50600101614ace565b80821115613dd7576000614aff8282614b08565b50600101614aeb565b508054614b14906157a8565b6000825580601f10614b24575050565b601f016020900490600052602060002090810190610ea79190614ab9565b600060208284031215614b5457600080fd5b5035919050565b600060208284031215614b6d57600080fd5b81356001600160e01b031981168114611dcc57600080fd5b803560ff81168114614b9657600080fd5b919050565b60008083601f840112614bad57600080fd5b5081356001600160401b03811115614bc457600080fd5b602083019150836020828501011115613eff57600080fd5b634e487b7160e01b600052604160045260246000fd5b604051606081016001600160401b0381118282101715614c1457614c14614bdc565b60405290565b604051601f8201601f191681016001600160401b0381118282101715614c4257614c42614bdc565b604052919050565b60006001600160401b03821115614c6357614c63614bdc565b50601f01601f191660200190565b600082601f830112614c8257600080fd5b8135614c95614c9082614c4a565b614c1a565b818152846020838601011115614caa57600080fd5b816020850160208301376000918101602001919091529392505050565b60008060008060008060008060e0898b031215614ce357600080fd5b88359750614cf360208a01614b85565b965060408901356001600160401b0380821115614d0f57600080fd5b614d1b8c838d01614b9b565b909850965060608b0135915080821115614d3457600080fd5b50614d418b828c01614c71565b945050614d5060808a01614b85565b925060a0890135915060c089013590509295985092959890939650565b60005b83811015614d88578181015183820152602001614d70565b50506000910152565b60008151808452614da9816020860160208601614d6d565b601f01601f19169290920160200192915050565b602081526000611dcc6020830184614d91565b6001600160a01b0381168114610ea757600080fd5b600080600080600080600060e0888a031215614e0057600080fd5b8735614e0b81614dd0565b96506020880135614e1b81614dd0565b955060408801359450606088013593506080880135925060a0880135614e4081614dd0565b915060c0880135614e5081614dd0565b8091505092959891949750929550565b60008060008060808587031215614e7657600080fd5b8435614e8181614dd0565b93506020850135614e9181614dd0565b92506040850135915060608501356001600160401b03811115614eb357600080fd5b614ebf87828801614c71565b91505092959194509250565b60006001600160401b03821115614ee457614ee4614bdc565b5060051b60200190565b600082601f830112614eff57600080fd5b81356020614f0f614c9083614ecb565b82815260059290921b84018101918181019086841115614f2e57600080fd5b8286015b84811015614f52578035614f4581614dd0565b8352918301918301614f32565b509695505050505050565b600082601f830112614f6e57600080fd5b81356020614f7e614c9083614ecb565b82815260059290921b84018101918181019086841115614f9d57600080fd5b8286015b84811015614f525780358352918301918301614fa1565b600082601f830112614fc957600080fd5b81356020614fd9614c9083614ecb565b82815260059290921b84018101918181019086841115614ff857600080fd5b8286015b84811015614f525780356001600160401b0381111561501b5760008081fd5b6150298986838b0101614c71565b845250918301918301614ffc565b6000806000806080858703121561504d57600080fd5b84356001600160401b038082111561506457600080fd5b61507088838901614eee565b9550602087013591508082111561508657600080fd5b61509288838901614f5d565b945060408701359150808211156150a857600080fd5b506150b587828801614fb8565b949793965093946060013593505050565b600081518084526020808501945080840160005b838110156150ff5781516001600160a01b0316875295820195908201906001016150da565b509495945050505050565b600081518084526020808501945080840160005b838110156150ff5781518752958201959082019060010161511e565b600081518084526020808501808196508360051b8101915082860160005b85811015615182578284038952615170848351614d91565b98850198935090840190600101615158565b5091979650505050505050565b6080815260006151a260808301876150c6565b82810360208401526151b4818761510a565b905082810360408401526151c8818661513a565b90508281036060840152611884818561513a565b600080600080600060a086880312156151f457600080fd5b8535945061520460208701614b85565b935061521260408701614b85565b94979396509394606081013594506080013592915050565b634e487b7160e01b600052602160045260246000fd5b602081016008831061526257634e487b7160e01b600052602160045260246000fd5b91905290565b6000806040838503121561527b57600080fd5b82359150602083013561528d81614dd0565b809150509250929050565b600080604083850312156152ab57600080fd5b823591506152bb60208401614b85565b90509250929050565b6000806000806000608086880312156152dc57600080fd5b853594506152ec60208701614b85565b935060408601356001600160401b038082111561530857600080fd5b61531489838a01614b9b565b9095509350606088013591508082111561532d57600080fd5b5061533a88828901614c71565b9150509295509295909350565b6000806000806060858703121561535d57600080fd5b8435935061536d60208601614b85565b925060408501356001600160401b0381111561538857600080fd5b61539487828801614b9b565b95989497509550505050565b600080600080608085870312156153b657600080fd5b84356001600160401b03808211156153cd57600080fd5b6153d988838901614eee565b955060208701359150808211156153ef57600080fd5b6153fb88838901614f5d565b9450604087013591508082111561541157600080fd5b61541d88838901614fb8565b9350606087013591508082111561543357600080fd5b50614ebf87828801614c71565b60008060006060848603121561545557600080fd5b833561546081614dd0565b92506020840135915060408401356001600160401b0381111561548257600080fd5b61548e86828701614c71565b9150509250925092565b6000602082840312156154aa57600080fd5b8135611dcc81614dd0565b600080600080600060a086880312156154cd57600080fd5b85356154d881614dd0565b945060208601356154e881614dd0565b935060408601356001600160401b038082111561550457600080fd5b61551089838a01614f5d565b9450606088013591508082111561552657600080fd5b61553289838a01614f5d565b9350608088013591508082111561532d57600080fd5b6000806040838503121561555b57600080fd5b50508035926020909101359150565b6000806000806060858703121561558057600080fd5b843561558b81614dd0565b93506020850135925060408501356001600160401b0381111561538857600080fd5b600082601f8301126155be57600080fd5b813560206155ce614c9083614ecb565b82815260059290921b840181019181810190868411156155ed57600080fd5b8286015b84811015614f525780356001600160401b038111156156105760008081fd5b61561e8986838b0101614c71565b8452509183019183016155f1565b600080600080600060a0868803121561564457600080fd5b85356001600160401b038082111561565b57600080fd5b61566789838a01614eee565b9650602088013591508082111561567d57600080fd5b61568989838a01614f5d565b9550604088013591508082111561569f57600080fd5b6156ab89838a016155ad565b945060608801359150808211156156c157600080fd5b61553289838a01614fb8565b600080604083850312156156e057600080fd5b82356156eb81614dd0565b946020939093013593505050565b600080600080600060a0868803121561571157600080fd5b853561571c81614dd0565b9450602086013561572c81614dd0565b9350604086013592506060860135915060808601356001600160401b0381111561575557600080fd5b61533a88828901614c71565b8183823760009101908152919050565b60208082526018908201527f476f7665726e6f723a206f6e6c79476f7665726e616e63650000000000000000604082015260600190565b600181811c908216806157bc57607f821691505b6020821081036157dc57634e487b7160e01b600052602260045260246000fd5b50919050565b60208082526021908201527f476f7665726e6f723a2070726f706f73616c206e6f74207375636365737366756040820152601b60fa1b606082015260800190565b60006020828403121561583557600080fd5b5051919050565b60a08152600061584f60a08301886150c6565b8281036020840152615861818861510a565b90508281036040840152615875818761513a565b60608401959095525050608001529392505050565b60c08152600061589d60c08301896150c6565b82810360208401526158af818961510a565b905082810360408401526158c3818861513a565b60608401969096525050608081019290925260a0909101529392505050565b634e487b7160e01b600052601160045260246000fd5b80820180821115610d0c57610d0c6158e2565b81810381811115610d0c57610d0c6158e2565b634e487b7160e01b600052603260045260246000fd5b60808152600061594760808301876150c6565b8281036020840152615959818761510a565b9050828103604084015261596d818661513a565b91505082606083015295945050505050565b84815260ff84166020820152826040820152608060608201526000611d926080830184614d91565b85815260ff8516602082015283604082015260a0606082015260006159cf60a0830185614d91565b82810360808401526159e18185614d91565b98975050505050505050565b6020808252602b908201527f496e697469616c697a61626c653a20636f6e7472616374206973206e6f74206960408201526a6e697469616c697a696e6760a81b606082015260800190565b600060018201615a4a57615a4a6158e2565b5060010190565b80518015158114614b9657600080fd5b600060208284031215615a7357600080fd5b611dcc82615a51565b6001600160e01b0319831681528151600090615a9f816004850160208701614d6d565b919091016004019392505050565b600082601f830112615abe57600080fd5b8151615acc614c9082614c4a565b818152846020838601011115615ae157600080fd5b611bd4826020830160208701614d6d565b600082601f830112615b0357600080fd5b81516020615b13614c9083614ecb565b82815260059290921b84018101918181019086841115615b3257600080fd5b8286015b84811015614f525780516001600160401b0380821115615b565760008081fd5b908801906060828b03601f1901811315615b705760008081fd5b615b78614bf2565b87840151815260408085015184811115615b925760008081fd5b615ba08e8b83890101615aad565b838b015250918401519183831115615bb85760008081fd5b615bc68d8a85880101615aad565b908201528652505050918301918301615b36565b600080600080600080600060e0888a031215615bf557600080fd5b615bfe88615a51565b9650602080890151965060408901519550615c1b60608a01615a51565b94506080890151935060a08901516001600160401b0380821115615c3e57600080fd5b818b0191508b601f830112615c5257600080fd5b8151615c60614c9082614ecb565b81815260059190911b8301840190848101908e831115615c7f57600080fd5b938501935b82851015615c9d57845182529385019390850190615c84565b60c08e01519097509450505080831115615cb657600080fd5b5050615cc48a828b01615af2565b91505092959891949750929550565b6000816000190483118215151615615ced57615ced6158e2565b500290565b600082615d0f57634e487b7160e01b600052601260045260246000fd5b500490565b601f821115611bae57600081815260208120601f850160051c81016020861015615d3b5750805b601f850160051c820191505b81811015612f0a57828155600101615d47565b81516001600160401b03811115615d7357615d73614bdc565b615d8781615d8184546157a8565b84615d14565b602080601f831160018114615dbc5760008415615da45750858301515b600019600386901b1c1916600185901b178555612f0a565b600085815260208120601f198616915b82811015615deb57888601518255948401946001909101908401615dcc565b5085821015615e095787850151600019600388901b60f8161c191681555b5050505050600190811b01905550565b60208082526021908201527f476f7665726e6f723a20696e76616c69642070726f706f73616c206c656e67746040820152600d60fb1b606082015260800190565b6001600160401b03818116838216019080821115615e7a57615e7a6158e2565b5092915050565b8981526001600160a01b038916602082015261012060408201819052600090615eac8382018b6150c6565b90508281036060840152615ec0818a61510a565b90508281036080840152615ed4818961513a565b905082810360a0840152615ee8818861513a565b6001600160401b0387811660c0860152861660e08501528381036101008501529050615f148185614d91565b9c9b505050505050505050505050565b60008251615f36818460208701614d6d565b919091019291505056fe416464726573733a206c6f772d6c6576656c2063616c6c20776974682076616c7565206661696c6564a26469706673582212203ff0a5a2290a47ec07f8fb4d95e7c694024a548a6fd6fa6fba04544341cd7fbd64736f6c63430008100033","linkReferences":{},"deployedLinkReferences":{}}