{"_format":"hh-sol-artifact-1","contractName":"LilyPad","sourceName":"contracts/LilyPad.sol","abi":[{"inputs":[{"internalType":"address","name":"_address","type":"address"}],"name":"NotAFrog","type":"error"},{"inputs":[{"internalType":"uint256","name":"techId","type":"uint256"}],"name":"TechNotFound","type":"error"},{"anonymous":false,"inputs":[{"indexed":false,"internalType":"address","name":"member","type":"address"},{"indexed":false,"internalType":"uint256","name":"eventId","type":"uint256"},{"indexed":false,"internalType":"uint256","name":"techId","type":"uint256"},{"indexed":false,"internalType":"uint256","name":"level","type":"uint256"}],"name":"BadgeEarned","type":"event"},{"anonymous":false,"inputs":[{"indexed":false,"internalType":"address","name":"member","type":"address"},{"indexed":false,"internalType":"uint256[]","name":"eventId","type":"uint256[]"},{"indexed":false,"internalType":"uint256","name":"techId","type":"uint256"},{"indexed":false,"internalType":"uint256","name":"level","type":"uint256"}],"name":"BadgesEarned","type":"event"},{"anonymous":false,"inputs":[{"indexed":false,"internalType":"address","name":"member","type":"address"},{"indexed":false,"internalType":"uint256","name":"eventId","type":"uint256"},{"indexed":false,"internalType":"string","name":"eventName","type":"string"}],"name":"EventCompleted","type":"event"},{"anonymous":false,"inputs":[{"indexed":false,"internalType":"address","name":"owner","type":"address"},{"indexed":false,"internalType":"uint256","name":"eventId","type":"uint256"},{"indexed":false,"internalType":"uint256","name":"eventTypeId","type":"uint256"},{"indexed":false,"internalType":"bytes","name":"eventName","type":"bytes"}],"name":"EventSubmited","type":"event"},{"anonymous":false,"inputs":[{"indexed":false,"internalType":"uint8","name":"version","type":"uint8"}],"name":"Initialized","type":"event"},{"anonymous":false,"inputs":[{"indexed":false,"internalType":"address","name":"member","type":"address"},{"indexed":false,"internalType":"uint256","name":"currentXp","type":"uint256"},{"indexed":false,"internalType":"uint256","name":"level","type":"uint256"}],"name":"LevelReached","type":"event"},{"anonymous":false,"inputs":[{"indexed":false,"internalType":"address","name":"member","type":"address"}],"name":"MemberBurned","type":"event"},{"anonymous":false,"inputs":[{"indexed":true,"internalType":"address","name":"previousOwner","type":"address"},{"indexed":true,"internalType":"address","name":"newOwner","type":"address"}],"name":"OwnershipTransferred","type":"event"},{"inputs":[{"internalType":"uint256","name":"_journeyId","type":"uint256"}],"name":"abandonJourney","outputs":[{"components":[{"internalType":"uint256","name":"id","type":"uint256"},{"internalType":"address","name":"member","type":"address"},{"internalType":"bytes","name":"name","type":"bytes"},{"internalType":"bool","name":"done","type":"bool"},{"internalType":"bool","name":"badgeObligatory","type":"bool"}],"internalType":"struct ILilyPad.Journey","name":"","type":"tuple"}],"stateMutability":"nonpayable","type":"function"},{"inputs":[{"internalType":"address","name":"_member","type":"address"},{"components":[{"internalType":"uint256","name":"eventId","type":"uint256"},{"internalType":"uint256","name":"techId","type":"uint256"},{"internalType":"uint256","name":"level","type":"uint256"},{"internalType":"bytes","name":"badge","type":"bytes"}],"internalType":"struct ILilyPad.Accolade[]","name":"_badges","type":"tuple[]"},{"internalType":"bytes","name":"_sig","type":"bytes"}],"name":"awardBadge","outputs":[],"stateMutability":"nonpayable","type":"function"},{"inputs":[{"internalType":"address","name":"_member","type":"address"},{"internalType":"uint256","name":"_eventId","type":"uint256"},{"internalType":"uint256","name":"_techId","type":"uint256"},{"internalType":"uint256","name":"_level","type":"uint256"}],"name":"badgeEarned","outputs":[{"internalType":"bool","name":"","type":"bool"}],"stateMutability":"view","type":"function"},{"inputs":[{"internalType":"address","name":"member","type":"address"}],"name":"burnBabeBurn","outputs":[],"stateMutability":"nonpayable","type":"function"},{"inputs":[{"internalType":"address","name":"_member","type":"address"},{"internalType":"uint256","name":"_eventId","type":"uint256"},{"internalType":"bytes","name":"_sig","type":"bytes"}],"name":"completeEvent","outputs":[],"stateMutability":"nonpayable","type":"function"},{"inputs":[{"internalType":"address","name":"_member","type":"address"},{"internalType":"uint256","name":"_eventId","type":"uint256"}],"name":"completedEvent","outputs":[{"internalType":"bool","name":"","type":"bool"}],"stateMutability":"view","type":"function"},{"inputs":[{"internalType":"uint256","name":"_tokenId","type":"uint256"},{"internalType":"string","name":"_baseUri","type":"string"}],"name":"constructTokenUri","outputs":[{"internalType":"string","name":"","type":"string"}],"stateMutability":"view","type":"function"},{"inputs":[{"components":[{"internalType":"uint256","name":"id","type":"uint256"},{"internalType":"bytes","name":"name","type":"bytes"}],"internalType":"struct ILilyPad.EventType[]","name":"_eventTypes","type":"tuple[]"}],"name":"createEventType","outputs":[],"stateMutability":"nonpayable","type":"function"},{"inputs":[{"internalType":"uint256","name":"_journeyId","type":"uint256"},{"internalType":"bytes","name":"_name","type":"bytes"},{"internalType":"bool","name":"_badgeObligatory","type":"bool"},{"internalType":"uint256[]","name":"_eventId","type":"uint256[]"}],"name":"createJourney","outputs":[{"components":[{"internalType":"uint256","name":"id","type":"uint256"},{"internalType":"address","name":"member","type":"address"},{"internalType":"bytes","name":"name","type":"bytes"},{"internalType":"bool","name":"done","type":"bool"},{"internalType":"bool","name":"badgeObligatory","type":"bool"}],"internalType":"struct ILilyPad.Journey","name":"","type":"tuple"}],"stateMutability":"nonpayable","type":"function"},{"inputs":[{"components":[{"internalType":"uint256","name":"level","type":"uint256"},{"internalType":"uint256","name":"xpInit","type":"uint256"},{"internalType":"uint256","name":"xpFin","type":"uint256"},{"internalType":"bytes","name":"image","type":"bytes"}],"internalType":"struct ILilyPad.Level[]","name":"_levels","type":"tuple[]"}],"name":"createLevel","outputs":[],"stateMutability":"nonpayable","type":"function"},{"inputs":[{"internalType":"uint256","name":"_initialXp","type":"uint256"},{"internalType":"uint256[]","name":"_completedEvents","type":"uint256[]"},{"components":[{"internalType":"uint256","name":"eventId","type":"uint256"},{"internalType":"uint256","name":"techId","type":"uint256"},{"internalType":"uint256","name":"level","type":"uint256"},{"internalType":"bytes","name":"badge","type":"bytes"}],"internalType":"struct ILilyPad.Accolade[]","name":"_badges","type":"tuple[]"},{"internalType":"bytes","name":"_sig","type":"bytes"}],"name":"createMember","outputs":[],"stateMutability":"nonpayable","type":"function"},{"inputs":[{"components":[{"internalType":"uint256","name":"techId","type":"uint256"},{"internalType":"bytes","name":"techName","type":"bytes"}],"internalType":"struct ILilyPad.Technology[]","name":"_technologies","type":"tuple[]"},{"components":[{"internalType":"uint256","name":"techId","type":"uint256"},{"internalType":"uint256","name":"level","type":"uint256"},{"internalType":"bytes","name":"badge","type":"bytes"}],"internalType":"struct ILilyPad.TechBadge[]","name":"_badges","type":"tuple[]"}],"name":"createTechnology","outputs":[],"stateMutability":"nonpayable","type":"function"},{"inputs":[{"internalType":"address","name":"_member","type":"address"},{"internalType":"uint256","name":"_eventId","type":"uint256"},{"internalType":"uint256","name":"_techId","type":"uint256"},{"internalType":"uint256","name":"_level","type":"uint256"}],"name":"getAwardedBadge","outputs":[{"components":[{"internalType":"uint256","name":"eventId","type":"uint256"},{"internalType":"uint256","name":"techId","type":"uint256"},{"internalType":"uint256","name":"level","type":"uint256"},{"internalType":"bytes","name":"badge","type":"bytes"}],"internalType":"struct ILilyPad.Accolade","name":"","type":"tuple"},{"internalType":"uint256","name":"badgeIndex","type":"uint256"}],"stateMutability":"view","type":"function"},{"inputs":[{"internalType":"uint256","name":"_id","type":"uint256"}],"name":"getEvent","outputs":[{"internalType":"uint256","name":"eventTypeId","type":"uint256"},{"internalType":"uint256","name":"xp","type":"uint256"},{"components":[{"internalType":"uint256","name":"techId","type":"uint256"},{"internalType":"bytes","name":"techName","type":"bytes"}],"internalType":"struct ILilyPad.Technology[]","name":"eventTechs","type":"tuple[]"}],"stateMutability":"view","type":"function"},{"inputs":[{"internalType":"uint256","name":"_eventTypeId","type":"uint256"}],"name":"getEventType","outputs":[{"components":[{"internalType":"uint256","name":"id","type":"uint256"},{"internalType":"bytes","name":"name","type":"bytes"}],"internalType":"struct ILilyPad.EventType","name":"","type":"tuple"}],"stateMutability":"view","type":"function"},{"inputs":[{"internalType":"uint256","name":"_levelId","type":"uint256"}],"name":"getLevel","outputs":[{"components":[{"internalType":"uint256","name":"level","type":"uint256"},{"internalType":"uint256","name":"xpInit","type":"uint256"},{"internalType":"uint256","name":"xpFin","type":"uint256"},{"internalType":"bytes","name":"image","type":"bytes"}],"internalType":"struct ILilyPad.Level","name":"","type":"tuple"}],"stateMutability":"view","type":"function"},{"inputs":[{"internalType":"address","name":"_memberAddress","type":"address"}],"name":"getMember","outputs":[{"internalType":"bool","name":"pathChosen","type":"bool"},{"internalType":"uint256","name":"xp","type":"uint256"},{"internalType":"uint256","name":"level","type":"uint256"},{"internalType":"bool","name":"DAO","type":"bool"},{"internalType":"uint256","name":"tokenId","type":"uint256"},{"internalType":"uint256[]","name":"completedEvents","type":"uint256[]"},{"components":[{"internalType":"uint256","name":"eventId","type":"uint256"},{"internalType":"uint256","name":"techId","type":"uint256"},{"internalType":"uint256","name":"level","type":"uint256"},{"internalType":"bytes","name":"badge","type":"bytes"}],"internalType":"struct ILilyPad.Accolade[]","name":"badges","type":"tuple[]"}],"stateMutability":"view","type":"function"},{"inputs":[{"internalType":"uint256","name":"_tokenId","type":"uint256"}],"name":"getMemberByTokenId","outputs":[{"internalType":"address","name":"memberAddress","type":"address"},{"internalType":"bool","name":"pathChosen","type":"bool"},{"internalType":"uint256","name":"xp","type":"uint256"},{"internalType":"uint256","name":"level","type":"uint256"},{"internalType":"bool","name":"DAO","type":"bool"},{"internalType":"uint256","name":"tokenId","type":"uint256"},{"internalType":"uint256[]","name":"completedEvents","type":"uint256[]"},{"components":[{"internalType":"uint256","name":"eventId","type":"uint256"},{"internalType":"uint256","name":"techId","type":"uint256"},{"internalType":"uint256","name":"level","type":"uint256"},{"internalType":"bytes","name":"badge","type":"bytes"}],"internalType":"struct ILilyPad.Accolade[]","name":"badges","type":"tuple[]"}],"stateMutability":"view","type":"function"},{"inputs":[{"internalType":"address","name":"_memberAddress","type":"address"}],"name":"getMemberLevel","outputs":[{"internalType":"uint256","name":"","type":"uint256"}],"stateMutability":"view","type":"function"},{"inputs":[{"internalType":"uint256","name":"_technologyId","type":"uint256"},{"internalType":"uint256","name":"level","type":"uint256"}],"name":"getTechBadge","outputs":[{"components":[{"internalType":"uint256","name":"techId","type":"uint256"},{"internalType":"uint256","name":"level","type":"uint256"},{"internalType":"bytes","name":"badge","type":"bytes"}],"internalType":"struct ILilyPad.TechBadge","name":"","type":"tuple"}],"stateMutability":"view","type":"function"},{"inputs":[{"internalType":"uint256","name":"_technologyId","type":"uint256"}],"name":"getTechnology","outputs":[{"components":[{"internalType":"uint256","name":"techId","type":"uint256"},{"internalType":"bytes","name":"techName","type":"bytes"}],"internalType":"struct ILilyPad.Technology","name":"","type":"tuple"}],"stateMutability":"view","type":"function"},{"inputs":[{"internalType":"address","name":"_memberAddress","type":"address"}],"name":"getTokenId","outputs":[{"internalType":"uint256","name":"","type":"uint256"}],"stateMutability":"view","type":"function"},{"inputs":[{"components":[{"internalType":"uint256","name":"level","type":"uint256"},{"internalType":"uint256","name":"xpInit","type":"uint256"},{"internalType":"uint256","name":"xpFin","type":"uint256"},{"internalType":"bytes","name":"image","type":"bytes"}],"internalType":"struct ILilyPad.Level[]","name":"_levels","type":"tuple[]"},{"components":[{"internalType":"uint256","name":"id","type":"uint256"},{"internalType":"bytes","name":"name","type":"bytes"}],"internalType":"struct ILilyPad.EventType[]","name":"_eventTypes","type":"tuple[]"},{"components":[{"internalType":"uint256","name":"techId","type":"uint256"},{"internalType":"bytes","name":"techName","type":"bytes"}],"internalType":"struct ILilyPad.Technology[]","name":"_technologies","type":"tuple[]"},{"internalType":"address","name":"_safeCaller","type":"address"}],"name":"initialize","outputs":[],"stateMutability":"nonpayable","type":"function"},{"inputs":[{"internalType":"address","name":"_memberAddress","type":"address"}],"name":"mintTokenForMember","outputs":[],"stateMutability":"payable","type":"function"},{"inputs":[],"name":"owner","outputs":[{"internalType":"address","name":"","type":"address"}],"stateMutability":"view","type":"function"},{"inputs":[],"name":"renounceOwnership","outputs":[],"stateMutability":"nonpayable","type":"function"},{"inputs":[],"name":"safeCaller","outputs":[{"internalType":"address","name":"","type":"address"}],"stateMutability":"view","type":"function"},{"inputs":[],"name":"sbtAddress","outputs":[{"internalType":"contract IPondSBT","name":"","type":"address"}],"stateMutability":"view","type":"function"},{"inputs":[{"internalType":"contract IPondSBT","name":"_newSbtAddress","type":"address"}],"name":"setSbtAddress","outputs":[],"stateMutability":"nonpayable","type":"function"},{"inputs":[{"components":[{"internalType":"uint256","name":"eventId","type":"uint256"},{"internalType":"bytes","name":"badge","type":"bytes"}],"internalType":"struct ILilyPad.EventBadge[]","name":"_eventBadges","type":"tuple[]"},{"components":[{"internalType":"uint256","name":"techId","type":"uint256"},{"internalType":"uint256","name":"level","type":"uint256"},{"internalType":"bytes","name":"badge","type":"bytes"}],"internalType":"struct ILilyPad.TechBadge[]","name":"_techBadges","type":"tuple[]"}],"name":"submitBadge","outputs":[],"stateMutability":"nonpayable","type":"function"},{"inputs":[{"internalType":"uint256","name":"_eventId","type":"uint256"},{"internalType":"uint256","name":"_eventTypeId","type":"uint256"},{"internalType":"bytes","name":"_eventName","type":"bytes"},{"internalType":"uint256","name":"_xp","type":"uint256"},{"internalType":"uint256","name":"_level","type":"uint256"},{"internalType":"uint256[]","name":"_technologies","type":"uint256[]"},{"internalType":"bytes","name":"_sig","type":"bytes"}],"name":"submitEvent","outputs":[],"stateMutability":"nonpayable","type":"function"},{"inputs":[{"internalType":"address","name":"newOwner","type":"address"}],"name":"transferOwnership","outputs":[],"stateMutability":"nonpayable","type":"function"},{"inputs":[{"internalType":"uint256","name":"_id","type":"uint256"},{"internalType":"uint256","name":"_eventTypeId","type":"uint256"},{"internalType":"bytes","name":"_eventName","type":"bytes"},{"internalType":"uint256","name":"_xp","type":"uint256"},{"internalType":"uint256[]","name":"_technologies","type":"uint256[]"},{"internalType":"bytes","name":"_sig","type":"bytes"}],"name":"updateEvent","outputs":[],"stateMutability":"nonpayable","type":"function"},{"inputs":[{"internalType":"uint256","name":"_journeyId","type":"uint256"},{"internalType":"bytes","name":"_name","type":"bytes"},{"internalType":"bool","name":"_badgeObligatory","type":"bool"},{"internalType":"uint256[]","name":"_eventsId","type":"uint256[]"}],"name":"updateJourney","outputs":[{"components":[{"internalType":"uint256","name":"id","type":"uint256"},{"internalType":"address","name":"member","type":"address"},{"internalType":"bytes","name":"name","type":"bytes"},{"internalType":"bool","name":"done","type":"bool"},{"internalType":"bool","name":"badgeObligatory","type":"bool"}],"internalType":"struct ILilyPad.Journey","name":"","type":"tuple"}],"stateMutability":"nonpayable","type":"function"},{"inputs":[{"internalType":"address","name":"_memberAddress","type":"address"},{"internalType":"bool","name":"_dao","type":"bool"},{"internalType":"uint256","name":"_xp","type":"uint256"},{"internalType":"uint256[]","name":"_completedEvents","type":"uint256[]"},{"components":[{"internalType":"uint256","name":"eventId","type":"uint256"},{"internalType":"uint256","name":"techId","type":"uint256"},{"internalType":"uint256","name":"level","type":"uint256"},{"internalType":"bytes","name":"badge","type":"bytes"}],"internalType":"struct ILilyPad.Accolade[]","name":"_badges","type":"tuple[]"},{"internalType":"bytes","name":"_sig","type":"bytes"}],"name":"updateMember","outputs":[],"stateMutability":"nonpayable","type":"function"},{"inputs":[{"internalType":"address","name":"_newSafeCaller","type":"address"}],"name":"updateSafeCaller","outputs":[],"stateMutability":"nonpayable","type":"function"}],"bytecode":"0x6080806040523461001757615f7390816200001d8239f35b600080fdfe60806040526004361015610013575b600080fd5b60003560e01c806303cd58ef146102e357806308f263a7146102da5780630a607b98146102d15780630e6eaf9b146102c857806312d21a34146102bf5780631fc64fe3146102b657806328227df1146102ad5780632ada2596146102a4578063343611a81461029b57806345a059761461029257806346e26dd31461028957806351cb31471461028057806352207b271461027757806354683cac1461026e57806357324c451461026557806359269e671461025c5780635a81179914610253578063633927dd1461024a5780636ac2c6c7146102415780636d1884e014610238578063715018a61461022f578063792110ee14610226578063827a421f1461021d57806386481d40146102145780638da5cb5b1461020b5780638f913a071461020257806393bf89a6146101f9578063989147b3146101f0578063c722f2af146101e7578063c8318815146101de578063c860d775146101d5578063d54d7c34146101cc578063dc5738be146101c3578063f1537686146101ba578063f2fde38b146101b15763f3116011146101a957600080fd5b61000e612226565b5061000e612109565b5061000e6120c7565b5061000e611f2e565b5061000e611dbe565b5061000e611d82565b5061000e611d2e565b5061000e611cb7565b5061000e611c8f565b5061000e611bb4565b5061000e611b39565b5061000e611b11565b5061000e611ac7565b5061000e6119af565b5061000e611934565b5061000e6118c4565b5061000e6117d3565b5061000e61171a565b5061000e61157a565b5061000e61142c565b5061000e6113b5565b5061000e611395565b5061000e611341565b5061000e61109b565b5061000e610e2d565b5061000e610ced565b5061000e610c46565b5061000e610bbb565b5061000e61090d565b5061000e6107bc565b5061000e610774565b5061000e6106ae565b5061000e610532565b5061000e6104da565b5061000e6103d8565b5061000e610334565b60005b8381106102ff5750506000910152565b81810151838201526020016102ef565b90601f19601f60209361032d815180928187528780880191016102ec565b0116010190565b503461000e57604060031936011261000e576040610356602435600435613351565b610384825192839260208452805160208501526020810151828501520151606080840152608083019061030f565b0390f35b60208152815160208201526001600160a01b03602083015116604082015260a060806103c2604085015183606086015260c085019061030f565b9360608101511515828501520151151591015290565b503461000e57602060031936011261000e576103846104966104916004356103fe614906565b5061040833614d12565b61045a60406000838152606f60205261044c6001600160a01b036104358160018686200154161515614ff8565b858352606f60205283832060010154163314614ff8565b838152607060205220615043565b610481600361047383600052606f602052604060002090565b01600160ff19825416179055565b600052606f602052604060002090565b614b31565b60405191829182610388565b6001600160a01b0381160361000e57565b600319608091011261000e576004356104cb816104a2565b90602435906044359060643590565b503461000e5760206104f76104ee366104b3565b92919091614573565b6040519015158152f35b9181601f8401121561000e5782359167ffffffffffffffff831161000e576020808501948460051b01011161000e57565b503461000e57608060031936011261000e5767ffffffffffffffff60043581811161000e57610565903690600401610501565b60249291923582811161000e57610580903690600401610501565b9060443593841161000e5761059c6105ed943690600401610501565b929091606435946105ac866104a2565b600054976105d160ff8a60081c1615809a819b610671575b8115610651575b50612354565b886105e4600160ff196000541617600055565b6106385761282d565b6105f4575b005b61060461ff001960005416600055565b604051600181527f7f26b83ff96e1f2b6a682f133852f6798a09c465da95921460cefb38474024989080602081015b0390a1005b61064c61010061ff00196000541617600055565b61282d565b303b15915081610663575b50386105cb565b6001915060ff16143861065c565b600160ff82161091506105c4565b602060031982011261000e576004359067ffffffffffffffff821161000e576106aa91600401610501565b9091565b503461000e576106bd3661067f565b6106c56122a5565b60005b8181106106d157005b806106e061073692848661271b565b35600052606960209080825260409182600020541560001461073b5750505061073161070d82858761271b565b61072c61071b84878961271b565b356000526069602052604060002090565b612769565b6123dc565b6106c8565b60016107319361075861074f878a8c61271b565b84810190612474565b949093610766888b8d61271b565b35600052526000200161255b565b503461000e57600060031936011261000e5760206001600160a01b0360665416604051908152f35b90604060206107b99380518452015191816020820152019061030f565b90565b503461000e57602060031936011261000e576107d6612a83565b5060043560005260696020526103846107f26040600020612a9d565b60405191829160208352602083019061079c565b90815180825260208080930193019160005b828110610826575050505090565b835185529381019392810192600101610818565b90608060606107b993805184526020810151602085015260408101516040850152015191816060820152019061030f565b908082519081815260208091019281808460051b8301019501936000915b8483106108995750505050505090565b90919293949584806108b783601f1986600196030187528a5161083a565b9801930193019194939290610889565b95926107b99795926108ff9592151588526020880152604087015215156060860152608085015260e060a085015260e0840190610806565b9160c081840391015261086b565b503461000e57602060031936011261000e5760043561092b816104a2565b6001600160a01b03811680600052606d60205261038460ff60406000205416916001604060002001549361095e8161481c565b91600052606d60205261097a600260406000200160ff90541690565b6003610999836001600160a01b0316600052606d602052604060002090565b0154906109ee6109e860056109e160046109c6886001600160a01b0316600052606d602052604060002090565b01966001600160a01b0316600052606d602052604060002090565b01946137b4565b9361397e565b93604051978897886108c7565b60243590811515820361000e57565b60443590811515820361000e57565b50634e487b7160e01b600052604160045260246000fd5b60c0810190811067ffffffffffffffff821117610a4c57604052565b610a54610a19565b604052565b6080810190811067ffffffffffffffff821117610a4c57604052565b6040810190811067ffffffffffffffff821117610a4c57604052565b6060810190811067ffffffffffffffff821117610a4c57604052565b60a0810190811067ffffffffffffffff821117610a4c57604052565b6020810190811067ffffffffffffffff821117610a4c57604052565b90601f601f19910116810190811067ffffffffffffffff821117610a4c57604052565b60405190610b1582610a75565b565b60405190610b1582610a91565b60405190610b1582610a59565b60405190610b1582610aad565b601f19601f60209267ffffffffffffffff8111610b5c575b01160190565b610b64610a19565b610b56565b929192610b7582610b3e565b91610b836040519384610ae5565b82948184528183011161000e578281602093846000960137010152565b9080601f8301121561000e578160206107b993359101610b69565b503461000e5760c060031936011261000e57600435610bd9816104a2565b610be16109fb565b67ffffffffffffffff9160643583811161000e57610c03903690600401610501565b60849291923585811161000e57610c1e903690600401610501565b93909260a43596871161000e57610c3c6105f2973690600401610ba0565b9560443591613e5c565b503461000e57602060031936011261000e576001600160a01b03610cb1610384610c71600435614729565b9698956040959195949294519a8b9a168a52151560208a0152604089015260608801521515608087015260a08601526101008060c0870152850190610806565b9083820360e085015261086b565b9181601f8401121561000e5782359167ffffffffffffffff831161000e576020838186019501011161000e57565b503461000e57606060031936011261000e57600435610d0b816104a2565b67ffffffffffffffff60243581811161000e57610d2c903690600401610501565b909260443592831161000e57610dbf93610d4d610d99943690600401610cbf565b610db9610d5d8685999499613ab2565b97610db18660409a610da960348d51809360209e8f6bffffffffffffffffffffffff198185019860601b168852825192839186860191016102ec565b8101036014810184520182610ae5565b519020615efa565b923691610b69565b90613708565b60005b838110610dcb57005b80610e01610ddd610e0b93878661240f565b3587610dea84898861240f565b013589610df8858a8961240f565b01359187614573565b15610e10576123dc565b610dc2565b610731610e2736610e2284898861240f565b6139d4565b856142d2565b503461000e57606060031936011261000e57600435610e4b816104a2565b60243560443567ffffffffffffffff811161000e57610e6e903690600401610ba0565b91604091610eb7835194610eb2602087016001600160a01b038616976bffffffffffffffffffffffff198760601b16825285603482015260348152610da981610a91565b613708565b83600052606d60205260ff8360002054161561105a5760009350610edb8183614470565b15610ee557505051f35b7f593c8b850cae6a478ff8850060a058179997558d3e942a5c3ecd27cc68d62695610fb3610f128461481c565b92610f3c816004610f36886001600160a01b0316600052606d602052604060002090565b0161367b565b6004610f52826000526072602052604060002090565b0154610f7f6001610f76886001600160a01b0316600052606d602052604060002090565b0191825461411b565b9055610f8a85615236565b610fc16002610fa3836000526072602052604060002090565b0187519384916020830190614128565b03601f198101845283610ae5565b610fd0865192839287846141ab565b0390a1610fdc8261481c565b908111610fe857505051f35b81611054600161102c7fa7792332f0075457196fdfdfc63fafecd0d71f0c53de7d5b25e36c23804e1221956001600160a01b0316600052606d602052604060002090565b0154928551938493846040919493926001600160a01b03606083019616825260208201520152565b0390a151f35b6024848451907ff6440c120000000000000000000000000000000000000000000000000000000082526004820152fd5b9060206107b992818152019061030f565b503461000e57604060031936011261000e5760043560243567ffffffffffffffff811161000e573660238201121561000e5736816004013591602401916110e192610b69565b6110ea82614729565b97969894509450505050801515611100906154ba565b61110990615524565b9161111c6001600160a01b03861661566b565b936111268661481c565b61113a906000526068602052604060002090565b600301926040518094602082016111519086612deb565b61115a91614128565b0396601f1997888101865261116f9086610ae5565b6111789061481c565b90611182916158fa565b9161118c91615b84565b6040517f7b226e616d65223a22506f6e64534254200000000000000000000000000000006020820152948594919391603186016111c891612deb565b7f222c20226465736372697074696f6e223a2250617274206f662074686520536f81527f756c206f66200000000000000000000000000000000000000000000000000000602082015260260161121d91612deb565b7f222c22696d616765223a202200000000000000000000000000000000000000008152600c0161124c91612deb565b7f222c000000000000000000000000000000000000000000000000000000000000815260020161127b91612deb565b7f2c0000000000000000000000000000000000000000000000000000000000000081526001016112aa91612deb565b7f7d0000000000000000000000000000000000000000000000000000000000000081526001010382810182526112e09082610ae5565b6112e990615785565b6040517f646174613a6170706c69636174696f6e2f6a736f6e3b6261736536342c000000602082015291908290603d820161132391612deb565b0390810182526113339082610ae5565b60405161038481928261108a565b503461000e57602060031936011261000e576001600160a01b03600435611367816104a2565b61136f6122a5565b1673ffffffffffffffffffffffffffffffffffffffff1960675416176067556000604051f35b503461000e57602060031936011261000e576103846107f2600435612d55565b503461000e57602060031936011261000e5760206113dd6004356113d8816104a2565b61481c565b604051908152f35b604060031982011261000e5767ffffffffffffffff9160043583811161000e578261141291600401610501565b9390939260243591821161000e576106aa91600401610501565b503461000e5761143b366113e5565b6114469392936122a5565b60005b84811061145257005b61147161146082878761271b565b35600052606a602052604060002090565b546115035761149261148482878761271b565b61072c61146084898961271b565b6114b96114b46114a383888861271b565b35600052606b602052604060002090565b612b47565b60005b8281106114d257506114cd906123dc565b611449565b6114fb906107316114ea6114a3858a8a9b979b61271b565b6114f5838789612bcd565b90612c45565b9490946114bc565b61153561151e61151483888861271b565b6020810190612474565b90600161152f611460868b8b61271b565b0161255b565b6115466114b46114a383888861271b565b60005b82811061155a57506114cd906123dc565b611572906107316114ea6114a3858a8a9b979b61271b565b949094611549565b50602060031936011261000e57600435611593816104a2565b6115bd60036115b5836001600160a01b0316600052606d602052604060002090565b015415614635565b6115de6115d26067546001600160a01b031690565b6001600160a01b031690565b6040517fa68407f60000000000000000000000000000000000000000000000000000000081526001600160a01b038316600482015291906020908390602490829034905af1600092816116ea575b50611689575050600161163d61469c565b6308c379a014611656575b61164e57005b6105f261468f565b61165e6146ba565b806116695750611648565b6116859060405191829162461bcd60e51b83526004830161108a565b0390fd5b6116c2826105f29360036116b0856001600160a01b0316600052606d602052604060002090565b01556000526071602052604060002090565b906001600160a01b031673ffffffffffffffffffffffffffffffffffffffff19825416179055565b61170c91935060203d8111611713575b6117048183610ae5565b810190614680565b913861162c565b503d6116fa565b503461000e57604060031936011261000e5760206104f760043561173d816104a2565b60243590614470565b91606083019183526020908184015260606040840152835180925260808301928160808460051b8301019501936000915b8483106117875750505050505090565b90919293949584806117c3837fffffffffffffffffffffffffffffffffffffffffffffffffffffffffffffff8086600196030187528a5161079c565b9801930193019194939290611777565b503461000e57602060031936011261000e57600435600052607260205260406000206040519061180282610a30565b8054825260018101546020830190815261181e600283016129a5565b60408401526003820154606084015260a0611847600560048501549460808701958652016137b4565b9301928084525161185781613852565b9360005b82811061187957505050610384905191519260405193849384611746565b806118a461189f61188e6118bf948651612dc9565b51600052606a602052604060002090565b612a9d565b6118ae8289612dc9565b526118b98188612dc9565b506123dc565b61185b565b503461000e57600080600319360112611931576118df6122a5565b60335473ffffffffffffffffffffffffffffffffffffffff198116603355816001600160a01b0360405192167f8be0079c531659141344cd1fd0a4f28419497f9722a3daafe3b4186f6b6457e08284a3f35b80fd5b503461000e57608060031936011261000e5767ffffffffffffffff60243581811161000e57611967903690600401610cbf565b611972929192610a0a565b9260643592831161000e5761038493611992610496943690600401610501565b93909261199d614906565b506119a733614d12565b600435614b85565b503461000e576119be3661067f565b6119c66122a5565b600091825b8281106119d85783604051f35b806119fb6119ea611a4c93868661240f565b356000526068602052604060002090565b54611a5957611a21611a0e82868661240f565b611a1c6119ea84888861240f565b612630565b606554611a2f82868661240f565b35811015611a515750610731611a4682868661240f565b35606555565b6119cb565b6065556123dc565b6020611a6682868661240f565b01356001611a786119ea84888861240f565b01556040611a8782868661240f565b01356002611a996119ea84888861240f565b0155610731611ab6611aac83878761240f565b6060810190612474565b90600361152f6119ea868a8a61240f565b503461000e57602060031936011261000e57611ae161297e565b506004356000526068602052610384611afd6040600020612a4a565b60405191829160208352602083019061083a565b503461000e57600060031936011261000e5760206001600160a01b0360335416604051908152f35b503461000e5760e060031936011261000e5767ffffffffffffffff60443581811161000e57611b6c903690600401610cbf565b60a43583811161000e57611b84903690600401610501565b9160c43594851161000e57611ba06105f2953690600401610ba0565b93608435916064359160243560043561342c565b503461000e57608060031936011261000e5767ffffffffffffffff60043560243582811161000e57611bea903690600401610501565b60449391933582811161000e57611c05903690600401610501565b9260643590811161000e576105f295611c8893611c79611c2c611c80943690600401610ba0565b610eb2896020610da9611c3f8c8b613ab2565b604051928391818301958652611c6a611c5d8c8c60408701916133f8565b91828151948592016102ec565b0103601f198101835282610ae5565b36916121d8565b923691613a42565b9133613cd3565b503461000e57600060031936011261000e5760206001600160a01b0360675416604051908152f35b503461000e5760c060031936011261000e5767ffffffffffffffff60443581811161000e57611cea903690600401610ba0565b60843582811161000e57611d02903690600401610501565b9060a43593841161000e57611d1e6105f2943690600401610ba0565b92606435906024356004356138a1565b503461000e57602060031936011261000e576001600160a01b03600435611d54816104a2565b611d5c6122a5565b1673ffffffffffffffffffffffffffffffffffffffff1960665416176066556000604051f35b503461000e57611db4611da0611d97366104b3565b929190916141d0565b60405192839260408452604084019061083a565b9060208301520390f35b503461000e57611dcd366113e5565b91611dd66122a5565b60005b818110611dea576105f2848461316b565b611e11611e0c611dfb83858961271b565b35600052606c602052604060002090565b612d73565b8051600091825b82811115611e8e575b50505090611e339115611e38576123dc565b611dd9565b610731611e49611dfb83868a61271b565b611e5483868a61271b565b3590611e6184878b61271b565b611e85611e7360209283810190612474565b611e7b610b08565b9586523691610b69565b90830152612ee0565b88611ef987611f05602080611ea38b89612dc9565b51015190611ee8611edf8c60409687519586611ec28782018093612deb565b0396611ed6601f1998898101835282610ae5565b5190209961271b565b82810190612474565b959094519485928301968791612dfe565b03908101835282610ae5565b51902014611f1b57611f16906123dc565b611e18565b50505050611e3390600190913880611e21565b503461000e57602060031936011261000e57600435611f4c816104a2565b6001600160a01b0360675416330361205d5761063381611fad611fa37f7832841b27381cc9b824718ee239279b2e9c0a1ba515ff4759cb07d8afba6da0946001600160a01b0316600052606d602052604060002090565b60ff198154169055565b60006001611fce836001600160a01b0316600052606d602052604060002090565b015560006003611ff1836001600160a01b0316600052606d602052604060002090565b015561201b6004612015836001600160a01b0316600052606d602052604060002090565b0161395a565b612043600561203d836001600160a01b0316600052606d602052604060002090565b0161542e565b6040516001600160a01b0390911681529081906020820190565b608460405162461bcd60e51b815260206004820152603360248201527f4c696c795061643a3a4f6e6c792053425420436f6e74726163742063616e206360448201527f616c6c206d656e62657273686970206275726e000000000000000000000000006064820152fd5b503461000e57602060031936011261000e576001600160a01b036004356120ed816104a2565b16600052606d6020526020600360406000200154604051908152f35b503461000e57602060031936011261000e57600435612127816104a2565b61212f6122a5565b6001600160a01b03811615612147576105f2906122fd565b608460405162461bcd60e51b815260206004820152602660248201527f4f776e61626c653a206e6577206f776e657220697320746865207a65726f206160448201527f64647265737300000000000000000000000000000000000000000000000000006064820152fd5b60209067ffffffffffffffff81116121cb575b60051b0190565b6121d3610a19565b6121c4565b92916121e3826121b1565b916121f16040519384610ae5565b829481845260208094019160051b810192831161000e57905b8282106122175750505050565b8135815290830190830161220a565b503461000e57608060031936011261000e5767ffffffffffffffff60243581811161000e57612259903690600401610ba0565b90612262610a0a565b9160643591821161000e573660238301121561000e57610384926122936104969336906024816004013591016121d8565b9161229c614906565b50600435614e37565b6001600160a01b036033541633036122b957565b606460405162461bcd60e51b815260206004820152602060248201527f4f776e61626c653a2063616c6c6572206973206e6f7420746865206f776e65726044820152fd5b603354906001600160a01b03809116918273ffffffffffffffffffffffffffffffffffffffff19821617603355167f8be0079c531659141344cd1fd0a4f28419497f9722a3daafe3b4186f6b6457e06000604051a3565b1561235b57565b608460405162461bcd60e51b815260206004820152602e60248201527f496e697469616c697a61626c653a20636f6e747261637420697320616c72656160448201527f647920696e697469616c697a65640000000000000000000000000000000000006064820152fd5b50634e487b7160e01b600052601160045260246000fd5b60019060001981146123ec570190565b6123f46123c5565b0190565b50634e487b7160e01b600052603260045260246000fd5b9190811015612450575b60051b810135907fffffffffffffffffffffffffffffffffffffffffffffffffffffffffffffff818136030182121561000e570190565b6124586123f8565b612419565b50634e487b7160e01b600052600060045260246000fd5b9035907fffffffffffffffffffffffffffffffffffffffffffffffffffffffffffffffe18136030182121561000e570180359067ffffffffffffffff821161000e5760200191813603831361000e57565b90600182811c921680156124f5575b60208310146124df57565b634e487b7160e01b600052602260045260246000fd5b91607f16916124d4565b81811061250a575050565b600081556001016124ff565b9190601f811161252557505050565b610b15926000526020600020906020601f840160051c83019310612551575b601f0160051c01906124ff565b9091508190612544565b90929167ffffffffffffffff8111612623575b6125828161257c84546124c5565b84612516565b6000601f82116001146125bb57819293946000926125b0575b50506000198260011b9260031b1c1916179055565b01359050388061259b565b601f198216946125d084600052602060002090565b91805b87811061260b5750836001959697106125f1575b505050811b019055565b60001960f88560031b161c199101351690553880806125e7565b909260206001819286860135815501940191016125d3565b61262b610a19565b61256e565b8135815560209061265d600360019284860135848201556040860135600282015501936060810190612474565b929067ffffffffffffffff841161270e575b6126838461267d87546124c5565b87612516565b600091601f85116001146126be57506000918491826126b1575b505060001991921b9260031b1c1916179055565b013591506000193861269d565b9184601f19819596166126d688600052602060002090565b9483905b888383106126f457505050106125f157505050811b019055565b8686013588559096019593840193879350908101906126da565b612716610a19565b61266f565b919081101561275c575b60051b810135907fffffffffffffffffffffffffffffffffffffffffffffffffffffffffffffffc18136030182121561000e570190565b6127646123f8565b612725565b908035825560018092019161278360209283810190612474565b929067ffffffffffffffff8411612820575b6127a38461267d87546124c5565b600091601f85116001146127d057506000918491826126b157505060001991921b9260031b1c1916179055565b9184601f19819596166127e888600052602060002090565b9483905b8883831061280657505050106125f157505050811b019055565b8686013588559096019593840193879350908101906127ec565b612828610a19565b612795565b60005b8281106128d35750505060005b8281106128ae5750505060005b82811061288957505050610b159061286061295b565b6001600160a01b031673ffffffffffffffffffffffffffffffffffffffff196066541617606655565b8061073161289b6128a993868661271b565b61072c61146084888861271b565b61284a565b806107316128c06128ce93868661271b565b61072c61071b84888861271b565b61283d565b80611a21611a0e6128e593868661240f565b612830565b156128f157565b608460405162461bcd60e51b815260206004820152602b60248201527f496e697469616c697a61626c653a20636f6e7472616374206973206e6f74206960448201527f6e697469616c697a696e670000000000000000000000000000000000000000006064820152fd5b61297560ff60005460081c16612970816128ea565b6128ea565b610b15336122fd565b6040519061298b82610a59565b606080836000815260006020820152600060408201520152565b90604051918260008254926129b9846124c5565b908184526001948581169081600014612a2657506001146129e3575b5050610b1592500383610ae5565b9093915060005260209081600020936000915b818310612a0e575050610b15935082010138806129d5565b855488840185015294850194879450918301916129f6565b9050610b1595506020935060ff1991501682840152151560051b82010138806129d5565b90604051612a5781610a59565b6060612a7e60038395805485526001810154602086015260028101546040860152016129a5565b910152565b60405190612a9082610a75565b6060602083600081520152565b90604051612aaa81610a75565b6020612a7e6001839580548552016129a5565b7f3fffffffffffffffffffffffffffffffffffffffffffffffffffffffffffffff8111600116612aee575b60021b90565b612af66123c5565b612ae8565b612b0581546124c5565b9081612b0f575050565b81601f60009311600114612b21575055565b81835260208320612b3d91601f0160051c8101906001016124ff565b8160208120915555565b805490600080825582612b5957505050565b6001917f555555555555555555555555555555555555555555555555555555555555555584118316612bc0575b8152602081209160039384028301925b838110612ba4575050505050565b80838692558383820155612bba60028201612afb565b01612b96565b612bc86123c5565b612b86565b9190811015612c0e575b60051b810135907fffffffffffffffffffffffffffffffffffffffffffffffffffffffffffffffa18136030182121561000e570190565b612c166123f8565b612bd7565b8054821015612c38575b6000526003602060002091020190600090565b612c406123f8565b612c25565b612c69815468010000000000000000811015612d48575b6001928382018155612c1b565b919091612d3b575b82358255612c916002602093848601358482015501936040810190612474565b929067ffffffffffffffff8411612d2e575b612cb18461267d87546124c5565b600091601f8511600114612cde57506000918491826126b157505060001991921b9260031b1c1916179055565b9184601f1981959616612cf688600052602060002090565b9483905b88838310612d1457505050106125f157505050811b019055565b868601358855909601959384019387935090810190612cfa565b612d36610a19565b612ca3565b612d4361245d565b612c71565b612d50610a19565b612c5c565b612d5d612a83565b50600052606a6020526107b96040600020612a9d565b908154612d7f816121b1565b92612d8d6040519485610ae5565b818452600090815260208082208186015b848410612dac575050505050565b600283600192612dbb85612a9d565b815201920193019290612d9e565b6020918151811015612dde575b60051b010190565b612de66123f8565b612dd6565b906123f4602092828151948592016102ec565b908092918237016000815290565b919091825167ffffffffffffffff8111612ed3575b612e2f8161257c84546124c5565b602080601f8311600114612e69575081929394600092612e5e5750506000198260011b9260031b1c1916179055565b01519050388061259b565b90601f19831695612e7f85600052602060002090565b926000905b888210612ebb57505083600195969710612ea257505050811b019055565b015160001960f88460031b161c191690553880806125e7565b80600185968294968601518155019501930190612e84565b612edb610a19565b612e21565b80549068010000000000000000821015612fe6575b6001918291828201808255821015612fd9575b60005260209283918260002090821b0185518155019301519182519267ffffffffffffffff8411612fcc575b612f428461267d87546124c5565b81601f8511600114612f7a5750600091849182612f6d57505060001991921b9260031b1c1916179055565b015191506000193861269d565b919084601f1981959616612f9388600052602060002090565b946000905b88838310612fb25750505010612ea257505050811b019055565b858701518855909601959485019487935090810190612f98565b612fd4610a19565b612f34565b612fe16123f8565b612f08565b612fee610a19565b612ef5565b908154612fff816121b1565b9260409361300f85519182610ae5565b828152809460208092019260005281600020906000935b85851061303557505050505050565b600384600192845161304681610a91565b86548152848701548382015261305e600288016129a5565b86820152815201930194019391613026565b613093815468010000000000000000811015612d48576001928382018155612c1b565b91909161315e575b82518255604060026020938486015184820155019301519182519267ffffffffffffffff8411613151575b6130d48461267d87546124c5565b81601f85116001146130ff5750600091849182612f6d57505060001991921b9260031b1c1916179055565b919084601f198195961661311888600052602060002090565b946000905b888383106131375750505010612ea257505050811b019055565b85870151885590960195948501948793509081019061311d565b613159610a19565b6130c6565b61316661245d565b61309b565b60005b82811061317a57505050565b61319061318b6114a3838686612bcd565b612ff3565b8051600091825b82811115613225575b505050906131b291156131b7576123dc565b61316e565b6107316131c86114a3838787612bcd565b6131d3838787612bcd565b3590602061321c816131e6878b8b612bcd565b0135916131f4878b8b612bcd565b9261320460409485810190612474565b91909261320f610b17565b9788528701523691610b69565b90830152613070565b602086816132338886612dc9565b51015182613242898c85612bcd565b0135149182613273575b50506132605761325b906123dc565b613197565b505050506131b2906001909138806131a0565b611ef99192506132cd8a604092611ee86132c48c86613292828d612dc9565b51015194875195866132a78782018093612deb565b03966132bb601f1998898101835282610ae5565b51902099612bcd565b85810190612474565b51902014863861324c565b604051906132e582610ac9565b60008252565b604051906132f882610ac9565b6000808352366020840137565b6040519061331282610a91565b602a82526040366020840137565b9061332a82610b3e565b6133376040519182610ae5565b828152601f196133478294610b3e565b0190602036910137565b6040519161335e83610a91565b61338861318b6000938486526060604060209787898201520152600052606b602052604060002090565b805191835b8381106133c35750505050604051906133a582610ac9565b808252604051926133b584610a91565b818452830152604082015290565b81866133cf8386612dc9565b510151146133e5576133e0906123dc565b61338d565b93505090506133f49250612dc9565b5190565b91907f07ffffffffffffffffffffffffffffffffffffffffffffffffffffffffffffff811161000e5760051b809282370190565b959096929897946134868a959396610eb2898b610da98b61347860a08d60409e8f948551978896602088019a8b52870152606086013783018c60608201528a6080820152018c8b6133f8565b03601f198101835282610ae5565b6134a461349d886000526072602052604060002090565b54156135f2565b866134b9816000526072602052604060002090565b558760016134d1896000526072602052604060002090565b0155600492836134eb896000526072602052604060002090565b01556135088a87600261152f8b6000526072602052604060002090565b600361351e886000526072602052604060002090565b015560005b838110613566575050505094613561917f1abd60720207a16761b9322f8b67c8d0df9ace2c2f355828a65268420f5b1bd295965194859433866136c5565b0390a1565b61357461146082868561363d565b54156135af576135aa9061073160056135978a6000526072602052604060002090565b016135a383888761363d565b359061367b565b613523565b61168592936135bd9261363d565b3592519283927f6f872bdc00000000000000000000000000000000000000000000000000000000845283019190602083019252565b156135f957565b606460405162461bcd60e51b815260206004820152601560248201527f4576656e7420616c7265616479206372656174656400000000000000000000006044820152fd5b919081101561364d5760051b0190565b6121d36123f8565b805482101561366e575b60005260206000200190600090565b6136766123f8565b61365f565b805461369e91680100000000000000008210156136b8575b600182018155613655565b819291549060031b600019811b9283911b16911916179055565b6136c0610a19565b613693565b939460a095601f1994601f946001600160a01b03849516885260208801526040870152608060608701528160808701528686013760008582860101520116010190565b604182510361000e5760806000918360208095015160606040830151920151604051938452851a868401526040830152606082015282805260015afa156137a7575b6000516001600160a01b03806066541691160361376357565b606460405162461bcd60e51b815260206004820152601c60248201527f4920646f6e27742074616b65206f72646572732066726f6d20796f75000000006044820152fd5b6137af61468f565b61374a565b9060405191828154918282526020928383019160005283600020936000905b8282106137e957505050610b1592500383610ae5565b8554845260019586019588955093810193909101906137d3565b9060405161381081610a30565b60a0612a7e600583958054855260018101546020860152613833600282016129a5565b60408601526003810154606086015260048101546080860152016137b4565b9061385c826121b1565b6138696040519182610ae5565b828152601f1961387982946121b1565b019060005b82811061388a57505050565b602090613895612a83565b8282850101520161387e565b95926138da61390294969596610eb260405160208101908b8252866040820152856060820152610da9816134788d8d60808401916133f8565b6000878152607260205260409020600481019190915560018101919091556002905b01612e0c565b600561391c81612015866000526072602052604060002090565b60005b82811061392d575050505050565b6139559061073183613949886000526072602052604060002090565b016135a383878961363d565b61391f565b80546000825580613969575050565b610b15916000526020600020908101906124ff565b90815461398a816121b1565b926139986040519485610ae5565b818452600090815260208082208186015b8484106139b7575050505050565b6004836001926139c685612a4a565b8152019201930192906139a9565b91909160808184031261000e576040519067ffffffffffffffff906080830182811184821017613a35575b6040528294813584526020820135602085015260408201356040850152606082013592831161000e57606092612a7e9201610ba0565b613a3d610a19565b6139ff565b92919092613a4f846121b1565b91613a5d6040519384610ae5565b829480845260208094019060051b83019282841161000e5780915b848310613a8757505050505050565b823567ffffffffffffffff811161000e578691613aa786849386016139d4565b815201920191613a78565b6000606091829382935b818510613acb57505050505090565b9091929394613b6690613b6087613ae381878961240f565b3592602080613af3848a8c61240f565b01359089613b1e613b156040968c88613b0d83838861240f565b01359461240f565b8a810190612474565b93909580519886613b388b9851809288808c0191016102ec565b8701948501528301528882015281608094858301370189838201520385810184520182610ae5565b956123dc565b93929190613abc565b15613b7657565b606460405162461bcd60e51b815260206004820152601360248201527f5061746820416c72656164792043686f73656e000000000000000000000000006044820152fd5b80549068010000000000000000821015613cc6575b600190818301808255831015613cb9575b60005260606003602093846000209060021b0185518155848601518482015560408601516002820155019301519182519267ffffffffffffffff8411613cac575b613c2f8461267d87546124c5565b81601f8511600114613c5a5750600091849182612f6d57505060001991921b9260031b1c1916179055565b919084601f1981959616613c7388600052602060002090565b946000905b88838310613c925750505010612ea257505050811b019055565b858701518855909601959485019487935090810190613c78565b613cb4610a19565b613c21565b613cc16123f8565b613be0565b613cce610a19565b613bcf565b91939293613d0d613d08613d04613cfd866001600160a01b0316600052606d602052604060002090565b5460ff1690565b1590565b613b6f565b613d3a613d2d846001600160a01b0316600052606d602052604060002090565b600160ff19825416179055565b60019182613d5b856001600160a01b0316600052606d602052604060002090565b0155613d7f6002610473856001600160a01b0316600052606d602052604060002090565b60006003613da0856001600160a01b0316600052606d602052604060002090565b0155816000815b613e10575b50600091505b613dc4575b5050610b15919250615236565b8451811015613e0b57613e05906107316005613df3866001600160a01b0316600052606d602052604060002090565b01613dfe8389612dc9565b5190613bba565b81613db2565b613db7565b8251811015613e5757613e51906107316004613e3f886001600160a01b0316600052606d602052604060002090565b01613e4a8387612dc9565b519061367b565b81613da7565b613dac565b95949391809791613ebf613e708888613ab2565b93610eb28a88610da9898760409a611c6a611c5d8d5196879560209e8f966bffffffffffffffffffffffff19888a019c60601b168c52151560f81b6034890152603588015260558701916133f8565b613ee2613d04613cfd8a6001600160a01b0316600052606d602052604060002090565b15613f0c5750505091613efe613f0692610b15979436916121d8565b933691613a42565b92613cd3565b8798613f66613f37613cfd613fb99598969b6001600160a01b0316600052606d602052604060002090565b613f548c6001600160a01b0316600052606d602052604060002090565b9060ff60ff1983541691151516179055565b6001613f858b6001600160a01b0316600052606d602052604060002090565b01556002613fa68a6001600160a01b0316600052606d602052604060002090565b019060ff60ff1983541691151516179055565b6003613fd8886001600160a01b0316600052606d602052604060002090565b01546003613ff9896001600160a01b0316600052606d602052604060002090565b015560049161401f836120158a6001600160a01b0316600052606d602052604060002090565b60005b8181106140a8575050505060005b838110614045575050505050610b1590615236565b8061407e613d0461405a61408794888861240f565b3585614067858a8a61240f565b013589614075868b8b61240f565b0135918b614573565b61408c576123dc565b614030565b6107316140a261409d83888861240f565b6140de565b886143ad565b6140d990610731856140cd8c6001600160a01b0316600052606d602052604060002090565b016135a383868861363d565b614022565b6107b99036906139d4565b90600182018092116140f757565b610b156123c5565b90600282018092116140f757565b90602082018092116140f757565b919082018092116140f757565b600092918154614137816124c5565b926001918083169081156141905750600114614154575b50505050565b90919293945060005260209081600020906000915b85831061417f575050505001903880808061414e565b805485840152918301918101614169565b60ff191684525050508115159091020191503880808061414e565b6107b993926001600160a01b036060931682526020820152816040820152019061030f565b6005614201614207929695969493946141e761297e565b506001600160a01b0316600052606d602052604060002090565b0161397e565b9182519460005b86811061424a57505050505090506142246132eb565b61422c610b24565b90600082526000602083015260006040830152606082015290600090565b831515806142bb575b806142a4575b8015614286575b6142725761426d906123dc565b61420e565b95505050508261428191612dc9565b519190565b50821515801561426057508261429c8287612dc9565b515114614260565b508160406142b28388612dc9565b51015114614259565b508360206142c98388612dc9565b51015114614253565b610b15918051602082016142f0815192604085019384519187614573565b156142fe575b505050615236565b6143a27f533b013fca2d1f905bfcf844f8e57f1bf74442efd832ecc90ba9cd1d5ac268da936001600160a01b038616600052606d6020526143706005604060002001825190855187516060860151916040519461435a86610a59565b8552602085015260408401526060830152613bba565b51915192516040519384938785909493926060926001600160a01b036080840197168352602083015260408201520152565b0390a13880806142f6565b9080519160208201916143ca835194604083019586519185614573565b156143d55750505050565b7f533b013fca2d1f905bfcf844f8e57f1bf74442efd832ecc90ba9cd1d5ac268da93614464916001600160a01b038416600052606d6020526144326005604060002001825190875185516060860151916040519461435a86610a59565b51935190519060405194859485909493926060926001600160a01b036080840197168352602083015260408201520152565b0390a13880808061414e565b9060005b6001600160a01b038316600052606d6020526004604090808260002001548310156144d557826144a991859360002001613655565b90549060031b1c146144cd576144c66001600160a01b03916123dc565b9050614474565b505050600190565b5050505050600090565b6005614201614501926001600160a01b0316600052606d602052604060002090565b9182519260005b848110614519575050505050600090565b8315158061455c575b80614545575b15614537575050505050600190565b614540906123dc565b614508565b508260406145538385612dc9565b51015114614528565b5083602061456a8385612dc9565b51015114614522565b6005614201614595926001600160a01b0316600052606d602052604060002090565b9182519360005b8581106145ae57505050505050600090565b8215158061461e575b80614607575b156145cd57505050505050600190565b831515806145f3575b6145e8576145e3906123dc565b61459c565b505050505050600190565b50836145ff8287612dc9565b5151146145d6565b508160406146158388612dc9565b510151146145bd565b5082602061462c8388612dc9565b510151146145b7565b1561463c57565b606460405162461bcd60e51b815260206004820152601460248201527f53425420616c726561647920646566696e6564210000000000000000000000006044820152fd5b9081602091031261000e575190565b506040513d6000823e3d90fd5b60009060033d116146a957565b905060046000803e60005160e01c90565b600060443d106107b95760405160031991823d016004833e815167ffffffffffffffff918282113d60248401111761471857818401948551938411614720573d8501016020848701011161471857506107b992910160200190610ae5565b949350505050565b50949350505050565b8060005260716020526001600160a01b0360406000205416600052606d60205260406000209160405161475b81610a30565b60ff845416151581526001840154936020820194855260ff6002820154169261478a6040840194859015159052565b600382015492606081019384526147b660056147a8600486016137b4565b94608084019586520161397e565b9160a0820192835261480b6147f16113d86147e46147f86147f16147e48d6000526071602052604060002090565b546001600160a01b031690565b9651151590565b9b519a6000526071602052604060002090565b945193519251919796959493929190565b6001600160a01b0360655491166000526020606d815260408060002091815161484481610a30565b60ff8454161515815260a0614896600560018701549685850197885261487560ff6002830154168887019015159052565b6003810154606086015261488b600482016137b4565b60808601520161397e565b91015260015b848111156148ae575050505050600090565b6148ca6148c5826000526068602052604060002090565b612a4a565b84518382015181101590816148f8575b506148ee57506148e9906123dc565b61489c565b9450505050505190565b9050848201511015386148da565b6040519061491382610aad565b6000608083828152826020820152606060408201528260608201520152565b90805182556020916001600160a01b03838301511692614979600194858401906001600160a01b031673ffffffffffffffffffffffffffffffffffffffff19825416179055565b600282019060408401519485519167ffffffffffffffff8311614ab0575b6149ab836149a586546124c5565b86612516565b80601f8411600114614a3357509282614a10959281600395608097610b159b600093614a26575b505060001991921b92861b1c19161790555b0192614a096149f66060830151151590565b859060ff60ff1983541691151516179055565b0151151590565b815461ff00191690151560081b61ff0016179055565b01519150600019386149d2565b9193949596601f198416614a4c87600052602060002090565b936000905b828210614a9957505093610b15989793614a109793608097938360039810614a81575b505050811b0190556149e4565b015160001960f884891b161c19169055388080614a74565b808886978294978701518155019601940190614a51565b614ab8610a19565b614997565b9060026040614ae9610b159480549068010000000000000000821015614b24575b600182018155612c1b565b939093614b17575b80518455602081015160018501550151151591019060ff60ff1983541691151516179055565b614b1f61245d565b614af1565b614b2c610a19565b614ade565b90604051614b3e81610aad565b608060ff60038395805485526001600160a01b036001820154166020860152614b69600282016129a5565b604086015201548181161515606085015260081c161515910152565b93909491614b9d614b973685856121d8565b336150c3565b969015614bad5750505050505090565b614c1b91929394959650614c02614be8614bc5610b31565b92898452602095614be133888701906001600160a01b03169052565b3691610b69565b966040978884015260006060840152608083019015159052565b614c1687600052606f602052604060002090565b614932565b60005b838110614c5357505050505061049181610481614c3d6107b9946151ed565b6003613fa684600052606f602052604060002090565b614cf990614c7b6003614c7089600052606f602052604060002090565b015460081c60ff1690565b15614cfe57614c95614c8e82878761363d565b3533614d77565b505b610731614cae886000526070602052604060002090565b614cb7836140e9565b90614cf4614cc6858a8a61363d565b35614cdc614cd5878c8c61363d565b3533614470565b90614ce5610b17565b9485528885015215158a840152565b614abd565b614c1e565b614d0c614cd582878761363d565b50614c97565b6001600160a01b0316600052606d60205260ff6040600020541615614d3357565b606460405162461bcd60e51b815260206004820152600f60248201527f50617468206e6f742043686f73656e00000000000000000000000000000000006044820152fd5b90614d96614d9160a0926000526072602052604060002090565b613803565b01908151516000925b818410614daf5750505050600190565b614dd161318b614dc0868451612dc9565b51600052606b602052604060002090565b9160005b8351811015614e2357614e06613d04614dee8387612dc9565b51516020614dfc8589612dc9565b51015190886144df565b614e1857614e13906123dc565b614dd5565b505050505050600090565b5093614e309192506123dc565b9290614d9f565b9190939293614e4533614d12565b614edc6001600160a01b0391614eaa600193614e8981614e8187614e738b600052606f602052604060002090565b01546001600160a01b031690565b161515614ff8565b3390614ea386614e738a600052606f602052604060002090565b1614614ff8565b614ec6614ec1866000526070602052604060002090565b615043565b60026138fc86600052606f602052604060002090565b614f1060039283614ef786600052606f602052604060002090565b019061ff001961ff00835492151560081b169116179055565b600080825b614f49575b5050506107b99293509061048161049192614f34836151ed565b90613fa684600052606f602052604060002090565b8651811015614ff357614fd090614f6e85614c7088600052606f602052604060002090565b15614fd65761073188614f8b614f848483612dc9565b5133614d77565b614cf4614fa28a6000526070602052604060002090565b91614fb686614fb0816140e9565b95612dc9565b51614fbf610b17565b948552602085015215156040840152565b82614f15565b61073188614fee614fe78483612dc9565b5133614470565b614f8b565b614f1a565b15614fff57565b606460405162461bcd60e51b815260206004820152601160248201527f4a6f75726e6579206e6f7420666f756e640000000000000000000000000000006044820152fd5b80549060008082558261505557505050565b6001917f5555555555555555555555555555555555555555555555555555555555555555841183166150b6575b8152602081209160039384028301925b8381106150a0575050505050565b8083869255838382015583600282015501615092565b6150be6123c5565b615082565b9190916150ce614906565b506150d7614906565b9060005b6150f8826001600160a01b0316600052606e602052604060002090565b548110156151e35760019361513661512c83615127866001600160a01b0316600052606e602052604060002090565b613655565b90549060031b1c90565b936000905b61514f866000526070602052604060002090565b548210156151be576151618289612dc9565b5160016151818461517c8a6000526070602052604060002090565b612c1b565b500154036151b057506151aa6151a461049187600052606f602052604060002090565b916123dc565b9061513b565b9095506151aa6000966123dc565b9395919450506151da576151d1906123dc565b929091926150db565b50600193509150565b5050915060009190565b60005b816000526070602052604080600020548210156144cd5760026152188360ff93600020612c1b565b500154161561522f5761522a906123dc565b6151f0565b5050600090565b906000915b615258816001600160a01b0316600052606e602052604060002090565b548310156154295761528461512c84615127846001600160a01b0316600052606e602052604060002090565b906003936152a8856152a085600052606f602052604060002090565b015460ff1690565b61541c57600093845b6152c5856000526070602052604060002090565b548110156153e157615324613d046152eb8361517c896000526070602052604060002090565b506152fe613d0460028093015460ff1690565b615340575b61531b8461517c8a6000526070602052604060002090565b50015460ff1690565b615337575b615332906123dc565b6152b1565b60019550615329565b6153588a614c708a600052606f602052604060002090565b156153b8576153b3615386600161537d8761517c8d6000526070602052604060002090565b50015489614d77565b8261539f8761517c8d6000526070602052604060002090565b50019060ff60ff1983541691151516179055565b615303565b6153b361538660016153d88761517c8d6000526070602052604060002090565b50015489614470565b5093946153f893919295156153fe575b50506123dc565b9161523b565b61047361541592600052606f602052604060002090565b38806153f1565b9093506153f891506123dc565b509050565b80546000908183558061544057505050565b6001927f3fffffffffffffffffffffffffffffffffffffffffffffffffffffffffffffff821184166154ad575b82526020822092600291821b8401935b84811061548b575050505050565b808460049255848382015584848201556154a760038201612afb565b0161547d565b6154b56123c5565b61546d565b156154c157565b606460405162461bcd60e51b815260206004820152601960248201527f496e76616c6964204d656d6265722f546f6b656e2064617461000000000000006044820152fd5b90602091805182101561551757010190565b61551f6123f8565b010190565b80156155d8576000818181805b6155c0575061553f81613320565b935b61554b5750505090565b60001981019081116155b3575b8091600a9161559d7fff00000000000000000000000000000000000000000000000000000000000000603085850681018091116155a6575b60f81b16861a9187615505565b53049081615541565b6155ae6123c5565b615590565b6155bb6123c5565b615558565b91506155cd600a916123dc565b910480849291615531565b506040516155e581610a75565b600181527f3000000000000000000000000000000000000000000000000000000000000000602082015290565b6000199080156123ec570190565b1561562757565b606460405162461bcd60e51b815260206004820152602060248201527f537472696e67733a20686578206c656e67746820696e73756666696369656e746044820152fd5b615673613305565b90815115615719575b60306020830153815160019081101561570c575b90607860218401536029915b8083116156af57506107b9915015615620565b90807f3031323334353637383961626364656600000000000000000000000000000000600f6156f8931660108110156156ff575b1a6156ee8587615505565b5360041c92615612565b919061569c565b6157076123f8565b6156e3565b6157146123f8565b615690565b6157216123f8565b61567c565b6040519061573382610a91565b604082527f6768696a6b6c6d6e6f707172737475767778797a303132333435363738392b2f6040837f4142434445464748494a4b4c4d4e4f505152535455565758595a61626364656660208201520152565b8051156158b857615794615726565b6157b06157ab6157a484516140ff565b6003900490565b612abd565b916157c26157bd8461410d565b613320565b92835280815182019060208501935b8282106158665750505060039051068060011461581d576002146157f3575090565b6000197f3d0000000000000000000000000000000000000000000000000000000000000091015290565b507ffffffffffffffffffffffffffffffffffffffffffffffffffffffffffffffffe7f3d3d00000000000000000000000000000000000000000000000000000000000091015290565b9091936004906003809401938451600190603f9082828260121c16880101518553828282600c1c16880101518386015382828260061c16880101516002860153168501015190820153019391906157d1565b506107b96132d8565b604051906158ce82610a75565b600f82527f2261747472696275746573223a205b00000000000000000000000000000000006020830152565b91906159849061591161590b6158c1565b94615524565b906040916159ad835194859261597e61592f60209a8b870190612deb565b7f7b202274726169745f74797065223a224c6576656c222c202276616c7565223a81527f2000000000000000000000000000000000000000000000000000000000000000602082015260210190565b90612deb565b7f7d00000000000000000000000000000000000000000000000000000000000000815260010190565b03926159c1601f1994858101835282610ae5565b906000915b8151831015615b0657615ae0615afa615b0092615a258a615a196159f08a51948593840190612deb565b7f2c7b202274726169745f74797065223a22000000000000000000000000000000815260110190565b03898101835282610ae5565b615a798a615a196001615a6281615a50615a3f8d8d612dc9565b516000526072602052604060002090565b01546000526069602052604060002090565b01615a738b51958694850190612deb565b90614128565b615ab98a615a19615a908a51948593840190612deb565b7f222c202276616c7565223a2022000000000000000000000000000000000000008152600d0190565b615acf8a615a196002615a62615a3f8b8b612dc9565b615aee87519384928c840190612deb565b61227d60f01b815260020190565b03878101835282610ae5565b926123dc565b916159c6565b9495915050611ef9615b226107b9949351958693840190612deb565b7f5d00000000000000000000000000000000000000000000000000000000000000815260010190565b60405190615b5882610a75565b600b82527f22626164676573223a205b0000000000000000000000000000000000000000006020830152565b615b8c615b4b565b6000905b8251821015615edb578115615e9357615bb96159f0916134786040519384926020840190612deb565b602080615bc68486612dc9565b510151615d46575b615bd88385612dc9565b5151615bf0575b5090615bea906123dc565b90615b90565b60409081518093828201615c0391612deb565b7f2c202276616c7565223a202200000000000000000000000000000000000000008152600c010391601f19928381018552615c3e9085610ae5565b615c488587612dc9565b5151615c5e906000526072602052604060002090565b600201938151948591848301615c7391612deb565b615c7c91614128565b038381018552615c8c9085610ae5565b80518094838201615c9c91612deb565b7f222c2022696d616765223a2022000000000000000000000000000000000000008152600d01038381018552615cd29085610ae5565b615cdc8587612dc9565b5160600151938151948591848301615cf391612deb565b615cfd908a612deb565b615d0691612deb565b038381018552615d169085610ae5565b519283918201615d2591612deb565b61227d60f01b8152600201039081018252615d409082610ae5565b38615bdf565b9081615d528486612dc9565b510151615d5e90612d55565b60408381518094828201615d7191612deb565b7f2c202276616c7565223a202200000000000000000000000000000000000000008152600c010392601f19938481018652615dac9086610ae5565b0151928151938491868301615dc091612deb565b615dc991612deb565b038281018452615dd99084610ae5565b80518093858201615de991612deb565b7f222c2022696d616765223a2022000000000000000000000000000000000000008152600d01038281018452615e1f9084610ae5565b615e298587612dc9565b5160600151928151938491868301615e4091612deb565b615e4a908a612deb565b615e5391612deb565b038281018452615e639084610ae5565b518092848201615e7291612deb565b61227d60f01b8152600201039081018252615e8d9082610ae5565b90615bce565b615ed6615ead916134786040519384926020840190612deb565b7f7b202274726169745f74797065223a2242414447452200000000000000000000815260160190565b615bb9565b9050615b2292506107b991506134786040519384926020840190612deb565b60405160208101917f19457468657265756d205369676e6564204d6573736167653a0a3332000000008352603c820152603c8152615f3781610a91565b5190209056fea264697066735822122025d8cd0fc562c01f113ef09b1a2ea7c991a03c4bba47d48ff16b428c79d037d464736f6c63430008100033","linkReferences":{},"deployedLinkReferences":{}}