{"_format":"hh-sol-artifact-1","contractName":"LilyPadTreasure","sourceName":"contracts/LilyPadTreasure.sol","abi":[{"anonymous":false,"inputs":[{"indexed":true,"internalType":"address","name":"sender","type":"address"},{"indexed":false,"internalType":"uint256","name":"tokenId","type":"uint256"},{"indexed":false,"internalType":"uint256","name":"value","type":"uint256"}],"name":"DAOTreasureDeposit","type":"event"},{"anonymous":false,"inputs":[{"indexed":true,"internalType":"address","name":"payed","type":"address"},{"indexed":false,"internalType":"uint256","name":"withdrawId","type":"uint256"},{"indexed":false,"internalType":"uint256","name":"value","type":"uint256"}],"name":"DAOTreasureWithdraw","type":"event"},{"anonymous":false,"inputs":[{"indexed":false,"internalType":"uint8","name":"version","type":"uint8"}],"name":"Initialized","type":"event"},{"anonymous":false,"inputs":[{"indexed":true,"internalType":"address","name":"previousOwner","type":"address"},{"indexed":true,"internalType":"address","name":"newOwner","type":"address"}],"name":"OwnershipTransferred","type":"event"},{"anonymous":false,"inputs":[{"indexed":false,"internalType":"address","name":"account","type":"address"}],"name":"Paused","type":"event"},{"anonymous":false,"inputs":[{"indexed":false,"internalType":"address","name":"account","type":"address"}],"name":"Unpaused","type":"event"},{"stateMutability":"payable","type":"fallback"},{"inputs":[],"name":"dao","outputs":[{"internalType":"address","name":"","type":"address"}],"stateMutability":"view","type":"function"},{"inputs":[],"name":"daoTreasure","outputs":[{"internalType":"uint256","name":"","type":"uint256"}],"stateMutability":"view","type":"function"},{"inputs":[{"internalType":"uint256","name":"_queeneAuctionId","type":"uint256"}],"name":"depositToDAOTreasure","outputs":[],"stateMutability":"payable","type":"function"},{"inputs":[{"internalType":"address","name":"_dao","type":"address"}],"name":"initialize","outputs":[],"stateMutability":"nonpayable","type":"function"},{"inputs":[],"name":"owner","outputs":[{"internalType":"address","name":"","type":"address"}],"stateMutability":"view","type":"function"},{"inputs":[],"name":"paused","outputs":[{"internalType":"bool","name":"","type":"bool"}],"stateMutability":"view","type":"function"},{"inputs":[],"name":"renounceOwnership","outputs":[],"stateMutability":"nonpayable","type":"function"},{"inputs":[{"internalType":"address","name":"newOwner","type":"address"}],"name":"transferOwnership","outputs":[],"stateMutability":"nonpayable","type":"function"},{"inputs":[{"internalType":"uint256","name":"_amount","type":"uint256"},{"internalType":"address payable","name":"_funded","type":"address"}],"name":"withdrawFromTreasure","outputs":[],"stateMutability":"nonpayable","type":"function"},{"stateMutability":"payable","type":"receive"}],"bytecode":"0x608060405234801561001057600080fd5b50610ac2806100206000396000f3fe60806040526004361061008a5760003560e01c8063715018a611610059578063715018a6146101475780638da5cb5b1461015c578063bc7321ab1461017a578063c4d66de81461018d578063f2fde38b146101ad5761009d565b80631adca4b4146100a957806337e4a5f8146100c95780634162169f146100ec5780635c975abb146101245761009d565b3661009d5761009b336000346101cd565b005b61009b336000346101cd565b3480156100b557600080fd5b5061009b6100c4366004610979565b610273565b3480156100d557600080fd5b5060ca546040519081526020015b60405180910390f35b3480156100f857600080fd5b5060cb5461010c906001600160a01b031681565b6040516001600160a01b0390911681526020016100e3565b34801561013057600080fd5b5060975460ff1660405190151581526020016100e3565b34801561015357600080fd5b5061009b6102ec565b34801561016857600080fd5b506065546001600160a01b031661010c565b61009b6101883660046109a9565b610300565b34801561019957600080fd5b5061009b6101a83660046109c2565b610369565b3480156101b957600080fd5b5061009b6101c83660046109c2565b6104ab565b600081116102135760405162461bcd60e51b815260206004820152600e60248201526d1a5b9d985b1a5908185b5bdd5b9d60921b60448201526064015b60405180910390fd5b8060ca600082825461022591906109fc565b909155505060408051838152602081018390526001600160a01b038516917f01577fc82376a680533f8b6ccf8346bab1114a23ca3dd7b959a542304ea642c4910160405180910390a2505050565b6002600154036102c55760405162461bcd60e51b815260206004820152601f60248201527f5265656e7472616e637947756172643a207265656e7472616e742063616c6c00604482015260640161020a565b60026001556102d2610524565b6102da61056a565b6102e481836105ae565b505060018055565b6102f461067d565b6102fe60006106d7565b565b6002600154036103525760405162461bcd60e51b815260206004820152601f60248201527f5265656e7472616e637947756172643a207265656e7472616e742063616c6c00604482015260640161020a565b60026001556103623382346101cd565b5060018055565b600054610100900460ff16158080156103895750600054600160ff909116105b806103a35750303b1580156103a3575060005460ff166001145b6104065760405162461bcd60e51b815260206004820152602e60248201527f496e697469616c697a61626c653a20636f6e747261637420697320616c72656160448201526d191e481a5b9a5d1a585b1a5e995960921b606482015260840161020a565b6000805460ff191660011790558015610429576000805461ff0019166101001790555b610431610729565b610439610758565b610441610787565b60cb80546001600160a01b0319166001600160a01b038416179055600160c95580156104a7576000805461ff0019169055604051600181527f7f26b83ff96e1f2b6a682f133852f6798a09c465da95921460cefb38474024989060200160405180910390a15b5050565b6104b361067d565b6001600160a01b0381166105185760405162461bcd60e51b815260206004820152602660248201527f4f776e61626c653a206e6577206f776e657220697320746865207a65726f206160448201526564647265737360d01b606482015260840161020a565b610521816106d7565b50565b60975460ff16156102fe5760405162461bcd60e51b815260206004820152601060248201526f14185d5cd8589b194e881c185d5cd95960821b604482015260640161020a565b60cb546001600160a01b031633146102fe5760405162461bcd60e51b81526020600482015260076024820152664e6f742044414f60c81b604482015260640161020a565b60ca548111156106005760405162461bcd60e51b815260206004820152601f60248201527f4e6f7420656e6f7567682062616c616e6365206f6e2074726561737572652100604482015260640161020a565b61060a82826107b6565b8060ca600082825461061c9190610a15565b909155505060c980546001600160a01b038416917ffa0bf26cd71c034a7a50d653a0d786707baa27046bafad7f3c0b64667b91670d9190600061065e83610a28565b9091555060408051918252602082018590520160405180910390a25050565b6065546001600160a01b031633146102fe5760405162461bcd60e51b815260206004820181905260248201527f4f776e61626c653a2063616c6c6572206973206e6f7420746865206f776e6572604482015260640161020a565b606580546001600160a01b038381166001600160a01b0319831681179093556040519116919082907f8be0079c531659141344cd1fd0a4f28419497f9722a3daafe3b4186f6b6457e090600090a35050565b600054610100900460ff166107505760405162461bcd60e51b815260040161020a90610a41565b6102fe6108d4565b600054610100900460ff1661077f5760405162461bcd60e51b815260040161020a90610a41565b6102fe610901565b600054610100900460ff166107ae5760405162461bcd60e51b815260040161020a90610a41565b6102fe610931565b804710156108065760405162461bcd60e51b815260206004820152601d60248201527f416464726573733a20696e73756666696369656e742062616c616e6365000000604482015260640161020a565b6000826001600160a01b03168260405160006040518083038185875af1925050503d8060008114610853576040519150601f19603f3d011682016040523d82523d6000602084013e610858565b606091505b50509050806108cf5760405162461bcd60e51b815260206004820152603a60248201527f416464726573733a20756e61626c6520746f2073656e642076616c75652c207260448201527f6563697069656e74206d61792068617665207265766572746564000000000000606482015260840161020a565b505050565b600054610100900460ff166108fb5760405162461bcd60e51b815260040161020a90610a41565b60018055565b600054610100900460ff166109285760405162461bcd60e51b815260040161020a90610a41565b6102fe336106d7565b600054610100900460ff166109585760405162461bcd60e51b815260040161020a90610a41565b6097805460ff19169055565b6001600160a01b038116811461052157600080fd5b6000806040838503121561098c57600080fd5b82359150602083013561099e81610964565b809150509250929050565b6000602082840312156109bb57600080fd5b5035919050565b6000602082840312156109d457600080fd5b81356109df81610964565b9392505050565b634e487b7160e01b600052601160045260246000fd5b80820180821115610a0f57610a0f6109e6565b92915050565b81810381811115610a0f57610a0f6109e6565b600060018201610a3a57610a3a6109e6565b5060010190565b6020808252602b908201527f496e697469616c697a61626c653a20636f6e7472616374206973206e6f74206960408201526a6e697469616c697a696e6760a81b60608201526080019056fea26469706673582212206c913fd0953084b3f51d8dcbb0a80145d4d469010c083b4f651d82bb714bef0f64736f6c63430008100033","linkReferences":{},"deployedLinkReferences":{}}