{
  "address": "0x9fE46736679d2D9a65F0992F2272dE9f3c7fa6e0",
  "abi": [
    {
      "inputs": [
        {
          "internalType": "address",
          "name": "_address",
          "type": "address"
        }
      ],
      "name": "NotAFrog",
      "type": "error"
    },
    {
      "inputs": [
        {
          "internalType": "uint256",
          "name": "techId",
          "type": "uint256"
        }
      ],
      "name": "TechNotFound",
      "type": "error"
    },
    {
      "anonymous": false,
      "inputs": [
        {
          "indexed": false,
          "internalType": "address",
          "name": "member",
          "type": "address"
        },
        {
          "indexed": false,
          "internalType": "uint256",
          "name": "eventId",
          "type": "uint256"
        },
        {
          "indexed": false,
          "internalType": "uint256",
          "name": "techId",
          "type": "uint256"
        },
        {
          "indexed": false,
          "internalType": "uint256",
          "name": "level",
          "type": "uint256"
        }
      ],
      "name": "BadgeEarned",
      "type": "event"
    },
    {
      "anonymous": false,
      "inputs": [
        {
          "indexed": false,
          "internalType": "address",
          "name": "member",
          "type": "address"
        },
        {
          "indexed": false,
          "internalType": "uint256[]",
          "name": "eventId",
          "type": "uint256[]"
        },
        {
          "indexed": false,
          "internalType": "uint256",
          "name": "techId",
          "type": "uint256"
        },
        {
          "indexed": false,
          "internalType": "uint256",
          "name": "level",
          "type": "uint256"
        }
      ],
      "name": "BadgesEarned",
      "type": "event"
    },
    {
      "anonymous": false,
      "inputs": [
        {
          "indexed": false,
          "internalType": "address",
          "name": "member",
          "type": "address"
        },
        {
          "indexed": false,
          "internalType": "uint256",
          "name": "eventId",
          "type": "uint256"
        },
        {
          "indexed": false,
          "internalType": "string",
          "name": "eventName",
          "type": "string"
        }
      ],
      "name": "EventCompleted",
      "type": "event"
    },
    {
      "anonymous": false,
      "inputs": [
        {
          "indexed": false,
          "internalType": "address",
          "name": "owner",
          "type": "address"
        },
        {
          "indexed": false,
          "internalType": "uint256",
          "name": "eventId",
          "type": "uint256"
        },
        {
          "indexed": false,
          "internalType": "uint256",
          "name": "eventTypeId",
          "type": "uint256"
        },
        {
          "indexed": false,
          "internalType": "bytes",
          "name": "eventName",
          "type": "bytes"
        }
      ],
      "name": "EventSubmited",
      "type": "event"
    },
    {
      "anonymous": false,
      "inputs": [
        {
          "indexed": false,
          "internalType": "uint8",
          "name": "version",
          "type": "uint8"
        }
      ],
      "name": "Initialized",
      "type": "event"
    },
    {
      "anonymous": false,
      "inputs": [
        {
          "indexed": false,
          "internalType": "address",
          "name": "member",
          "type": "address"
        },
        {
          "indexed": false,
          "internalType": "uint256",
          "name": "currentXp",
          "type": "uint256"
        },
        {
          "indexed": false,
          "internalType": "uint256",
          "name": "level",
          "type": "uint256"
        }
      ],
      "name": "LevelReached",
      "type": "event"
    },
    {
      "anonymous": false,
      "inputs": [
        {
          "indexed": false,
          "internalType": "address",
          "name": "member",
          "type": "address"
        }
      ],
      "name": "MemberBurned",
      "type": "event"
    },
    {
      "anonymous": false,
      "inputs": [
        {
          "indexed": true,
          "internalType": "address",
          "name": "previousOwner",
          "type": "address"
        },
        {
          "indexed": true,
          "internalType": "address",
          "name": "newOwner",
          "type": "address"
        }
      ],
      "name": "OwnershipTransferred",
      "type": "event"
    },
    {
      "inputs": [
        {
          "internalType": "uint256",
          "name": "_journeyId",
          "type": "uint256"
        }
      ],
      "name": "abandonJourney",
      "outputs": [
        {
          "components": [
            {
              "internalType": "uint256",
              "name": "id",
              "type": "uint256"
            },
            {
              "internalType": "address",
              "name": "member",
              "type": "address"
            },
            {
              "internalType": "bytes",
              "name": "name",
              "type": "bytes"
            },
            {
              "internalType": "bool",
              "name": "done",
              "type": "bool"
            },
            {
              "internalType": "bool",
              "name": "badgeObligatory",
              "type": "bool"
            }
          ],
          "internalType": "struct ILilyPad.Journey",
          "name": "",
          "type": "tuple"
        }
      ],
      "stateMutability": "nonpayable",
      "type": "function"
    },
    {
      "inputs": [
        {
          "internalType": "address",
          "name": "_member",
          "type": "address"
        },
        {
          "components": [
            {
              "internalType": "uint256",
              "name": "eventId",
              "type": "uint256"
            },
            {
              "internalType": "uint256",
              "name": "techId",
              "type": "uint256"
            },
            {
              "internalType": "uint256",
              "name": "level",
              "type": "uint256"
            },
            {
              "internalType": "bytes",
              "name": "badge",
              "type": "bytes"
            }
          ],
          "internalType": "struct ILilyPad.Accolade[]",
          "name": "_badges",
          "type": "tuple[]"
        },
        {
          "internalType": "bytes",
          "name": "_sig",
          "type": "bytes"
        }
      ],
      "name": "awardBadge",
      "outputs": [],
      "stateMutability": "nonpayable",
      "type": "function"
    },
    {
      "inputs": [
        {
          "internalType": "address",
          "name": "_member",
          "type": "address"
        },
        {
          "internalType": "uint256",
          "name": "_eventId",
          "type": "uint256"
        },
        {
          "internalType": "uint256",
          "name": "_techId",
          "type": "uint256"
        },
        {
          "internalType": "uint256",
          "name": "_level",
          "type": "uint256"
        }
      ],
      "name": "badgeEarned",
      "outputs": [
        {
          "internalType": "bool",
          "name": "",
          "type": "bool"
        }
      ],
      "stateMutability": "view",
      "type": "function"
    },
    {
      "inputs": [
        {
          "internalType": "address",
          "name": "member",
          "type": "address"
        }
      ],
      "name": "burnBabeBurn",
      "outputs": [],
      "stateMutability": "nonpayable",
      "type": "function"
    },
    {
      "inputs": [
        {
          "internalType": "address",
          "name": "_member",
          "type": "address"
        },
        {
          "internalType": "uint256",
          "name": "_eventId",
          "type": "uint256"
        },
        {
          "internalType": "bytes",
          "name": "_sig",
          "type": "bytes"
        }
      ],
      "name": "completeEvent",
      "outputs": [],
      "stateMutability": "nonpayable",
      "type": "function"
    },
    {
      "inputs": [
        {
          "internalType": "address",
          "name": "_member",
          "type": "address"
        },
        {
          "internalType": "uint256",
          "name": "_eventId",
          "type": "uint256"
        }
      ],
      "name": "completedEvent",
      "outputs": [
        {
          "internalType": "bool",
          "name": "",
          "type": "bool"
        }
      ],
      "stateMutability": "view",
      "type": "function"
    },
    {
      "inputs": [
        {
          "internalType": "uint256",
          "name": "_tokenId",
          "type": "uint256"
        },
        {
          "internalType": "string",
          "name": "_baseUri",
          "type": "string"
        }
      ],
      "name": "constructTokenUri",
      "outputs": [
        {
          "internalType": "string",
          "name": "",
          "type": "string"
        }
      ],
      "stateMutability": "view",
      "type": "function"
    },
    {
      "inputs": [
        {
          "components": [
            {
              "internalType": "uint256",
              "name": "id",
              "type": "uint256"
            },
            {
              "internalType": "bytes",
              "name": "name",
              "type": "bytes"
            }
          ],
          "internalType": "struct ILilyPad.EventType[]",
          "name": "_eventTypes",
          "type": "tuple[]"
        }
      ],
      "name": "createEventType",
      "outputs": [],
      "stateMutability": "nonpayable",
      "type": "function"
    },
    {
      "inputs": [
        {
          "internalType": "uint256",
          "name": "_journeyId",
          "type": "uint256"
        },
        {
          "internalType": "bytes",
          "name": "_name",
          "type": "bytes"
        },
        {
          "internalType": "bool",
          "name": "_badgeObligatory",
          "type": "bool"
        },
        {
          "internalType": "uint256[]",
          "name": "_eventId",
          "type": "uint256[]"
        }
      ],
      "name": "createJourney",
      "outputs": [
        {
          "components": [
            {
              "internalType": "uint256",
              "name": "id",
              "type": "uint256"
            },
            {
              "internalType": "address",
              "name": "member",
              "type": "address"
            },
            {
              "internalType": "bytes",
              "name": "name",
              "type": "bytes"
            },
            {
              "internalType": "bool",
              "name": "done",
              "type": "bool"
            },
            {
              "internalType": "bool",
              "name": "badgeObligatory",
              "type": "bool"
            }
          ],
          "internalType": "struct ILilyPad.Journey",
          "name": "",
          "type": "tuple"
        }
      ],
      "stateMutability": "nonpayable",
      "type": "function"
    },
    {
      "inputs": [
        {
          "components": [
            {
              "internalType": "uint256",
              "name": "level",
              "type": "uint256"
            },
            {
              "internalType": "uint256",
              "name": "xpInit",
              "type": "uint256"
            },
            {
              "internalType": "uint256",
              "name": "xpFin",
              "type": "uint256"
            },
            {
              "internalType": "bytes",
              "name": "image",
              "type": "bytes"
            }
          ],
          "internalType": "struct ILilyPad.Level[]",
          "name": "_levels",
          "type": "tuple[]"
        }
      ],
      "name": "createLevel",
      "outputs": [],
      "stateMutability": "nonpayable",
      "type": "function"
    },
    {
      "inputs": [
        {
          "internalType": "address",
          "name": "_member",
          "type": "address"
        },
        {
          "internalType": "uint256",
          "name": "_initialXp",
          "type": "uint256"
        },
        {
          "internalType": "uint256[]",
          "name": "_completedEvents",
          "type": "uint256[]"
        },
        {
          "components": [
            {
              "internalType": "uint256",
              "name": "eventId",
              "type": "uint256"
            },
            {
              "internalType": "uint256",
              "name": "techId",
              "type": "uint256"
            },
            {
              "internalType": "uint256",
              "name": "level",
              "type": "uint256"
            },
            {
              "internalType": "bytes",
              "name": "badge",
              "type": "bytes"
            }
          ],
          "internalType": "struct ILilyPad.Accolade[]",
          "name": "_badges",
          "type": "tuple[]"
        },
        {
          "internalType": "bytes",
          "name": "_sig",
          "type": "bytes"
        }
      ],
      "name": "createMember",
      "outputs": [],
      "stateMutability": "nonpayable",
      "type": "function"
    },
    {
      "inputs": [
        {
          "components": [
            {
              "internalType": "uint256",
              "name": "techId",
              "type": "uint256"
            },
            {
              "internalType": "bytes",
              "name": "techName",
              "type": "bytes"
            }
          ],
          "internalType": "struct ILilyPad.Technology[]",
          "name": "_technologies",
          "type": "tuple[]"
        },
        {
          "components": [
            {
              "internalType": "uint256",
              "name": "techId",
              "type": "uint256"
            },
            {
              "internalType": "uint256",
              "name": "level",
              "type": "uint256"
            },
            {
              "internalType": "bytes",
              "name": "badge",
              "type": "bytes"
            }
          ],
          "internalType": "struct ILilyPad.TechBadge[]",
          "name": "_badges",
          "type": "tuple[]"
        }
      ],
      "name": "createTechnology",
      "outputs": [],
      "stateMutability": "nonpayable",
      "type": "function"
    },
    {
      "inputs": [
        {
          "internalType": "address",
          "name": "_member",
          "type": "address"
        },
        {
          "internalType": "uint256",
          "name": "_eventId",
          "type": "uint256"
        },
        {
          "internalType": "uint256",
          "name": "_techId",
          "type": "uint256"
        },
        {
          "internalType": "uint256",
          "name": "_level",
          "type": "uint256"
        }
      ],
      "name": "getAwardedBadge",
      "outputs": [
        {
          "components": [
            {
              "internalType": "uint256",
              "name": "eventId",
              "type": "uint256"
            },
            {
              "internalType": "uint256",
              "name": "techId",
              "type": "uint256"
            },
            {
              "internalType": "uint256",
              "name": "level",
              "type": "uint256"
            },
            {
              "internalType": "bytes",
              "name": "badge",
              "type": "bytes"
            }
          ],
          "internalType": "struct ILilyPad.Accolade",
          "name": "",
          "type": "tuple"
        },
        {
          "internalType": "uint256",
          "name": "badgeIndex",
          "type": "uint256"
        }
      ],
      "stateMutability": "view",
      "type": "function"
    },
    {
      "inputs": [
        {
          "internalType": "uint256",
          "name": "_id",
          "type": "uint256"
        }
      ],
      "name": "getEvent",
      "outputs": [
        {
          "internalType": "uint256",
          "name": "eventTypeId",
          "type": "uint256"
        },
        {
          "internalType": "uint256",
          "name": "xp",
          "type": "uint256"
        },
        {
          "components": [
            {
              "internalType": "uint256",
              "name": "techId",
              "type": "uint256"
            },
            {
              "internalType": "bytes",
              "name": "techName",
              "type": "bytes"
            }
          ],
          "internalType": "struct ILilyPad.Technology[]",
          "name": "eventTechs",
          "type": "tuple[]"
        }
      ],
      "stateMutability": "view",
      "type": "function"
    },
    {
      "inputs": [
        {
          "internalType": "uint256",
          "name": "_eventTypeId",
          "type": "uint256"
        }
      ],
      "name": "getEventType",
      "outputs": [
        {
          "components": [
            {
              "internalType": "uint256",
              "name": "id",
              "type": "uint256"
            },
            {
              "internalType": "bytes",
              "name": "name",
              "type": "bytes"
            }
          ],
          "internalType": "struct ILilyPad.EventType",
          "name": "",
          "type": "tuple"
        }
      ],
      "stateMutability": "view",
      "type": "function"
    },
    {
      "inputs": [
        {
          "internalType": "uint256",
          "name": "_levelId",
          "type": "uint256"
        }
      ],
      "name": "getLevel",
      "outputs": [
        {
          "components": [
            {
              "internalType": "uint256",
              "name": "level",
              "type": "uint256"
            },
            {
              "internalType": "uint256",
              "name": "xpInit",
              "type": "uint256"
            },
            {
              "internalType": "uint256",
              "name": "xpFin",
              "type": "uint256"
            },
            {
              "internalType": "bytes",
              "name": "image",
              "type": "bytes"
            }
          ],
          "internalType": "struct ILilyPad.Level",
          "name": "",
          "type": "tuple"
        }
      ],
      "stateMutability": "view",
      "type": "function"
    },
    {
      "inputs": [
        {
          "internalType": "address",
          "name": "_memberAddress",
          "type": "address"
        }
      ],
      "name": "getMember",
      "outputs": [
        {
          "internalType": "bool",
          "name": "pathChosen",
          "type": "bool"
        },
        {
          "internalType": "uint256",
          "name": "xp",
          "type": "uint256"
        },
        {
          "internalType": "uint256",
          "name": "level",
          "type": "uint256"
        },
        {
          "internalType": "bool",
          "name": "DAO",
          "type": "bool"
        },
        {
          "internalType": "uint256",
          "name": "tokenId",
          "type": "uint256"
        },
        {
          "internalType": "uint256[]",
          "name": "completedEvents",
          "type": "uint256[]"
        },
        {
          "components": [
            {
              "internalType": "uint256",
              "name": "eventId",
              "type": "uint256"
            },
            {
              "internalType": "uint256",
              "name": "techId",
              "type": "uint256"
            },
            {
              "internalType": "uint256",
              "name": "level",
              "type": "uint256"
            },
            {
              "internalType": "bytes",
              "name": "badge",
              "type": "bytes"
            }
          ],
          "internalType": "struct ILilyPad.Accolade[]",
          "name": "badges",
          "type": "tuple[]"
        }
      ],
      "stateMutability": "view",
      "type": "function"
    },
    {
      "inputs": [
        {
          "internalType": "uint256",
          "name": "_tokenId",
          "type": "uint256"
        }
      ],
      "name": "getMemberByTokenId",
      "outputs": [
        {
          "internalType": "address",
          "name": "memberAddress",
          "type": "address"
        },
        {
          "internalType": "bool",
          "name": "pathChosen",
          "type": "bool"
        },
        {
          "internalType": "uint256",
          "name": "xp",
          "type": "uint256"
        },
        {
          "internalType": "uint256",
          "name": "level",
          "type": "uint256"
        },
        {
          "internalType": "bool",
          "name": "DAO",
          "type": "bool"
        },
        {
          "internalType": "uint256",
          "name": "tokenId",
          "type": "uint256"
        },
        {
          "internalType": "uint256[]",
          "name": "completedEvents",
          "type": "uint256[]"
        },
        {
          "components": [
            {
              "internalType": "uint256",
              "name": "eventId",
              "type": "uint256"
            },
            {
              "internalType": "uint256",
              "name": "techId",
              "type": "uint256"
            },
            {
              "internalType": "uint256",
              "name": "level",
              "type": "uint256"
            },
            {
              "internalType": "bytes",
              "name": "badge",
              "type": "bytes"
            }
          ],
          "internalType": "struct ILilyPad.Accolade[]",
          "name": "badges",
          "type": "tuple[]"
        }
      ],
      "stateMutability": "view",
      "type": "function"
    },
    {
      "inputs": [
        {
          "internalType": "address",
          "name": "_memberAddress",
          "type": "address"
        }
      ],
      "name": "getMemberLevel",
      "outputs": [
        {
          "internalType": "uint256",
          "name": "",
          "type": "uint256"
        }
      ],
      "stateMutability": "view",
      "type": "function"
    },
    {
      "inputs": [
        {
          "internalType": "uint256",
          "name": "_technologyId",
          "type": "uint256"
        },
        {
          "internalType": "uint256",
          "name": "level",
          "type": "uint256"
        }
      ],
      "name": "getTechBadge",
      "outputs": [
        {
          "components": [
            {
              "internalType": "uint256",
              "name": "techId",
              "type": "uint256"
            },
            {
              "internalType": "uint256",
              "name": "level",
              "type": "uint256"
            },
            {
              "internalType": "bytes",
              "name": "badge",
              "type": "bytes"
            }
          ],
          "internalType": "struct ILilyPad.TechBadge",
          "name": "",
          "type": "tuple"
        }
      ],
      "stateMutability": "view",
      "type": "function"
    },
    {
      "inputs": [
        {
          "internalType": "uint256",
          "name": "_technologyId",
          "type": "uint256"
        }
      ],
      "name": "getTechnology",
      "outputs": [
        {
          "components": [
            {
              "internalType": "uint256",
              "name": "techId",
              "type": "uint256"
            },
            {
              "internalType": "bytes",
              "name": "techName",
              "type": "bytes"
            }
          ],
          "internalType": "struct ILilyPad.Technology",
          "name": "",
          "type": "tuple"
        }
      ],
      "stateMutability": "view",
      "type": "function"
    },
    {
      "inputs": [
        {
          "internalType": "address",
          "name": "_memberAddress",
          "type": "address"
        }
      ],
      "name": "getTokenId",
      "outputs": [
        {
          "internalType": "uint256",
          "name": "",
          "type": "uint256"
        }
      ],
      "stateMutability": "view",
      "type": "function"
    },
    {
      "inputs": [
        {
          "components": [
            {
              "internalType": "uint256",
              "name": "level",
              "type": "uint256"
            },
            {
              "internalType": "uint256",
              "name": "xpInit",
              "type": "uint256"
            },
            {
              "internalType": "uint256",
              "name": "xpFin",
              "type": "uint256"
            },
            {
              "internalType": "bytes",
              "name": "image",
              "type": "bytes"
            }
          ],
          "internalType": "struct ILilyPad.Level[]",
          "name": "_levels",
          "type": "tuple[]"
        },
        {
          "components": [
            {
              "internalType": "uint256",
              "name": "id",
              "type": "uint256"
            },
            {
              "internalType": "bytes",
              "name": "name",
              "type": "bytes"
            }
          ],
          "internalType": "struct ILilyPad.EventType[]",
          "name": "_eventTypes",
          "type": "tuple[]"
        },
        {
          "components": [
            {
              "internalType": "uint256",
              "name": "techId",
              "type": "uint256"
            },
            {
              "internalType": "bytes",
              "name": "techName",
              "type": "bytes"
            }
          ],
          "internalType": "struct ILilyPad.Technology[]",
          "name": "_technologies",
          "type": "tuple[]"
        },
        {
          "internalType": "address",
          "name": "_safeCaller",
          "type": "address"
        }
      ],
      "name": "initialize",
      "outputs": [],
      "stateMutability": "nonpayable",
      "type": "function"
    },
    {
      "inputs": [
        {
          "internalType": "address",
          "name": "_memberAddress",
          "type": "address"
        }
      ],
      "name": "mintTokenForMember",
      "outputs": [],
      "stateMutability": "payable",
      "type": "function"
    },
    {
      "inputs": [],
      "name": "owner",
      "outputs": [
        {
          "internalType": "address",
          "name": "",
          "type": "address"
        }
      ],
      "stateMutability": "view",
      "type": "function"
    },
    {
      "inputs": [],
      "name": "renounceOwnership",
      "outputs": [],
      "stateMutability": "nonpayable",
      "type": "function"
    },
    {
      "inputs": [],
      "name": "safeCaller",
      "outputs": [
        {
          "internalType": "address",
          "name": "",
          "type": "address"
        }
      ],
      "stateMutability": "view",
      "type": "function"
    },
    {
      "inputs": [],
      "name": "sbtAddress",
      "outputs": [
        {
          "internalType": "contract IPondSBT",
          "name": "",
          "type": "address"
        }
      ],
      "stateMutability": "view",
      "type": "function"
    },
    {
      "inputs": [
        {
          "internalType": "contract IPondSBT",
          "name": "_newSbtAddress",
          "type": "address"
        }
      ],
      "name": "setSbtAddress",
      "outputs": [],
      "stateMutability": "nonpayable",
      "type": "function"
    },
    {
      "inputs": [
        {
          "internalType": "uint256",
          "name": "_eventId",
          "type": "uint256"
        },
        {
          "internalType": "uint256",
          "name": "_techId",
          "type": "uint256"
        },
        {
          "internalType": "uint256",
          "name": "_level",
          "type": "uint256"
        },
        {
          "internalType": "bytes",
          "name": "_badge",
          "type": "bytes"
        }
      ],
      "name": "submitBadge",
      "outputs": [],
      "stateMutability": "nonpayable",
      "type": "function"
    },
    {
      "inputs": [
        {
          "internalType": "uint256",
          "name": "_eventId",
          "type": "uint256"
        },
        {
          "internalType": "uint256",
          "name": "_eventTypeId",
          "type": "uint256"
        },
        {
          "internalType": "bytes",
          "name": "_eventName",
          "type": "bytes"
        },
        {
          "internalType": "uint256",
          "name": "_xp",
          "type": "uint256"
        },
        {
          "internalType": "uint256",
          "name": "_level",
          "type": "uint256"
        },
        {
          "internalType": "uint256[]",
          "name": "_technologies",
          "type": "uint256[]"
        },
        {
          "internalType": "bytes",
          "name": "_sig",
          "type": "bytes"
        }
      ],
      "name": "submitEvent",
      "outputs": [],
      "stateMutability": "nonpayable",
      "type": "function"
    },
    {
      "inputs": [
        {
          "internalType": "address",
          "name": "newOwner",
          "type": "address"
        }
      ],
      "name": "transferOwnership",
      "outputs": [],
      "stateMutability": "nonpayable",
      "type": "function"
    },
    {
      "inputs": [
        {
          "internalType": "uint256",
          "name": "_id",
          "type": "uint256"
        },
        {
          "internalType": "uint256",
          "name": "_eventTypeId",
          "type": "uint256"
        },
        {
          "internalType": "bytes",
          "name": "_eventName",
          "type": "bytes"
        },
        {
          "internalType": "uint256",
          "name": "_xp",
          "type": "uint256"
        },
        {
          "internalType": "uint256[]",
          "name": "_technologies",
          "type": "uint256[]"
        },
        {
          "internalType": "bytes",
          "name": "_sig",
          "type": "bytes"
        }
      ],
      "name": "updateEvent",
      "outputs": [],
      "stateMutability": "nonpayable",
      "type": "function"
    },
    {
      "inputs": [
        {
          "internalType": "uint256",
          "name": "_journeyId",
          "type": "uint256"
        },
        {
          "internalType": "bytes",
          "name": "_name",
          "type": "bytes"
        },
        {
          "internalType": "bool",
          "name": "_badgeObligatory",
          "type": "bool"
        },
        {
          "internalType": "uint256[]",
          "name": "_eventsId",
          "type": "uint256[]"
        }
      ],
      "name": "updateJourney",
      "outputs": [
        {
          "components": [
            {
              "internalType": "uint256",
              "name": "id",
              "type": "uint256"
            },
            {
              "internalType": "address",
              "name": "member",
              "type": "address"
            },
            {
              "internalType": "bytes",
              "name": "name",
              "type": "bytes"
            },
            {
              "internalType": "bool",
              "name": "done",
              "type": "bool"
            },
            {
              "internalType": "bool",
              "name": "badgeObligatory",
              "type": "bool"
            }
          ],
          "internalType": "struct ILilyPad.Journey",
          "name": "",
          "type": "tuple"
        }
      ],
      "stateMutability": "nonpayable",
      "type": "function"
    },
    {
      "inputs": [
        {
          "internalType": "address",
          "name": "_memberAddress",
          "type": "address"
        },
        {
          "internalType": "bool",
          "name": "_dao",
          "type": "bool"
        },
        {
          "internalType": "uint256",
          "name": "_xp",
          "type": "uint256"
        },
        {
          "internalType": "uint256[]",
          "name": "_completedEvents",
          "type": "uint256[]"
        },
        {
          "components": [
            {
              "internalType": "uint256",
              "name": "eventId",
              "type": "uint256"
            },
            {
              "internalType": "uint256",
              "name": "techId",
              "type": "uint256"
            },
            {
              "internalType": "uint256",
              "name": "level",
              "type": "uint256"
            },
            {
              "internalType": "bytes",
              "name": "badge",
              "type": "bytes"
            }
          ],
          "internalType": "struct ILilyPad.Accolade[]",
          "name": "_badges",
          "type": "tuple[]"
        },
        {
          "internalType": "bytes",
          "name": "_sig",
          "type": "bytes"
        }
      ],
      "name": "updateMember",
      "outputs": [],
      "stateMutability": "nonpayable",
      "type": "function"
    },
    {
      "inputs": [
        {
          "internalType": "address",
          "name": "_newSafeCaller",
          "type": "address"
        }
      ],
      "name": "updateSafeCaller",
      "outputs": [],
      "stateMutability": "nonpayable",
      "type": "function"
    }
  ],
  "numDeployments": 1,
  "bytecode": "0x6080806040523461001757615eba90816200001d8239f35b600080fdfe60806040526004361015610013575b600080fd5b60003560e01c806303cd58ef146102e357806308f263a7146102da5780630a607b98146102d15780630e6eaf9b146102c857806312d21a34146102bf5780631fc64fe3146102b657806328227df1146102ad5780632ada2596146102a4578063343611a81461029b5780633f09e9391461029257806345a059761461028957806346e26dd31461028057806351cb31471461027757806352207b271461026e57806354683cac1461026557806357324c451461025c57806359269e67146102535780635a8117991461024a578063633927dd146102415780636ac2c6c7146102385780636d1884e01461022f578063715018a614610226578063792110ee1461021d578063827a421f1461021457806386481d401461020b5780638da5cb5b146102025780638f913a07146101f9578063989147b3146101f0578063c722f2af146101e7578063c8318815146101de578063c860d775146101d5578063dc5738be146101cc578063f1537686146101c3578063f2fde38b146101ba578063f3116011146101b15763f6488722146101a957600080fd5b61000e612124565b5061000e6120a5565b5061000e611f88565b5061000e611f46565b5061000e611dad565b5061000e611d71565b5061000e611d2a565b5061000e611cb3565b5061000e611c8b565b5061000e611c10565b5061000e611be8565b5061000e611b9e565b5061000e611a86565b5061000e611a0b565b5061000e6119a8565b5061000e6118b7565b5061000e61181c565b5061000e611689565b5061000e611501565b5061000e6114d1565b5061000e6114b1565b5061000e61146a565b5061000e6111e0565b5061000e610e69565b5061000e610d6d565b5061000e610cc6565b5061000e610c45565b5061000e610bba565b5061000e61090d565b5061000e6107bc565b5061000e610774565b5061000e6106ae565b5061000e610532565b5061000e6104da565b5061000e6103d8565b5061000e610334565b60005b8381106102ff5750506000910152565b81810151838201526020016102ef565b90602091610328815180928185528580860191016102ec565b601f01601f1916010190565b503461000e57604036600319011261000e5760406103566024356004356131ae565b610384825192839260208452805160208501526020810151828501520151606080840152608083019061030f565b0390f35b60208152815160208201526001600160a01b03602083015116604082015260a060806103c2604085015183606086015260c085019061030f565b9360608101511515828501520151151591015290565b503461000e57602036600319011261000e576103846104966104916004356103fe6148a2565b5061040833614c9c565b61045a60406000838152606f60205261044c6001600160a01b036104358160018686200154161515614f7d565b858352606f60205283832060010154163314614f7d565b838152607060205220614fc8565b610481600361047383600052606f602052604060002090565b01805460ff19166001179055565b600052606f602052604060002090565b614abb565b60405191829182610388565b6001600160a01b0381160361000e57565b608090600319011261000e576004356104cb816104a2565b90602435906044359060643590565b503461000e5760206104f76104ee366104b3565b9291909161450f565b6040519015158152f35b9181601f8401121561000e5782359167ffffffffffffffff831161000e576020808501948460051b01011161000e57565b503461000e57608036600319011261000e5767ffffffffffffffff60043581811161000e57610565903690600401610501565b60249291923582811161000e57610580903690600401610501565b9060443593841161000e5761059c6105ed943690600401610501565b929091606435946105ac866104a2565b600054976105d160ff8a60081c1615809a819b610671575b8115610651575b506123ac565b886105e4600160ff196000541617600055565b61063857612828565b6105f4575b005b61060461ff001960005416600055565b604051600181527f7f26b83ff96e1f2b6a682f133852f6798a09c465da95921460cefb38474024989080602081015b0390a1005b61064c61010061ff00196000541617600055565b612828565b303b15915081610663575b50386105cb565b6001915060ff16143861065c565b600160ff82161091506105c4565b602060031982011261000e576004359067ffffffffffffffff821161000e576106aa91600401610501565b9091565b503461000e576106bd3661067f565b6106c561230a565b60005b8181106106d157005b806106e0610736928486612735565b35600052606960209080825260409182600020541560001461073b5750505061073161070d828587612735565b61072c61071b848789612735565b356000526069602052604060002090565b612765565b612434565b6106c8565b60016107319361075861074f878a8c612735565b848101906124ae565b949093610766888b8d612735565b356000525260002001612577565b503461000e57600036600319011261000e5760206001600160a01b0360665416604051908152f35b90604060206107b99380518452015191816020820152019061030f565b90565b503461000e57602036600319011261000e576107d6612a70565b5060043560005260696020526103846107f26040600020612a8a565b60405191829160208352602083019061079c565b90815180825260208080930193019160005b828110610826575050505090565b835185529381019392810192600101610818565b90608060606107b993805184526020810151602085015260408101516040850152015191816060820152019061030f565b908082519081815260208091019281808460051b8301019501936000915b8483106108995750505050505090565b90919293949584806108b7600193601f198682030187528a5161083a565b9801930193019194939290610889565b95926107b99795926108ff9592151588526020880152604087015215156060860152608085015260e060a085015260e0840190610806565b9160c081840391015261086b565b503461000e57602036600319011261000e5760043561092b816104a2565b6001600160a01b03811680600052606d60205261038460ff60406000205416916001604060002001549361095e816147b8565b91600052606d60205261097a600260406000200160ff90541690565b6003610999836001600160a01b0316600052606d602052604060002090565b0154906109ee6109e860056109e160046109c6886001600160a01b0316600052606d602052604060002090565b01966001600160a01b0316600052606d602052604060002090565b0194613612565b936137dd565b93604051978897886108c7565b60243590811515820361000e57565b60443590811515820361000e57565b50634e487b7160e01b600052604160045260246000fd5b60c0810190811067ffffffffffffffff821117610a4c57604052565b610a54610a19565b604052565b6080810190811067ffffffffffffffff821117610a4c57604052565b6040810190811067ffffffffffffffff821117610a4c57604052565b6060810190811067ffffffffffffffff821117610a4c57604052565b60a0810190811067ffffffffffffffff821117610a4c57604052565b6020810190811067ffffffffffffffff821117610a4c57604052565b90601f8019910116810190811067ffffffffffffffff821117610a4c57604052565b60405190610b1482610a59565b565b60405190610b1482610a91565b60405190610b1482610a75565b60405190610b1482610aad565b60209067ffffffffffffffff8111610b5b575b601f01601f19160190565b610b63610a19565b610b50565b929192610b7482610b3d565b91610b826040519384610ae5565b82948184528183011161000e578281602093846000960137010152565b9080601f8301121561000e578160206107b993359101610b68565b503461000e5760c036600319011261000e57600435610bd8816104a2565b610be06109fb565b67ffffffffffffffff9160643583811161000e57610c02903690600401610501565b60849291923585811161000e57610c1d903690600401610501565b93909260a43596871161000e57610c3b6105f2973690600401610b9f565b9560443591613eae565b503461000e5760a036600319011261000e57600435610c63816104a2565b67ffffffffffffffff9060443582811161000e57610c85903690600401610501565b9060643584811161000e57610c9e903690600401610501565b92909160843595861161000e57610cbc6105f2963690600401610b9f565b9460243590613846565b503461000e57602036600319011261000e576001600160a01b03610d31610384610cf16004356146c5565b9698956040959195949294519a8b9a168a52151560208a0152604089015260608801521515608087015260a08601526101008060c0870152850190610806565b9083820360e085015261086b565b9181601f8401121561000e5782359167ffffffffffffffff831161000e576020838186019501011161000e57565b503461000e57606036600319011261000e57600435610d8b816104a2565b67ffffffffffffffff9060243582811161000e57610dad903690600401610501565b9260443590811161000e57610e31610dcc610e37923690600401610d3f565b9190610e29610ddb88876139b1565b604051610e2160348260208101946bffffffffffffffffffffffff198d60601b168652610e1181518092602086860191016102ec565b8101036014810184520182610ae5565b519020615e41565b923691610b68565b90613566565b60005b838110610e4357005b610e6490610731610e5e36610e59848988612467565b6138d3565b8561426d565b610e3a565b503461000e5760608060031936011261000e57600435610e88816104a2565b60243560443567ffffffffffffffff811161000e57610eab903690600401610b9f565b91604091825193610ef5602091610ef08388016001600160a01b038716986bffffffffffffffffffffffff19888c1b16825286603482015260348152610e2181610a91565b613566565b600094808652606d825260ff85872054161561119f5750610f16828461440c565b15610f22575b50505051f35b610f2b836147b8565b95610f48610f43846000526072602052604060002090565b613661565b610f71846004610f6b886001600160a01b0316600052606d602052604060002090565b016134d8565b608081015197600198610fa48a610f9b896001600160a01b0316600052606d602052604060002090565b01918254613aa8565b90557f593c8b850cae6a478ff8850060a058179997558d3e942a5c3ecd27cc68d62695610ffd610fe2610ff08a8601518b519283918a830190613833565b03601f198101835282610ae5565b8951918291898b8461412b565b0390a1611009866147b8565b908111611135575b5061102684600052606c602052604060002090565b5460a0820194855151998985819501945b8a888683106110de57505050925050505b88811061106a575050505050611060919293506151b6565b8190388080610f1c565b8151805b611081575061107c90612434565b611048565b8061109a6110ab92611094858a51612dbc565b516131ae565b80518a816110b1575b505050614150565b8061106e565b6110d69201516110bf610b07565b918d835289830152838c8301528782015289614348565b38808a6110a3565b6111248561112e95610731948b519061110a886111058d600052606c602052604060002090565b61300c565b5092611114610b07565b968c885287015285015201612993565b898201528b614348565b8a90611037565b7fa7792332f0075457196fdfdfc63fafecd0d71f0c53de7d5b25e36c23804e12219089611175886001600160a01b0316600052606d602052604060002090565b015488516001600160a01b038916815260208101919091526040810191909152606090a138611011565b6024908551907ff6440c120000000000000000000000000000000000000000000000000000000082526004820152fd5b9060206107b992818152019061030f565b503461000e57604036600319011261000e5760043560243567ffffffffffffffff811161000e573660238201121561000e57368160040135916024019161122692610b68565b61122f826146c5565b9796989450945050505080151561124590615439565b61124e90613ad4565b916112616001600160a01b038616615551565b9361126b866147b8565b61127f906000526068602052604060002090565b600301926040518094602082016112969086613833565b61129f91615484565b0396601f199788810186526112b49086610ae5565b6112bd906147b8565b906112c7916157c2565b916112d191615a36565b6040517f7b226e616d65223a22506f6e645342542000000000000000000000000000000060208201529485949193916031860161130d91613833565b7f222c20226465736372697074696f6e223a2250617274206f662074686520536f81527f756c206f66200000000000000000000000000000000000000000000000000000602082015260260161136291613833565b7f222c22696d616765223a202200000000000000000000000000000000000000008152600c0161139191613833565b7f222c00000000000000000000000000000000000000000000000000000000000081526002016113c091613833565b7f2c0000000000000000000000000000000000000000000000000000000000000081526001016113ef91613833565b607d60f81b81526001010382810182526114099082610ae5565b6114129061566b565b6040517f646174613a6170706c69636174696f6e2f6a736f6e3b6261736536342c000000602082015291908290603d820161144c91613833565b03908101825261145c9082610ae5565b6040516103848192826111cf565b503461000e57602036600319011261000e576001600160a01b03600435611490816104a2565b61149861230a565b166001600160a01b031960675416176067556000604051f35b503461000e57602036600319011261000e576103846107f2600435612d21565b503461000e57602036600319011261000e5760206114f96004356114f4816104a2565b6147b8565b604051908152f35b503461000e57604036600319011261000e5767ffffffffffffffff60043581811161000e57611534903690600401610501565b9160243590811161000e5761154d903690600401610501565b61155561230a565b60005b84811061156157005b61158061156f828787612735565b35600052606a602052604060002090565b54611612576115a1611593828787612735565b61072c61156f848989612735565b6115c86115c36115b2838888612735565b35600052606b602052604060002090565b612b34565b60005b8281106115e157506115dc90612434565b611558565b61160a906107316115f96115b2858a8a9b979b612735565b611604838789612bba565b90612c14565b9490946115cb565b61164461162d611623838888612735565b60208101906124ae565b90600161163e61156f868b8b612735565b01612577565b6116556115c36115b2838888612735565b60005b82811061166957506115dc90612434565b611681906107316115f96115b2858a8a9b979b612735565b949094611658565b50602036600319011261000e576004356116a2816104a2565b6116cc60036116c4836001600160a01b0316600052606d602052604060002090565b0154156145d1565b6116ed6116e16067546001600160a01b031690565b6001600160a01b031690565b6040517fa68407f60000000000000000000000000000000000000000000000000000000081526001600160a01b038316600482015291906020908390602490829034905af1600092816117ec575b50611798575050600161174c614638565b6308c379a014611765575b61175d57005b6105f261462b565b61176d614656565b806117785750611757565b6117949060405191829162461bcd60e51b8352600483016111cf565b0390fd5b6117d1826105f29360036117bf856001600160a01b0316600052606d602052604060002090565b01556000526071602052604060002090565b906001600160a01b03166001600160a01b0319825416179055565b61180e91935060203d8111611815575b6118068183610ae5565b81019061461c565b913861173b565b503d6117fc565b503461000e57604036600319011261000e5760206104f760043561183f816104a2565b6024359061440c565b91606083019183526020908184015260606040840152835180925260808301928160808460051b8301019501936000915b8483106118895750505050505090565b90919293949584806118a7600193607f198682030187528a5161079c565b9801930193019194939290611879565b503461000e57602036600319011261000e5760043560005260726020526040600020604051906118e682610a30565b8054825260018101546020830190815261190260028301612993565b60408401526003820154606084015260a061192b60056004850154946080870195865201613612565b9301928084525161193b816136b0565b9360005b82811061195d57505050610384905191519260405193849384611848565b806119886119836119726119a3948651612dbc565b51600052606a602052604060002090565b612a8a565b6119928289612dbc565b5261199d8188612dbc565b50612434565b61193f565b503461000e57600080600319360112611a08576119c361230a565b6033546001600160a01b03198116603355816001600160a01b0360405192167f8be0079c531659141344cd1fd0a4f28419497f9722a3daafe3b4186f6b6457e08284a3f35b80fd5b503461000e57608036600319011261000e5767ffffffffffffffff60243581811161000e57611a3e903690600401610d3f565b611a49929192610a0a565b9260643592831161000e5761038493611a69610496943690600401610501565b939092611a746148a2565b50611a7e33614c9c565b600435614b0f565b503461000e57611a953661067f565b611a9d61230a565b600091825b828110611aaf5783604051f35b80611ad2611ac1611b23938686612467565b356000526068602052604060002090565b54611b3057611af8611ae5828686612467565b611af3611ac1848888612467565b61264d565b606554611b06828686612467565b35811015611b285750610731611b1d828686612467565b35606555565b611aa2565b606555612434565b6020611b3d828686612467565b01356001611b4f611ac1848888612467565b01556040611b5e828686612467565b01356002611b70611ac1848888612467565b0155610731611b8d611b83838787612467565b60608101906124ae565b90600361163e611ac1868a8a612467565b503461000e57602036600319011261000e57611bb861296c565b506004356000526068602052610384611bd46040600020612a37565b60405191829160208352602083019061083a565b503461000e57600036600319011261000e5760206001600160a01b0360335416604051908152f35b503461000e5760e036600319011261000e5767ffffffffffffffff60443581811161000e57611c43903690600401610d3f565b60a43583811161000e57611c5b903690600401610501565b9160c43594851161000e57611c776105f2953690600401610b9f565b936084359160643591602435600435613297565b503461000e57600036600319011261000e5760206001600160a01b0360675416604051908152f35b503461000e5760c036600319011261000e5767ffffffffffffffff60443581811161000e57611ce6903690600401610b9f565b60843582811161000e57611cfe903690600401610501565b9060a43593841161000e57611d1a6105f2943690600401610b9f565b9260643590602435600435613700565b503461000e57602036600319011261000e576001600160a01b03600435611d50816104a2565b611d5861230a565b166001600160a01b031960665416176066556000604051f35b503461000e57611da3611d8f611d86366104b3565b9291909161416b565b60405192839260408452604084019061083a565b9060208301520390f35b503461000e57602036600319011261000e57600435611dcb816104a2565b6001600160a01b03606754163303611edc5761063381611e2c611e227f7832841b27381cc9b824718ee239279b2e9c0a1ba515ff4759cb07d8afba6da0946001600160a01b0316600052606d602052604060002090565b805460ff19169055565b60006001611e4d836001600160a01b0316600052606d602052604060002090565b015560006003611e70836001600160a01b0316600052606d602052604060002090565b0155611e9a6004611e94836001600160a01b0316600052606d602052604060002090565b016137b9565b611ec26005611ebc836001600160a01b0316600052606d602052604060002090565b016153ad565b6040516001600160a01b0390911681529081906020820190565b608460405162461bcd60e51b815260206004820152603360248201527f4c696c795061643a3a4f6e6c792053425420436f6e74726163742063616e206360448201527f616c6c206d656e62657273686970206275726e000000000000000000000000006064820152fd5b503461000e57602036600319011261000e576001600160a01b03600435611f6c816104a2565b16600052606d6020526020600360406000200154604051908152f35b503461000e57602036600319011261000e57600435611fa6816104a2565b611fae61230a565b6001600160a01b03811615611fc6576105f290612362565b608460405162461bcd60e51b815260206004820152602660248201527f4f776e61626c653a206e6577206f776e657220697320746865207a65726f206160448201527f64647265737300000000000000000000000000000000000000000000000000006064820152fd5b60209067ffffffffffffffff811161204a575b60051b0190565b612052610a19565b612043565b929161206282612030565b916120706040519384610ae5565b829481845260208094019160051b810192831161000e57905b8282106120965750505050565b81358152908301908301612089565b503461000e57608036600319011261000e5767ffffffffffffffff60243581811161000e576120d8903690600401610b9f565b906120e1610a0a565b9160643591821161000e573660238301121561000e5761038492612112610496933690602481600401359101612057565b9161211b6148a2565b50600435614dbc565b503461000e57608036600319011261000e5760043560443560243560643567ffffffffffffffff811161000e5761215f903690600401610b9f565b9161216861230a565b831561222d57505061218c61218783600052606c602052604060002090565b612fb6565b80516000908482935b8285106121f8575b5050506121d45750906105f2916121be82600052606c602052604060002090565b906121c7610b23565b9283526020830152613036565b6121f16001916111056105f295600052606c602052604060002090565b5001612dde565b909193826122068284612dbc565b51511461221e5761221690612434565b939190612195565b9350505050600138848161219d565b9091925061224d61224883600052606b602052604060002090565b612d3f565b805160009081925b8184106122bc575b505061229757506105f29261227c83600052606b602052604060002090565b91612285610b16565b93845260208401526040830152612eb3565b600291506121f1906122b76105f29594600052606b602052604060002090565b612bea565b90928460206122cb8385612dbc565b51015114806122f6575b6122e9576122e290612434565b9290612255565b925050506001388061225d565b50856123028284612dbc565b5151146122d5565b6001600160a01b0360335416330361231e57565b606460405162461bcd60e51b815260206004820152602060248201527f4f776e61626c653a2063616c6c6572206973206e6f7420746865206f776e65726044820152fd5b603354906001600160a01b0380911691826001600160a01b0319821617603355167f8be0079c531659141344cd1fd0a4f28419497f9722a3daafe3b4186f6b6457e06000604051a3565b156123b357565b608460405162461bcd60e51b815260206004820152602e60248201527f496e697469616c697a61626c653a20636f6e747261637420697320616c72656160448201527f647920696e697469616c697a65640000000000000000000000000000000000006064820152fd5b50634e487b7160e01b600052601160045260246000fd5b6001906000198114612444570190565b61244c61241d565b0190565b50634e487b7160e01b600052603260045260246000fd5b919081101561248a575b60051b81013590607e198136030182121561000e570190565b612492612450565b612471565b50634e487b7160e01b600052600060045260246000fd5b903590601e198136030182121561000e570180359067ffffffffffffffff821161000e5760200191813603831361000e57565b90600182811c92168015612511575b60208310146124fb57565b634e487b7160e01b600052602260045260246000fd5b91607f16916124f0565b818110612526575050565b6000815560010161251b565b9190601f811161254157505050565b610b14926000526020600020906020601f840160051c8301931061256d575b601f0160051c019061251b565b9091508190612560565b90929167ffffffffffffffff8111612640575b61259e8161259884546124e1565b84612532565b6000601f82116001146125d857819293946000926125cd575b50508160011b916000199060031b1c1916179055565b0135905038806125b7565b601f198216946125ed84600052602060002090565b91805b87811061262857508360019596971061260e575b505050811b019055565b0135600019600384901b60f8161c19169055388080612604565b909260206001819286860135815501940191016125f0565b612648610a19565b61258a565b8135815560206126796003600193838601358582015560408601356002820155019360608101906124ae565b919067ffffffffffffffff8311612728575b61269f8361269987546124e1565b87612532565b600091601f84116001146126da57509282939183926000946126cf575b50501b916000199060031b1c1916179055565b0135925038806126bc565b9183601f1981166126f088600052602060002090565b9483905b8883831061270e575050501061260e57505050811b019055565b8686013588559096019593840193879350908101906126f4565b612730610a19565b61268b565b9190811015612758575b60051b81013590603e198136030182121561000e570190565b612760612450565b61273f565b8135815560018091019161277e602091828101906124ae565b919067ffffffffffffffff831161281b575b61279e8361269987546124e1565b600091601f84116001146127cd57509282939183926000946126cf5750501b916000199060031b1c1916179055565b9183601f1981166127e388600052602060002090565b9483905b88838310612801575050501061260e57505050811b019055565b8686013588559096019593840193879350908101906127e7565b612823610a19565b612790565b60005b8281106128c15750505060005b82811061289c5750505060005b82811061287757505050610b149061285b612949565b6001600160a01b03166001600160a01b03196066541617606655565b80610731612889612897938686612735565b61072c61156f848888612735565b612845565b806107316128ae6128bc938686612735565b61072c61071b848888612735565b612838565b80611af8611ae56128d3938686612467565b61282b565b156128df57565b608460405162461bcd60e51b815260206004820152602b60248201527f496e697469616c697a61626c653a20636f6e7472616374206973206e6f74206960448201527f6e697469616c697a696e670000000000000000000000000000000000000000006064820152fd5b61296360ff60005460081c1661295e816128d8565b6128d8565b610b1433612362565b6040519061297982610a59565b606080836000815260006020820152600060408201520152565b90604051918260008254926129a7846124e1565b908184526001948581169081600014612a1457506001146129d1575b5050610b1492500383610ae5565b9093915060005260209081600020936000915b8183106129fc575050610b14935082010138806129c3565b855488840185015294850194879450918301916129e4565b915050610b1494506020925060ff191682840152151560051b82010138806129c3565b90604051612a4481610a59565b6060612a6b6003839580548552600181015460208601526002810154604086015201612993565b910152565b60405190612a7d82610a75565b6060602083600081520152565b90604051612a9781610a75565b6020612a6b600183958054855201612993565b7f3fffffffffffffffffffffffffffffffffffffffffffffffffffffffffffffff8111600116612adb575b60021b90565b612ae361241d565b612ad5565b612af281546124e1565b9081612afc575050565b81601f60009311600114612b0e575055565b81835260208320612b2a91601f0160051c81019060010161251b565b8160208120915555565b805490600080825582612b4657505050565b6001917f555555555555555555555555555555555555555555555555555555555555555584118316612bad575b8152602081209160039384028301925b838110612b91575050505050565b80838692558383820155612ba760028201612ae8565b01612b83565b612bb561241d565b612b73565b9190811015612bdd575b60051b81013590605e198136030182121561000e570190565b612be5612450565b612bc4565b8054821015612c07575b6000526003602060002091020190600090565b612c0f612450565b612bf4565b612c38815468010000000000000000811015612d14575b6001928382018155612bea565b612d07575b82358155612c5d60026020928386013585820155019360408101906124ae565b919067ffffffffffffffff8311612cfa575b612c7d8361269987546124e1565b600091601f8411600114612cac57509282939183926000946126cf5750501b916000199060031b1c1916179055565b9183601f198116612cc288600052602060002090565b9483905b88838310612ce0575050501061260e57505050811b019055565b868601358855909601959384019387935090810190612cc6565b612d02610a19565b612c6f565b612d0f612497565b612c3d565b612d1c610a19565b612c2b565b612d29612a70565b50600052606a6020526107b96040600020612a8a565b908154612d4b81612030565b92604093612d5b85519182610ae5565b828152809460208092019260005281600020906000935b858510612d8157505050505050565b6003846001928451612d9281610a91565b865481528487015483820152612daa60028801612993565b86820152815201930194019391612d72565b6020918151811015612dd1575b60051b010190565b612dd9612450565b612dc9565b919091825167ffffffffffffffff8111612ea6575b612e018161259884546124e1565b602080601f8311600114612e3c575081929394600092612e315750508160011b916000199060031b1c1916179055565b0151905038806125b7565b90601f19831695612e5285600052602060002090565b926000905b888210612e8e57505083600195969710612e7557505050811b019055565b015160001960f88460031b161c19169055388080612604565b80600185968294968601518155019501930190612e57565b612eae610a19565b612df3565b612ed6815468010000000000000000811015612d14576001928382018155612bea565b612fa9575b82518155604060026020928386015185820155019301519081519167ffffffffffffffff8311612f9c575b612f148361269987546124e1565b81601f8411600114612f4c5750928293918392600094612f415750501b916000199060031b1c1916179055565b0151925038806126bc565b919083601f198116612f6388600052602060002090565b946000905b88838310612f825750505010612e7557505050811b019055565b858701518855909601959485019487935090810190612f68565b612fa4610a19565b612f06565b612fb1612497565b612edb565b908154612fc281612030565b92612fd06040519485610ae5565b818452600090815260208082208186015b848410612fef575050505050565b600283600192612ffe85612a8a565b815201920193019290612fe1565b8054821015613029575b60005260206000209060011b0190600090565b613031612450565b613016565b80549068010000000000000000821015613127575b61305d6001928392838201815561300c565b61311a575b8351815501916020809101519081519167ffffffffffffffff831161310d575b6130908361269987546124e1565b81601f84116001146130bd5750928293918392600094612f415750501b916000199060031b1c1916179055565b919083601f1981166130d488600052602060002090565b946000905b888383106130f35750505010612e7557505050811b019055565b8587015188559096019594850194879350908101906130d9565b613115610a19565b613082565b613122612497565b613062565b61312f610a19565b61304b565b6040519061314182610ac9565b60008252565b6040519061315482610ac9565b6000808352366020840137565b6040519061316e82610a91565b602a82526040366020840137565b9061318682610b3d565b6131936040519182610ae5565b82815280926131a4601f1991610b3d565b0190602036910137565b604051916131bb83610a91565b6131e56122486000938486526060604060209787898201520152600052606b602052604060002090565b805191835b83811061322057505050506040519061320282610ac9565b8082526040519261321284610a91565b818452830152604082015290565b818661322c8386612dbc565b510151146132425761323d90612434565b6131ea565b93505090506132519250612dbc565b5190565b908092918237016000815290565b91907f07ffffffffffffffffffffffffffffffffffffffffffffffffffffffffffffff811161000e5760051b809282370190565b959096929897946132e38a959396610ef0898b610e218b610fe260a08d60409e8f948551978896602088019a8b52870152606086013783018c60608201528a6080820152018c8b613263565b6133016132fa886000526072602052604060002090565b541561344f565b86613316816000526072602052604060002090565b5587600161332e896000526072602052604060002090565b015560049283613348896000526072602052604060002090565b01556133658a87600261163e8b6000526072602052604060002090565b600361337b886000526072602052604060002090565b015560005b8381106133c35750505050946133be917f1abd60720207a16761b9322f8b67c8d0df9ace2c2f355828a65268420f5b1bd29596519485943386613522565b0390a1565b6133d161156f82868561349a565b541561340c576134079061073160056133f48a6000526072602052604060002090565b0161340083888761349a565b35906134d8565b613380565b611794929361341a9261349a565b3592519283927f6f872bdc00000000000000000000000000000000000000000000000000000000845283019190602083019252565b1561345657565b606460405162461bcd60e51b815260206004820152601560248201527f4576656e7420616c7265616479206372656174656400000000000000000000006044820152fd5b91908110156134aa5760051b0190565b612052612450565b80548210156134cb575b60005260206000200190600090565b6134d3612450565b6134bc565b80546134fb9168010000000000000000821015613515575b6001820181556134b2565b819291549060031b600019811b9283911b16911916179055565b61351d610a19565b6134f0565b9390928593926001600160a01b0360a097941686526020860152604085015260806060850152816080850152848401376000828201840152601f01601f1916010190565b604182510361000e5760806000918360208095015160606040830151920151604051938452851a868401526040830152606082015282805260015afa15613605575b6000516001600160a01b0380606654169116036135c157565b606460405162461bcd60e51b815260206004820152601c60248201527f4920646f6e27742074616b65206f72646572732066726f6d20796f75000000006044820152fd5b61360d61462b565b6135a8565b9060405191828154918282526020928383019160005283600020936000905b82821061364757505050610b1492500383610ae5565b855484526001958601958895509381019390910190613631565b9060405161366e81610a30565b60a0612a6b60058395805485526001810154602086015261369160028201612993565b6040860152600381015460608601526004810154608086015201613612565b906136ba82612030565b6136c76040519182610ae5565b82815280926136d8601f1991612030565b019060005b8281106136e957505050565b6020906136f4612a70565b828285010152016136dd565b959261373961376194969596610ef060405160208101908b8252866040820152856060820152610e2181610fe28d8d6080840191613263565b6000878152607260205260409020600481019190915560018101919091556002905b01612dde565b600561377b81611e94866000526072602052604060002090565b60005b82811061378c575050505050565b6137b490610731836137a8886000526072602052604060002090565b0161340083878961349a565b61377e565b805460008255806137c8575050565b610b149160005260206000209081019061251b565b9081546137e981612030565b926137f76040519485610ae5565b818452600090815260208082208186015b848410613816575050505050565b60048360019261382585612a37565b815201920193019290613808565b9061244c602092828151948592016102ec565b949390926138cd926138c5916138be610b1499610ef08a6138678b896139b1565b610e218b60206040519384926bffffffffffffffffffffffff198385019760601b16875260348401526138af6138a28c8c6054870191613263565b91828151948592016102ec565b0103601f198101835282610ae5565b3691612057565b933691613941565b92613d25565b91909160808184031261000e576040519067ffffffffffffffff906080830182811184821017613934575b6040528294813584526020820135602085015260408201356040850152606082013592831161000e57606092612a6b9201610b9f565b61393c610a19565b6138fe565b9291909261394e84612030565b9161395c6040519384610ae5565b829480845260208094019060051b83019282841161000e5780915b84831061398657505050505050565b823567ffffffffffffffff811161000e5786916139a686849386016138d3565b815201920191613977565b906060916000915b8083106139c65750505090565b909192613a41613a69613a6f92610fe2856020613a6389613a5d8c846139f66139f0838987612467565b35613ad4565b613a2b611b83613a1284613a0b878d8b612467565b0135613ad4565b9460409a613a258c613a0b84848d612467565b98612467565b979098519c8d8c83829e519485930191016102ec565b8a01613a55825180938580850191016102ec565b010190613833565b90613833565b91613255565b93612434565b91906139b9565b9060018201809211613a8457565b610b1461241d565b9060028201809211613a8457565b9060208201809211613a8457565b91908201809211613a8457565b906020918051821015613ac757010190565b613acf612450565b010190565b8015613b88576000818181805b613b705750613aef8161317c565b935b613afb5750505090565b6000198101908111613b63575b8091600a91613b4d7fff0000000000000000000000000000000000000000000000000000000000000060308585068101809111613b56575b60f81b16861a9187613ab5565b53049081613af1565b613b5e61241d565b613b40565b613b6b61241d565b613b08565b9150613b7d600a91612434565b910480849291613ae1565b50604051613b9581610a75565b600181527f3000000000000000000000000000000000000000000000000000000000000000602082015290565b15613bc957565b606460405162461bcd60e51b815260206004820152601360248201527f5061746820416c72656164792043686f73656e000000000000000000000000006044820152fd5b805468010000000000000000811015613d18575b600191828201808255821015613d0b575b60005260606003602092836000209060021b0185518155838601518582015560408601516002820155019301519081519167ffffffffffffffff8311613cfe575b613c818361269987546124e1565b81601f8411600114613cae5750928293918392600094612f415750501b916000199060031b1c1916179055565b919083601f198116613cc588600052602060002090565b946000905b88838310613ce45750505010612e7557505050811b019055565b858701518855909601959485019487935090810190613cca565b613d06610a19565b613c73565b613d13612450565b613c32565b613d20610a19565b613c21565b91939293613d5f613d5a613d56613d4f866001600160a01b0316600052606d602052604060002090565b5460ff1690565b1590565b613bc2565b613d8c613d7f846001600160a01b0316600052606d602052604060002090565b805460ff19166001179055565b60019182613dad856001600160a01b0316600052606d602052604060002090565b0155613dd16002610473856001600160a01b0316600052606d602052604060002090565b60006003613df2856001600160a01b0316600052606d602052604060002090565b0155816000815b613e62575b50600091505b613e16575b5050610b149192506151b6565b8451811015613e5d57613e57906107316005613e45866001600160a01b0316600052606d602052604060002090565b01613e508389612dbc565b5190613c0d565b81613e04565b613e09565b8251811015613ea957613ea3906107316004613e91886001600160a01b0316600052606d602052604060002090565b01613e9c8387612dbc565b51906134d8565b81613df9565b613dfe565b95949391809791613f11613ec288886139b1565b93610ef08a88610e21898760409a6138af6138a28d5196879560209e8f966bffffffffffffffffffffffff19888a019c60601b168c52151560f81b603489015260358801526055870191613263565b613f34613d56613d4f8a6001600160a01b0316600052606d602052604060002090565b15613f5057505050916138c56138cd92610b1497943691612057565b8798613fa9613f7b613d4f613ffb9598969b6001600160a01b0316600052606d602052604060002090565b613f988c6001600160a01b0316600052606d602052604060002090565b9060ff801983541691151516179055565b6001613fc88b6001600160a01b0316600052606d602052604060002090565b01556002613fe98a6001600160a01b0316600052606d602052604060002090565b019060ff801983541691151516179055565b600361401a886001600160a01b0316600052606d602052604060002090565b0154600361403b896001600160a01b0316600052606d602052604060002090565b015560049161406183611e948a6001600160a01b0316600052606d602052604060002090565b60005b8181106140ea575050505060005b838110614087575050505050610b14906151b6565b806140c0613d5661409c6140c9948888612467565b35856140a9858a8a612467565b0135896140b7868b8b612467565b0135918b61450f565b6140ce57612434565b614072565b6107316140e46140df838888612467565b614120565b88614348565b61411b906107318561410f8c6001600160a01b0316600052606d602052604060002090565b0161340083868861349a565b614064565b6107b99036906138d3565b6107b993926001600160a01b036060931682526020820152816040820152019061030f565b801561415e575b6000190190565b61416661241d565b614157565b600561419c6141a29296959694939461418261296c565b506001600160a01b0316600052606d602052604060002090565b016137dd565b9182519460005b8681106141e557505050505090506141bf613147565b6141c7610b07565b90600082526000602083015260006040830152606082015290600090565b83151580614256575b8061423f575b8015614221575b61420d5761420890612434565b6141a9565b95505050508261421c91612dbc565b519190565b5082151580156141fb5750826142378287612dbc565b5151146141fb565b5081604061424d8388612dbc565b510151146141f4565b508360206142648388612dbc565b510151146141ee565b610b149180516020820161428b81519260408501938451918761450f565b15614299575b5050506151b6565b61433d7f533b013fca2d1f905bfcf844f8e57f1bf74442efd832ecc90ba9cd1d5ac268da936001600160a01b038616600052606d60205261430b600560406000200182519085518751606086015191604051946142f586610a59565b8552602085015260408401526060830152613c0d565b51915192516040519384938785909493926060926001600160a01b036080840197168352602083015260408201520152565b0390a1388080614291565b90805191602082019161436583519460408301958651918561450f565b15614371575b50505050565b7f533b013fca2d1f905bfcf844f8e57f1bf74442efd832ecc90ba9cd1d5ac268da93614400916001600160a01b038416600052606d6020526143ce600560406000200182519087518551606086015191604051946142f586610a59565b51935190519060405194859485909493926060926001600160a01b036080840197168352602083015260408201520152565b0390a13880808061436b565b9060005b6001600160a01b038316600052606d6020526004604090808260002001548310156144715782614445918593600020016134b2565b90549060031b1c14614469576144626001600160a01b0391612434565b9050614410565b505050600190565b5050505050600090565b600561419c61449d926001600160a01b0316600052606d602052604060002090565b9182519260005b8481106144b5575050505050600090565b831515806144f8575b806144e1575b156144d3575050505050600190565b6144dc90612434565b6144a4565b508260406144ef8385612dbc565b510151146144c4565b508360206145068385612dbc565b510151146144be565b600561419c614531926001600160a01b0316600052606d602052604060002090565b9182519360005b85811061454a57505050505050600090565b821515806145ba575b806145a3575b1561456957505050505050600190565b8315158061458f575b6145845761457f90612434565b614538565b505050505050600190565b508361459b8287612dbc565b515114614572565b508160406145b18388612dbc565b51015114614559565b508260206145c88388612dbc565b51015114614553565b156145d857565b606460405162461bcd60e51b815260206004820152601460248201527f53425420616c726561647920646566696e6564210000000000000000000000006044820152fd5b9081602091031261000e575190565b506040513d6000823e3d90fd5b60009060033d1161464557565b905060046000803e60005160e01c90565b600060443d106107b957604051600319913d83016004833e815167ffffffffffffffff918282113d6024840111176146b4578184019485519384116146bc573d850101602084870101116146b457506107b992910160200190610ae5565b949350505050565b50949350505050565b8060005260716020526001600160a01b0360406000205416600052606d6020526040600020916040516146f781610a30565b60ff845416151581526001840154936020820194855260ff600282015416926147266040840194859015159052565b60038201549260608101938452614752600561474460048601613612565b9460808401958652016137dd565b9160a082019283526147a761478d6114f461478061479461478d6147808d6000526071602052604060002090565b546001600160a01b031690565b9651151590565b9b519a6000526071602052604060002090565b945193519251919796959493929190565b6001600160a01b0360655491166000526020606d81526040806000209181516147e081610a30565b60ff8454161515815260a0614832600560018701549685850197885261481160ff6002830154168887019015159052565b6003810154606086015261482760048201613612565b6080860152016137dd565b91015260015b8481111561484a575050505050600090565b614866614861826000526068602052604060002090565b612a37565b8451838201518110159081614894575b5061488a575061488590612434565b614838565b9450505050505190565b905084820151101538614876565b604051906148af82610aad565b6000608083828152826020820152606060408201528260608201520152565b90805182556020916001600160a01b03838301511692614908600194858401906001600160a01b03166001600160a01b0319825416179055565b600282019060408401519485519167ffffffffffffffff8311614a3b575b61493a8361493486546124e1565b86612532565b80601f84116001146149be575092828060039461499d9794608097610b149b6000946149b3575b50501b9160001990861b1c19161790555b01926149966149846060830151151590565b859060ff801983541691151516179055565b0151151590565b815461ff00191690151560081b61ff0016179055565b015192503880614961565b9193949596601f1984166149d787600052602060002090565b936000905b828210614a2457505093610b1498979361499d9793608097938360039810614a0c575b505050811b019055614972565b015160001983881b60f8161c191690553880806149ff565b8088869782949787015181550196019401906149dc565b614a43610a19565b614926565b9060026040614a74610b149480549068010000000000000000821015614aae575b600182018155612bea565b939093614aa1575b80518455602081015160018501550151151591019060ff801983541691151516179055565b614aa9612497565b614a7c565b614ab6610a19565b614a69565b90604051614ac881610aad565b608060ff60038395805485526001600160a01b036001820154166020860152614af360028201612993565b604086015201548181161515606085015260081c161515910152565b93909491614b27614b21368585612057565b33615048565b969015614b375750505050505090565b614ba591929394959650614b8c614b72614b4f610b30565b92898452602095614b6b33888701906001600160a01b03169052565b3691610b68565b966040978884015260006060840152608083019015159052565b614ba087600052606f602052604060002090565b6148ce565b60005b838110614bdd57505050505061049181610481614bc76107b99461516d565b6003613fe984600052606f602052604060002090565b614c8390614c056003614bfa89600052606f602052604060002090565b015460081c60ff1690565b15614c8857614c1f614c1882878761349a565b3533614d01565b505b610731614c38886000526070602052604060002090565b614c4183613a76565b90614c7e614c50858a8a61349a565b35614c66614c5f878c8c61349a565b353361440c565b90614c6f610b16565b9485528885015215158a840152565b614a48565b614ba8565b614c96614c5f82878761349a565b50614c21565b6001600160a01b0316600052606d60205260ff6040600020541615614cbd57565b606460405162461bcd60e51b815260206004820152600f60248201527f50617468206e6f742043686f73656e00000000000000000000000000000000006044820152fd5b90614d1b610f4360a0926000526072602052604060002090565b01908151516000925b818410614d345750505050600190565b614d56612248614d45868451612dbc565b51600052606b602052604060002090565b9160005b8351811015614da857614d8b613d56614d738387612dbc565b51516020614d818589612dbc565b510151908861447b565b614d9d57614d9890612434565b614d5a565b505050505050600090565b5093614db5919250612434565b9290614d24565b9190939293614dca33614c9c565b614e616001600160a01b0391614e2f600193614e0e81614e0687614df88b600052606f602052604060002090565b01546001600160a01b031690565b161515614f7d565b3390614e2886614df88a600052606f602052604060002090565b1614614f7d565b614e4b614e46866000526070602052604060002090565b614fc8565b600261375b86600052606f602052604060002090565b614e9560039283614e7c86600052606f602052604060002090565b019061ff00825491151560081b169061ff001916179055565b600080825b614ece575b5050506107b99293509061048161049192614eb98361516d565b90613fe984600052606f602052604060002090565b8651811015614f7857614f5590614ef385614bfa88600052606f602052604060002090565b15614f5b5761073188614f10614f098483612dbc565b5133614d01565b614c7e614f278a6000526070602052604060002090565b91614f3b86614f3581613a76565b95612dbc565b51614f44610b16565b948552602085015215156040840152565b82614e9a565b61073188614f73614f6c8483612dbc565b513361440c565b614f10565b614e9f565b15614f8457565b606460405162461bcd60e51b815260206004820152601160248201527f4a6f75726e6579206e6f7420666f756e640000000000000000000000000000006044820152fd5b805490600080825582614fda57505050565b6001917f55555555555555555555555555555555555555555555555555555555555555558411831661503b575b8152602081209160039384028301925b838110615025575050505050565b8083869255838382015583600282015501615017565b61504361241d565b615007565b9190916150536148a2565b5061505c6148a2565b9060005b61507d826001600160a01b0316600052606e602052604060002090565b54811015615163576001936150bb6150b1836150ac866001600160a01b0316600052606e602052604060002090565b6134b2565b90549060031b1c90565b936000905b6150d4866000526070602052604060002090565b5482101561513e576150e68289612dbc565b516001615101846122b78a6000526070602052604060002090565b50015403615130575061512a61512461049187600052606f602052604060002090565b91612434565b906150c0565b90955061512a600096612434565b93959194505061515a5761515190612434565b92909192615060565b50600193509150565b5050915060009190565b60005b816000526070602052604080600020548210156144695760026151988360ff93600020612bea565b50015416156151af576151aa90612434565b615170565b5050600090565b906000915b6151d8816001600160a01b0316600052606e602052604060002090565b548310156153a8576152046150b1846150ac846001600160a01b0316600052606e602052604060002090565b906003936152288561522085600052606f602052604060002090565b015460ff1690565b61539b57600093845b615245856000526070602052604060002090565b54811015615360576152a4613d5661526b836122b7896000526070602052604060002090565b5061527e613d5660028093015460ff1690565b6152c0575b61529b846122b78a6000526070602052604060002090565b50015460ff1690565b6152b7575b6152b290612434565b615231565b600195506152a9565b6152d88a614bfa8a600052606f602052604060002090565b156153375761533261530660016152fd876122b78d6000526070602052604060002090565b50015489614d01565b8261531f876122b78d6000526070602052604060002090565b50019060ff801983541691151516179055565b615283565b6153326153066001615357876122b78d6000526070602052604060002090565b5001548961440c565b509394615377939192951561537d575b5050612434565b916151bb565b61047361539492600052606f602052604060002090565b3880615370565b9093506153779150612434565b509050565b8054600090818355806153bf57505050565b6001927f3fffffffffffffffffffffffffffffffffffffffffffffffffffffffffffffff8211841661542c575b82526020822092600291821b8401935b84811061540a575050505050565b8084600492558483820155848482015561542660038201612ae8565b016153fc565b61543461241d565b6153ec565b1561544057565b606460405162461bcd60e51b815260206004820152601960248201527f496e76616c6964204d656d6265722f546f6b656e2064617461000000000000006044820152fd5b600092918154615493816124e1565b926001918083169081156154eb57506001146154af5750505050565b90919293945060005260209081600020906000915b8583106154da575050505001903880808061436b565b8054858401529183019181016154c4565b60ff191684525050508115159091020191503880808061436b565b1561550d57565b606460405162461bcd60e51b815260206004820152602060248201527f537472696e67733a20686578206c656e67746820696e73756666696369656e746044820152fd5b615559613161565b908151156155ff575b6030602083015381516001908110156155f2575b90607860218401536029915b80831161559557506107b9915015615506565b90807f3031323334353637383961626364656600000000000000000000000000000000600f6155de931660108110156155e5575b1a6155d48587613ab5565b5360041c92614150565b9190615582565b6155ed612450565b6155c9565b6155fa612450565b615576565b615607612450565b615562565b6040519061561982610a91565b604082527f6768696a6b6c6d6e6f707172737475767778797a303132333435363738392b2f6040837f4142434445464748494a4b4c4d4e4f505152535455565758595a61626364656660208201520152565b8051156157805761567a61560c565b61569661569161568a8451613a8c565b6003900490565b612aaa565b916156a86156a384613a9a565b61317c565b92835280815182019060208501935b82821061572e57505050600390510680600114615703576002146156d9575090565b7f3d0000000000000000000000000000000000000000000000000000000000000090600019015290565b507f3d3d00000000000000000000000000000000000000000000000000000000000090600119015290565b9091936004906003809401938451600190603f9082828260121c16880101518553828282600c1c16880101518386015382828260061c16880101516002860153168501015190820153019391906156b7565b506107b9613134565b6040519061579682610a75565b600f82527f2261747472696275746573223a205b00000000000000000000000000000000006020830152565b9190615846906157d96157d3615789565b94613ad4565b906040916158538351948592613a5d6157f760209a8b870190613833565b7f7b202274726169745f74797065223a224c6576656c222c202276616c7565223a81527f2000000000000000000000000000000000000000000000000000000000000000602082015260210190565b607d60f81b815260010190565b0392615867601f1994858101835282610ae5565b906000915b81518310156159ac576159866159a06159a6926158cb8a6158bf6158968a51948593840190613833565b7f2c7b202274726169745f74797065223a22000000000000000000000000000000815260110190565b03898101835282610ae5565b61591f8a6158bf6001615908816158f66158e58d8d612dbc565b516000526072602052604060002090565b01546000526069602052604060002090565b016159198b51958694850190613833565b90615484565b61595f8a6158bf6159368a51948593840190613833565b7f222c202276616c7565223a2022000000000000000000000000000000000000008152600d0190565b6159758a6158bf60026159086158e58b8b612dbc565b61599487519384928c840190613833565b61227d60f01b815260020190565b03878101835282610ae5565b92612434565b9161586c565b94959150506159f16159c86107b9949351958693840190613833565b7f5d00000000000000000000000000000000000000000000000000000000000000815260010190565b03908101835282610ae5565b60405190615a0a82610a75565b600b82527f22626164676573223a205b0000000000000000000000000000000000000000006020830152565b615a3e6159fd565b6000905b8251821015615e22578115615dda57615a94615a6b91610fe26040519384926020840190613833565b7f2c7b202274726169745f74797065223a22424144474522000000000000000000815260170190565b602080615aa18486612dbc565b510151615c21575b615ab38385612dbc565b5151615acb575b5090615ac590612434565b90615a42565b60409081518093828201615ade91613833565b7f2c202276616c7565223a202200000000000000000000000000000000000000008152600c010391601f19928381018552615b199085610ae5565b615b238587612dbc565b5151615b39906000526072602052604060002090565b600201938151948591848301615b4e91613833565b615b5791615484565b038381018552615b679085610ae5565b80518094838201615b7791613833565b7f222c2022696d616765223a2022000000000000000000000000000000000000008152600d01038381018552615bad9085610ae5565b615bb78587612dbc565b5160600151938151948591848301615bce91613833565b615bd8908a613833565b615be191613833565b038381018552615bf19085610ae5565b519283918201615c0091613833565b61227d60f01b8152600201039081018252615c1b9082610ae5565b38615aba565b9081615c2d8486612dbc565b510151615c3990612d21565b60408381518094828201615c4c91613833565b7f2c202276616c7565223a202200000000000000000000000000000000000000008152600c010392601f19938481018652615c879086610ae5565b01519281615c958789612dbc565b510151615ca190613ad4565b8251948592878401615cb291613833565b615cbb91613833565b7f284c6576656c20000000000000000000000000000000000000000000000000008152600701615cea91613833565b7f29000000000000000000000000000000000000000000000000000000000000008152600101038281018452615d209084610ae5565b80518093858201615d3091613833565b7f222c2022696d616765223a2022000000000000000000000000000000000000008152600d01038281018452615d669084610ae5565b615d708587612dbc565b5160600151928151938491868301615d8791613833565b615d91908a613833565b615d9a91613833565b038281018452615daa9084610ae5565b518092848201615db991613833565b61227d60f01b8152600201039081018252615dd49082610ae5565b90615aa9565b615e1d615df491610fe26040519384926020840190613833565b7f7b202274726169745f74797065223a2242414447452200000000000000000000815260160190565b615a94565b90506159c892506107b99150610fe26040519384926020840190613833565b60405160208101917f19457468657265756d205369676e6564204d6573736167653a0a3332000000008352603c820152603c8152615e7e81610a91565b5190209056fea26469706673582212202e1c95db24ea8f13584e5497b30d1e842fa49022bac0eaccdbc7ed644d4bbf7164736f6c63430008100033"
}