{"_format":"hh-sol-artifact-1","contractName":"LilyPad","sourceName":"contracts/LilyPad.sol","abi":[{"anonymous":false,"inputs":[{"indexed":false,"internalType":"address","name":"member","type":"address"},{"indexed":false,"internalType":"uint256","name":"eventId","type":"uint256"},{"indexed":false,"internalType":"bytes","name":"badgeIdentifier","type":"bytes"},{"indexed":false,"internalType":"string","name":"badgeName","type":"string"}],"name":"BadgeEarned","type":"event"},{"anonymous":false,"inputs":[{"indexed":false,"internalType":"address","name":"member","type":"address"},{"indexed":false,"internalType":"uint256","name":"eventId","type":"uint256"},{"indexed":false,"internalType":"string","name":"eventName","type":"string"}],"name":"EventCompleted","type":"event"},{"anonymous":false,"inputs":[{"indexed":false,"internalType":"address","name":"owner","type":"address"},{"indexed":false,"internalType":"uint256","name":"eventId","type":"uint256"},{"indexed":false,"internalType":"uint256","name":"eventTypeId","type":"uint256"},{"indexed":false,"internalType":"bytes","name":"eventName","type":"bytes"}],"name":"EventSubmited","type":"event"},{"anonymous":false,"inputs":[{"indexed":false,"internalType":"uint8","name":"version","type":"uint8"}],"name":"Initialized","type":"event"},{"anonymous":false,"inputs":[{"indexed":false,"internalType":"address","name":"member","type":"address"},{"indexed":false,"internalType":"uint256","name":"currentXp","type":"uint256"},{"indexed":false,"internalType":"uint256","name":"level","type":"uint256"}],"name":"LevelReached","type":"event"},{"anonymous":false,"inputs":[{"indexed":false,"internalType":"address","name":"member","type":"address"}],"name":"MemberBurned","type":"event"},{"anonymous":false,"inputs":[{"indexed":true,"internalType":"address","name":"previousOwner","type":"address"},{"indexed":true,"internalType":"address","name":"newOwner","type":"address"}],"name":"OwnershipTransferred","type":"event"},{"inputs":[{"internalType":"uint256","name":"_journeyId","type":"uint256"}],"name":"abandonJourney","outputs":[{"components":[{"internalType":"uint256","name":"id","type":"uint256"},{"internalType":"address","name":"member","type":"address"},{"internalType":"bytes","name":"name","type":"bytes"},{"internalType":"bool","name":"done","type":"bool"},{"internalType":"bool","name":"badgeObligatory","type":"bool"}],"internalType":"struct ILilyPad.Journey","name":"","type":"tuple"}],"stateMutability":"nonpayable","type":"function"},{"inputs":[{"internalType":"address","name":"_member","type":"address"},{"components":[{"internalType":"uint256","name":"eventId","type":"uint256"},{"internalType":"bytes","name":"title","type":"bytes"},{"internalType":"bytes","name":"badge","type":"bytes"}],"internalType":"struct ILilyPad.Accolade[]","name":"_badges","type":"tuple[]"},{"internalType":"bytes","name":"_sig","type":"bytes"}],"name":"awardBadge","outputs":[],"stateMutability":"nonpayable","type":"function"},{"inputs":[{"internalType":"address","name":"_member","type":"address"},{"internalType":"uint256","name":"_eventId","type":"uint256"},{"internalType":"bytes","name":"_accoladeTitle","type":"bytes"}],"name":"badgeEarned","outputs":[{"internalType":"bool","name":"","type":"bool"}],"stateMutability":"view","type":"function"},{"inputs":[{"internalType":"address","name":"member","type":"address"}],"name":"burnBabyBurn","outputs":[],"stateMutability":"nonpayable","type":"function"},{"inputs":[{"internalType":"address","name":"_member","type":"address"},{"internalType":"uint256","name":"_eventId","type":"uint256"},{"internalType":"bytes","name":"_sig","type":"bytes"}],"name":"completeEvent","outputs":[],"stateMutability":"nonpayable","type":"function"},{"inputs":[{"internalType":"address","name":"_member","type":"address"},{"internalType":"uint256","name":"_eventId","type":"uint256"}],"name":"completedEvent","outputs":[{"internalType":"bool","name":"","type":"bool"}],"stateMutability":"view","type":"function"},{"inputs":[{"internalType":"uint256","name":"_tokenId","type":"uint256"},{"internalType":"string","name":"_baseUri","type":"string"}],"name":"constructTokenUri","outputs":[{"internalType":"string","name":"","type":"string"}],"stateMutability":"view","type":"function"},{"inputs":[{"components":[{"internalType":"uint256","name":"id","type":"uint256"},{"internalType":"bytes","name":"name","type":"bytes"}],"internalType":"struct ILilyPad.EventType[]","name":"_eventTypes","type":"tuple[]"}],"name":"createEventType","outputs":[],"stateMutability":"nonpayable","type":"function"},{"inputs":[{"internalType":"uint256","name":"_journeyId","type":"uint256"},{"internalType":"bytes","name":"_name","type":"bytes"},{"internalType":"bool","name":"_badgeObligatory","type":"bool"},{"internalType":"uint256[]","name":"_eventId","type":"uint256[]"}],"name":"createJourney","outputs":[{"components":[{"internalType":"uint256","name":"id","type":"uint256"},{"internalType":"address","name":"member","type":"address"},{"internalType":"bytes","name":"name","type":"bytes"},{"internalType":"bool","name":"done","type":"bool"},{"internalType":"bool","name":"badgeObligatory","type":"bool"}],"internalType":"struct ILilyPad.Journey","name":"","type":"tuple"}],"stateMutability":"nonpayable","type":"function"},{"inputs":[{"components":[{"internalType":"uint256","name":"level","type":"uint256"},{"internalType":"uint256","name":"xpInit","type":"uint256"},{"internalType":"uint256","name":"xpFin","type":"uint256"},{"internalType":"bytes","name":"image","type":"bytes"}],"internalType":"struct ILilyPad.Level[]","name":"_levels","type":"tuple[]"}],"name":"createLevel","outputs":[],"stateMutability":"nonpayable","type":"function"},{"inputs":[{"internalType":"uint256","name":"_initialXp","type":"uint256"},{"internalType":"uint256[]","name":"_completedEvents","type":"uint256[]"},{"components":[{"internalType":"uint256","name":"eventId","type":"uint256"},{"internalType":"bytes","name":"title","type":"bytes"},{"internalType":"bytes","name":"badge","type":"bytes"}],"internalType":"struct ILilyPad.Accolade[]","name":"_badges","type":"tuple[]"},{"internalType":"bytes","name":"_sig","type":"bytes"}],"name":"createMember","outputs":[],"stateMutability":"nonpayable","type":"function"},{"inputs":[{"internalType":"uint256","name":"_id","type":"uint256"}],"name":"getEvent","outputs":[{"internalType":"uint256","name":"eventTypeId","type":"uint256"},{"internalType":"uint256","name":"xp","type":"uint256"},{"components":[{"internalType":"uint256","name":"eventId","type":"uint256"},{"internalType":"bytes","name":"title","type":"bytes"},{"internalType":"bytes","name":"badge","type":"bytes"}],"internalType":"struct ILilyPad.Accolade[]","name":"accolades","type":"tuple[]"}],"stateMutability":"view","type":"function"},{"inputs":[{"internalType":"uint256","name":"_eventTypeId","type":"uint256"}],"name":"getEventType","outputs":[{"components":[{"internalType":"uint256","name":"id","type":"uint256"},{"internalType":"bytes","name":"name","type":"bytes"}],"internalType":"struct ILilyPad.EventType","name":"","type":"tuple"}],"stateMutability":"view","type":"function"},{"inputs":[{"internalType":"uint256","name":"_levelId","type":"uint256"}],"name":"getLevel","outputs":[{"components":[{"internalType":"uint256","name":"level","type":"uint256"},{"internalType":"uint256","name":"xpInit","type":"uint256"},{"internalType":"uint256","name":"xpFin","type":"uint256"},{"internalType":"bytes","name":"image","type":"bytes"}],"internalType":"struct ILilyPad.Level","name":"","type":"tuple"}],"stateMutability":"view","type":"function"},{"inputs":[{"internalType":"address","name":"_memberAddress","type":"address"}],"name":"getMember","outputs":[{"internalType":"bool","name":"pathChosen","type":"bool"},{"internalType":"uint256","name":"xp","type":"uint256"},{"internalType":"uint256","name":"level","type":"uint256"},{"internalType":"bool","name":"DAO","type":"bool"},{"internalType":"uint256","name":"tokenId","type":"uint256"},{"internalType":"uint256[]","name":"completedEvents","type":"uint256[]"},{"components":[{"internalType":"uint256","name":"eventId","type":"uint256"},{"internalType":"bytes","name":"title","type":"bytes"},{"internalType":"bytes","name":"badge","type":"bytes"}],"internalType":"struct ILilyPad.Accolade[]","name":"badges","type":"tuple[]"}],"stateMutability":"view","type":"function"},{"inputs":[{"internalType":"uint256","name":"_tokenId","type":"uint256"}],"name":"getMemberByTokenId","outputs":[{"internalType":"address","name":"memberAddress","type":"address"},{"internalType":"bool","name":"pathChosen","type":"bool"},{"internalType":"uint256","name":"xp","type":"uint256"},{"internalType":"uint256","name":"level","type":"uint256"},{"internalType":"bool","name":"DAO","type":"bool"},{"internalType":"uint256","name":"tokenId","type":"uint256"},{"internalType":"uint256[]","name":"completedEvents","type":"uint256[]"},{"components":[{"internalType":"uint256","name":"eventId","type":"uint256"},{"internalType":"bytes","name":"title","type":"bytes"},{"internalType":"bytes","name":"badge","type":"bytes"}],"internalType":"struct ILilyPad.Accolade[]","name":"badges","type":"tuple[]"}],"stateMutability":"view","type":"function"},{"inputs":[{"internalType":"address","name":"_memberAddress","type":"address"}],"name":"getMemberLevel","outputs":[{"internalType":"uint256","name":"","type":"uint256"}],"stateMutability":"view","type":"function"},{"inputs":[{"internalType":"address","name":"_memberAddress","type":"address"}],"name":"getTokenId","outputs":[{"internalType":"uint256","name":"","type":"uint256"}],"stateMutability":"view","type":"function"},{"inputs":[{"components":[{"internalType":"uint256","name":"level","type":"uint256"},{"internalType":"uint256","name":"xpInit","type":"uint256"},{"internalType":"uint256","name":"xpFin","type":"uint256"},{"internalType":"bytes","name":"image","type":"bytes"}],"internalType":"struct ILilyPad.Level[]","name":"_levels","type":"tuple[]"},{"components":[{"internalType":"uint256","name":"id","type":"uint256"},{"internalType":"bytes","name":"name","type":"bytes"}],"internalType":"struct ILilyPad.EventType[]","name":"_eventTypes","type":"tuple[]"},{"internalType":"address","name":"_safeCaller","type":"address"}],"name":"initialize","outputs":[],"stateMutability":"nonpayable","type":"function"},{"inputs":[{"internalType":"address","name":"_member","type":"address"},{"internalType":"uint256","name":"_currentXp","type":"uint256"},{"internalType":"bytes","name":"_sig","type":"bytes"}],"name":"levelMember","outputs":[],"stateMutability":"nonpayable","type":"function"},{"inputs":[{"internalType":"address","name":"_memberAddress","type":"address"}],"name":"mintTokenForMember","outputs":[],"stateMutability":"payable","type":"function"},{"inputs":[],"name":"owner","outputs":[{"internalType":"address","name":"","type":"address"}],"stateMutability":"view","type":"function"},{"inputs":[],"name":"renounceOwnership","outputs":[],"stateMutability":"nonpayable","type":"function"},{"inputs":[],"name":"safeCaller","outputs":[{"internalType":"address","name":"","type":"address"}],"stateMutability":"view","type":"function"},{"inputs":[],"name":"sbtAddress","outputs":[{"internalType":"contract IPondSBT","name":"","type":"address"}],"stateMutability":"view","type":"function"},{"inputs":[{"internalType":"contract IPondSBT","name":"_newSbtAddress","type":"address"}],"name":"setSbtAddress","outputs":[],"stateMutability":"nonpayable","type":"function"},{"inputs":[{"internalType":"uint256","name":"_eventId","type":"uint256"},{"internalType":"uint256","name":"_eventTypeId","type":"uint256"},{"internalType":"bytes","name":"_eventName","type":"bytes"},{"internalType":"uint256","name":"_xp","type":"uint256"},{"components":[{"internalType":"uint256","name":"eventId","type":"uint256"},{"internalType":"bytes","name":"title","type":"bytes"},{"internalType":"bytes","name":"badge","type":"bytes"}],"internalType":"struct ILilyPad.Accolade[]","name":"_accolades","type":"tuple[]"},{"internalType":"bytes","name":"_sig","type":"bytes"}],"name":"submitEvent","outputs":[],"stateMutability":"nonpayable","type":"function"},{"inputs":[{"internalType":"address","name":"newOwner","type":"address"}],"name":"transferOwnership","outputs":[],"stateMutability":"nonpayable","type":"function"},{"inputs":[{"internalType":"uint256","name":"_id","type":"uint256"},{"internalType":"uint256","name":"_eventTypeId","type":"uint256"},{"internalType":"bytes","name":"_eventName","type":"bytes"},{"internalType":"uint256","name":"_xp","type":"uint256"},{"components":[{"internalType":"uint256","name":"eventId","type":"uint256"},{"internalType":"bytes","name":"title","type":"bytes"},{"internalType":"bytes","name":"badge","type":"bytes"}],"internalType":"struct ILilyPad.Accolade[]","name":"_accolades","type":"tuple[]"},{"internalType":"bytes","name":"_sig","type":"bytes"}],"name":"updateEvent","outputs":[],"stateMutability":"nonpayable","type":"function"},{"inputs":[{"internalType":"uint256","name":"_journeyId","type":"uint256"},{"internalType":"bytes","name":"_name","type":"bytes"},{"internalType":"bool","name":"_badgeObligatory","type":"bool"},{"internalType":"uint256[]","name":"_eventsId","type":"uint256[]"}],"name":"updateJourney","outputs":[{"components":[{"internalType":"uint256","name":"id","type":"uint256"},{"internalType":"address","name":"member","type":"address"},{"internalType":"bytes","name":"name","type":"bytes"},{"internalType":"bool","name":"done","type":"bool"},{"internalType":"bool","name":"badgeObligatory","type":"bool"}],"internalType":"struct ILilyPad.Journey","name":"","type":"tuple"}],"stateMutability":"nonpayable","type":"function"},{"inputs":[{"internalType":"address","name":"_memberAddress","type":"address"},{"internalType":"bool","name":"_dao","type":"bool"},{"internalType":"uint256","name":"_xp","type":"uint256"},{"internalType":"uint256[]","name":"_completedEvents","type":"uint256[]"},{"components":[{"internalType":"uint256","name":"eventId","type":"uint256"},{"internalType":"bytes","name":"title","type":"bytes"},{"internalType":"bytes","name":"badge","type":"bytes"}],"internalType":"struct ILilyPad.Accolade[]","name":"_badges","type":"tuple[]"},{"internalType":"bytes","name":"_sig","type":"bytes"}],"name":"updateMember","outputs":[],"stateMutability":"nonpayable","type":"function"},{"inputs":[{"internalType":"address","name":"_newSafeCaller","type":"address"}],"name":"updateSafeCaller","outputs":[],"stateMutability":"nonpayable","type":"function"}],"bytecode":"0x608060405234801561001057600080fd5b50615f5480620000216000396000f3fe6080604052600436106101e35760003560e01c8063715018a611610102578063af5c901711610095578063f153768611610064578063f1537686146105f9578063f2fde38b14610632578063f311601114610652578063fb6447ce1461067257600080fd5b8063af5c901714610579578063c738b74214610599578063c8318815146105b9578063f125123f146105d957600080fd5b806386481d40116100d157806386481d40146104ee5780638da5cb5b1461051b578063989147b314610539578063abafb3241461055957600080fd5b8063715018a61461047957806374ab2f151461048e578063792110ee146104ae578063827a421f146104ce57600080fd5b806351cb31471161017a578063633927dd11610149578063633927dd146103e75780636469f559146103fa5780636ac2c6c71461042a5780636d1884e01461044a57600080fd5b806351cb31471461034c57806352207b271461036c57806354683cac1461039957806359269e67146103b957600080fd5b806328227df1116101b657806328227df1146102985780632ada2596146102c5578063320b9ba3146102f857806345a059761461031857600080fd5b806308f263a7146101e857806310d0a6391461021e57806312d21a34146102405780631fc64fe314610260575b600080fd5b3480156101f457600080fd5b5061020861020336600461463d565b610692565b60405161021591906146a6565b60405180910390f35b34801561022a57600080fd5b5061023e610239366004614844565b610839565b005b34801561024c57600080fd5b5061023e61025b3660046148e0565b610946565b34801561026c57600080fd5b50606654610280906001600160a01b031681565b6040516001600160a01b039091168152602001610215565b3480156102a457600080fd5b506102b86102b336600461463d565b610aa0565b6040516102159190614921565b3480156102d157600080fd5b506102e56102e0366004614946565b610b76565b6040516102159796959493929190614a24565b34801561030457600080fd5b5061023e610313366004614c1e565b610dd3565b34801561032457600080fd5b5061033861033336600461463d565b611006565b604051610215989796959493929190614cd1565b34801561035857600080fd5b5061023e610367366004614844565b6112b1565b34801561037857600080fd5b5061038c610387366004614d38565b611367565b6040516102159190614d92565b3480156103a557600080fd5b5061023e6103b4366004614946565b6114a0565b3480156103c557600080fd5b506103d96103d4366004614946565b6114ca565b604051908152602001610215565b61023e6103f5366004614946565b611574565b34801561040657600080fd5b5061041a610415366004614844565b6116d0565b6040519015158152602001610215565b34801561043657600080fd5b5061041a610445366004614da5565b6117d8565b34801561045657600080fd5b5061046a61046536600461463d565b611865565b60405161021593929190614dd1565b34801561048557600080fd5b5061023e611ae3565b34801561049a57600080fd5b5061023e6104a9366004614df9565b611af7565b3480156104ba57600080fd5b506102086104c9366004614e64565b611b85565b3480156104da57600080fd5b5061023e6104e93660046148e0565b611e9d565b3480156104fa57600080fd5b5061050e61050936600461463d565b61211d565b6040516102159190614ee1565b34801561052757600080fd5b506033546001600160a01b0316610280565b34801561054557600080fd5b50606754610280906001600160a01b031681565b34801561056557600080fd5b5061023e610574366004614946565b612194565b34801561058557600080fd5b5061023e610594366004614f1a565b6122ad565b3480156105a557600080fd5b5061023e6105b436600461504e565b612551565b3480156105c557600080fd5b5061023e6105d4366004614946565b6127fd565b3480156105e557600080fd5b5061023e6105f436600461518e565b612827565b34801561060557600080fd5b506103d9610614366004614946565b6001600160a01b03166000908152606a602052604090206003015490565b34801561063e57600080fd5b5061023e61064d366004614946565b61285e565b34801561065e57600080fd5b5061020861066d366004614e64565b6128d4565b34801561067e57600080fd5b5061023e61068d366004614f1a565b612bbf565b61069a6144f6565b6106a333612ead565b6000828152606c60205260409020600101546001600160a01b03166106e35760405162461bcd60e51b81526004016106da90615213565b60405180910390fd5b6000828152606c60205260409020600101546001600160a01b0316331461071c5760405162461bcd60e51b81526004016106da90615213565b6000828152606d6020526040812061073391614532565b6000828152606c602090815260409182902060038101805460ff19166001908117909155835160a08101855282548152908201546001600160a01b031692810192909252600281018054929391929184019161078e9061523e565b80601f01602080910402602001604051908101604052809291908181526020018280546107ba9061523e565b80156108075780601f106107dc57610100808354040283529160200191610807565b820191906000526020600020905b8154815290600101906020018083116107ea57829003601f168201915b50505091835250506003919091015460ff8082161515602084015261010090910416151560409091015290505b919050565b6040516bffffffffffffffffffffffff19606085901b166020820152603481018390526108c4906054015b60408051601f1981840301815282825280516020918201207f19457468657265756d205369676e6564204d6573736167653a0a33320000000084830152603c8085019190915282518085039091018152605c909301909152815191012090565b816108cf8282612f07565b6001600160a01b0385166000908152606a602052604090205460ff1661092a5760405162461bcd60e51b815260206004820152601060248201526f50617468206e6f742063686f73656e2160801b60448201526064016106da565b5050336000908152606a60205260409020600101919091555050565b61094e612f77565b60005b81811015610a9b576069600084848481811061096f5761096f615278565b9050602002810190610981919061528e565b60000135815260200190815260200160002060000154600003610a0d578282828181106109b0576109b0615278565b90506020028101906109c2919061528e565b606960008585858181106109d8576109d8615278565b90506020028101906109ea919061528e565b3581526020810191909152604001600020610a058282615408565b905050610a89565b828282818110610a1f57610a1f615278565b9050602002810190610a31919061528e565b610a3f9060208101906152ae565b60696000868686818110610a5557610a55615278565b9050602002810190610a67919061528e565b358152602081019190915260400160002060010191610a8791908361534f565b505b80610a93816154eb565b915050610951565b505050565b6040805180820190915260008152606060208201526069600083815260200190815260200160002060405180604001604052908160008201548152602001600182018054610aed9061523e565b80601f0160208091040260200160405190810160405280929190818152602001828054610b199061523e565b8015610b665780601f10610b3b57610100808354040283529160200191610b66565b820191906000526020600020905b815481529060010190602001808311610b4957829003601f168201915b5050505050815250509050919050565b6001600160a01b0381166000908152606a6020526040812080546001909101548291829182918291606091829160ff90911690610bb28a6114ca565b6001600160a01b038b166000908152606a60209081526040918290206002810154600382015460048301805486518187028101870190975280875260ff9093169591949093600501928491830182828015610c2c57602002820191906000526020600020905b815481526020019060010190808311610c18575b5050505050915080805480602002602001604051908101604052809291908181526020016000905b82821015610db4578382906000526020600020906003020160405180606001604052908160008201548152602001600182018054610c919061523e565b80601f0160208091040260200160405190810160405280929190818152602001828054610cbd9061523e565b8015610d0a5780601f10610cdf57610100808354040283529160200191610d0a565b820191906000526020600020905b815481529060010190602001808311610ced57829003601f168201915b50505050508152602001600282018054610d239061523e565b80601f0160208091040260200160405190810160405280929190818152602001828054610d4f9061523e565b8015610d9c5780601f10610d7157610100808354040283529160200191610d9c565b820191906000526020600020905b815481529060010190602001808311610d7f57829003601f168201915b50505050508152505081526020019060010190610c54565b5050505090509650965096509650965096509650919395979092949650565b610df786868686610de387612fd1565b604051602001610864959493929190615545565b81610e028282612f07565b6001600160a01b0388166000908152606a602052604090205460ff16610e3357610e2e88878787613081565b610ffc565b6001600160a01b0388166000908152606a60205260408120805460ff8116151560ff19918216178255600182018990556002820180548b15159216919091179055610e8391600490910190614553565b60005b8551811015610efa57606a60008a6001600160a01b03166001600160a01b03168152602001908152602001600020600401868281518110610ec957610ec9615278565b6020908102919091018101518254600181018455600093845291909220015580610ef2816154eb565b915050610e86565b5060005b8551811015610f6557610f2a89878381518110610f1d57610f1d615278565b60200260200101516117d8565b610f5357610f5389878381518110610f4457610f44615278565b60200260200101516000613249565b80610f5d816154eb565b915050610efe565b5060005b8451811015610ff257610fb789868381518110610f8857610f88615278565b602002602001015160000151878481518110610fa657610fa6615278565b6020026020010151602001516116d0565b610fe057610fe089868381518110610fd157610fd1615278565b602002602001015160006133a6565b80610fea816154eb565b915050610f69565b50610ffc88613562565b5050505050505050565b6000818152606f60209081526040808320546001600160a01b03168352606a8252808320815160c081018352815460ff90811615158252600183015482860152600283015416151581840152600382015460608281019190915260048301805485518188028101880190965280865287968796879687968796958695889592946080860193909291908301828280156110be57602002820191906000526020600020905b8154815260200190600101908083116110aa575b5050505050815260200160058201805480602002602001604051908101604052809291908181526020016000905b8282101561124c5783829060005260206000209060030201604051806060016040529081600082015481526020016001820180546111299061523e565b80601f01602080910402602001604051908101604052809291908181526020018280546111559061523e565b80156111a25780601f10611177576101008083540402835291602001916111a2565b820191906000526020600020905b81548152906001019060200180831161118557829003601f168201915b505050505081526020016002820180546111bb9061523e565b80601f01602080910402602001604051908101604052809291908181526020018280546111e79061523e565b80156112345780601f1061120957610100808354040283529160200191611234565b820191906000526020600020905b81548152906001019060200180831161121757829003601f168201915b505050505081525050815260200190600101906110ec565b5050509152505060008b8152606f60209081526040909120548251918301519293506001600160a01b031691611281836114ca565b8460400151856060015186608001518760a001519850985098509850985098509850985050919395975091939597565b6040516bffffffffffffffffffffffff19606085901b166020820152603481018390526112e090605401610864565b816112eb8282612f07565b6001600160a01b0385166000908152606a602052604090205460ff166113465760405162461bcd60e51b815260206004820152601060248201526f50617468206e6f742063686f73656e2160801b60448201526064016106da565b61135085856117d8565b6113605761136085856001613249565b5050505050565b6060600080600061137786611006565b9750975050505050509250600086116113d25760405162461bcd60e51b815260206004820152601960248201527f496e76616c6964204d656d6265722f546f6b656e20646174610000000000000060448201526064016106da565b6114756113de876137e1565b6113f2856001600160a01b031660146138e1565b8760686000611400896114ca565b8152602001908152602001600020600301604051602001611422929190615609565b60405160208183030381529060405261144361143d886114ca565b87613a7c565b61144d868b613c3a565b604051602001611461959493929190615627565b604051602081830303815290604052613db8565b6040516020016114859190615728565b60405160208183030381529060405293505050505b92915050565b6114a8612f77565b606780546001600160a01b0319166001600160a01b0392909216919091179055565b600060015b606554811161156b5760008181526068602090815260408083206001908101546001600160a01b0388168552606a9093529220909101541080159061153f57506000818152606860209081526040808320600201546001600160a01b0387168452606a9092529091206001015411155b156115595760009081526068602052604090205492915050565b80611563816154eb565b9150506114cf565b50600092915050565b6001600160a01b0381166000908152606a6020526040902060030154156115d45760405162461bcd60e51b815260206004820152601460248201527353425420616c726561647920646566696e65642160601b60448201526064016106da565b60675460405163534203fb60e11b81526001600160a01b0383811660048301529091169063a68407f690349060240160206040518083038185885af19350505050801561163e575060408051601f3d908101601f1916820190925261163b9181019061576d565b60015b61168f5761164a615786565b806308c379a003611683575061165e6157a2565b806116695750611685565b8060405162461bcd60e51b81526004016106da9190614d92565b505b3d6000803e3d6000fd5b6001600160a01b0382166000818152606a60209081526040808320600301859055938252606f90529190912080546001600160a01b03191690911790555b50565b6000805b6001600160a01b0385166000908152606a60205260409020600501548110156117cb576001600160a01b0385166000908152606a6020526040902060050180548591908390811061172757611727615278565b9060005260206000209060030201600001541480156117aa57508280519060200120606a6000876001600160a01b03166001600160a01b03168152602001908152602001600020600501828154811061178257611782615278565b90600052602060002090600302016001016040516117a0919061582b565b6040518091039020145b156117b95760019150506117d1565b806117c3816154eb565b9150506116d4565b50600090505b9392505050565b6000805b6001600160a01b0384166000908152606a602052604090206004015481101561185b576001600160a01b0384166000908152606a6020526040902060040180548491908390811061182f5761182f615278565b90600052602060002001540361184957600191505061149a565b80611853816154eb565b9150506117dc565b5060009392505050565b60008060606000607060008681526020019081526020016000206040518060a001604052908160008201548152602001600182015481526020016002820180546118ae9061523e565b80601f01602080910402602001604051908101604052809291908181526020018280546118da9061523e565b80156119275780601f106118fc57610100808354040283529160200191611927565b820191906000526020600020905b81548152906001019060200180831161190a57829003601f168201915b505050505081526020016003820154815260200160048201805480602002602001604051908101604052809291908181526020016000905b82821015611abf57838290600052602060002090600302016040518060600160405290816000820154815260200160018201805461199c9061523e565b80601f01602080910402602001604051908101604052809291908181526020018280546119c89061523e565b8015611a155780601f106119ea57610100808354040283529160200191611a15565b820191906000526020600020905b8154815290600101906020018083116119f857829003601f168201915b50505050508152602001600282018054611a2e9061523e565b80601f0160208091040260200160405190810160405280929190818152602001828054611a5a9061523e565b8015611aa75780601f10611a7c57610100808354040283529160200191611aa7565b820191906000526020600020905b815481529060010190602001808311611a8a57829003601f168201915b5050505050815250508152602001906001019061195f565b50505091525050602081015160608201516080909201519097919650945092505050565b611aeb612f77565b611af56000613f1c565b565b611b1583611b0484612fd1565b604051602001610864929190615837565b81611b208282612f07565b60005b8451811015611b7d57611b4286868381518110610f8857610f88615278565b611b6b57611b6b86868381518110611b5c57611b5c615278565b602002602001015160016133a6565b80611b75816154eb565b915050611b23565b505050505050565b611b8d6144f6565b611b9633612ead565b600080611ba33385613f6e565b915091508115611bb6579150611e959050565b6040805160a0810182528881523360208083019182528284018a81526000606085018190528a151560808601528c8152606c9092529390208251815590516001820180546001600160a01b0319166001600160a01b0390921691909117905591519091906002820190611c29908261586f565b5060608201516003909101805460809093015115156101000261ff00199215159290921661ffff199093169290921717905560005b8451811015611d82576000888152606c6020526040812060030154610100900460ff1615611cb057611ca933878481518110611c9c57611c9c615278565b602002602001015161418f565b9050611cc9565b611cc633878481518110610f1d57610f1d615278565b90505b6000898152606d6020526040908190208151606081019092529080611cef856001615928565b8152602001888581518110611d0657611d06615278565b60200260200101518152602001611d29338a8781518110610f1d57610f1d615278565b15159052815460018082018455600093845260209384902083516003909302019182559282015192810192909255604001516002909101805460ff19169115159190911790555080611d7a816154eb565b915050611c5e565b50611d8c87614370565b6000888152606c602090815260409182902060038101805460ff191694151594909417909355815160a0810183528354815260018401546001600160a01b031691810191909152600283018054919392840191611de89061523e565b80601f0160208091040260200160405190810160405280929190818152602001828054611e149061523e565b8015611e615780601f10611e3657610100808354040283529160200191611e61565b820191906000526020600020905b815481529060010190602001808311611e4457829003601f168201915b50505091835250506003919091015460ff808216151560208401526101009091041615156040909101529250611e95915050565b949350505050565b611ea5612f77565b60005b81811015610a9b5760686000848484818110611ec657611ec6615278565b9050602002810190611ed8919061593b565b60000135815260200190815260200160002060000154600003611fc557828282818110611f0757611f07615278565b9050602002810190611f19919061593b565b60686000858585818110611f2f57611f2f615278565b9050602002810190611f41919061593b565b3581526020810191909152604001600020611f5c8282615951565b905050828282818110611f7157611f71615278565b9050602002810190611f83919061593b565b6000013560655410611f9757606554611fbd565b828282818110611fa957611fa9615278565b9050602002810190611fbb919061593b565b355b60655561210b565b828282818110611fd757611fd7615278565b9050602002810190611fe9919061593b565b602001356068600085858581811061200357612003615278565b9050602002810190612015919061593b565b35815260208101919091526040016000206001015582828281811061203c5761203c615278565b905060200281019061204e919061593b565b604001356068600085858581811061206857612068615278565b905060200281019061207a919061593b565b3581526020810191909152604001600020600201558282828181106120a1576120a1615278565b90506020028101906120b3919061593b565b6120c19060608101906152ae565b606860008686868181106120d7576120d7615278565b90506020028101906120e9919061593b565b35815260208101919091526040016000206003019161210991908361534f565b505b80612115816154eb565b915050611ea8565b6121486040518060800160405280600081526020016000815260200160008152602001606081525090565b60686000838152602001908152602001600020604051806080016040529081600082015481526020016001820154815260200160028201548152602001600382018054610aed9061523e565b6067546001600160a01b0316331461220a5760405162461bcd60e51b815260206004820152603360248201527f4c696c795061643a3a4f6e6c792053425420436f6e74726163742063616e206360448201527230b6361036b2b73132b939b434b810313ab93760691b60648201526084016106da565b6001600160a01b0381166000908152606a60205260408120805460ff19168155600181018290556003810182905561224791600490910190614553565b6001600160a01b0381166000908152606a6020526040812061226e91600590910190614571565b6040516001600160a01b03821681527f7832841b27381cc9b824718ee239279b2e9c0a1ba515ff4759cb07d8afba6da09060200160405180910390a150565b6122d1868686866122bd87612fd1565b604051602001610864959493929190615a31565b816122dc8282612f07565b600088815260706020526040902054156123305760405162461bcd60e51b8152602060048201526015602482015274115d995b9d08185b1c9958591e4818dc99585d1959605a1b60448201526064016106da565b6000888152607060205260409020888155600181018890556003810186905560020161235c878261586f565b5060005b845181101561250957607060008a815260200190815260200160002060040160405180606001604052808b81526020018784815181106123a2576123a2615278565b60200260200101516020015181526020018784815181106123c5576123c5615278565b60209081029190910181015160400151909152825460018181018555600094855293829020835160039092020190815590820151919290919082019061240b908261586f565b5060408201516002820190612420908261586f565b50505060405180606001604052808a815260200186838151811061244657612446615278565b602002602001015160200151815260200186838151811061246957612469615278565b602002602001015160400151815250607160008b815260200190815260200160002086838151811061249d5761249d615278565b6020026020010151602001516040516124b69190615a7c565b90815260405160209181900382019020825181559082015160018201906124dd908261586f565b50604082015160028201906124f2908261586f565b509050508080612501906154eb565b915050612360565b507f1abd60720207a16761b9322f8b67c8d0df9ace2c2f355828a65268420f5b1bd23389898960405161253f9493929190615a8e565b60405180910390a15050505050505050565b600054610100900460ff16158080156125715750600054600160ff909116105b8061258b5750303b15801561258b575060005460ff166001145b6125ee5760405162461bcd60e51b815260206004820152602e60248201527f496e697469616c697a61626c653a20636f6e747261637420697320616c72656160448201526d191e481a5b9a5d1a585b1a5e995960921b60648201526084016106da565b6000805460ff191660011790558015612611576000805461ff0019166101001790555b60005b84518110156127005784818151811061262f5761262f615278565b60200260200101516068600087848151811061264d5761264d615278565b6020026020010151600001518152602001908152602001600020600082015181600001556020820151816001015560408201518160020155606082015181600301908161269a919061586f565b509050508481815181106126b0576126b0615278565b602002602001015160000151606554106126cc576065546126eb565b8481815181106126de576126de615278565b6020026020010151600001515b606555806126f8816154eb565b915050612614565b5060005b835181101561278d5783818151811061271f5761271f615278565b60200260200101516069600086848151811061273d5761273d615278565b6020026020010151600001518152602001908152602001600020600082015181600001556020820151816001019081612776919061586f565b509050508080612785906154eb565b915050612704565b506127966143e9565b606680546001600160a01b0319166001600160a01b03841617905580156127f7576000805461ff0019169055604051600181527f7f26b83ff96e1f2b6a682f133852f6798a09c465da95921460cefb38474024989060200160405180910390a15b50505050565b612805612f77565b606680546001600160a01b0319166001600160a01b0392909216919091179055565b612847848461283585612fd1565b60405160200161086493929190615ac5565b816128528282612f07565b611b7d33878787613081565b612866612f77565b6001600160a01b0381166128cb5760405162461bcd60e51b815260206004820152602660248201527f4f776e61626c653a206e6577206f776e657220697320746865207a65726f206160448201526564647265737360d01b60648201526084016106da565b6116cd81613f1c565b6128dc6144f6565b6128e533612ead565b6000858152606c60205260409020600101546001600160a01b031661291c5760405162461bcd60e51b81526004016106da90615213565b6000858152606c60205260409020600101546001600160a01b031633146129555760405162461bcd60e51b81526004016106da90615213565b6000858152606d6020526040812061296c91614532565b6000858152606c60205260409020600201612987858261586f565b506000858152606c60205260408120600301805461ff001916610100861515021790555b8251811015612aad576000868152606c6020526040812060030154610100900460ff16156129f0576129e933858481518110611c9c57611c9c615278565b9050612a09565b612a0633858481518110610f1d57610f1d615278565b90505b6000878152606d6020526040908190208151606081019092529080612a2f856001615928565b8152602001868581518110612a4657612a46615278565b60209081029190910181015182529315159084015281546001808201845560009384529284902082516003909202019081559281015191830191909155604001516002909101805460ff191691151591909117905580612aa5816154eb565b9150506129ab565b50612ab785614370565b6000868152606c602090815260409182902060038101805460ff191694151594909417909355815160a0810183528354815260018401546001600160a01b031691810191909152600283018054919392840191612b139061523e565b80601f0160208091040260200160405190810160405280929190818152602001828054612b3f9061523e565b8015612b8c5780601f10612b6157610100808354040283529160200191612b8c565b820191906000526020600020905b815481529060010190602001808311612b6f57829003601f168201915b50505091835250506003919091015460ff8082161515602084015261010090910416151560409091015295945050505050565b612be1868685612bce86612fd1565b6040516020016108649493929190615af1565b81612bec8282612f07565b60008881526070602052604090206003810186905560018101889055600201612c15878261586f565b506000888152607060205260408120612c3391600490910190614571565b60005b8451811015612ea25788858281518110612c5257612c52615278565b60200260200101516000015114612cab5760405162461bcd60e51b815260206004820152601d60248201527f496e76616c6964206576656e7420696420696e206163636f6c6164652100000060448201526064016106da565b607060008a81526020019081526020016000206004016040518060600160405280878481518110612cde57612cde615278565b6020026020010151600001518152602001878481518110612d0157612d01615278565b6020026020010151602001518152602001878481518110612d2457612d24615278565b602090810291909101810151604001519091528254600181810185556000948552938290208351600390920201908155908201519192909190820190612d6a908261586f565b5060408201516002820190612d7f908261586f565b5050506040518060600160405280868381518110612d9f57612d9f615278565b6020026020010151600001518152602001868381518110612dc257612dc2615278565b6020026020010151602001518152602001868381518110612de557612de5615278565b60200260200101516040015181525060716000878481518110612e0a57612e0a615278565b6020026020010151600001518152602001908152602001600020868381518110612e3657612e36615278565b602002602001015160200151604051612e4f9190615a7c565b9081526040516020918190038201902082518155908201516001820190612e76908261586f565b5060408201516002820190612e8b908261586f565b509050508080612e9a906154eb565b915050612c36565b505050505050505050565b6001600160a01b0381166000908152606a602052604090205460ff166116cd5760405162461bcd60e51b815260206004820152600f60248201526e2830ba34103737ba1021b437b9b2b760891b60448201526064016106da565b6066546001600160a01b0316612f1d8383614418565b6001600160a01b031614612f735760405162461bcd60e51b815260206004820152601c60248201527f4920646f6e27742074616b65206f72646572732066726f6d20796f750000000060448201526064016106da565b5050565b6033546001600160a01b03163314611af55760405162461bcd60e51b815260206004820181905260248201527f4f776e61626c653a2063616c6c6572206973206e6f7420746865206f776e657260448201526064016106da565b60608060005b835181101561307a5781613007858381518110612ff657612ff6615278565b6020026020010151600001516137e1565b85838151811061301957613019615278565b60200260200101516020015186848151811061303757613037615278565b6020026020010151604001516040516020016130569493929190615b25565b60405160208183030381529060405291508080613072906154eb565b915050612fd7565b5092915050565b6001600160a01b0384166000908152606a602052604090205460ff16156130e05760405162461bcd60e51b81526020600482015260136024820152722830ba341020b63932b0b23c9021b437b9b2b760691b60448201526064016106da565b6001600160a01b0384166000908152606a602052604081208054600160ff1991821681178355820186905560028201805490911690556003018190555b825181101561319157606a6000866001600160a01b03166001600160a01b0316815260200190815260200160002060040183828151811061316057613160615278565b6020908102919091018101518254600181018455600093845291909220015580613189816154eb565b91505061311d565b5060005b815181101561323f57606a6000866001600160a01b03166001600160a01b031681526020019081526020016000206005018282815181106131d8576131d8615278565b6020908102919091018101518254600181810185556000948552938390208251600390920201908155918101519092820190613214908261586f565b5060408201516002820190613229908261586f565b5050508080613237906154eb565b915050613195565b506127f784613562565b6000613254846114ca565b6001600160a01b0385166000818152606a6020818152604080842060048101805460018181018355918752848720018b90558a865260708452918520600301549585529290915201805493945091926132ae908490615928565b909155505081156132c2576132c284613562565b7f593c8b850cae6a478ff8850060a058179997558d3e942a5c3ecd27cc68d6269584846070600087815260200190815260200160002060020160405160200161330b919061582b565b60408051601f1981840301815290829052613327939291615b7c565b60405180910390a1600061333a856114ca565b905081811115611360576001600160a01b0385166000818152606a60209081526040918290206001015482519384529083015281018290527fa7792332f0075457196fdfdfc63fafecd0d71f0c53de7d5b25e36c23804e12219060600160405180910390a15050505050565b6001600160a01b0383166000908152606a6020908152604080832081516060810183528651815286840180518286015287518652607190945293829020925182516005909201949392840192916133fd9190615a7c565b908152602001604051809103902060020180546134199061523e565b80601f01602080910402602001604051908101604052809291908181526020018280546134459061523e565b80156134925780601f1061346757610100808354040283529160200191613492565b820191906000526020600020905b81548152906001019060200180831161347557829003601f168201915b505050919092525050815460018181018455600093845260209384902083516003909302019182559282015191929091908201906134d0908261586f565b50604082015160028201906134e5908261586f565b50505080156134f7576134f783613562565b7ff318ba2616d00700a728c3d0c944d05238be24007048584d40a29ce854511e6f838360000151846020015185602001516040516020016135389190615a7c565b60408051601f198184030181529082905261355594939291615ba3565b60405180910390a1505050565b60005b6001600160a01b0382166000908152606b6020526040902054811015612f73576001600160a01b0382166000908152606b602052604081208054839081106135af576135af615278565b6000918252602080832090910154808352606c90915260409091206003015490915060ff16156135df57506137cf565b6000805b6000838152606d60205260409020548110156137a9576000838152606d6020526040902080548290811061361957613619615278565b600091825260209091206002600390920201015460ff16613757576000838152606c6020526040902060030154610100900460ff16156136d7576000838152606d6020526040902080546136909187918490811061367957613679615278565b90600052602060002090600302016001015461418f565b6000848152606d602052604090208054839081106136b0576136b0615278565b60009182526020909120600390910201600201805460ff1916911515919091179055613757565b6000838152606d602052604090208054613714918791849081106136fd576136fd615278565b9060005260206000209060030201600101546117d8565b6000848152606d6020526040902080548390811061373457613734615278565b60009182526020909120600390910201600201805460ff19169115159190911790555b6000838152606d6020526040902080548290811061377757613777615278565b600091825260209091206002600390920201015460ff1661379757600191505b806137a1816154eb565b9150506135e3565b50806137cc576000828152606c60205260409020600301805460ff191660011790555b50505b806137d9816154eb565b915050613565565b6060816000036138085750506040805180820190915260018152600360fc1b602082015290565b8160005b8115613832578061381c816154eb565b915061382b9050600a83615bfd565b915061380c565b6000816001600160401b0381111561384c5761384c614722565b6040519080825280601f01601f191660200182016040528015613876576020820181803683370190505b5090505b8415611e955761388b600183615c11565b9150613898600a86615c24565b6138a3906030615928565b60f81b8183815181106138b8576138b8615278565b60200101906001600160f81b031916908160001a9053506138da600a86615bfd565b945061387a565b606060006138f0836002615c38565b6138fb906002615928565b6001600160401b0381111561391257613912614722565b6040519080825280601f01601f19166020018201604052801561393c576020820181803683370190505b509050600360fc1b8160008151811061395757613957615278565b60200101906001600160f81b031916908160001a905350600f60fb1b8160018151811061398657613986615278565b60200101906001600160f81b031916908160001a90535060006139aa846002615c38565b6139b5906001615928565b90505b6001811115613a2d576f181899199a1a9b1b9c1cb0b131b232b360811b85600f16601081106139e9576139e9615278565b1a60f81b8282815181106139ff576139ff615278565b60200101906001600160f81b031916908160001a90535060049490941c93613a2681615c57565b90506139b8565b5083156117d15760405162461bcd60e51b815260206004820181905260248201527f537472696e67733a20686578206c656e67746820696e73756666696369656e7460448201526064016106da565b60408051808201909152600f81526e2261747472696275746573223a205b60881b602082015260609080613aaf856137e1565b604051602001613ac0929190615c6e565b604051602081830303815290604052905060005b8351811015613c105781604051602001613aee9190615cdf565b6040516020818303038152906040529150816069600060706000888681518110613b1a57613b1a615278565b60200260200101518152602001908152602001600020600101548152602001908152602001600020600101604051602001613b56929190615609565b604051602081830303815290604052915081604051602001613b789190615d14565b60405160208183030381529060405291508160706000868481518110613ba057613ba0615278565b60200260200101518152602001908152602001600020600201604051602001613bca929190615609565b604051602081830303815290604052915081604051602001613bec9190615d45565b60405160208183030381529060405291508080613c08906154eb565b915050613ad4565b5080604051602001613c229190615d6b565b60408051808303601f19018152919052949350505050565b60408051808201909152600b81526a22626164676573223a205b60a81b602082015260609060005b8451811015613c10578015613c985781604051602001613c829190615cdf565b6040516020818303038152906040529150613cbb565b81604051602001613ca99190615d90565b60405160208183030381529060405291505b81604051602001613ccc9190615dca565b604051602081830303815290604052915081858281518110613cf057613cf0615278565b602002602001015160200151604051602001613d0d929190615dfa565b604051602081830303815290604052915081604051602001613d2f9190615e29565b60405160208183030381529060405291508184868381518110613d5457613d54615278565b602002602001015160400151604051602001613d7293929190615e5a565b604051602081830303815290604052915081604051602001613d949190615d45565b60405160208183030381529060405291508080613db0906154eb565b915050613c62565b60608151600003613dd757505060408051602081019091526000815290565b6000604051806060016040528060408152602001615edf6040913990506000600384516002613e069190615928565b613e109190615bfd565b613e1b906004615c38565b90506000613e2a826020615928565b6001600160401b03811115613e4157613e41614722565b6040519080825280601f01601f191660200182016040528015613e6b576020820181803683370190505b509050818152600183018586518101602084015b81831015613ed7576003830192508251603f8160121c168501518253600182019150603f81600c1c168501518253600182019150603f8160061c168501518253600182019150603f8116850151825350600101613e7f565b600389510660018114613ef15760028114613f0257613f0e565b613d3d60f01b600119830152613f0e565b603d60f81b6000198301525b509398975050505050505050565b603380546001600160a01b038381166001600160a01b0319831681179093556040519116919082907f8be0079c531659141344cd1fd0a4f28419497f9722a3daafe3b4186f6b6457e090600090a35050565b6000613f786144f6565b613f806144f6565b60005b6001600160a01b0386166000908152606b6020526040902054811015614180576001600160a01b0386166000908152606b602052604081208054600192919084908110613fd257613fd2615278565b9060005260206000200154905060005b6000828152606d6020526040902054811015614154576000828152606d6020526040902080548290811061401857614018615278565b90600052602060002090600302016001015488828151811061403c5761403c615278565b6020026020010151146140525760009250614142565b6000828152606c6020908152604091829020825160a0810184528154815260018201546001600160a01b031692810192909252600281018054929391929184019161409c9061523e565b80601f01602080910402602001604051908101604052809291908181526020018280546140c89061523e565b80156141155780601f106140ea57610100808354040283529160200191614115565b820191906000526020600020905b8154815290600101906020018083116140f857829003601f168201915b50505091835250506003919091015460ff8082161515602084015261010090910416151560409091015294505b8061414c816154eb565b915050613fe2565b50811561416b576001849550955050505050614188565b50508080614178906154eb565b915050613f83565b506000925090505b9250929050565b600081815260706020908152604080832060040180548251818502810185019093528083528493849084015b8282101561431b5783829060005260206000209060030201604051806060016040529081600082015481526020016001820180546141f89061523e565b80601f01602080910402602001604051908101604052809291908181526020018280546142249061523e565b80156142715780601f1061424657610100808354040283529160200191614271565b820191906000526020600020905b81548152906001019060200180831161425457829003601f168201915b5050505050815260200160028201805461428a9061523e565b80601f01602080910402602001604051908101604052809291908181526020018280546142b69061523e565b80156143035780601f106142d857610100808354040283529160200191614303565b820191906000526020600020905b8154815290600101906020018083116142e657829003601f168201915b505050505081525050815260200190600101906141bb565b50505050905060005b8151811015614365576143448585848481518110610fa657610fa6615278565b6143535760009250505061149a565b8061435d816154eb565b915050614324565b506001949350505050565b6000805b6000838152606d60205260409020548110156143e0576000838152606d602052604090208054829081106143aa576143aa615278565b600091825260209091206002600390920201015460ff166143ce5750600092915050565b806143d8816154eb565b915050614374565b50600192915050565b600054610100900460ff166144105760405162461bcd60e51b81526004016106da90615e93565b611af5614497565b600080600080614427856144c7565b6040805160008152602081018083528b905260ff8516918101919091526060810183905260808101829052929550909350915060019060a0016020604051602081039080840390855afa158015614482573d6000803e3d6000fd5b5050604051601f190151979650505050505050565b600054610100900460ff166144be5760405162461bcd60e51b81526004016106da90615e93565b611af533613f1c565b600080600083516041146144da57600080fd5b5050506020810151604082015160609092015160001a92909190565b6040518060a001604052806000815260200160006001600160a01b03168152602001606081526020016000151581526020016000151581525090565b50805460008255600302906000526020600020908101906116cd9190614592565b50805460008255906000526020600020908101906116cd91906145bd565b50805460008255600302906000526020600020908101906116cd91906145d2565b5b808211156145b9576000808255600182015560028101805460ff19169055600301614593565b5090565b5b808211156145b957600081556001016145be565b808211156145b95760008082556145ec6001830182614603565b6145fa600283016000614603565b506003016145d2565b50805461460f9061523e565b6000825580601f1061461f575050565b601f0160209004906000526020600020908101906116cd91906145bd565b60006020828403121561464f57600080fd5b5035919050565b60005b83811015614671578181015183820152602001614659565b50506000910152565b60008151808452614692816020860160208601614656565b601f01601f19169290920160200192915050565b602081528151602082015260018060a01b0360208301511660408201526000604083015160a060608401526146de60c084018261467a565b90506060840151151560808401526080840151151560a08401528091505092915050565b6001600160a01b03811681146116cd57600080fd5b803561083481614702565b634e487b7160e01b600052604160045260246000fd5b606081018181106001600160401b038211171561475757614757614722565b60405250565b604081018181106001600160401b038211171561475757614757614722565b608081018181106001600160401b038211171561475757614757614722565b601f8201601f191681016001600160401b03811182821017156147c0576147c0614722565b6040525050565b60006001600160401b038311156147e0576147e0614722565b6040516147f7601f8501601f19166020018261479b565b80915083815284848401111561480c57600080fd5b83836020830137600060208583010152509392505050565b600082601f83011261483557600080fd5b6117d1838335602085016147c7565b60008060006060848603121561485957600080fd5b833561486481614702565b92506020840135915060408401356001600160401b0381111561488657600080fd5b61489286828701614824565b9150509250925092565b60008083601f8401126148ae57600080fd5b5081356001600160401b038111156148c557600080fd5b6020830191508360208260051b850101111561418857600080fd5b600080602083850312156148f357600080fd5b82356001600160401b0381111561490957600080fd5b6149158582860161489c565b90969095509350505050565b602081528151602082015260006020830151604080840152611e95606084018261467a565b60006020828403121561495857600080fd5b81356117d181614702565b600081518084526020808501945080840160005b8381101561499357815187529582019590820190600101614977565b509495945050505050565b600081518084526020808501808196508360051b8101915082860160005b85811015614a1757828403895281516060815186528682015181888801526149e68288018261467a565b91505060408083015192508682038188015250614a03818361467a565b9a87019a95505050908401906001016149bc565b5091979650505050505050565b8715158152866020820152856040820152841515606082015283608082015260e060a08201526000614a5960e0830185614963565b82810360c0840152614a6b818561499e565b9a9950505050505050505050565b8035801515811461083457600080fd5b60006001600160401b03821115614aa257614aa2614722565b5060051b60200190565b600082601f830112614abd57600080fd5b81356020614aca82614a89565b604051614ad7828261479b565b83815260059390931b8501820192828101915086841115614af757600080fd5b8286015b84811015614b125780358352918301918301614afb565b509695505050505050565b600082601f830112614b2e57600080fd5b81356020614b3b82614a89565b60408051614b49838261479b565b84815260059490941b8601830193838101925087851115614b6957600080fd5b8387015b85811015614c125780356001600160401b0380821115614b8d5760008081fd5b908901906060828c03601f1901811315614ba75760008081fd5b8551614bb281614738565b8884013581528684013583811115614bca5760008081fd5b614bd88e8b83880101614824565b828b015250908301359082821115614bf05760008081fd5b614bfe8d8a84870101614824565b818801528752505050928401928401614b6d565b50979650505050505050565b60008060008060008060c08789031215614c3757600080fd5b8635614c4281614702565b9550614c5060208801614a79565b94506040870135935060608701356001600160401b0380821115614c7357600080fd5b614c7f8a838b01614aac565b94506080890135915080821115614c9557600080fd5b614ca18a838b01614b1d565b935060a0890135915080821115614cb757600080fd5b50614cc489828a01614824565b9150509295509295509295565b600061010060018060a01b038b168352891515602084015288604084015287606084015286151560808401528560a08401528060c0840152614d1581840186614963565b905082810360e0840152614d29818561499e565b9b9a5050505050505050505050565b60008060408385031215614d4b57600080fd5b8235915060208301356001600160401b03811115614d6857600080fd5b8301601f81018513614d7957600080fd5b614d88858235602084016147c7565b9150509250929050565b6020815260006117d1602083018461467a565b60008060408385031215614db857600080fd5b8235614dc381614702565b946020939093013593505050565b838152826020820152606060408201526000614df0606083018461499e565b95945050505050565b600080600060608486031215614e0e57600080fd5b8335614e1981614702565b925060208401356001600160401b0380821115614e3557600080fd5b614e4187838801614b1d565b93506040860135915080821115614e5757600080fd5b5061489286828701614824565b60008060008060808587031215614e7a57600080fd5b8435935060208501356001600160401b0380821115614e9857600080fd5b614ea488838901614824565b9450614eb260408801614a79565b93506060870135915080821115614ec857600080fd5b50614ed587828801614aac565b91505092959194509250565b6020815281516020820152602082015160408201526040820151606082015260006060830151608080840152611e9560a084018261467a565b60008060008060008060c08789031215614f3357600080fd5b863595506020870135945060408701356001600160401b0380821115614f5857600080fd5b614f648a838b01614824565b9550606089013594506080890135915080821115614c9557600080fd5b600082601f830112614f9257600080fd5b81356020614f9f82614a89565b60408051614fad838261479b565b84815260059490941b8601830193838101925087851115614fcd57600080fd5b8387015b85811015614c125780356001600160401b0380821115614ff15760008081fd5b90890190818b03601f19018513156150095760008081fd5b84516150148161475d565b878301358152858301358281111561502c5760008081fd5b61503a8d8a83870101614824565b828a01525086525050928401928401614fd1565b60008060006060848603121561506357600080fd5b83356001600160401b038082111561507a57600080fd5b818601915086601f83011261508e57600080fd5b8135602061509b82614a89565b6040516150a8828261479b565b83815260059390931b850182019282810191508a8411156150c857600080fd5b8286015b84811015615152578035868111156150e357600080fd5b87016080818e03601f190112156150f957600080fd5b6040516151058161477c565b8582013581526040820135868201526060820135604082015260808201358881111561513057600080fd5b61513e8f8883860101614824565b6060830152508452509183019183016150cc565b509750508701359250508082111561516957600080fd5b5061517686828701614f81565b92505061518560408501614717565b90509250925092565b600080600080608085870312156151a457600080fd5b8435935060208501356001600160401b03808211156151c257600080fd5b6151ce88838901614aac565b945060408701359150808211156151e457600080fd5b6151f088838901614b1d565b9350606087013591508082111561520657600080fd5b50614ed587828801614824565b602080825260119082015270129bdd5c9b995e481b9bdd08199bdd5b99607a1b604082015260600190565b600181811c9082168061525257607f821691505b60208210810361527257634e487b7160e01b600052602260045260246000fd5b50919050565b634e487b7160e01b600052603260045260246000fd5b60008235603e198336030181126152a457600080fd5b9190910192915050565b6000808335601e198436030181126152c557600080fd5b8301803591506001600160401b038211156152df57600080fd5b60200191503681900382131561418857600080fd5b601f821115610a9b57600081815260208120601f850160051c8101602086101561531b5750805b601f850160051c820191505b81811015611b7d57828155600101615327565b600019600383901b1c191660019190911b1790565b6001600160401b0383111561536657615366614722565b61537a83615374835461523e565b836152f4565b6000601f8411600181146153a857600085156153965750838201355b6153a0868261533a565b845550611360565b600083815260209020601f19861690835b828110156153d957868501358255602094850194600190920191016153b9565b50868210156153f65760001960f88860031b161c19848701351681555b505060018560011b0183555050505050565b813581556001808201602061541f818601866152ae565b6001600160401b0381111561543657615436614722565b61544a81615444865461523e565b866152f4565b6000601f82116001811461547857600083156154665750838201355b615470848261533a565b875550612ea2565b600086815260209020601f19841690835b828110156154a65786850135825593870193908901908701615489565b50848210156154c35760001960f88660031b161c19848701351681555b50505050841b90930190915550505050565b634e487b7160e01b600052601160045260246000fd5b6000600182016154fd576154fd6154d5565b5060010190565b8051600090602080840183831561499357815187529582019590820190600101614977565b6000815161553b818560208601614656565b9290920192915050565b6bffffffffffffffffffffffff198660601b16815284151560f81b6014820152836015820152600061557a6035830185615504565b835161558a818360208801614656565b01979650505050505050565b600081546155a38161523e565b600182811680156155bb57600181146155d0576155ff565b60ff19841687528215158302870194506155ff565b8560005260208060002060005b858110156155f65781548a8201529084019082016155dd565b50505082870194505b5050505092915050565b6000835161561b818460208801614656565b614df081840185615596565b7003d913730b6b2911d112837b73229a12a1607d1b81528551600090615654816011850160208b01614656565b7f222c20226465736372697074696f6e223a2250617274206f662074686520536f6011918401918201526503ab61037b3160d51b603182015286516156a0816037840160208b01614656565b6b11161134b6b0b3b2911d101160a11b6037929091019182015285516156cd816043840160208a01614656565b61088b60f21b6043929091019182015284516156f0816045840160208901614656565b600b60fa1b6045929091019182015261571c61570f6046830186615529565b607d60f81b815260010190565b98975050505050505050565b7f646174613a6170706c69636174696f6e2f6a736f6e3b6261736536342c00000081526000825161576081601d850160208701614656565b91909101601d0192915050565b60006020828403121561577f57600080fd5b5051919050565b600060033d111561579f5760046000803e5060005160e01c5b90565b600060443d10156157b05790565b6040516003193d81016004833e81513d6001600160401b0381602484011181841117156157df57505050505090565b82850191508151818111156157f75750505050505090565b843d87010160208285010111156158115750505050505090565b6158206020828601018761479b565b509095945050505050565b60006117d18284615596565b6bffffffffffffffffffffffff198360601b16815260008251615861816014850160208701614656565b919091016014019392505050565b81516001600160401b0381111561588857615888614722565b61589c81615896845461523e565b846152f4565b602080601f8311600181146158cb57600084156158b95750858301515b6158c3858261533a565b865550611b7d565b600085815260208120601f198616915b828110156158fa578886015182559484019460019091019084016158db565b50858210156159185787850151600019600388901b60f8161c191681555b5050505050600190811b01905550565b8082018082111561149a5761149a6154d5565b60008235607e198336030181126152a457600080fd5b81358155600160208084013582840155604084013560028401556003830161597c60608601866152ae565b6001600160401b0381111561599357615993614722565b6159a7816159a1855461523e565b856152f4565b6000601f8211600181146159d557600083156159c35750838201355b6159cd848261533a565b865550612ea2565b600085815260209020601f19841690835b82811015615a0357868501358255938801939089019088016159e6565b5084821015615a205760001960f88660031b161c19848701351681555b50505050841b909301905550505050565b85815284602082015260008451615a4f816040850160208901614656565b80830190508460408201528351615a6d816060840160208801614656565b01606001979650505050505050565b600082516152a4818460208701614656565b60018060a01b0385168152836020820152826040820152608060608201526000615abb608083018461467a565b9695505050505050565b8381526000615ad76020830185615504565b8351615ae7818360208801614656565b0195945050505050565b84815283602082015282604082015260008251615b15816060850160208701614656565b9190910160600195945050505050565b60008551615b37818460208a01614656565b855190830190615b4b818360208a01614656565b8551910190615b5e818360208901614656565b8451910190615b71818360208801614656565b019695505050505050565b60018060a01b0384168152826020820152606060408201526000614df0606083018461467a565b60018060a01b0385168152836020820152608060408201526000615bca608083018561467a565b8281036060840152615bdc818561467a565b979650505050505050565b634e487b7160e01b600052601260045260246000fd5b600082615c0c57615c0c615be7565b500490565b8181038181111561149a5761149a6154d5565b600082615c3357615c33615be7565b500690565b6000816000190483118215151615615c5257615c526154d5565b500290565b600081615c6657615c666154d5565b506000190190565b60008351615c80818460208801614656565b80830190507f7b202274726169745f74797065223a224c6576656c222c202276616c7565223a8152600160fd1b60208201528351615cc5816021840160208801614656565b607d60f81b60219290910191820152602201949350505050565b60008251615cf1818460208701614656565b70163d90113a3930b4ba2fba3cb832911d1160791b920191825250601101919050565b60008251615d26818460208701614656565b6c111610113b30b63ab2911d101160991b920191825250600d01919050565b60008251615d57818460208701614656565b61227d60f01b920191825250600201919050565b60008251615d7d818460208701614656565b605d60f81b920191825250600101919050565b60008251615da2818460208701614656565b753d90113a3930b4ba2fba3cb832911d112120a223a29160511b920191825250601601919050565b60008251615ddc818460208701614656565b6b1610113b30b63ab2911d101160a11b920191825250600c01919050565b60008351615e0c818460208801614656565b835190830190615e20818360208801614656565b01949350505050565b60008251615e3b818460208701614656565b6c1116101134b6b0b3b2911d101160991b920191825250600d01919050565b60008451615e6c818460208901614656565b845190830190615e80818360208901614656565b8451910190615ae7818360208801614656565b6020808252602b908201527f496e697469616c697a61626c653a20636f6e7472616374206973206e6f74206960408201526a6e697469616c697a696e6760a81b60608201526080019056fe4142434445464748494a4b4c4d4e4f505152535455565758595a6162636465666768696a6b6c6d6e6f707172737475767778797a303132333435363738392b2fa2646970667358221220aa4a7f5299b945488c3d553629be5fd55b607aa3f0927b22887cb0795bf968e664736f6c63430008100033","linkReferences":{},"deployedLinkReferences":{}}