{"_format":"hh-sol-artifact-1","contractName":"LilyPadTreasure","sourceName":"contracts/LilyPadTreasure.sol","abi":[{"anonymous":false,"inputs":[{"indexed":true,"internalType":"address","name":"sender","type":"address"},{"indexed":false,"internalType":"uint256","name":"tokenId","type":"uint256"},{"indexed":false,"internalType":"uint256","name":"value","type":"uint256"}],"name":"DAOTreasureDeposit","type":"event"},{"anonymous":false,"inputs":[{"indexed":true,"internalType":"address","name":"payed","type":"address"},{"indexed":false,"internalType":"uint256","name":"withdrawId","type":"uint256"},{"indexed":false,"internalType":"uint256","name":"value","type":"uint256"}],"name":"DAOTreasureWithdraw","type":"event"},{"anonymous":false,"inputs":[{"indexed":false,"internalType":"uint8","name":"version","type":"uint8"}],"name":"Initialized","type":"event"},{"anonymous":false,"inputs":[{"indexed":true,"internalType":"address","name":"previousOwner","type":"address"},{"indexed":true,"internalType":"address","name":"newOwner","type":"address"}],"name":"OwnershipTransferred","type":"event"},{"anonymous":false,"inputs":[{"indexed":false,"internalType":"address","name":"account","type":"address"}],"name":"Paused","type":"event"},{"anonymous":false,"inputs":[{"indexed":false,"internalType":"address","name":"account","type":"address"}],"name":"Unpaused","type":"event"},{"stateMutability":"payable","type":"fallback"},{"inputs":[],"name":"dao","outputs":[{"internalType":"address","name":"","type":"address"}],"stateMutability":"view","type":"function"},{"inputs":[],"name":"daoTreasure","outputs":[{"internalType":"uint256","name":"","type":"uint256"}],"stateMutability":"view","type":"function"},{"inputs":[{"internalType":"uint256","name":"_queeneAuctionId","type":"uint256"}],"name":"depositToDAOTreasure","outputs":[],"stateMutability":"payable","type":"function"},{"inputs":[{"internalType":"address","name":"_dao","type":"address"}],"name":"initialize","outputs":[],"stateMutability":"nonpayable","type":"function"},{"inputs":[],"name":"owner","outputs":[{"internalType":"address","name":"","type":"address"}],"stateMutability":"view","type":"function"},{"inputs":[],"name":"paused","outputs":[{"internalType":"bool","name":"","type":"bool"}],"stateMutability":"view","type":"function"},{"inputs":[],"name":"renounceOwnership","outputs":[],"stateMutability":"nonpayable","type":"function"},{"inputs":[{"internalType":"address","name":"newOwner","type":"address"}],"name":"transferOwnership","outputs":[],"stateMutability":"nonpayable","type":"function"},{"inputs":[{"internalType":"uint256","name":"_amount","type":"uint256"},{"internalType":"address payable","name":"_funded","type":"address"}],"name":"withdrawFromTreasure","outputs":[],"stateMutability":"nonpayable","type":"function"},{"stateMutability":"payable","type":"receive"}],"bytecode":"0x60808060405234610016576109df908161001c8239f35b600080fdfe6040608081526004908136101561002f575b505036156100255761002334336108fa565b005b61002334336108fa565b600091823560e01c80631adca4b4146104c057806337e4a5f8146104a15780634162169f146104795780635c975abb14610455578063715018a6146103ea5780638da5cb5b146103be578063bc7321ab146102ff578063c4d66de81461014f5763f2fde38b1461009f5750610011565b3461014b57602036600319011261014b578035906001600160a01b038216808303610147576100cc61078f565b156100de57506100db906107e7565b51f35b608490602084519162461bcd60e51b8352820152602660248201527f4f776e61626c653a206e6577206f776e657220697320746865207a65726f206160448201527f64647265737300000000000000000000000000000000000000000000000000006064820152fd5b8480fd5b8280fd5b503461014b57602036600319011261014b578035906001600160a01b0382168092036102fb5783549160ff8360081c1615918280936102ee575b80156102d7575b1561026e575060ff198381166001178655928261025d575b506101d860ff865460081c166101bd8161083e565b6101c68161083e565b600180556101d38161083e565b61083e565b6101e1336107e7565b8454926101f760ff8560081c166101d38161083e565b6097541660975573ffffffffffffffffffffffffffffffffffffffff1960cb54161760cb55600160c955610229575051f35b61ff00191682557f7f26b83ff96e1f2b6a682f133852f6798a09c465da95921460cefb38474024986020825160018152a151f35b61ffff1916610101178555386101a8565b608490602086519162461bcd60e51b8352820152602e60248201527f496e697469616c697a61626c653a20636f6e747261637420697320616c72656160448201527f647920696e697469616c697a65640000000000000000000000000000000000006064820152fd5b50303b1580156101905750600160ff851614610190565b50600160ff851610610189565b8380fd5b50602036600319011261014b5761031b600260015414156108af565b341561037c5760ca543481018091116103695760ca558151903581523460208201527f01577fc82376a680533f8b6ccf8346bab1114a23ca3dd7b959a542304ea642c4823392a26001805551f35b602484601184634e487b7160e01b835252fd5b6020606492519162461bcd60e51b8352820152600e60248201527f696e76616c696420616d6f756e740000000000000000000000000000000000006044820152fd5b5050346103e657816003193601126103e6576020906001600160a01b03606554169051908152f35b5080fd5b5050346103e657816003193601126103e65761040461078f565b816001600160a01b036065549273ffffffffffffffffffffffffffffffffffffffff1984166065555192167f8be0079c531659141344cd1fd0a4f28419497f9722a3daafe3b4186f6b6457e08284a3f35b5050346103e657816003193601126103e65760209060ff6097541690519015158152f35b5050346103e657816003193601126103e6576020906001600160a01b0360cb54169051908152f35b5050346103e657816003193601126103e65760209060ca549051908152f35b503461014b578160031936011261014b578035906024918235926001600160a01b0380851680950361078b576104fb600260015414156108af565b600260015560ff609754166107495760cb541633036107075760ca5482116106c55781471061068357858080875185885af13d1561067e5767ffffffffffffffff3d81811161066c57875191601f8201601f19908116603f011683019081118382101761065a57885281528760203d92013e5b156105f25760ca548281039081116105e05760ca5560c9549260001984146105cf57505081849160017ffa0bf26cd71c034a7a50d653a0d786707baa27046bafad7f3c0b64667b91670d940160c95582519182526020820152a26001805551f35b60118791634e487b7160e01b835252fd5b5085601184634e487b7160e01b835252fd5b82603a608492602088519362461bcd60e51b85528401528201527f416464726573733a20756e61626c6520746f2073656e642076616c75652c207260448201527f6563697069656e74206d617920686176652072657665727465640000000000006064820152fd5b848a604189634e487b7160e01b835252fd5b8389604188634e487b7160e01b835252fd5b61056e565b82601d606492602088519362461bcd60e51b85528401528201527f416464726573733a20696e73756666696369656e742062616c616e63650000006044820152fd5b82601f606492602088519362461bcd60e51b85528401528201527f4e6f7420656e6f7567682062616c616e6365206f6e20747265617375726521006044820152fd5b826007606492602088519362461bcd60e51b85528401528201527f4e6f742044414f000000000000000000000000000000000000000000000000006044820152fd5b60648460108460208a519362461bcd60e51b85528401528201527f5061757361626c653a20706175736564000000000000000000000000000000006044820152fd5b8680fd5b6001600160a01b036065541633036107a357565b606460405162461bcd60e51b815260206004820152602060248201527f4f776e61626c653a2063616c6c6572206973206e6f7420746865206f776e65726044820152fd5b606554906001600160a01b03809116918273ffffffffffffffffffffffffffffffffffffffff19821617606555167f8be0079c531659141344cd1fd0a4f28419497f9722a3daafe3b4186f6b6457e06000604051a3565b1561084557565b608460405162461bcd60e51b815260206004820152602b60248201527f496e697469616c697a61626c653a20636f6e7472616374206973206e6f74206960448201527f6e697469616c697a696e670000000000000000000000000000000000000000006064820152fd5b156108b657565b606460405162461bcd60e51b815260206004820152601f60248201527f5265656e7472616e637947756172643a207265656e7472616e742063616c6c006044820152fd5b81156109655760ca549082820180921161094f576001600160a01b036040917f01577fc82376a680533f8b6ccf8346bab1114a23ca3dd7b959a542304ea642c49360ca558251946000865260208601521692a2565b634e487b7160e01b600052601160045260246000fd5b606460405162461bcd60e51b815260206004820152600e60248201527f696e76616c696420616d6f756e740000000000000000000000000000000000006044820152fdfea264697066735822122073bff54fb5dd9e16433ed0de61a4ead0f37102e05e0075df7fe18454633c6deb64736f6c63430008100033","linkReferences":{},"deployedLinkReferences":{}}