{"_format":"hh-sol-artifact-1","contractName":"PondSBT","sourceName":"contracts/PondSBT.sol","abi":[{"inputs":[],"stateMutability":"nonpayable","type":"constructor"},{"inputs":[],"name":"PondSBT__NotEnoughEth","type":"error"},{"anonymous":false,"inputs":[{"indexed":true,"internalType":"address","name":"owner","type":"address"},{"indexed":true,"internalType":"address","name":"approved","type":"address"},{"indexed":true,"internalType":"uint256","name":"tokenId","type":"uint256"}],"name":"Approval","type":"event"},{"anonymous":false,"inputs":[{"indexed":true,"internalType":"address","name":"owner","type":"address"},{"indexed":true,"internalType":"address","name":"operator","type":"address"},{"indexed":false,"internalType":"bool","name":"approved","type":"bool"}],"name":"ApprovalForAll","type":"event"},{"anonymous":false,"inputs":[{"indexed":true,"internalType":"address","name":"delegator","type":"address"},{"indexed":true,"internalType":"address","name":"fromDelegate","type":"address"},{"indexed":true,"internalType":"address","name":"toDelegate","type":"address"}],"name":"DelegateChanged","type":"event"},{"anonymous":false,"inputs":[{"indexed":true,"internalType":"address","name":"delegate","type":"address"},{"indexed":false,"internalType":"uint256","name":"previousBalance","type":"uint256"},{"indexed":false,"internalType":"uint256","name":"newBalance","type":"uint256"}],"name":"DelegateVotesChanged","type":"event"},{"anonymous":false,"inputs":[{"indexed":false,"internalType":"uint8","name":"version","type":"uint8"}],"name":"Initialized","type":"event"},{"anonymous":false,"inputs":[{"indexed":false,"internalType":"uint256","name":"oldFee","type":"uint256"},{"indexed":false,"internalType":"uint256","name":"newFee","type":"uint256"}],"name":"MintFeeUpdated","type":"event"},{"anonymous":false,"inputs":[{"indexed":true,"internalType":"address","name":"previousOwner","type":"address"},{"indexed":true,"internalType":"address","name":"newOwner","type":"address"}],"name":"OwnershipTransferred","type":"event"},{"anonymous":false,"inputs":[{"indexed":false,"internalType":"address","name":"soulOwner","type":"address"},{"indexed":false,"internalType":"uint256","name":"tokenId","type":"uint256"}],"name":"SoulBounded","type":"event"},{"anonymous":false,"inputs":[{"indexed":true,"internalType":"address","name":"from","type":"address"},{"indexed":true,"internalType":"address","name":"to","type":"address"},{"indexed":true,"internalType":"uint256","name":"tokenId","type":"uint256"}],"name":"Transfer","type":"event"},{"inputs":[],"name":"DOMAIN_SEPARATOR","outputs":[{"internalType":"bytes32","name":"","type":"bytes32"}],"stateMutability":"view","type":"function"},{"inputs":[{"internalType":"address","name":"to","type":"address"},{"internalType":"uint256","name":"tokenId","type":"uint256"}],"name":"approve","outputs":[],"stateMutability":"nonpayable","type":"function"},{"inputs":[{"internalType":"address","name":"owner","type":"address"}],"name":"balanceOf","outputs":[{"internalType":"uint256","name":"","type":"uint256"}],"stateMutability":"view","type":"function"},{"inputs":[{"internalType":"uint256","name":"tokenId","type":"uint256"}],"name":"burn","outputs":[],"stateMutability":"nonpayable","type":"function"},{"inputs":[{"internalType":"address","name":"delegatee","type":"address"}],"name":"delegate","outputs":[],"stateMutability":"nonpayable","type":"function"},{"inputs":[{"internalType":"address","name":"delegatee","type":"address"},{"internalType":"uint256","name":"nonce","type":"uint256"},{"internalType":"uint256","name":"expiry","type":"uint256"},{"internalType":"uint8","name":"v","type":"uint8"},{"internalType":"bytes32","name":"r","type":"bytes32"},{"internalType":"bytes32","name":"s","type":"bytes32"}],"name":"delegateBySig","outputs":[],"stateMutability":"nonpayable","type":"function"},{"inputs":[{"internalType":"address","name":"account","type":"address"}],"name":"delegates","outputs":[{"internalType":"address","name":"","type":"address"}],"stateMutability":"view","type":"function"},{"inputs":[],"name":"devPerc","outputs":[{"internalType":"uint256","name":"","type":"uint256"}],"stateMutability":"view","type":"function"},{"inputs":[{"internalType":"uint256","name":"tokenId","type":"uint256"}],"name":"getApproved","outputs":[{"internalType":"address","name":"","type":"address"}],"stateMutability":"view","type":"function"},{"inputs":[{"internalType":"uint256","name":"blockNumber","type":"uint256"}],"name":"getPastTotalSupply","outputs":[{"internalType":"uint256","name":"","type":"uint256"}],"stateMutability":"view","type":"function"},{"inputs":[{"internalType":"address","name":"account","type":"address"},{"internalType":"uint256","name":"blockNumber","type":"uint256"}],"name":"getPastVotes","outputs":[{"internalType":"uint256","name":"","type":"uint256"}],"stateMutability":"view","type":"function"},{"inputs":[{"internalType":"address","name":"account","type":"address"}],"name":"getVotes","outputs":[{"internalType":"uint256","name":"","type":"uint256"}],"stateMutability":"view","type":"function"},{"inputs":[],"name":"i_mintFee","outputs":[{"internalType":"uint256","name":"","type":"uint256"}],"stateMutability":"view","type":"function"},{"inputs":[{"internalType":"uint256","name":"mintFee","type":"uint256"},{"internalType":"uint256","name":"_devPerc","type":"uint256"},{"internalType":"contract ILilyPad","name":"mainContractAddress","type":"address"}],"name":"initialize","outputs":[],"stateMutability":"nonpayable","type":"function"},{"inputs":[{"internalType":"address","name":"owner","type":"address"},{"internalType":"address","name":"operator","type":"address"}],"name":"isApprovedForAll","outputs":[{"internalType":"bool","name":"","type":"bool"}],"stateMutability":"view","type":"function"},{"inputs":[],"name":"lilyPadTreasure","outputs":[{"internalType":"contract ILilyPadTreasure","name":"","type":"address"}],"stateMutability":"view","type":"function"},{"inputs":[],"name":"mainContract","outputs":[{"internalType":"contract ILilyPad","name":"","type":"address"}],"stateMutability":"view","type":"function"},{"inputs":[],"name":"name","outputs":[{"internalType":"string","name":"","type":"string"}],"stateMutability":"view","type":"function"},{"inputs":[{"internalType":"address","name":"owner","type":"address"}],"name":"nonces","outputs":[{"internalType":"uint256","name":"","type":"uint256"}],"stateMutability":"view","type":"function"},{"inputs":[],"name":"owner","outputs":[{"internalType":"address","name":"","type":"address"}],"stateMutability":"view","type":"function"},{"inputs":[{"internalType":"uint256","name":"tokenId","type":"uint256"}],"name":"ownerOf","outputs":[{"internalType":"address","name":"","type":"address"}],"stateMutability":"view","type":"function"},{"inputs":[],"name":"renounceOwnership","outputs":[],"stateMutability":"nonpayable","type":"function"},{"inputs":[{"internalType":"address","name":"to","type":"address"}],"name":"safeMint","outputs":[],"stateMutability":"nonpayable","type":"function"},{"inputs":[{"internalType":"address","name":"from","type":"address"},{"internalType":"address","name":"to","type":"address"},{"internalType":"uint256","name":"tokenId","type":"uint256"}],"name":"safeTransferFrom","outputs":[],"stateMutability":"nonpayable","type":"function"},{"inputs":[{"internalType":"address","name":"from","type":"address"},{"internalType":"address","name":"to","type":"address"},{"internalType":"uint256","name":"tokenId","type":"uint256"},{"internalType":"bytes","name":"data","type":"bytes"}],"name":"safeTransferFrom","outputs":[],"stateMutability":"nonpayable","type":"function"},{"inputs":[{"internalType":"address","name":"operator","type":"address"},{"internalType":"bool","name":"approved","type":"bool"}],"name":"setApprovalForAll","outputs":[],"stateMutability":"nonpayable","type":"function"},{"inputs":[{"internalType":"uint256","name":"newMintFee","type":"uint256"}],"name":"setMintFee","outputs":[],"stateMutability":"nonpayable","type":"function"},{"inputs":[{"internalType":"contract ILilyPadTreasure","name":"_lilyPadTreasure","type":"address"}],"name":"setTreasureAddress","outputs":[],"stateMutability":"nonpayable","type":"function"},{"inputs":[{"internalType":"bytes4","name":"interfaceId","type":"bytes4"}],"name":"supportsInterface","outputs":[{"internalType":"bool","name":"","type":"bool"}],"stateMutability":"view","type":"function"},{"inputs":[],"name":"symbol","outputs":[{"internalType":"string","name":"","type":"string"}],"stateMutability":"view","type":"function"},{"inputs":[{"internalType":"address","name":"_member","type":"address"}],"name":"takeFirstSteps","outputs":[{"internalType":"uint256","name":"","type":"uint256"}],"stateMutability":"payable","type":"function"},{"inputs":[{"internalType":"uint256","name":"index","type":"uint256"}],"name":"tokenByIndex","outputs":[{"internalType":"uint256","name":"","type":"uint256"}],"stateMutability":"view","type":"function"},{"inputs":[{"internalType":"address","name":"owner","type":"address"},{"internalType":"uint256","name":"index","type":"uint256"}],"name":"tokenOfOwnerByIndex","outputs":[{"internalType":"uint256","name":"","type":"uint256"}],"stateMutability":"view","type":"function"},{"inputs":[{"internalType":"uint256","name":"tokenId","type":"uint256"}],"name":"tokenURI","outputs":[{"internalType":"string","name":"","type":"string"}],"stateMutability":"view","type":"function"},{"inputs":[],"name":"totalSupply","outputs":[{"internalType":"uint256","name":"","type":"uint256"}],"stateMutability":"view","type":"function"},{"inputs":[{"internalType":"address","name":"from","type":"address"},{"internalType":"address","name":"to","type":"address"},{"internalType":"uint256","name":"tokenId","type":"uint256"}],"name":"transferFrom","outputs":[],"stateMutability":"nonpayable","type":"function"},{"inputs":[{"internalType":"address","name":"newOwner","type":"address"}],"name":"transferOwnership","outputs":[],"stateMutability":"nonpayable","type":"function"}],"bytecode":"0x60808060405234620000c6576000549060ff8260081c1662000074575060ff8082161062000038575b6040516138849081620000cc8239f35b60ff90811916176000557f7f26b83ff96e1f2b6a682f133852f6798a09c465da95921460cefb3847402498602060405160ff8152a13862000028565b62461bcd60e51b815260206004820152602760248201527f496e697469616c697a61626c653a20636f6e747261637420697320696e697469604482015266616c697a696e6760c81b6064820152608490fd5b600080fdfe60806040818152600480361015610016575b600080fd5b600092833560e01c90816301ffc9a714611fb05750806306fdde0314611f06578063081812fc14611ede578063095ea7b314611d4457806318160ddd14611d2557806323895e7914611d0557806323b872dd146119e45780632f745c5914611c475780633644e51514611c2a5780633a46b1a814611af657806340d097c3146119f057806342842e0e146119e457806342966c68146113c25780634f6ccce71461131e578063587cde1e146112e35780635c19a95c146112bf5780636352211e1461128f578063663612af1461126657806370a0823114611240578063715018a6146111d25780637ecebe001461119a578063808ae0c21461117a5780638da5cb5b146111515780638e539e8c1461102157806395d89b4114610f3c5780639ab24eb014610efd578063a22cb46514610e2c578063a68407f614610c67578063a6ab36f214610724578063b88d4fde1461069f578063c36b933214610650578063c3cda5201461045e578063c87b56dd14610308578063d270e7ab146102df578063e985e9c51461028a578063eddd0d9c146102665763f2fde38b146101bb57600080fd5b34610262576020600319360112610262576101d4612128565b906101dd6121fe565b6001600160a01b038216156101f957506101f690612257565b51f35b608490602084519162461bcd60e51b8352820152602660248201527f4f776e61626c653a206e6577206f776e657220697320746865207a65726f206160448201527f64647265737300000000000000000000000000000000000000000000000000006064820152fd5b8280fd5b5034610262576020600319360112610262576101f6906102846121fe565b3561327c565b5050346102db57806003193601126102db576020916102a7612128565b826102b061213e565b926001600160a01b038093168152609c8652209116600052825260ff81600020541690519015158152f35b5080fd5b5050346102db57816003193601126102db576020906001600160a01b036101f854169051908152f35b509034610262576020918383600319360112610450576103a5916001600160a01b036101f8541684519161033b8361218d565b600783527f697066733a2f2f000000000000000000000000000000000000000000000000008784015285518095819482937f52207b270000000000000000000000000000000000000000000000000000000084528035908401528860248401526044830190612103565b03915afa9384156104535780946103d0575b50506103cc9051928284938452830190612103565b0390f35b909193503d8082843e6103e381846121bf565b82019183818403126102db5780519067ffffffffffffffff8211610262570182601f820112156102db57805191610419836121e2565b93610426875195866121bf565b838552858484010111610450575082916104489185806103cc960191016120e0565b9290386103b7565b80fd5b8251903d90823e3d90fd5b50346102625760c060031936011261026257610478612128565b9060243560443560643560ff8116810361064c5781421161060957855190602082017fe48329057bfd03d55e49b547132e39cffd9c1820ad7b9d4c5307691425d15adf81526001600160a01b03938488168985015285606085015260808401526080835260a083019267ffffffffffffffff93818110858211176105f457895251902090610504612f90565b9288519260208401947f1901000000000000000000000000000000000000000000000000000000000000865260228501526042840152604283526080830190838210908211176105df5791610575969594939161056d938a5260a4359260843592519020612edb565b949094612d37565b83168652610196602052848620908154916001830190550361059c5750906101f6916122af565b606490602085519162461bcd60e51b8352820152601460248201527f566f7465733a20696e76616c6964206e6f6e63650000000000000000000000006044820152fd5b604187634e487b7160e01b6000525260246000fd5b604188634e487b7160e01b6000525260246000fd5b606484602088519162461bcd60e51b8352820152601860248201527f566f7465733a207369676e6174757265206578706972656400000000000000006044820152fd5b8680fd5b503461026257602060031936011261026257356001600160a01b0381168091036102625761067c6121fe565b6101f99073ffffffffffffffffffffffffffffffffffffffff1982541617905551f35b509034610262576080600319360112610262576106ba612128565b506106c361213e565b506064359167ffffffffffffffff8311610720573660238401121561072057820135906106fb6106f2836121e2565b915191826121bf565b8181523660248385010111610720578160246020940184830137010152610011613429565b8380fd5b503461026257606060031936011261026257604435906001600160a01b03821680920361072057835460ff92838260081c161590818092610c5b575b8015610c45575b15610bdc57600192828460ff198316178955610bae575b50610789843561327c565b6024356101fb556101f89073ffffffffffffffffffffffffffffffffffffffff198254161790558451926107bc8461218d565b601684526020937f50617468206f66204e657720446576656c6f7065727300000000000000000000858201526107f061307c565b610808878a5460081c16610803816130b5565b6130b5565b81519267ffffffffffffffff93848111610b9b57806108286097546132b3565b94601f95868111610b2d575b5089908d878411600114610ab05792610aa5575b505060001982891b9260031b1c1916176097555b8151938411610a9257509082916108746098546132b3565b828111610a22575b50869183116001146109a4578992610999575b505060001982851b9260031b1c1916176098555b6108bf84875460081c166108b6816130b5565b610803816130b5565b6108c833612257565b61093a6108d361307c565b86516108de8161218d565b8481528581017f310000000000000000000000000000000000000000000000000000000000000081528954978860081c1692610919846130b5565b610922846130b5565b878151910120915190209061015f55610160556130b5565b610945575b50505051f35b7fffffffffffffffffffffffffffffffffffffffffffffffffffffffffffff00ff7f7f26b83ff96e1f2b6a682f133852f6798a09c465da95921460cefb3847402498931685558351908152a138808061093f565b01519050388061088f565b90601f198694169160988b527f2237a976fa961f5921fd19f2b03c925c725d77b20ce8f790c19709c03de4d814928b5b89828210610a0c57505084116109f3575b505050811b016098556108a3565b015160001960f88460031b161c191690553880806109e5565b83850151865589979095019493840193016109d4565b9091925060988a527f2237a976fa961f5921fd19f2b03c925c725d77b20ce8f790c19709c03de4d8148380860160051c820192898710610a89575b91869589929594930160051c01915b828110610a7a57505061087c565b60008155869550889101610a6c565b92508192610a5d565b896041602492634e487b7160e01b835252fd5b015190503880610848565b9190601f198b9516609784527f354a83ed9988f79f6038d4c7a7dadbad8af32f4ad6df893e0e5807a1b1944ff9935b8d828210610b175750508411610afe575b505050811b0160975561085c565b015160001960f88460031b161c19169055388080610af0565b8385015186558d97909501949384019301610adf565b90915060978d527f354a83ed9988f79f6038d4c7a7dadbad8af32f4ad6df893e0e5807a1b1944ff98680850160051c8201928c8610610b92575b918b91869594930160051c01915b828110610b83575050610834565b600081558594508b9101610b75565b92508192610b67565b60248b604184634e487b7160e01b835252fd5b7fffffffffffffffffffffffffffffffffffffffffffffffffffffffffffff0000166101011787553861077e565b608484602088519162461bcd60e51b8352820152602e60248201527f496e697469616c697a61626c653a20636f6e747261637420697320616c72656160448201527f647920696e697469616c697a65640000000000000000000000000000000000006064820152fd5b50303b1580156107675750600185841614610767565b50600185841610610760565b50602060031936011261026257610c7c612128565b906001600160a01b0390610c96826101f854163314613126565b610c9f836132ed565b610dc3576101fa543410610d9c577fa8dc8af2f36e7b6e8c805cb958ef87a9c724bbe2b059fc3a15861ac509c3e4c18483851680885261019360205284828920541615610d8d575b6101f795610cfd60018854018092818a55613494565b82519182526020820152a16101fb548581610d3a575b505050602093610d2c610d32926101f954169134612b01565b906131a1565b549051908152f35b9091955060643404908160001904831182151516610d7a575060209550610d329291610d2c910291610d71838261012d54166131a1565b92829650610d13565b80601188634e487b7160e01b6024945252fd5b610d9786806122af565b610ce7565b83517f93297b34000000000000000000000000000000000000000000000000000000008152fd5b608490602085519162461bcd60e51b8352820152602260248201527f537465707320616c72656164792074616b656e2028746f6b656e206d696e746560448201527f64290000000000000000000000000000000000000000000000000000000000006064820152fd5b5034610262578160031936011261026257610e45612128565b60243590811515809203610ef9576001600160a01b031691823314610eb65750338452609c602052828420826000526020528260002060ff1981541660ff831617905582519081527f17307eab39ab6107e8899845ad3d59bd9653f200f220920489ca2b5937696c3160203392a351f35b606490602085519162461bcd60e51b8352820152601b60248201527f45524337323173623a20617070726f766520746f2063616c6c657200000000006044820152fd5b8480fd5b5050346102db5760206003193601126102db57610f35816020936001600160a01b03610f27612128565b168152610194855220612be4565b9051908152f35b5050346102db57816003193601126102db5780519082609854610f5e816132b3565b80855291600191808316908115610ff95750600114610f9c575b505050610f8a826103cc9403836121bf565b51918291602083526020830190612103565b9450609885527f2237a976fa961f5921fd19f2b03c925c725d77b20ce8f790c19709c03de4d8145b828610610fe157505050610f8a8260206103cc9582010194610f78565b80546020878701810191909152909501948101610fc4565b6103cc975086935060209250610f8a94915060ff191682840152151560051b82010194610f78565b50913461045057602060031936011261045057508135914383101561110f5761019554926000905b8482106110b55750506000908315600014611077575050602091506001600160e01b036000915b5191168152f35b60001984019384116110a25750506001600160e01b03611098602093612b5b565b5054831c91611070565b906011602492634e487b7160e01b835252fd5b90936001906110ca818718831c828816612ade565b918363ffffffff6110da85612b5b565b50541611156110ed575050935b90611049565b9095508101809111156110e757601183634e487b7160e01b6000525260246000fd5b6020606492519162461bcd60e51b8352820152601a60248201527f566f7465733a20626c6f636b206e6f7420796574206d696e65640000000000006044820152fd5b5050346102db57816003193601126102db576020906001600160a01b0361012d54169051908152f35b5050346102db57816003193601126102db576020906101fb549051908152f35b5050346102db5760206003193601126102db57806020926001600160a01b036111c1612128565b168152610196845220549051908152f35b5050346102db57816003193601126102db576111ec6121fe565b60006001600160a01b0361012d9283549373ffffffffffffffffffffffffffffffffffffffff19851690555192167f8be0079c531659141344cd1fd0a4f28419497f9722a3daafe3b4186f6b6457e08284a3f35b5050346102db5760206003193601126102db57602090610f35611261612128565b6132ed565b5050346102db57816003193601126102db576020906001600160a01b036101f954169051908152f35b50913461045057602060031936011261045057506001600160a01b036112b7602093356133c2565b915191168152f35b5050346102db5760206003193601126102db576101f66112dd612128565b336122af565b5050346102db5760206003193601126102db57602091816001600160a01b03918261130c612128565b16815261019385522054169051908152f35b508234610450576020600319360112610450575080359060cb548210156113595760208361134b84612b0e565b91905490519160031b1c8152f35b608490602084519162461bcd60e51b8352820152602e60248201527f4552433732317362456e756d657261626c653a20676c6f62616c20696e64657860448201527f206f7574206f6620626f756e64730000000000000000000000000000000000006064820152fd5b508290346102db576020806003193601126102625781356001600160a01b0391826113ec836133c2565b168033149081156119c8575b5080156119b5575b1561194d5761140e826133c2565b858052610193928383528488882054161580611946575b6118b15781851691821590811561181d575060cb5482895260cc8552808a8a20556801000000000000000081101561180a578261146b826001611486940160cb55612b0e565b90919082549060031b600019811b9283911b16911916179055565b60cb5491600019928381019081116117f757818a5260cc86526114ac8b8b205491612b0e565b90549060031b1c6114c08161146b84612b0e565b8a5260cc86528a8a2055808952888a81205560cb5480156117e45783016114e681612b0e565b8582549160031b1b1916905560cb55808952609b855289892073ffffffffffffffffffffffffffffffffffffffff1990818154169055848a52609a86528a8a208054908582019182116117d15755818a52609986528a8a2090815416905588847fddf252ad1be2c89b69c2b068fc378daa952ba7f163c4a11628f55a4df523b3ef828d51a46117c2575b611578612baa565b81810190811161167e5761019590815491611591612baa565b508215158061178c575b1561169157506115aa90612ffe565b91810190811161167e57906115c16115dc92612b5b565b509063ffffffff63ffffffff1983549260201b169116179055565b8552526115f78185852054168480528286862054169061274b565b6101f85416803b15610262579082809260248651809581937fdc5738be00000000000000000000000000000000000000000000000000000000835233878401525af180156116745761164857828451f35b67ffffffffffffffff8211611661575082528280828451f35b826041602492634e487b7160e01b835252fd5b84513d85823e3d90fd5b602488601189634e487b7160e01b835252fd5b9091925063ffffffff9182431161173b576116ab90612ffe565b918a51936116b88561218d565b8143168552868501926001600160e01b03809516845268010000000000000000821015611728576001820190556116ee90612b5b565b9490946117165751915163ffffffff9190921616911660201b63ffffffff19161790556115dc565b60248b808c634e487b7160e01b825252fd5b60248c60418d634e487b7160e01b835252fd5b608489878d519162461bcd60e51b8352820152602660248201527f53616665436173743a2076616c756520646f65736e27742066697420696e203360448201526532206269747360d01b6064820152fd5b508383018381116117af576117a563ffffffff91612b5b565b505416431461159b565b60248b60118c634e487b7160e01b835252fd5b6117ca612c16565b5050611570565b60248c60118d634e487b7160e01b835252fd5b60248a60318b634e487b7160e01b835252fd5b60248a60118b634e487b7160e01b835252fd5b60248960418a634e487b7160e01b835252fd5b611826906132ed565b600019810190811161189e5782895260ca855289892054818103611867575b50828952888a81205583895260c9855289892090895284528789812055611486565b848a5260c986528a8a20828b5286528a8a2054858b5260c987528b8b20828c528752808c8c20558a5260ca86528a8a20558a611845565b60248960118a634e487b7160e01b835252fd5b60848884888a898482205416935193817f3134e8a2e6d97e929a7e54011ea5485d7d196dd5f0ba4d4ef95803e8e3fc257f8187a462461bcd60e51b8352820152602b60248201527f45524337323173623a2061646472657373207a65726f206973206e6f7420612060448201527f76616c6964206f776e65720000000000000000000000000000000000000000006064820152fd5b5086611425565b8360849187519162461bcd60e51b8352820152602d60248201527f4552433732313a2063616c6c6572206973206e6f7420746f6b656e206f776e6560448201527f72206f7220617070726f766564000000000000000000000000000000000000006064820152fd5b5033836119c1846133e7565b1614611400565b865250609c815285852033865281528585205460ff16876113f8565b50505050610011612154565b509190346102db5760206003193601126102db57611a0c612128565b92611a246001600160a01b036101f854163314613126565b6101f76001815401809155825190602082019582871067ffffffffffffffff881117611ae357849596611a65949552868352611a608282613494565b6136bf565b15611a6e575051f35b611adf915191829162461bcd60e51b8352820160809060208152603460208201527f45524337323173623a207472616e7366657220746f206e6f6e2045524337323160408201527f526563656976657220696d706c656d656e74657200000000000000000000000060608201520190565b0390fd5b602486604186634e487b7160e01b835252fd5b5034610262578160031936011261026257611b0f612128565b6001600160a01b03168352610194602052818320602480359243841015611bea5782549386905b858210611b9257505083611b5b57505050506001600160e01b03602092915191168152f35b600019849692939401958611611b82575050506110986020936001600160e01b0392612b92565b601190634e487b7160e01b835252fd5b9094600190611ba7818818831c828916612ade565b918363ffffffff611bb8858a612b92565b5054161115611bcb575050945b90611b36565b909650810180911115611bc5578388601185634e487b7160e01b835252fd5b60206064928187519362461bcd60e51b85528401528201527f436865636b706f696e74733a20626c6f636b206e6f7420796574206d696e65646044820152fd5b5050346102db57816003193601126102db57602090610f35612f90565b509134610450578160031936011261045057611c61612128565b60243590611c6e816132ed565b821015611c9c5760209284926001600160a01b03849316825260c98552828220908252845220549051908152f35b608485602086519162461bcd60e51b8352820152602d60248201527f4552433732317362456e756d657261626c653a206f776e657220696e6465782060448201527f6f7574206f6620626f756e6473000000000000000000000000000000000000006064820152fd5b5050346102db57816003193601126102db576020906101fa549051908152f35b5050346102db57816003193601126102db5760209060cb549051908152f35b5034610262578160031936011261026257611d5d612128565b602435916001600160a01b03908180611d75866133c2565b16931692808414611e7557803314908115611e56575b5015611ded5750828552609b6020528385208273ffffffffffffffffffffffffffffffffffffffff19825416179055611dc3836133c2565b169251927f8c5be1e5ebec7d5bd14f71427d1e84f3dd0314c0f7b2291e5b200ac8c7c3b9258585a4f35b608490602086519162461bcd60e51b8352820152603f60248201527f45524337323173623a20617070726f76652063616c6c6572206973206e6f742060448201527f746f6b656e206f776e6572206f7220617070726f76656420666f7220616c6c006064820152fd5b90508652609c60205284862033875260205260ff858720541638611d8b565b608482602088519162461bcd60e51b8352820152602360248201527f45524337323173623a20617070726f76616c20746f2063757272656e74206f7760448201527f6e657200000000000000000000000000000000000000000000000000000000006064820152fd5b50913461045057602060031936011261045057506001600160a01b036112b7602093356133e7565b5050346102db57816003193601126102db5780519082609754611f28816132b3565b80855291600191808316908115610ff95750600114611f5357505050610f8a826103cc9403836121bf565b9450609785527f354a83ed9988f79f6038d4c7a7dadbad8af32f4ad6df893e0e5807a1b1944ff95b828610611f9857505050610f8a8260206103cc9582010194610f78565b80546020878701810191909152909501948101611f7b565b929190503461072057602060031936011261072057357fffffffff0000000000000000000000000000000000000000000000000000000081168091036107205792837f780e9d630000000000000000000000000000000000000000000000000000000060209514928315612028575b50505015158152f35b7f80ac58cd0000000000000000000000000000000000000000000000000000000082149350909183156120b6575b8315612068575b50505038808061201f565b7f01ffc9a70000000000000000000000000000000000000000000000000000000083149350909183156120a1575b50505038808061205d565b60ff9350815260658552205416388080612096565b7f5b5e139f0000000000000000000000000000000000000000000000000000000083149350612056565b60005b8381106120f35750506000910152565b81810151838201526020016120e3565b90601f19601f602093612121815180928187528780880191016120e0565b0116010190565b600435906001600160a01b038216820361001157565b602435906001600160a01b038216820361001157565b34610011576060600319360112610011576001600160a01b036004358181160361001157602435908116036100115761218b613429565b565b6040810190811067ffffffffffffffff8211176121a957604052565b634e487b7160e01b600052604160045260246000fd5b90601f601f19910116810190811067ffffffffffffffff8211176121a957604052565b67ffffffffffffffff81116121a957601f01601f191660200190565b6001600160a01b0361012d5416330361221357565b606460405162461bcd60e51b815260206004820152602060248201527f4f776e61626c653a2063616c6c6572206973206e6f7420746865206f776e65726044820152fd5b61012d9081546001600160a01b03809216928373ffffffffffffffffffffffffffffffffffffffff198316179055167f8be0079c531659141344cd1fd0a4f28419497f9722a3daafe3b4186f6b6457e06000604051a3565b91906001600160a01b039081841691600094838652612329602091610193835260409484868a2054168095878b20921697828973ffffffffffffffffffffffffffffffffffffffff19819554161790557f3134e8a2e6d97e929a7e54011ea5485d7d196dd5f0ba4d4ef95803e8e3fc257f8b8951a46132ed565b918481141580612742575b612342575b50505050509050565b80612558575b5083612355575b80612339565b83865261019481526123728387209261236d84612be4565b612ade565b90825461237e84612be4565b938115158061251e575b156123fc5761239684612ffe565b9860001983019283116123e85750976115c16123d5927fdec2bacdd2f05b59de34da9b523dff8be42e5e38e818c82fdb0bae774387a72498999a612b92565b8351928352820152a2803880808061234f565b80634e487b7160e01b602492526011600452fd5b63ffffffff8043116124cc5761241185612ffe565b9287519061241e8261218d565b8243168252858201936001600160e01b038096168552680100000000000000008210156124b8579061245591600182018155612b92565b9b909b6124a5575051915163ffffffff9190921616911660201b63ffffffff191617909655939492937fdec2bacdd2f05b59de34da9b523dff8be42e5e38e818c82fdb0bae774387a724936123d5565b80634e487b7160e01b6024925280600452fd5b60248d634e487b7160e01b81526041600452fd5b60848488519062461bcd60e51b82526004820152602660248201527f53616665436173743a2076616c756520646f65736e27742066697420696e203360448201526532206269747360d01b6064820152fd5b5060001982018281116125445761253a63ffffffff9183612b92565b5054164314612388565b60248a634e487b7160e01b81526011600452fd5b80875261019482528387206125758461257083612be4565b612b01565b81549161258181612be4565b928015158061271c575b156125fc5761259983612ffe565b9160001982019182116125e8577fdec2bacdd2f05b59de34da9b523dff8be42e5e38e818c82fdb0bae774387a72494926115c18a95936125d893612b92565b825191825285820152a238612348565b60248c634e487b7160e01b81526011600452fd5b9063ffffffff908143116126ca5761261384612ffe565b918951936126208561218d565b8143168552888501926001600160e01b038095168452680100000000000000008210156126b6579061265791600182018155612b92565b9490946126a35751915163ffffffff9190921616911660201b63ffffffff19161790557fdec2bacdd2f05b59de34da9b523dff8be42e5e38e818c82fdb0bae774387a7249186916125d8565b60248e634e487b7160e01b815280600452fd5b60248f634e487b7160e01b81526041600452fd5b6084878a519062461bcd60e51b82526004820152602660248201527f53616665436173743a2076616c756520646f65736e27742066697420696e203360448201526532206269747360d01b6064820152fd5b5060001981018181116125e85761273863ffffffff9184612b92565b505416431461258b565b50821515612334565b6001600160a01b0391821691168082141580612ad6575b61276a575050565b80612959575b50806127795750565b6000818152610194602052604081209061279282612be4565b90600182018092116123e85782546127a984612be4565b938115158061291f575b1561280f576127c184612ffe565b9260001983019283116123e857507fdec2bacdd2f05b59de34da9b523dff8be42e5e38e818c82fdb0bae774387a72494926115c16040959361280293612b92565b82519182526020820152a2565b63ffffffff8043116128cc5761282485612ffe565b92604051906128328261218d565b824316825260208201936001600160e01b038096168552680100000000000000008210156128b8579061286a91600182018155612b92565b9590956124a5575051915163ffffffff9190921616911660201b63ffffffff19161790557fdec2bacdd2f05b59de34da9b523dff8be42e5e38e818c82fdb0bae774387a72491604091612802565b602487634e487b7160e01b81526041600452fd5b608460405162461bcd60e51b815260206004820152602660248201527f53616665436173743a2076616c756520646f65736e27742066697420696e203360448201526532206269747360d01b6064820152fd5b5060001982018281116129455761293b63ffffffff9183612b92565b50541643146127b3565b602484634e487b7160e01b81526011600452fd5b60008181526101946020526040812061297181612be4565b90600019908183019283116129455780549061298c81612be4565b9482151580612a9e575b156129f3576129a485612ffe565b9383019283116123e857507fdec2bacdd2f05b59de34da9b523dff8be42e5e38e818c82fdb0bae774387a72494926115c1604095936129e293612b92565b82519182526020820152a238612770565b925063ffffffff8043116128cc57612a0a85612ffe565b9260405190612a188261218d565b824316825260208201936001600160e01b038096168552680100000000000000008210156128b85790612a5091600182018155612b92565b9590956124a5575051915163ffffffff9190921616911660201b63ffffffff19161790557fdec2bacdd2f05b59de34da9b523dff8be42e5e38e818c82fdb0bae774387a724916040916129e2565b50838301838111612ac257612ab863ffffffff9184612b92565b5054164314612996565b602482634e487b7160e01b81526011600452fd5b506001612762565b91908201809211612aeb57565b634e487b7160e01b600052601160045260246000fd5b91908203918211612aeb57565b60cb54811015612b455760cb6000527fa7ce836d032b2bf62b7e2097a8e0a6d8aeb35405ad15271e96d3b0188a1d06fb0190600090565b634e487b7160e01b600052603260045260246000fd5b6101958054821015612b45576000527f54034dca961b61bc2a3147cc0c1986762915b42723ed64155364f17a2e2967700190600090565b8054821015612b455760005260206000200190600090565b61019554600081612bbd57506000919050565b60001982019182116123e85750612bdb6001600160e01b0391612b5b565b505460201c1690565b805490600082612bf75750600092915050565b60001983019283116123e857506001600160e01b0391612bdb91612b92565b612c1e612baa565b9060018201809211612aeb576101958054612c37612baa565b9181151580612d12575b15612c6c5750612c5084612ffe565b6000198201918211612aeb576115c1612c6892612b5b565b9190565b9063ffffffff908143116128cc57612c8386612ffe565b9060405193612c918561218d565b834316855260208501916001600160e01b038094168352680100000000000000008110156121a957612cc891600182019055612b5b565b939093612cfc57612c6894511663ffffffff19845416178355511663ffffffff63ffffffff1983549260201b169116179055565b634e487b7160e01b600052600060045260246000fd5b506000198201828111612aeb57612d2d63ffffffff91612b5b565b5054164314612c41565b6005811015612ec55780612d485750565b60018103612d9457606460405162461bcd60e51b815260206004820152601860248201527f45434453413a20696e76616c6964207369676e617475726500000000000000006044820152fd5b60028103612de057606460405162461bcd60e51b815260206004820152601f60248201527f45434453413a20696e76616c6964207369676e6174757265206c656e677468006044820152fd5b60038103612e5257608460405162461bcd60e51b815260206004820152602260248201527f45434453413a20696e76616c6964207369676e6174757265202773272076616c60448201527f75650000000000000000000000000000000000000000000000000000000000006064820152fd5b600414612e5b57565b608460405162461bcd60e51b815260206004820152602260248201527f45434453413a20696e76616c6964207369676e6174757265202776272076616c60448201527f75650000000000000000000000000000000000000000000000000000000000006064820152fd5b634e487b7160e01b600052602160045260246000fd5b9291907f7fffffffffffffffffffffffffffffff5d576e7357a4501ddfe92f46681b20a08311612f845760ff16601b81141580612f79575b612f6d579160809493916020936040519384528484015260408301526060820152600093849182805260015afa15612f605781516001600160a01b03811615612f5a579190565b50600190565b50604051903d90823e3d90fd5b50505050600090600490565b50601c811415612f13565b50505050600090600390565b61015f54610160546040519060208201927f8b73c3c69bb8fe3d512ecc4cf759cc79239f7b179b0ffacaa9a75d522b39400f8452604083015260608201524660808201523060a082015260a0815260c0810181811067ffffffffffffffff8211176121a95760405251902090565b6001600160e01b0390818111613012571690565b608460405162461bcd60e51b815260206004820152602760248201527f53616665436173743a2076616c756520646f65736e27742066697420696e203260448201527f32342062697473000000000000000000000000000000000000000000000000006064820152fd5b604051906130898261218d565b600482527f504f4e44000000000000000000000000000000000000000000000000000000006020830152565b156130bc57565b608460405162461bcd60e51b815260206004820152602b60248201527f496e697469616c697a61626c653a20636f6e7472616374206973206e6f74206960448201527f6e697469616c697a696e670000000000000000000000000000000000000000006064820152fd5b1561312d57565b606460405162461bcd60e51b815260206004820152600a60248201527f4e6f74204d696e746572000000000000000000000000000000000000000000006044820152fd5b3d1561319c573d90613182826121e2565b9161319060405193846121bf565b82523d6000602084013e565b606090565b81471061323857600080929181926001600160a01b0360405192165af16131c6613171565b50156131ce57565b608460405162461bcd60e51b815260206004820152603a60248201527f416464726573733a20756e61626c6520746f2073656e642076616c75652c207260448201527f6563697069656e74206d617920686176652072657665727465640000000000006064820152fd5b606460405162461bcd60e51b815260206004820152601d60248201527f416464726573733a20696e73756666696369656e742062616c616e63650000006044820152fd5b6101fa7f7864bf708cae822050e5f50960a0de31bd6fe7620a8f67a48582fb95f29c114a604082548151908152846020820152a155565b90600182811c921680156132e3575b60208310146132cd57565b634e487b7160e01b600052602260045260246000fd5b91607f16916132c2565b6001600160a01b0316801561330d57600052609a60205260406000205490565b608460405162461bcd60e51b815260206004820152602b60248201527f45524337323173623a2061646472657373207a65726f206973206e6f7420612060448201527f76616c6964206f776e65720000000000000000000000000000000000000000006064820152fd5b1561337e57565b606460405162461bcd60e51b815260206004820152601a60248201527f45524337323173623a20696e76616c696420746f6b656e2049440000000000006044820152fd5b60005260996020526001600160a01b03604060002054166133e4811515613377565b90565b61340f61340a8260005260996020526001600160a01b0360406000205416151590565b613377565b600052609b6020526001600160a01b036040600020541690565b50608460405162461bcd60e51b815260206004820152603060248201527f4f6e6520646f6573206e6f742073696d706c79207472616e736665722070617260448201527f7473206f6620796f757220736f756c21000000000000000000000000000000006064820152fd5b9190916001600160a01b03808216918215613655576134c98560005260996020526001600160a01b0360406000205416151590565b61361157600083815261019360208181526040938585852054161580613609575b6135fa575b60cb5489855260cc83528086862055680100000000000000008110156135e657906112618a61146b846001613527960160cb55612b0e565b86845260c982528484208185528252888585205588845260ca825284842055858352609a8152838320978854600181018091116135d25761218b989955808452609982528484208773ffffffffffffffffffffffffffffffffffffffff1982541617905586847fddf252ad1be2c89b69c2b068fc378daa952ba7f163c4a11628f55a4df523b3ef818851a46135ba612c16565b5050828052528282822054169381522054169061274b565b602485634e487b7160e01b81526011600452fd5b602485634e487b7160e01b81526041600452fd5b61360481806122af565b6134ef565b5060016134ea565b606460405162461bcd60e51b815260206004820152601e60248201527f45524337323173623a20746f6b656e20616c7265616479206d696e74656400006044820152fd5b608460405162461bcd60e51b815260206004820152602260248201527f45524337323173623a206d696e7420746f20746865207a65726f20616464726560448201527f73730000000000000000000000000000000000000000000000000000000000006064820152fd5b9091600091803b156138455761372b6020916001600160a01b0393856040519586809581947f150b7a02000000000000000000000000000000000000000000000000000000009b8c84523360048501528560248501526044840152608060648401526084830190612103565b0393165af1908290826137e5575b50506137bf57613747613171565b805190816137ba5760405162461bcd60e51b815260206004820152603460248201527f45524337323173623a207472616e7366657220746f206e6f6e2045524337323160448201527f526563656976657220696d706c656d656e7465720000000000000000000000006064820152608490fd5b602001fd5b7fffffffff00000000000000000000000000000000000000000000000000000000161490565b909192506020813d821161383d575b81613801602093836121bf565b810103126102db5751907fffffffff00000000000000000000000000000000000000000000000000000000821682036104505750903880613739565b3d91506137f4565b5050505060019056fea2646970667358221220219e4e1f99a3a1c1ffb7a35e4585bbd156c54cd65f503ee120ab68a6826b530264736f6c63430008100033","linkReferences":{},"deployedLinkReferences":{}}