{"_format":"hh-sol-artifact-1","contractName":"PondSBT","sourceName":"contracts/PondSBT.sol","abi":[{"inputs":[],"stateMutability":"nonpayable","type":"constructor"},{"inputs":[],"name":"PondSBT__NotEnoughEth","type":"error"},{"anonymous":false,"inputs":[{"indexed":true,"internalType":"address","name":"owner","type":"address"},{"indexed":true,"internalType":"address","name":"approved","type":"address"},{"indexed":true,"internalType":"uint256","name":"tokenId","type":"uint256"}],"name":"Approval","type":"event"},{"anonymous":false,"inputs":[{"indexed":true,"internalType":"address","name":"owner","type":"address"},{"indexed":true,"internalType":"address","name":"operator","type":"address"},{"indexed":false,"internalType":"bool","name":"approved","type":"bool"}],"name":"ApprovalForAll","type":"event"},{"anonymous":false,"inputs":[{"indexed":true,"internalType":"address","name":"delegator","type":"address"},{"indexed":true,"internalType":"address","name":"fromDelegate","type":"address"},{"indexed":true,"internalType":"address","name":"toDelegate","type":"address"}],"name":"DelegateChanged","type":"event"},{"anonymous":false,"inputs":[{"indexed":true,"internalType":"address","name":"delegate","type":"address"},{"indexed":false,"internalType":"uint256","name":"previousBalance","type":"uint256"},{"indexed":false,"internalType":"uint256","name":"newBalance","type":"uint256"}],"name":"DelegateVotesChanged","type":"event"},{"anonymous":false,"inputs":[{"indexed":false,"internalType":"uint8","name":"version","type":"uint8"}],"name":"Initialized","type":"event"},{"anonymous":false,"inputs":[{"indexed":false,"internalType":"uint256","name":"oldFee","type":"uint256"},{"indexed":false,"internalType":"uint256","name":"newFee","type":"uint256"}],"name":"MintFeeUpdated","type":"event"},{"anonymous":false,"inputs":[{"indexed":true,"internalType":"address","name":"previousOwner","type":"address"},{"indexed":true,"internalType":"address","name":"newOwner","type":"address"}],"name":"OwnershipTransferred","type":"event"},{"anonymous":false,"inputs":[{"indexed":false,"internalType":"address","name":"soulOwner","type":"address"},{"indexed":false,"internalType":"uint256","name":"tokenId","type":"uint256"}],"name":"SoulBounded","type":"event"},{"anonymous":false,"inputs":[{"indexed":true,"internalType":"address","name":"from","type":"address"},{"indexed":true,"internalType":"address","name":"to","type":"address"},{"indexed":true,"internalType":"uint256","name":"tokenId","type":"uint256"}],"name":"Transfer","type":"event"},{"inputs":[],"name":"DOMAIN_SEPARATOR","outputs":[{"internalType":"bytes32","name":"","type":"bytes32"}],"stateMutability":"view","type":"function"},{"inputs":[{"internalType":"address","name":"to","type":"address"},{"internalType":"uint256","name":"tokenId","type":"uint256"}],"name":"approve","outputs":[],"stateMutability":"nonpayable","type":"function"},{"inputs":[{"internalType":"address","name":"owner","type":"address"}],"name":"balanceOf","outputs":[{"internalType":"uint256","name":"","type":"uint256"}],"stateMutability":"view","type":"function"},{"inputs":[{"internalType":"uint256","name":"tokenId","type":"uint256"}],"name":"burn","outputs":[],"stateMutability":"nonpayable","type":"function"},{"inputs":[{"internalType":"address","name":"delegatee","type":"address"}],"name":"delegate","outputs":[],"stateMutability":"nonpayable","type":"function"},{"inputs":[{"internalType":"address","name":"delegatee","type":"address"},{"internalType":"uint256","name":"nonce","type":"uint256"},{"internalType":"uint256","name":"expiry","type":"uint256"},{"internalType":"uint8","name":"v","type":"uint8"},{"internalType":"bytes32","name":"r","type":"bytes32"},{"internalType":"bytes32","name":"s","type":"bytes32"}],"name":"delegateBySig","outputs":[],"stateMutability":"nonpayable","type":"function"},{"inputs":[{"internalType":"address","name":"account","type":"address"}],"name":"delegates","outputs":[{"internalType":"address","name":"","type":"address"}],"stateMutability":"view","type":"function"},{"inputs":[],"name":"devPerc","outputs":[{"internalType":"uint256","name":"","type":"uint256"}],"stateMutability":"view","type":"function"},{"inputs":[{"internalType":"uint256","name":"tokenId","type":"uint256"}],"name":"getApproved","outputs":[{"internalType":"address","name":"","type":"address"}],"stateMutability":"view","type":"function"},{"inputs":[{"internalType":"uint256","name":"blockNumber","type":"uint256"}],"name":"getPastTotalSupply","outputs":[{"internalType":"uint256","name":"","type":"uint256"}],"stateMutability":"view","type":"function"},{"inputs":[{"internalType":"address","name":"account","type":"address"},{"internalType":"uint256","name":"blockNumber","type":"uint256"}],"name":"getPastVotes","outputs":[{"internalType":"uint256","name":"","type":"uint256"}],"stateMutability":"view","type":"function"},{"inputs":[{"internalType":"address","name":"account","type":"address"}],"name":"getVotes","outputs":[{"internalType":"uint256","name":"","type":"uint256"}],"stateMutability":"view","type":"function"},{"inputs":[],"name":"i_mintFee","outputs":[{"internalType":"uint256","name":"","type":"uint256"}],"stateMutability":"view","type":"function"},{"inputs":[{"internalType":"uint256","name":"mintFee","type":"uint256"},{"internalType":"uint256","name":"_devPerc","type":"uint256"},{"internalType":"contract ILilyPad","name":"mainContractAddress","type":"address"}],"name":"initialize","outputs":[],"stateMutability":"nonpayable","type":"function"},{"inputs":[{"internalType":"address","name":"owner","type":"address"},{"internalType":"address","name":"operator","type":"address"}],"name":"isApprovedForAll","outputs":[{"internalType":"bool","name":"","type":"bool"}],"stateMutability":"view","type":"function"},{"inputs":[],"name":"lilyPadTreasure","outputs":[{"internalType":"contract ILilyPadTreasure","name":"","type":"address"}],"stateMutability":"view","type":"function"},{"inputs":[],"name":"mainContract","outputs":[{"internalType":"contract ILilyPad","name":"","type":"address"}],"stateMutability":"view","type":"function"},{"inputs":[],"name":"name","outputs":[{"internalType":"string","name":"","type":"string"}],"stateMutability":"view","type":"function"},{"inputs":[{"internalType":"address","name":"owner","type":"address"}],"name":"nonces","outputs":[{"internalType":"uint256","name":"","type":"uint256"}],"stateMutability":"view","type":"function"},{"inputs":[],"name":"owner","outputs":[{"internalType":"address","name":"","type":"address"}],"stateMutability":"view","type":"function"},{"inputs":[{"internalType":"uint256","name":"tokenId","type":"uint256"}],"name":"ownerOf","outputs":[{"internalType":"address","name":"","type":"address"}],"stateMutability":"view","type":"function"},{"inputs":[],"name":"renounceOwnership","outputs":[],"stateMutability":"nonpayable","type":"function"},{"inputs":[{"internalType":"address","name":"to","type":"address"}],"name":"safeMint","outputs":[],"stateMutability":"nonpayable","type":"function"},{"inputs":[{"internalType":"address","name":"from","type":"address"},{"internalType":"address","name":"to","type":"address"},{"internalType":"uint256","name":"tokenId","type":"uint256"}],"name":"safeTransferFrom","outputs":[],"stateMutability":"nonpayable","type":"function"},{"inputs":[{"internalType":"address","name":"from","type":"address"},{"internalType":"address","name":"to","type":"address"},{"internalType":"uint256","name":"tokenId","type":"uint256"},{"internalType":"bytes","name":"data","type":"bytes"}],"name":"safeTransferFrom","outputs":[],"stateMutability":"nonpayable","type":"function"},{"inputs":[{"internalType":"address","name":"operator","type":"address"},{"internalType":"bool","name":"approved","type":"bool"}],"name":"setApprovalForAll","outputs":[],"stateMutability":"nonpayable","type":"function"},{"inputs":[{"internalType":"uint256","name":"newMintFee","type":"uint256"}],"name":"setMintFee","outputs":[],"stateMutability":"nonpayable","type":"function"},{"inputs":[{"internalType":"contract ILilyPadTreasure","name":"_lilyPadTreasure","type":"address"}],"name":"setTreasureAddress","outputs":[],"stateMutability":"nonpayable","type":"function"},{"inputs":[{"internalType":"bytes4","name":"interfaceId","type":"bytes4"}],"name":"supportsInterface","outputs":[{"internalType":"bool","name":"","type":"bool"}],"stateMutability":"view","type":"function"},{"inputs":[],"name":"symbol","outputs":[{"internalType":"string","name":"","type":"string"}],"stateMutability":"view","type":"function"},{"inputs":[{"internalType":"address","name":"_member","type":"address"}],"name":"takeFirstSteps","outputs":[{"internalType":"uint256","name":"","type":"uint256"}],"stateMutability":"payable","type":"function"},{"inputs":[{"internalType":"uint256","name":"index","type":"uint256"}],"name":"tokenByIndex","outputs":[{"internalType":"uint256","name":"","type":"uint256"}],"stateMutability":"view","type":"function"},{"inputs":[{"internalType":"address","name":"owner","type":"address"},{"internalType":"uint256","name":"index","type":"uint256"}],"name":"tokenOfOwnerByIndex","outputs":[{"internalType":"uint256","name":"","type":"uint256"}],"stateMutability":"view","type":"function"},{"inputs":[{"internalType":"uint256","name":"tokenId","type":"uint256"}],"name":"tokenURI","outputs":[{"internalType":"string","name":"","type":"string"}],"stateMutability":"view","type":"function"},{"inputs":[],"name":"totalSupply","outputs":[{"internalType":"uint256","name":"","type":"uint256"}],"stateMutability":"view","type":"function"},{"inputs":[{"internalType":"address","name":"from","type":"address"},{"internalType":"address","name":"to","type":"address"},{"internalType":"uint256","name":"tokenId","type":"uint256"}],"name":"transferFrom","outputs":[],"stateMutability":"nonpayable","type":"function"},{"inputs":[{"internalType":"address","name":"newOwner","type":"address"}],"name":"transferOwnership","outputs":[],"stateMutability":"nonpayable","type":"function"}],"bytecode":"0x60806040523480156200001157600080fd5b506200001c62000022565b620000e4565b600054610100900460ff16156200008f5760405162461bcd60e51b815260206004820152602760248201527f496e697469616c697a61626c653a20636f6e747261637420697320696e697469604482015266616c697a696e6760c81b606482015260840160405180910390fd5b60005460ff9081161015620000e2576000805460ff191660ff9081179091556040519081527f7f26b83ff96e1f2b6a682f133852f6798a09c465da95921460cefb38474024989060200160405180910390a15b565b6130da80620000f46000396000f3fe60806040526004361061021a5760003560e01c806370a0823111610123578063a68407f6116100ab578063c87b56dd1161006f578063c87b56dd146105ea578063d270e7ab1461060a578063e985e9c51461062b578063eddd0d9c14610674578063f2fde38b1461069457600080fd5b8063a68407f61461055c578063a6ab36f21461056f578063b88d4fde1461058f578063c36b9332146105aa578063c3cda520146105ca57600080fd5b80638da5cb5b116100f25780638da5cb5b146104c85780638e539e8c146104e757806395d89b41146105075780639ab24eb01461051c578063a22cb4651461053c57600080fd5b806370a082311461045c578063715018a61461047c5780637ecebe0014610491578063808ae0c2146104b157600080fd5b80633a46b1a8116101a65780634f6ccce7116101755780634f6ccce7146103bb578063587cde1e146103db5780635c19a95c146103fb5780636352211e1461041b578063663612af1461043b57600080fd5b80633a46b1a81461035b57806340d097c31461037b57806342842e0e1461030657806342966c681461039b57600080fd5b806318160ddd116101ed57806318160ddd146102d057806323895e79146102ef57806323b872dd146103065780632f745c59146103265780633644e5151461034657600080fd5b806301ffc9a71461021f57806306fdde0314610254578063081812fc14610276578063095ea7b3146102ae575b600080fd5b34801561022b57600080fd5b5061023f61023a3660046129bd565b6106b4565b60405190151581526020015b60405180910390f35b34801561026057600080fd5b506102696106c5565b60405161024b9190612a2a565b34801561028257600080fd5b50610296610291366004612a3d565b610757565b6040516001600160a01b03909116815260200161024b565b3480156102ba57600080fd5b506102ce6102c9366004612a6b565b61077e565b005b3480156102dc57600080fd5b5060cb545b60405190815260200161024b565b3480156102fb57600080fd5b506102e16101fa5481565b34801561031257600080fd5b506102ce610321366004612a97565b61089a565b34801561033257600080fd5b506102e1610341366004612a6b565b6108fb565b34801561035257600080fd5b506102e1610993565b34801561036757600080fd5b506102e1610376366004612a6b565b6109a2565b34801561038757600080fd5b506102ce610396366004612ad8565b6109cc565b3480156103a757600080fd5b506102ce6103b6366004612a3d565b610a39565b3480156103c757600080fd5b506102e16103d6366004612a3d565b610aa3565b3480156103e757600080fd5b506102966103f6366004612ad8565b610b38565b34801561040757600080fd5b506102ce610416366004612ad8565b610b57565b34801561042757600080fd5b50610296610436366004612a3d565b610b66565b34801561044757600080fd5b506101f954610296906001600160a01b031681565b34801561046857600080fd5b506102e1610477366004612ad8565b610bcb565b34801561048857600080fd5b506102ce610c53565b34801561049d57600080fd5b506102e16104ac366004612ad8565b610c67565b3480156104bd57600080fd5b506102e16101fb5481565b3480156104d457600080fd5b5061012d546001600160a01b0316610296565b3480156104f357600080fd5b506102e1610502366004612a3d565b610c86565b34801561051357600080fd5b50610269610ce3565b34801561052857600080fd5b506102e1610537366004612ad8565b610cf2565b34801561054857600080fd5b506102ce610557366004612af5565b610d14565b6102e161056a366004612ad8565b610d1f565b34801561057b57600080fd5b506102ce61058a366004612b33565b610eeb565b34801561059b57600080fd5b506102ce610321366004612bdb565b3480156105b657600080fd5b506102ce6105c5366004612ad8565b6110ca565b3480156105d657600080fd5b506102ce6105e5366004612c8a565b6110f5565b3480156105f657600080fd5b50610269610605366004612a3d565b611222565b34801561061657600080fd5b506101f854610296906001600160a01b031681565b34801561063757600080fd5b5061023f610646366004612cec565b6001600160a01b039182166000908152609c6020908152604080832093909416825291909152205460ff1690565b34801561068057600080fd5b506102ce61068f366004612a3d565b6112be565b3480156106a057600080fd5b506102ce6106af366004612ad8565b6112cf565b60006106bf82611345565b92915050565b6060609780546106d490612d1a565b80601f016020809104026020016040519081016040528092919081815260200182805461070090612d1a565b801561074d5780601f106107225761010080835404028352916020019161074d565b820191906000526020600020905b81548152906001019060200180831161073057829003601f168201915b5050505050905090565b60006107628261136a565b506000908152609b60205260409020546001600160a01b031690565b600061078982610b66565b9050806001600160a01b0316836001600160a01b0316036107fd5760405162461bcd60e51b815260206004820152602360248201527f45524337323173623a20617070726f76616c20746f2063757272656e74206f776044820152623732b960e91b60648201526084015b60405180910390fd5b336001600160a01b038216148061081957506108198133610646565b61088b5760405162461bcd60e51b815260206004820152603f60248201527f45524337323173623a20617070726f76652063616c6c6572206973206e6f742060448201527f746f6b656e206f776e6572206f7220617070726f76656420666f7220616c6c0060648201526084016107f4565b61089583836113ce565b505050565b60405162461bcd60e51b815260206004820152603060248201527f4f6e6520646f6573206e6f742073696d706c79207472616e736665722070617260448201526f7473206f6620796f757220736f756c2160801b60648201526084016107f4565b600061090683610bcb565b821061096a5760405162461bcd60e51b815260206004820152602d60248201527f4552433732317362456e756d657261626c653a206f776e657220696e6465782060448201526c6f7574206f6620626f756e647360981b60648201526084016107f4565b506001600160a01b0391909116600090815260c960209081526040808320938352929052205490565b600061099d61143c565b905090565b6001600160a01b0382166000908152610194602052604081206109c590836114b9565b9392505050565b6101f8546001600160a01b03163314610a145760405162461bcd60e51b815260206004820152600a6024820152692737ba1026b4b73a32b960b11b60448201526064016107f4565b610a236101f780546001019055565b610a3681610a316101f75490565b6115c8565b50565b610a42816115e2565b6101f854604051632aebecc960e21b81523360048201526001600160a01b039091169063abafb32490602401600060405180830381600087803b158015610a8857600080fd5b505af1158015610a9c573d6000803e3d6000fd5b5050505050565b6000610aae60cb5490565b8210610b135760405162461bcd60e51b815260206004820152602e60248201527f4552433732317362456e756d657261626c653a20676c6f62616c20696e64657860448201526d206f7574206f6620626f756e647360901b60648201526084016107f4565b60cb8281548110610b2657610b26612d4e565b90600052602060002001549050919050565b6001600160a01b03908116600090815261019360205260409020541690565b33610b628183611657565b5050565b6000818152609960205260408120546001600160a01b0316806106bf5760405162461bcd60e51b815260206004820152601a60248201527f45524337323173623a20696e76616c696420746f6b656e20494400000000000060448201526064016107f4565b60006001600160a01b038216610c375760405162461bcd60e51b815260206004820152602b60248201527f45524337323173623a2061646472657373207a65726f206973206e6f7420612060448201526a3b30b634b21037bbb732b960a91b60648201526084016107f4565b506001600160a01b03166000908152609a602052604090205490565b610c5b6116d3565b610c65600061172e565b565b6001600160a01b038116600090815261019660205260408120546106bf565b6000438210610cd75760405162461bcd60e51b815260206004820152601a60248201527f566f7465733a20626c6f636b206e6f7420796574206d696e656400000000000060448201526064016107f4565b6106bf610195836114b9565b6060609880546106d490612d1a565b6001600160a01b0381166000908152610194602052604081206106bf90611781565b610b623383836117dd565b6101f8546000906001600160a01b03163314610d6a5760405162461bcd60e51b815260206004820152600a6024820152692737ba1026b4b73a32b960b11b60448201526064016107f4565b610d7382610bcb565b15610dcb5760405162461bcd60e51b815260206004820152602260248201527f537465707320616c72656164792074616b656e2028746f6b656e206d696e7465604482015261642960f01b60648201526084016107f4565b6101fa54341015610def576040516324ca5ecd60e21b815260040160405180910390fd5b6000610dfa83610b38565b6001600160a01b031603610e1257610e128283611657565b610e216101f780546001019055565b6000610e2d6101f75490565b9050610e3983826118ab565b604080516001600160a01b0385168152602081018390527fa8dc8af2f36e7b6e8c805cb958ef87a9c724bbe2b059fc3a15861ac509c3e4c1910160405180910390a16101fb5460009015610ebe576101fb54610e96606434612d7a565b610ea09190612d9c565b9050610ebe610eb861012d546001600160a01b031690565b82611a0c565b6101f954610ede906001600160a01b0316610ed98334612dbb565b611a0c565b6101f7545b949350505050565b600054610100900460ff1615808015610f0b5750600054600160ff909116105b80610f255750303b158015610f25575060005460ff166001145b610f885760405162461bcd60e51b815260206004820152602e60248201527f496e697469616c697a61626c653a20636f6e747261637420697320616c72656160448201526d191e481a5b9a5d1a585b1a5e995960921b60648201526084016107f4565b6000805460ff191660011790558015610fab576000805461ff0019166101001790555b610fb484611b25565b6101fb8390556101f880546001600160a01b0319166001600160a01b038416179055604080518082018252601681527550617468206f66204e657720446576656c6f7065727360501b602080830191909152825180840190935260048352631413d39160e21b9083015261102791611b68565b61102f611b99565b611037611bc0565b611076604051806040016040528060048152602001631413d39160e21b815250604051806040016040528060018152602001603160f81b815250611bef565b61107e611b99565b80156110c4576000805461ff0019169055604051600181527f7f26b83ff96e1f2b6a682f133852f6798a09c465da95921460cefb38474024989060200160405180910390a15b50505050565b6110d26116d3565b6101f980546001600160a01b0319166001600160a01b0392909216919091179055565b834211156111455760405162461bcd60e51b815260206004820152601860248201527f566f7465733a207369676e61747572652065787069726564000000000000000060448201526064016107f4565b604080517fe48329057bfd03d55e49b547132e39cffd9c1820ad7b9d4c5307691425d15adf60208201526001600160a01b0388169181019190915260608101869052608081018590526000906111bf906111b79060a00160405160208183030381529060405280519060200120611c20565b858585611c6e565b90506111ca81611c96565b861461120f5760405162461bcd60e51b8152602060048201526014602482015273566f7465733a20696e76616c6964206e6f6e636560601b60448201526064016107f4565b6112198188611657565b50505050505050565b6101f8546060906001600160a01b03166352207b278361125c604080518082019091526007815266697066733a2f2f60c81b602082015290565b6040518363ffffffff1660e01b8152600401611279929190612dce565b600060405180830381865afa158015611296573d6000803e3d6000fd5b505050506040513d6000823e601f3d908101601f191682016040526106bf9190810190612de7565b6112c66116d3565b610a3681611b25565b6112d76116d3565b6001600160a01b03811661133c5760405162461bcd60e51b815260206004820152602660248201527f4f776e61626c653a206e6577206f776e657220697320746865207a65726f206160448201526564647265737360d01b60648201526084016107f4565b610a368161172e565b60006001600160e01b0319821663780e9d6360e01b14806106bf57506106bf82611cbf565b6000818152609960205260409020546001600160a01b0316610a365760405162461bcd60e51b815260206004820152601a60248201527f45524337323173623a20696e76616c696420746f6b656e20494400000000000060448201526064016107f4565b6000818152609b6020526040902080546001600160a01b0319166001600160a01b038416908117909155819061140382610b66565b6001600160a01b03167f8c5be1e5ebec7d5bd14f71427d1e84f3dd0314c0f7b2291e5b200ac8c7c3b92560405160405180910390a45050565b600061099d7f8b73c3c69bb8fe3d512ecc4cf759cc79239f7b179b0ffacaa9a75d522b39400f61146c61015f5490565b610160546040805160208101859052908101839052606081018290524660808201523060a082015260009060c0016040516020818303038152906040528051906020012090509392505050565b600043821061150a5760405162461bcd60e51b815260206004820181905260248201527f436865636b706f696e74733a20626c6f636b206e6f7420796574206d696e656460448201526064016107f4565b825460005b8181101561156f5760006115238284611cff565b90508486600001828154811061153b5761153b612d4e565b60009182526020909120015463ffffffff16111561155b57809250611569565b611566816001612e5e565b91505b5061150f565b81156115b35784611581600184612dbb565b8154811061159157611591612d4e565b60009182526020909120015464010000000090046001600160e01b03166115b6565b60005b6001600160e01b031695945050505050565b610b62828260405180602001604052806000815250611d1a565b6115ec3382611d4d565b61164e5760405162461bcd60e51b815260206004820152602d60248201527f4552433732313a2063616c6c6572206973206e6f7420746f6b656e206f776e6560448201526c1c881bdc88185c1c1c9bdd9959609a1b60648201526084016107f4565b610a3681611dcb565b600061166283610b38565b6001600160a01b038481166000818152610193602052604080822080546001600160a01b031916888616908117909155905194955093928516927f3134e8a2e6d97e929a7e54011ea5485d7d196dd5f0ba4d4ef95803e8e3fc257f9190a461089581836116ce86611dd4565b611ddf565b61012d546001600160a01b03163314610c655760405162461bcd60e51b815260206004820181905260248201527f4f776e61626c653a2063616c6c6572206973206e6f7420746865206f776e657260448201526064016107f4565b61012d80546001600160a01b038381166001600160a01b0319831681179093556040519116919082907f8be0079c531659141344cd1fd0a4f28419497f9722a3daafe3b4186f6b6457e090600090a35050565b805460009080156117ca5782611798600183612dbb565b815481106117a8576117a8612d4e565b60009182526020909120015464010000000090046001600160e01b03166117cd565b60005b6001600160e01b03169392505050565b816001600160a01b0316836001600160a01b03160361183e5760405162461bcd60e51b815260206004820152601b60248201527f45524337323173623a20617070726f766520746f2063616c6c6572000000000060448201526064016107f4565b6001600160a01b038381166000818152609c6020908152604080832094871680845294825291829020805460ff191686151590811790915591519182527f17307eab39ab6107e8899845ad3d59bd9653f200f220920489ca2b5937696c31910160405180910390a3505050565b6001600160a01b03821661190c5760405162461bcd60e51b815260206004820152602260248201527f45524337323173623a206d696e7420746f20746865207a65726f206164647265604482015261737360f01b60648201526084016107f4565b6000818152609960205260409020546001600160a01b0316156119715760405162461bcd60e51b815260206004820152601e60248201527f45524337323173623a20746f6b656e20616c7265616479206d696e746564000060448201526064016107f4565b61197d60008383611f1e565b6001600160a01b0382166000908152609a602052604081208054600192906119a6908490612e5e565b909155505060008181526099602052604080822080546001600160a01b0319166001600160a01b03861690811790915590518392907fddf252ad1be2c89b69c2b068fc378daa952ba7f163c4a11628f55a4df523b3ef908290a4610b6260008383611f61565b80471015611a5c5760405162461bcd60e51b815260206004820152601d60248201527f416464726573733a20696e73756666696369656e742062616c616e636500000060448201526064016107f4565b6000826001600160a01b03168260405160006040518083038185875af1925050503d8060008114611aa9576040519150601f19603f3d011682016040523d82523d6000602084013e611aae565b606091505b50509050806108955760405162461bcd60e51b815260206004820152603a60248201527f416464726573733a20756e61626c6520746f2073656e642076616c75652c207260448201527f6563697069656e74206d6179206861766520726576657274656400000000000060648201526084016107f4565b6101fa5460408051918252602082018390527f7864bf708cae822050e5f50960a0de31bd6fe7620a8f67a48582fb95f29c114a910160405180910390a16101fa55565b600054610100900460ff16611b8f5760405162461bcd60e51b81526004016107f490612e71565b610b628282611f6c565b600054610100900460ff16610c655760405162461bcd60e51b81526004016107f490612e71565b600054610100900460ff16611be75760405162461bcd60e51b81526004016107f490612e71565b610c65611fac565b600054610100900460ff16611c165760405162461bcd60e51b81526004016107f490612e71565b610b628282611fdc565b60006106bf611c2d61143c565b8360405161190160f01b6020820152602281018390526042810182905260009060620160405160208183030381529060405280519060200120905092915050565b6000806000611c7f8787878761201f565b91509150611c8c8161210c565b5095945050505050565b6001600160a01b0381166000908152610196602052604090208054600181018255905b50919050565b60006001600160e01b031982166380ac58cd60e01b1480611cf057506001600160e01b03198216635b5e139f60e01b145b806106bf57506106bf826122c2565b6000611d0e6002848418612d7a565b6109c590848416612e5e565b611d2483836118ab565b611d3160008484846122fe565b6108955760405162461bcd60e51b81526004016107f490612ebc565b600080611d5983610b66565b9050806001600160a01b0316846001600160a01b03161480611da057506001600160a01b038082166000908152609c602090815260408083209388168352929052205460ff165b80610ee35750836001600160a01b0316611db984610757565b6001600160a01b031614949350505050565b610a36816123fc565b60006106bf82610bcb565b816001600160a01b0316836001600160a01b031614158015611e015750600081115b15610895576001600160a01b03831615611e90576001600160a01b0383166000908152610194602052604081208190611e3d906124ba856124c6565b91509150846001600160a01b03167fdec2bacdd2f05b59de34da9b523dff8be42e5e38e818c82fdb0bae774387a7248383604051611e85929190918252602082015260400190565b60405180910390a250505b6001600160a01b03821615610895576001600160a01b0382166000908152610194602052604081208190611ec7906124f4856124c6565b91509150836001600160a01b03167fdec2bacdd2f05b59de34da9b523dff8be42e5e38e818c82fdb0bae774387a7248383604051611f0f929190918252602082015260400190565b60405180910390a25050505050565b6000611f2983610b38565b6001600160a01b0316148015611f4757506001600160a01b03821615155b15611f5657611f568283611657565b610895838383612500565b6108958383836125b8565b600054610100900460ff16611f935760405162461bcd60e51b81526004016107f490612e71565b6097611f9f8382612f5e565b5060986108958282612f5e565b600054610100900460ff16611fd35760405162461bcd60e51b81526004016107f490612e71565b610c653361172e565b600054610100900460ff166120035760405162461bcd60e51b81526004016107f490612e71565b81516020928301208151919092012061015f9190915561016055565b6000807f7fffffffffffffffffffffffffffffff5d576e7357a4501ddfe92f46681b20a08311156120565750600090506003612103565b8460ff16601b1415801561206e57508460ff16601c14155b1561207f5750600090506004612103565b6040805160008082526020820180845289905260ff881692820192909252606081018690526080810185905260019060a0016020604051602081039080840390855afa1580156120d3573d6000803e3d6000fd5b5050604051601f1901519150506001600160a01b0381166120fc57600060019250925050612103565b9150600090505b94509492505050565b60008160048111156121205761212061301e565b036121285750565b600181600481111561213c5761213c61301e565b036121895760405162461bcd60e51b815260206004820152601860248201527f45434453413a20696e76616c6964207369676e6174757265000000000000000060448201526064016107f4565b600281600481111561219d5761219d61301e565b036121ea5760405162461bcd60e51b815260206004820152601f60248201527f45434453413a20696e76616c6964207369676e6174757265206c656e6774680060448201526064016107f4565b60038160048111156121fe576121fe61301e565b036122565760405162461bcd60e51b815260206004820152602260248201527f45434453413a20696e76616c6964207369676e6174757265202773272076616c604482015261756560f01b60648201526084016107f4565b600481600481111561226a5761226a61301e565b03610a365760405162461bcd60e51b815260206004820152602260248201527f45434453413a20696e76616c6964207369676e6174757265202776272076616c604482015261756560f01b60648201526084016107f4565b60006301ffc9a760e01b6001600160e01b0319831614806106bf5750506001600160e01b03191660009081526065602052604090205460ff1690565b60006001600160a01b0384163b156123f457604051630a85bd0160e11b81526001600160a01b0385169063150b7a0290612342903390899088908890600401613034565b6020604051808303816000875af192505050801561237d575060408051601f3d908101601f1916820190925261237a91810190613071565b60015b6123da573d8080156123ab576040519150601f19603f3d011682016040523d82523d6000602084013e6123b0565b606091505b5080516000036123d25760405162461bcd60e51b81526004016107f490612ebc565b805181602001fd5b6001600160e01b031916630a85bd0160e11b149050610ee3565b506001610ee3565b600061240782610b66565b905061241581600084611f1e565b6000828152609b6020908152604080832080546001600160a01b03191690556001600160a01b0384168352609a9091528120805460019290612458908490612dbb565b909155505060008281526099602052604080822080546001600160a01b0319169055518391906001600160a01b038416907fddf252ad1be2c89b69c2b068fc378daa952ba7f163c4a11628f55a4df523b3ef908390a4610b6281600084611f61565b60006109c58284612dbb565b6000806124e8856124e36124d988611781565b868863ffffffff16565b6125c4565b91509150935093915050565b60006109c58284612e5e565b6001600160a01b03831661255b576125568160cb8054600083815260cc60205260408120829055600182018355919091527fa7ce836d032b2bf62b7e2097a8e0a6d8aeb35405ad15271e96d3b0188a1d06fb0155565b61257e565b816001600160a01b0316836001600160a01b03161461257e5761257e83826126ea565b6001600160a01b0382166125955761089581612787565b826001600160a01b0316826001600160a01b031614610895576108958282612836565b6108958383600161287a565b81546000908190816125d586611781565b9050600082118015612613575043866125ef600185612dbb565b815481106125ff576125ff612d4e565b60009182526020909120015463ffffffff16145b1561267357612621856128d5565b8661262d600185612dbb565b8154811061263d5761263d612d4e565b9060005260206000200160000160046101000a8154816001600160e01b0302191690836001600160e01b031602179055506126e1565b85600001604051806040016040528061268b43612942565b63ffffffff16815260200161269f886128d5565b6001600160e01b0390811690915282546001810184556000938452602093849020835194909301519091166401000000000263ffffffff909316929092179101555b95939450505050565b600060016126f784610bcb565b6127019190612dbb565b600083815260ca6020526040902054909150808214612754576001600160a01b038416600090815260c960209081526040808320858452825280832054848452818420819055835260ca90915290208190555b50600091825260ca602090815260408084208490556001600160a01b03909416835260c981528383209183525290812055565b60cb5460009061279990600190612dbb565b600083815260cc602052604081205460cb80549394509092849081106127c1576127c1612d4e565b906000526020600020015490508060cb83815481106127e2576127e2612d4e565b600091825260208083209091019290925582815260cc909152604080822084905585825281205560cb80548061281a5761281a61308e565b6001900381819060005260206000200160009055905550505050565b600061284183610bcb565b6001600160a01b03909316600090815260c960209081526040808320868452825280832085905593825260ca9052919091209190915550565b6001600160a01b03831661289a576128976101956124f4836124c6565b50505b6001600160a01b0382166128ba576128b76101956124ba836124c6565b50505b6108956128c684610b38565b6128cf84610b38565b83611ddf565b60006001600160e01b0382111561293e5760405162461bcd60e51b815260206004820152602760248201527f53616665436173743a2076616c756520646f65736e27742066697420696e20326044820152663234206269747360c81b60648201526084016107f4565b5090565b600063ffffffff82111561293e5760405162461bcd60e51b815260206004820152602660248201527f53616665436173743a2076616c756520646f65736e27742066697420696e203360448201526532206269747360d01b60648201526084016107f4565b6001600160e01b031981168114610a3657600080fd5b6000602082840312156129cf57600080fd5b81356109c5816129a7565b60005b838110156129f55781810151838201526020016129dd565b50506000910152565b60008151808452612a168160208601602086016129da565b601f01601f19169290920160200192915050565b6020815260006109c560208301846129fe565b600060208284031215612a4f57600080fd5b5035919050565b6001600160a01b0381168114610a3657600080fd5b60008060408385031215612a7e57600080fd5b8235612a8981612a56565b946020939093013593505050565b600080600060608486031215612aac57600080fd5b8335612ab781612a56565b92506020840135612ac781612a56565b929592945050506040919091013590565b600060208284031215612aea57600080fd5b81356109c581612a56565b60008060408385031215612b0857600080fd5b8235612b1381612a56565b915060208301358015158114612b2857600080fd5b809150509250929050565b600080600060608486031215612b4857600080fd5b83359250602084013591506040840135612b6181612a56565b809150509250925092565b634e487b7160e01b600052604160045260246000fd5b604051601f8201601f1916810167ffffffffffffffff81118282101715612bab57612bab612b6c565b604052919050565b600067ffffffffffffffff821115612bcd57612bcd612b6c565b50601f01601f191660200190565b60008060008060808587031215612bf157600080fd5b8435612bfc81612a56565b93506020850135612c0c81612a56565b925060408501359150606085013567ffffffffffffffff811115612c2f57600080fd5b8501601f81018713612c4057600080fd5b8035612c53612c4e82612bb3565b612b82565b818152886020838501011115612c6857600080fd5b8160208401602083013760006020838301015280935050505092959194509250565b60008060008060008060c08789031215612ca357600080fd5b8635612cae81612a56565b95506020870135945060408701359350606087013560ff81168114612cd257600080fd5b9598949750929560808101359460a0909101359350915050565b60008060408385031215612cff57600080fd5b8235612d0a81612a56565b91506020830135612b2881612a56565b600181811c90821680612d2e57607f821691505b602082108103611cb957634e487b7160e01b600052602260045260246000fd5b634e487b7160e01b600052603260045260246000fd5b634e487b7160e01b600052601160045260246000fd5b600082612d9757634e487b7160e01b600052601260045260246000fd5b500490565b6000816000190483118215151615612db657612db6612d64565b500290565b818103818111156106bf576106bf612d64565b828152604060208201526000610ee360408301846129fe565b600060208284031215612df957600080fd5b815167ffffffffffffffff811115612e1057600080fd5b8201601f81018413612e2157600080fd5b8051612e2f612c4e82612bb3565b818152856020838501011115612e4457600080fd5b612e558260208301602086016129da565b95945050505050565b808201808211156106bf576106bf612d64565b6020808252602b908201527f496e697469616c697a61626c653a20636f6e7472616374206973206e6f74206960408201526a6e697469616c697a696e6760a81b606082015260800190565b60208082526034908201527f45524337323173623a207472616e7366657220746f206e6f6e204552433732316040820152732932b1b2b4bb32b91034b6b83632b6b2b73a32b960611b606082015260800190565b601f82111561089557600081815260208120601f850160051c81016020861015612f375750805b601f850160051c820191505b81811015612f5657828155600101612f43565b505050505050565b815167ffffffffffffffff811115612f7857612f78612b6c565b612f8c81612f868454612d1a565b84612f10565b602080601f831160018114612fc15760008415612fa95750858301515b600019600386901b1c1916600185901b178555612f56565b600085815260208120601f198616915b82811015612ff057888601518255948401946001909101908401612fd1565b508582101561300e5787850151600019600388901b60f8161c191681555b5050505050600190811b01905550565b634e487b7160e01b600052602160045260246000fd5b6001600160a01b0385811682528416602082015260408101839052608060608201819052600090613067908301846129fe565b9695505050505050565b60006020828403121561308357600080fd5b81516109c5816129a7565b634e487b7160e01b600052603160045260246000fdfea26469706673582212205afe99f6adc5e0df74eff99cdd445069db341ae302b20b7908cb2e4cc90e5e2864736f6c63430008100033","linkReferences":{},"deployedLinkReferences":{}}